:020000040800F2
:1000000078050020D5000008450F0008410F0008C2
:1000100000000000000000000000000000000000E0
:100020000000000000000000000000000936000889
:100030000000000000000000073600080B36000832
:10004000000000000000000000000000E7000008C1
:10005000E7000008E7000008E7000008E7000008E4
:100060000000000000000000000000000000000090
:10007000E7000008E7000008E700000800000000B3
:1000800000000000E700000800000000E700000892
:10009000000000000000000000000000E700000871
:1000A00000000000E700000800000000AD38000874
:1000B0000000000000000000000000000000000040
:1000C0000348854600F0B2FA00480047BD420008E8
:1000D000780500200448804704480047FEE7FEE713
:1000E000FEE7FEE7FEE7FEE715360008C100000860
:1000F00030B50B46014600202022012409E00D46C0
:10010000D5409D4205D31D469540491B2546954047
:1001100040191546521E002DF1DC30BD03460B433D
:100120009B0703D009E008C9121F08C0042AFAD2AD
:1001300003E00B780370401C491C521EF9D2704733
:10014000D2B201E00270401C491EFBD2704700226F
:10015000F6E710B513460A4604461946FFF7F0FFC6
:10016000204610BD30B504460020034600E05B1C6D
:10017000934203D2E05CCD5C401BF8D030BD000060
:10018000F0B51FB488B00B9909980024484009992C
:10019000C00F490049080991C0070B990090490018
:1001A00049080B9109990898A64608431CD00B9959
:1001B0000A98084318D0099801244000420D4800CD
:1001C000410D099824050003000B204309900B986A
:1001D0000003000B20430B9050181C4940180022CC
:1001E00001901446104605E0002001460DB0F0BD18
:1001F000032801DA034600E003239C46C11A0AAE35
:100200000AE05F0008ADED5B4F00F75B7D43002720
:10021000AA187C41491C5B1E6145F2DD410004AB1C
:100220005A522104120C0A43240C401C0828DFDB1C
:10023000019802900099704601910090059B049AE4
:100240000799069800F0B9F8D0E700000DFCFFFF11
:10025000F0B50C465C4085B0E40FE40703944C0015
:100260000026640859009446490802460296224333
:1002700021D062460A431ED06200570D4A000E0389
:100280002303550D012402462C492405781B1B0B22
:10029000360B401823432643614600901C46501AF3
:1002A000B44103D30098401C009002E092180098DB
:1002B0005B41002803DA0020014605B0F0BD0020B4
:1002C000012109050746864611E064461D46141BB8
:1002D000B54106D36546521BB341744607430C43F0
:1002E000A646CD0740084908284392185B410546B9
:1002F0000D43EAD11046184313D0604619465040CA
:100300007140084306D06046101AB34106D201225C
:10031000002306E000220123DB0702E00122D24392
:100320005310009874460105381C6141029C039DDE
:100330000019694100F034F8BFE70000FD03000038
:10034000F0B51FB40646002082B005464024019156
:1003500000901BE0019922460F46304600F088F9D4
:10036000049A059B801A994110D3104619462246DB
:1003700000F06EF9361A8F410197224601200021C4
:10038000009F00F065F938184D4100902046641E2A
:100390000028DFDC019B00982946324607B0F0BDFB
:1003A00010B5002B08DA0024401C614192185B4113
:1003B0001A4301D14008400010BDF0B51FB482B00F
:1003C00005460C0003D0084603F0F4FA02E003F0FF
:1003D000F1FA2030024600902146284600F038F914
:1003E000049B059A04460F4618431143084314D052
:1003F000184610431BD0009840210A1A1846059948
:1004000000F036F905460E46009A0599049800F06A
:100410001FF9084305D0012004E02046394607B003
:10042000F0BD0020C11705430E432C43374300990C
:100430000E986305401A7905E40A00220C43FD0A70
:100440000A3002D500200146E9E70105101969418B
:100450000C9C0D9D00196941FFF7A2FFDFE700002A
:10046000F0B507460846584087B0C00F04904800D2
:100470000E46590040084908BC1A884105D2384642
:1004800031461E4617460B460246580040081043A8
:100490004CD0300D039040055900400D490D05909A
:1004A000401A0290402872DA18030121000B090556
:1004B0000843019004980092002805D00199524207
:1004C0000020884100920190029840210A1A019967
:1004D000009800F0BDF805460C466B4607CB00F0CF
:1004E000D8F8C0197141039A0E0D0023D717564052
:1004F0001A467A40164344D0049A002A2DD0029A14
:10050000012A039A15DC1205C01A9141012636050D
:10051000001C7141D20F059ED207009301920296F2
:100520002A462346FFF749FF07B0F0BD384631465B
:10053000FAE71605224A0F46B218C01AB741012140
:100540000905001C4F4100187F41114618187941D8
:10055000E20F10436D19644113E0E2076D08154383
:100560006408C2071443039A01261205C01A914178
:100570003605001C7141CE07400830434908C018B9
:1005800051412A462346FFF70BFFCDE7FFE70498CA
:1005900001224000C117121A00238B4104983146F2
:1005A000C417381AA141EEE730B40124E4076340D0
:1005B00030BC55E730B40124E407614030BC4FE75C
:1005C0000000E0FF4A0009030123090B1B05194342
:1005D0000A4B10B5520D9A4202DA0020014610BDB6
:1005E000064B34339A4203DC9A1A00F041F810BDEE
:1005F000034BD21800F02CF810BD0000FF030000E0
:10060000CDFBFFFF10B5002904DB0124E4074042C5
:100610008C412146002B04DB1C460123DB075242A0
:10062000A341994200D1904210BD0000064C012523
:10063000064E05E0E36807CC2B430C3C984710348A
:10064000B442F7D3FFF740FD484B0008684B000861
:1006500010B5202A04DB0146203A9140002010BD4D
:10066000914020239C1A0346E3401943904010BD5B
:1006700010B5202A04DB0846203AD040002110BDE6
:100680000B46D340D0402024A21A9140084319467B
:1006900010BD10B5202A06DBCB170846203A1041C2
:1006A000C1170B4306E00B461341D0402024A21A89
:1006B00091400843194610BDF8B506460F46002480
:1006C00000250020009000BF0EE0002508E0305D0E
:1006D00028410146009800F00DF80090681CC5B252
:1006E000082DF4DB601CC4B2BC42EEDB0098C043B2
:1006F00080B2F8BD10B50A460021C307DB0FD4074E
:10070000E40F63401946022303404C006340022477
:10071000E44304401B1998B201239B0303408C035C
:100720006340044C04401B1998B24010CB03C3181B
:1007300098B210BDFFBF000008B5054941430091C4
:1007400000BF00BF00994A1E00920029F9D108BDE0
:10075000B80B000070B504460025002600BF2C2011
:10076000005D012801D1022070BD01212C2001551E
:1007700000BF2068806808404840484000282CD1CD
:10078000206B0902884302210843206320688068A7
:10079000890708432168886000F0A8FA064611E03E
:1007A00000F0A4FA801B02280CD9206B0221884398
:1007B00010210843206300BF00212C20015500BFF9
:1007C0000120D1E720688068C00FC0070028E7D16A
:1007D000206B02218843206304E0206B2021084322
:1007E0002063012500BF00212C20015500BF2846B1
:1007F000BAE70000F8B504460D4600260020009038
:10080000A06A002815D0A06A012812D0A06A022888
:100810000FD0A06A03280CD0A06A042809D0A06ACF
:10082000052806D0A06A062803D0A06A072800D0B1
:1008300000BF00BF2C20005D012801D10220F8BDBF
:1008400001212C20015500BF206880680421084048
:100850008008002879D143496868884259D02068C7
:10086000806A2A7801219140084321688862A06A41
:10087000002829D0A06A012826D0A06A022823D007
:10088000A06A032820D0A06A04281DD0A06A0528E9
:100890001AD0A06A062817D0A06A072814D0A86822
:1008A000216849694907490F88420DD0206840698D
:1008B000C008C0002168486120684069297A49075A
:1008C000490F0843216848612868082802D0286831
:1008D00009283FD1244880682968082901D10905E1
:1008E00001E00121890508431F498860286808281C
:1008F00030D11E491E480068FFF7FAFB0A21484321
:10090000009002E00098401E009000980028F9D165
:1009100020E02068806A2A7801219140884321687C
:1009200088622868082802D02868092812D10E4851
:1009300080682968082902D1090502E005E0012143
:10094000890588430849886004E0206B202108431A
:100950002063012600BF00212C20015500BF304636
:100960006DE70000011000000027014040420F0029
:100970000000002070B5044600260025002C01D19F
:10098000012070BD206B002806D1606300212C205F
:100990000155204600F0B8F8206B102108400028CF
:1009A0007ED1002EFCD12068806804210840800898
:1009B0000028F5D1206B8901884302210843206378
:1009C00020688068C007C00F0121484048400028C7
:1009D0000FD12068C06818218843A16808432168A6
:1009E000C860206800690001000961680843216847
:1009F00008612068C068424908402168C860207EBC
:100A00008003617E49030843616A012902D0012104
:100A1000090300E000210843E16808432169022935
:100A200001D1042100E0002108430543A07E0128F4
:100A30000ED1607E002803D101200004054307E0A9
:100A4000206B202108432063606B01210843606311
:100A5000FF21C231E069884203D0216AE06908437E
:100A600005432068C06828432168C860A06A002840
:100A700014D0A06A012811D0A06A02280ED0A06A62
:100A800003280BD0A06A042808D0A06A052805D046
:100A9000A06A062802D0A06A07280FD1206800E0CB
:100AA00027E04069C008C0002168486120684069AB
:100AB000218D4907490F0843216848612068C068B3
:100AC00010490840A84208D100206063206B022131
:100AD000884301210843206310E0206B02218843F2
:100AE000102108432063606B0121084360630126E5
:100AF00004E0206B1021084320630126304640E7C4
:100B00001BC2FEFFE7FF3FC37047000070B50446FD
:100B100000F0ECF806462546681C002802D005487F
:100B200000682D1800BF00F0E1F8801BA842FAD33E
:100B300070BD00000C00002070B503460022CBE021
:100B4000012696400C683440002C71D04D68022D6F
:100B500002D04D68122D15D1D508AE001D462035A6
:100B6000A8595507EE0E0F25B5400646AE43304650
:100B70005607F60E0D69B5402843D508AD001E4650
:100B800020367051186856000325B5400646AE431E
:100B900030460D79AD07AD0F5600B54028431860BB
:100BA0004D68012D08D04D68022D05D04D68112DDE
:100BB00002D04D68122D18D1986856000325B54013
:100BC0000646AE4330465600CD68B540284398608F
:100BD0005868012595400646AE43304610264D68BC
:100BE00035402D09954028435860D86856000325A4
:100BF000B5400646AE43304656008D68B5402843A2
:100C0000D860012636074D683540B54263D1354D71
:100C10009608B600A8599507EE0E0F25B540064672
:100C2000AE43304605252D07AB4202D1002506E034
:100C300051E02D4DAB4201D1012500E00225960780
:100C4000F60EB5402843274D9608B600A851254D0D
:100C5000203528680546A5432846012636044D68F8
:100C60003540B54202D10546254328461D4D203565
:100C7000286068680546A5432846012676044D6825
:100C80003540B54202D1054625432846154D20354D
:100C90006860144D603D28680546A5432846012636
:100CA00036054D683540B54202D1054625432846F4
:100CB0000C4D603D286068680546A543284601261E
:100CC00076054D683540B54202D105462543284694
:100CD000044D603D6860521C0D68D540002D00D069
:100CE0002EE770BD60180240000400500148006803
:100CF00070470000040000200348006803490968A9
:100D00004018014908607047040000200C000020D2
:100D100010B50024032000F009F8002801D00124B8
:100D200001E000F033F8204610BD0000F8B504469D
:100D300000251348006800281ED0114801687D2056
:100D4000C000FFF7D5F9074639460E480068FFF79F
:100D5000CFF9064600F04CF800280BD1042C07D23E
:100D600000222146401E00F01FF80748046004E0FE
:100D7000012502E0012500E001252846F8BD00001C
:100D80000C00002000000020080000207047000038
:100D900000BFC206D20E01219140024A116000BF7D
:100DA0007047000000E100E070B504460D461646AD
:100DB0002946204600F0C8F870BD000001480068D0
:100DC000704700000000002000B5FFF7F7FF06495C
:100DD0008968072212031140090B8900034A515CFC
:100DE000C906C90EC84000BD00100240884900086D
:100DF00070B504462546681E0949884201D901207C
:100E00000CE0681E074948610321081F00F09CF8A8
:100E100000200449886107200861002070BD00009F
:100E2000FFFFFF0000E000E010B50446002C01D1F8
:100E3000012010BDA069002800D000E000BF3D20C7
:100E4000005D002805D100213C200155204600F01E
:100E500031F824213D2001552068C0680121490353
:100E600088432168C860204602F04EFC206A0028B2
:100E700002D0204602F02CFC206800690121C90242
:100E800088432168086120684069082188432168F7
:100E900048612068C0680121490308432168C8608F
:100EA0000020206420213D2001553E2001550020D6
:100EB000BFE7000010B586B004461F49206888428D
:100EC00037D100BF1D48406B012108431B494863CF
:100ED0000846406BC007C00F009000BF00BF00BFB6
:100EE0001648403000680121890308431349403106
:100EF000086008460068012189030840009000BF8F
:100F000000BF1820019002200290012003900220CF
:100F100004900120059001A905200007FFF70CFEB1
:100F2000012200211B20FFF73FFF1B20FFF730FFAE
:100F300000BF06B010BD00000038014000100240A4
:100F400000BFFEE77047000010B5002819DA1A4A02
:100F500003071B0F083B9B089B00D2588307DC0E3E
:100F6000FF23A3409A438B071B0E8407E40EA34084
:100F70001A43114B0407240F083CA408A4001A517B
:100F800018E00E4A03231B02D21883089B00D25894
:100F90008307DC0EFF23A3409A438B071B0E8407B5
:100FA000E40EA3401A43054B032424021B198408B2
:100FB000A4001A5110BD00001CED00E000E100E0AB
:100FC0001FB500BF3A4800680121090508433849A8
:100FD000086008460068012109050840009000BF2C
:100FE00000BF3448344908600120000748600021F0
:100FF00031488160C160012101610421416100210A
:10100000017641768176FF21C231C1610021016202
:1010100041628162FFF7AEFC002803D027A002F0F6
:10102000B9FC1FBD2448FFF795FB002803D02AA078
:1010300002F0B0FCF5E700200190012000030290CF
:101040000020039001A91C48FFF7D4FB002803D01F
:1010500029A002F09FFCE4E716488068C007C00F93
:10106000002805D113488068012108431149886090
:101070001C201049086008468068042108430D4977
:101080008860264C00E0641E0A480068042108407D
:10109000002801D1002CF6D1002C03D120A002F0B1
:1010A00079FCBEE703484030006800BFB9E70000A4
:1010B0004010024000240140800000205052423481
:1010C00038302041444320696E6974206661696C40
:1010D00065640D0A0000000050524234383020414F
:1010E00044432063616C6962726174696F6E20664B
:1010F00061696C65640D0A005052423438302041F9
:101100004443206368616E6E656C20636F6E666930
:1011100067206661696C65640D0A00001027000095
:10112000505242343830204144432064756D6D790B
:1011300020636F6E76657273696F6E2074696D657A
:101140006F75740D0A00000010B500201249087078
:10115000124802781248018812A002F01BFC0024F9
:1011600015E01848035D600017490A5A214617A088
:1011700002F010FC601CC117490F0918C910C90002
:10118000411A02D117A002F005FC601CC4B203484A
:1011900000788442E5DB10BD2500002024000020FB
:1011A00020000020414443206C6F67207468726502
:1011B00073686F6C643D257520636F756E743D2593
:1011C000750D0A0038010020B80000202530327566
:1011D0003A206164633D2575206269743D25750D73
:1011E0000A0000000D0A00000021094A11700121C7
:1011F000084A1170002007E000214200064B995276
:10120000064A1154411CC8B24028F5DB7047000063
:101210002400002025000020B80000203801002014
:1012200000B587B024482549086002202449088079
:1012300008202449088010202349088004202349DD
:10124000087000BF2248406B0121084320494863D1
:101250000846406BC007C00F019000BF00BF00BF31
:101260000846406B02210843194948630846406B11
:1012700002210840019000BF00BF12480088029080
:1012800001200390002004900220059002A90A4842
:10129000FFF752FC0C480088029002A90648FFF7AD
:1012A0004BFC01F08FFC00F093FF00F0DFFDFFF737
:1012B00087FE07B000BD00000004005014000020AD
:1012C000180000201A0000201C0000201E00002032
:1012D0000010024070B504460D4629462046FFF72F
:1012E000EBF970BDF0B502460B460020002112E07C
:1012F000555C00240BE007466F40FE07F60F4010D8
:10130000002E01D08C2778406D10671CFCB2082C91
:10131000F1DB4F1CF9B29942EADBF0BD0246AA2A82
:1013200003D0552A01D001207047AA2903D055299E
:1013300001D00120F8E70020F6E701464807400FFA
:10134000072801D00120704720200840002801D044
:101350000120F8E780200840002801D10120F2E7B1
:101360000020F0E701464807400F072801D0012080
:10137000704720200840002801D00120F8E7802095
:101380000840002801D00120F2E70020F0E70146E4
:101390009F2901DD012070474807400F002801D038
:1013A0000120F8E70020F6E710B5044601F0F9FB4C
:1013B000002801D0012010BD002C03D0204600F0F1
:1013C000F1FE01E001F0BCFC0020F4E7FFB58DB0B8
:1013D0000E46179F189D002D01D0FF2028700F98F2
:1013E000002807D01098002804D01698002801D0B3
:1013F000002F02D1012011B0F0BD0D98002801D1BD
:101400000120F8E7304600F0EDFC022801D1012070
:10141000F1E73046FFF7BBFF002801D00120EAE7E3
:10142000304600F0CFFE202304900146169A0D9816
:1014300001F0BDFA002801D00120DCE705A808234F
:10144000009031460F9A0D9802F08AF8002801D0DA
:101450000120D0E705A8082108AA0AAB0092019153
:1014600002900BAA0CA90D9801F056FD002801D09E
:101470000120C0E708A8007A80210840C10908A817
:10148000007A2022104040090191009008A8037AB8
:10149000027B017C51A002F07DFA5FA002F07AFA93
:1014A000002406E008A8015D60A002F073FA601C49
:1014B000C4B2082CF6DB5FA002F06CFAF0B208A907
:1014C000097C884201D0012095E7301208A9097BE8
:1014D000884201D001208EE708A8007AFFF742FF7A
:1014E000002801D0012086E7082208A80F99FEF7FE
:1014F00039FE002801D001207DE708A8017A027B8F
:10150000007C08AB00930292039101903246169B37
:101510000D99109800F0A2F8002801D001206AE788
:1015200008A8019700903246169B0D99109800F07C
:1015300097FB002801D001205DE73FA002F02AFAC6
:10154000002405E0395D39A002F024FA601CC4B221
:10155000142CF7DB37A002F01DFA08A8007B01026B
:1015600008A8007C01433B4608A80491027A0D9824
:1015700001F012FC002806D0002D02D0314800787E
:101580002870012037E7002D02D02E4800782870FF
:10159000082306AA31460D9801F009FA002801D067
:1015A000012028E728A002F0F5F9002406E006A8AB
:1015B000015D1EA002F0EEF9601CC4B2082CF6DB3F
:1015C0001CA002F0E7F9082206A80F99FEF7CAFD51
:1015D000002801D001200EE700200CE75363726160
:1015E000746368706164205441313D307825303235
:1015F00058205441323D30782530325820452F5301
:101600003D3078253032582050463D2564204141F8
:101610003D25640D0A0000005363726174636870B5
:10162000616420646174613A00000000202530325A
:10163000580000000D0A0000436F7079204D4143AF
:101640003A0000002600002052656164204D656D5F
:101650006F7279207665726966793A00FFB597B046
:1016600005460F461E46402107A8FEF770FD002DD7
:1016700006D0002F04D0002E02D02098002802D1DE
:1016800001201BB0F0BD199800F0ACFB0690069845
:10169000022801D10120F4E7199800F093FD04908D
:1016A0000698002801D1A3A200E0A4A223992298C1
:1016B0006B4607C3A348219B049A199902F06AF963
:1016C000A1A002F067F9002405E0295DA4A002F0C2
:1016D00061F9601CC4B2082CF7DBA3A002F05AF930
:1016E000A2A002F057F9002405E0395D9CA002F0A9
:1016F00051F9601CC4B2082CF7DB9BA002F04AF938
:10170000A1A002F047F9002405E0395D94A002F0A1
:1017100041F9601CC4B2072CF7DB93A002F03AF940
:10172000A0A002F037F9002405E0315D8CA002F0A2
:1017300031F9601CC4B2202CF7DB8BA002F02AF92F
:101740000698002810D19FA002F024F9002405E09B
:10175000315D83A002F01EF9601CC4B21C2CF7DBC3
:1017600081A002F017F911E0A0A002F013F9002403
:1017700007E020460830315C79A002F00BF9601CCC
:10178000C4B2142CF5DB78A002F004F9A6A002F094
:1017900001F9002406E02098015D71A002F0FAF83A
:1017A000601CC4B2082CF6DB6FA002F0F3F80698B8
:1017B00000283ED1002404E0285D07A90855601CDC
:1017C000C4B2042CF8DB002405E0315D201D07AA1B
:1017D0001154601CC4B21C2CF7DB002407E02098D5
:1017E000015D2046203007AA1154601CC4B2082CA9
:1017F000F5DB199800F0E6FCC005000F059010A974
:1018000005980871002406E0395D2046293007AAB2
:101810001154601CC4B2072CF6DB002406E0201D26
:10182000295C2C3007AA1154601CC4B2042CF6DBCE
:1018300050E0002404E0285D07A90855601CC4B2EC
:10184000042CF8DB002405E0295D201D07AA1154B3
:10185000601CC4B2042CF7DB002406E0201D295CC8
:10186000001D07AA1154601CC4B2042CF6DB00242E
:1018700007E020460830315C001D07AA1154601CA7
:10188000C4B2142CF5DB002407E02098015D20464B
:10189000203007AA1154601CC4B2082CF5DB0420C8
:1018A000059010A905980871002406E0395D2046CE
:1018B000293007AA1154601CC4B2072CF6DB00249F
:1018C00006E0201D295C2C3007AA1154601CC4B20C
:1018D000042CF6DBFF2110A801744174817480216F
:1018E000C1740021017541758175C175017641761C
:1018F00001218176B821C17652A0059902F04AF8FB
:1019000057A002F047F800240DE06007400F0028C0
:1019100002D115A002F03EF807A8015D10A002F068
:1019200039F8601CC4B2402CEFDB0FA002F032F893
:101930000020A6E64441544100000000434F4E46BB
:1019400049470000F04A0008436F7079204D414339
:1019500020696E707574207365637265743A000057
:1019600020253032580000000D0A0000436F7079C6
:10197000204D414320696E70757420524F4D206692
:10198000756C6C3A00000000436F7079204D414344
:1019900020696E70757420524F4D20757365643ADE
:1019A00000000000436F7079204D414320696E7044
:1019B00075742070616765446174615B302E2E33ED
:1019C000315D3A00436F7079204D414320696E705C
:1019D0007574207061676544617461207573656416
:1019E0005B302E2E32375D3A00000000436F707975
:1019F000204D414320696E707574205250207573DC
:101A000065642070616765446174615B382E2E32B5
:101A1000375D203D203078303038382E2E30783009
:101A20003039423A00000000436F7079204D414345
:101A300020696E707574207363726174636870617D
:101A4000643A0000436F7079204D414320696E7005
:101A50007574204D503D3078253032580D0A000005
:101A6000436F7079204D414320626C6F636B3A0085
:101A700008B50021009103E000BF0099491C0091C6
:101A800000998142F8D308BDFFB595B005460E46D2
:101A90001F46402105A8FEF75AFB002D09D0002E55
:101AA00007D0002F05D01E98002802D01F980028CC
:101AB00002D1012019B0F0BD179800F093F9012868
:101AC00001D00120F6E7002404E0285D05A90855AF
:101AD000601CC4B2042CF8DB002405E0295D201D45
:101AE00005AA1154601CC4B2042CF7DB002406E0E4
:101AF000201D295C001D05AA1154601CC4B2042CD1
:101B0000F6DB002407E020460830395C001D05AAFA
:101B10001154601CC4B2142CF5DB002407E01E989D
:101B2000015D2046203005AA1154601CC4B2082C67
:101B3000F5DB042008A90877002406E0315D204683
:101B4000293005AA1154601CC4B2072CF6DB00240E
:101B500006E0201D295C2C3005AA1154601CC4B27B
:101B6000042CF6DBFF2110A80172417281728021E2
:101B7000C1720021017341738173C1730174417497
:101B800001218174B821C174694605A801F02EF8BD
:101B900068461F9901F0D9F800208BE7FFB595B092
:101BA00005460E461F46402105A8FEF7D0FA002440
:101BB00004E0285D05A90855601CC4B2042CF8DBBC
:101BC000002405E0395D201D05AA1154601CC4B233
:101BD0001C2CF7DB002407E01E98015D2046203016
:101BE00005AA1154601CC4B2082CF5DB179800F04C
:101BF000E9FAC005000F08A90877002406E0315D66
:101C00002046293005AA1154601CC4B2072CF6DB0B
:101C1000002406E0201D295C2C3005AA1154601C0C
:101C2000C4B2042CF6DBFF2110A80172417281724C
:101C30008021C1720021017341738173C1730174EA
:101C4000417401218174B821C174694605A800F06E
:101C5000CDFF68461F9901F078F819B0F0BD00007B
:101C6000FFB583B014460D9E0C9D204600F0BAF8D7
:101C70000746002F0AD1019600952246069B04993B
:101C80000398FFF78BFF002007B0F0BD012F08D1AC
:101C9000019600952246069B04990398FFF7F4FEEF
:101CA000F2E702A001F076FE0120EDE7436F7079C4
:101CB0002053637261746368706164207461726739
:101CC0006574206164647265737320696E76616CFB
:101CD00069640D0A00000000FFB597B006460F4684
:101CE000209D402107A8FEF732FA199800F06AFA01
:101CF0000190002404E0305D07A90855601CC4B2BF
:101D0000042CF8DB002406E01A98015D201D07AAC8
:101D10001154601CC4B2202CF6DB297810A8017085
:101D200069784170A9788170E978C17001980006DE
:101D3000400F4021084310A90871002406E0395DD6
:101D40002046293007AA1154601CC4B2072CF6DBC8
:101D5000002406E0201D315C2C3007AA1154601CC1
:101D6000C4B2042CF6DB297910A80174FF21417458
:101D700081748021C1740021017541758175C1751F
:101D80000176417601218176B821C1760DA001F05E
:101D900001FE002406E007A8015D0FA001F0FAFD96
:101DA000601CC4B2402CF6DB0DA001F0F3FD02A9CB
:101DB00007A800F01BFF02A8219900F0C6FF1BB086
:101DC000F0BD000052415020686F7374204D4143B4
:101DD00020626C6F636B3A0020253032580000009F
:101DE0000D0A000001467F2901DC00207047882988
:101DF00003DB9F2901DC0120F8E70220F6E701461A
:101E0000002000E0401C012282400A40002AF9D054
:101E10007047000070B513480088FFF7F0FF0546D3
:101E200069000320884004460F4800680068A0430A
:101E30000D49096808600C480068006820430A4999
:101E40000968086008480068C068A0430649096836
:101E5000C860054800688068A04303490968886035
:101E600070BD0000180000201400002070B5144858
:101E70000088FFF7C4FF0546690003208840044638
:101E8000104800680068A0430E49096808600D48C2
:101E90000068C068A0430B490968C8600948006829
:101EA0008068A04307490968886006480068806820
:101EB0006A0003219140084302490968886070BDA7
:101EC000180000201400002010B5FFF7CFFF00F02D
:101ED00083FE00F07DF9022001F0C0FB00F061FEFE
:101EE00010BD0000FFB589B00F461D4600200790C9
:101EF0000890002404E0FF2007A90855601CC4B224
:101F0000082CF8DB002406E00B98015DA01C07AA52
:101F10001154601CC4B2052CF6DB384600F052F9AF
:101F2000069008A8C17882784378007803930492D9
:101F3000059102906846C17F807F019100906846BC
:101F4000437F027F1048069901F024FD384600F0D7
:101F500039F92B4607AA01460690099801F082F943
:101F60000646002E05D009A001F014FD01200DB099
:101F7000F0BD002D01D0287800E0FF200146134875
:101F800001F008FD0020F2E7C84900085241502046
:101F90004641494C5B315D3A206368616C6C656E0B
:101FA00067652057726974652F52656164205363B9
:101FB0007261746368706164207665726966792005
:101FC0006661696C65640D0A00000000204A000823
:101FD000FFB589B00D461E460027002004900B98DF
:101FE000002802D101200DB0F0BD802D01D00120CC
:101FF000F9E72846FFF7CBF908A8082300902946FF
:102000000B9A099801F0ACFA05A806A907AB009154
:10201000019029460B9A099801F06AF86846007DFC
:1020200080210840C1096846007D202210404009F7
:10203000019100906846037D027E017F33A001F08C
:10204000A9FCFF20F53001F00FFB0998FFF7ACF970
:102050005A2001F073FA6846007F01F06FFA684673
:10206000007E01F06BFA6846007D01F067FA0B20F4
:1020700001F0F4FA00241FE000F080FC074600F0B5
:102080007DFC04903A4621462DA0049B01F082FC81
:1020900038460499FFF742F9002800D10EE0FF2FDF
:1020A00005D10498FF2802D1052C00DD06E00120AF
:1020B00001F0D4FA601CC4B2142CDDDB00BF38463A
:1020C0000499FFF72BF9002806D025A001F062FC47
:1020D00000F067FD012086E700F063FD002801D0D5
:1020E000012080E703AA2946099800F08DFF002807
:1020F00004D02B4801F04EFC012074E7002E02D0E2
:102100006846007B307000206DE700004C4653208D
:10211000617574683A205441313D2530325820545D
:1021200041323D2530325820452F533D253032581D
:102130002050463D25642041413D25640D0A0000A4
:102140004C465320726573706F6E73655B25755DC9
:102150003A202530325820253032580D0A00000030
:102160004C6F6164204669727374205365637265B5
:10217000742072656A65637465643A207265737071
:102180006F6E7365206973206E6F7420616C746567
:10219000726E6174696E6720302F310D0A00000085
:1021A000A84A000870B50546552001F0C7F900247B
:1021B00004E0285D01F0C2F9601CC4B2082CF8DB11
:1021C00070BD00000146014808407047E0FF000074
:1021D0000248008802498862704700001C00002005
:1021E000000400501C200E4A106010468068042233
:1021F00010430B4A90600B4900E0491E08480068F4
:1022000004221040002801D10029F6D1002901D173
:102210000020704702484030006880B2F9E70000B3
:102220000024014010270000FFB583B00F461E4672
:102230000C9D002F03D0002E01D0002D05D12BA026
:1022400001F0A8FB012007B0F0BD2B4632460599EE
:10225000039800F0B1F8002801D00120F3E72846E8
:1022600039302B46009601903846059A0399FFF7BE
:1022700033FD2CA001F08EFB002407E02846393006
:10228000015D2CA001F086FB601CC4B2142CF5DBB0
:102290002AA001F07FFB1422294625312846393037
:1022A000FDF760FF00281CD025A001F073FB00247F
:1022B00012E028463930015D1438005D814209D0B2
:1022C00028463930035D1438025D214626A001F00E
:1022D00061FB03E0601CC4B2142CEADB00BF0120E8
:1022E000B1E72FA001F056FB0020ACE7524150208F
:1022F0004641494C5B305D3A206E756C6C207365CD
:10230000637265742F6368616C6C656E67652F70AE
:1023100061636B657420706172616D657465720DC7
:102320000A00000052415020686F7374204D4143F1
:102330003A20200020253032580000000D0A00000D
:10234000524150204641494C5B375D3A20686F73DB
:1023500074204D414320213D2064657669636520EA
:102360004D41430D0A0000005241502066697273CE
:1023700074204D414320646966663A20696E646545
:10238000783D2575206465766963653D2530325852
:1023900020686F73743D253032580D0A000000002C
:1023A000524150204D414320636F6D706172652032
:1023B0004F4B0D0A00000000FFB591B00E461746C6
:1023C0001C46002006900590049003900290002582
:1023D000002F01D0002C05D19FA001F0DBFA0120D5
:1023E00015B0F0BD7F2E05DD3146A7A001F0D2FA71
:1023F0000120F5E7F006C00E002805D03146AFA059
:1024000001F0C8FA0120EBE754212046FDF79FFEBA
:102410000522394620462030FDF780FE05AB3A46BE
:1024200031461198FFF75EFD002801D00120D7E763
:102430001198FEF7B9FF002804D0AEA001F0AAFA67
:102440000120CDE7A52001F079F8F0B201F076F88F
:10245000301201F073F8002504E000F08FFA6055A7
:10246000681CC5B2202DF8DB00F088FA069000F059
:1024700085FA4E21085300F081FA00024E21095BD3
:1024800008434E210853142001F0E8F8002506E027
:1024900000F074FA214625314855681CC5B2142D48
:1024A000F6DB00F06BFA5021085300F067FA0002E7
:1024B0005021095B084350210853002002901DE081
:1024C00000F05CFA049000F059FA0390522104984D
:1024D000085553210398085503990498FEF71EFFE9
:1024E000002800D10DE00498FF2803D10398FF28AD
:1024F00000D106E00298401CC0B202900298142855
:10250000DEDB00BF00F04DFB88A001F043FA0025A0
:1025100005E0615D88A001F03DFA681CC5B2202D80
:10252000F7DB58A001F036FA85A0069901F032FADF
:102530000698FF2805D088A0069901F02BFA012003
:102540004EE74E20015B90A001F024FAA52110A8CF
:1025500001704670311281702022214607A8FDF7D4
:10256000DDFDFF2108A801778FA001F013FA0025F7
:1025700006E010A8415D70A001F00CFA681CC5B21D
:10258000032DF6DB3FA001F005FA8DA001F002FA61
:10259000002506E007A8415D67A001F0FBF9681C73
:1025A000C5B2212DF6DB37A001F0F4F94E20005B17
:1025B000212307AA0321009010A800F059FD00284C
:1025C00003D086A001F0E6F902E08DA001F0E2F967
:1025D00090A001F0DFF9002507E020462530415D9D
:1025E00055A001F0D7F9681CC5B2142DF5DB25A064
:1025F00001F0D0F95020015B8AA001F0CBF9502006
:10260000005B00231A46142100902046253000F07C
:102610002FFD002803D08AA001F0BCF902E091A0B0
:1026200001F0B8F95320025D5220015D92A001F043
:10263000B1F95322115D5222105DFEF76FFE0028A2
:1026400004D094A001F0A6F90120C9E69CA001F0F5
:10265000A1F90020C4E60000524150204641494CF7
:102660005B305D3A206E756C6C206368616C6C65E4
:102670006E67652F7061636B657420706172616D48
:10268000657465720D0A0000524150204641494C64
:102690005B305D3A20616464726573732030782525
:1026A000303458206973206F7574736964652075C0
:1026B0007365722070616765730D0A005241502086
:1026C0004641494C5B305D3A2061646472657373C6
:1026D00020307825303458206973206E6F74203391
:1026E000322D6279746520616C69676E65640D0ACC
:1026F00000000000524150204641494C5B325D3A97
:102700002052657365742F524F4D2073656C65635D
:1027100074696F6E206661696C6564206265666FBE
:102720007265204135680D0A0000000052415020BA
:10273000706167653A0000002025303258000000C3
:1027400052415020736570617261746F723D3078D0
:10275000253032580D0A0000524150204641494C64
:102760005B335D3A20736570617261746F722065CE
:10277000787065637465642046462C20676F74200A
:10278000253032580D0A00005241502070616765B3
:1027900020435243313628627573293D3078253005
:1027A00034580D0A000000005241502070616765E6
:1027B0002043524320696E707574207265713A002F
:1027C00052415020706167652043524320696E700A
:1027D0007574207061796C6F61643A0052415020C9
:1027E0004641494C5B345D3A207061676520435235
:1027F000433136206D69736D617463680D0A0000A2
:102800005241502070616765204352433136204F5A
:102810004B0D0A0052415020646576696365204D76
:1028200041433A00524150204D41432043524331ED
:102830003628627573293D3078253034580D0A00EA
:10284000524150204641494C5B355D3A204D414351
:10285000204352433136206D69736D617463680D96
:102860000A000000524150204D4143204352433161
:1028700036204F4B0D0A000052415020747261699E
:102880006C65723A202530325820253032580D0AB6
:1028900000000000524150204641494C5B365D3AF1
:1028A00020747261696C65722F7374617475732022
:1028B0006C6F6F7020696E76616C69640D0A000040
:1028C00052415020747261696C6572204F4B0D0A41
:1028D0000000000070B51F4886691F4800881F4926
:1028E00088621F48008888610F20FFF7C1F8FFF752
:1028F00079FC04467820FFF7BBF81948008817498F
:1029000088621548008888612020FFF7B1F81548D3
:10291000048015480088844201DB012000E000208B
:10292000054612480078002811D011480078402848
:102930000DDA0F48007840000E490C520E480C4941
:10294000097845540A480078401C0949087028460F
:1029500070BD000000E000E01A00002000040050FC
:102960001C00002022000020200000202500002064
:1029700024000020B80000203801002070B5002598
:10298000FFF748FA002409E0FFF7A4FF002803D06E
:102990000120A0402843C5B2601CC4B2082CF3DB60
:1029A000FFF764FA142000F05FFE284670BDFFB503
:1029B00081B00D4616461F460198FEF7F5FC00282B
:1029C00002D0012005B0F0BDF02000F0B7FDE8B264
:1029D00000F0B4FD281200F0B1FD002404E0FFF780
:1029E000CDFF3055601CC4B2BC42F8DB00F0D9F812
:1029F0000020E7E770B50546002403E000202855D5
:102A0000601CC4B2082CF9DB00F0CBF8002804D01D
:102A10001BA000F0BFFF012070BD1FA000F0BAFF97
:102A2000332000F08BFDFEF7DFFB002404E0FFF70E
:102A3000A5FF2855601CC4B2082CF8DBFEF784FB08
:102A40001BA000F0A7FF002405E0295D1CA000F0FA
:102A5000A1FF601CC4B2082CF7DB08212846FEF752
:102A600041FC0646314618A000F094FF0821284694
:102A7000FEF738FC002800D1CEE70120CCE70000AB
:102A80005265616420524F4D2072657365742066F3
:102A900061696C65640D0A005265616420524F4D96
:102AA0002073656E6420307833330D0A0000000017
:102AB0005265616420524F4D207261773A000000E8
:102AC000202530325800000020435243383D3078F2
:102AD000253032580D0A0000FFB587B00D46164666
:102AE0001F46002D06D0002E04D0002F02D01098D3
:102AF000002802D101200BB0F0BD1198082801D0A8
:102B00000120F8E70798FEF74FFC002801D00120CC
:102B1000F1E7AA2000F012FDFFF730FF2870FFF761
:102B20002DFF3070FFF72AFF3870002405E0FFF713
:102B300025FF10990855601CC4B2082CF7DBFFF77D
:102B40001DFF0390FFF71AFF0290029801020398FD
:102B500008430190AA2168460174297841743178AC
:102B600081743978C174002406E01098015D201D3D
:102B700004AA1154601CC4B2082CF6DB0C2104A872
:102B8000FEF7A8FB00901298002802D01299019835
:102B9000088000990198884201D00120ABE700200D
:102BA000A9E710B5FFF714FB00F00CF8FF202D305B
:102BB00000F05AFD00F010F8012000F04FFD002059
:102BC00010BD00000248008802498862704700007A
:102BD0001A00002000040050024800880249886161
:102BE000704700001A00002000040050F3B5D3B075
:102BF0000C46002017E08600539DAD5D2D06860033
:102C0000761C539FBE5D360435438600B61CBE5D00
:102C1000360235438600F61CBE5D3543860003AFA1
:102C2000BD51451CE8B21028E5DB10201CE0C51E94
:102C3000AD0003AE75590646083EB60003AFBE5957
:102C4000754006460E3EB600BE5975400646103E1B
:102C5000B600BE5975400095009D6E00ED0F2E43E5
:102C600085007E51451CE8B25028E0DB2A4D0295D4
:102C70002A49EA43CB432A4D0195002040E014281D
:102C800008DA0D4615401E468E433543254EAD19D4
:102C900000951CE0282806DA0D4655405D40224E7E
:102CA000AD19009513E03C280BDA0D4615400E4691
:102CB0001E40354316461E4035431C4EAD19009547
:102CC00005E00D4655405D40194EAD190095029D39
:102CD0006D01029EF60E3543019EAD19860003AFCD
:102CE000BE59AE19009D75190095019313468D07C5
:102CF0008E0835432A460299009D0295451CE8B28C
:102D00005028BCDB029D25606160A260E360019DEC
:102D1000256155B0F0BD00000123456789ABCDEFBB
:102D2000F0E1D2C39979825AA1EBD96EDCBC1B8F3A
:102D3000D6C162CA01490880704700002000002007
:102D400010B5CC2000F0FAFB10BDF8B502460B46DA
:102D50000025009504240FE0A5005059002107E04C
:102D6000009D6F1CFFB200975855000A4D1CE9B238
:102D70000429F5DB651EECB2002CEDDC10680021A7
:102D800007E0009D6F1CFFB200975855000A4D1CCC
:102D9000E9B20429F5DBF8BDFEB50D4617461E461F
:102DA000FF203E490870002E01D10120FEBD2846BB
:102DB000FFF718F8022801D10120F7E72846FEF7AF
:102DC000E6FA002801D00120F0E73846FEF7CAFAFB
:102DD000002801D00120E9E7C02000F0AFFBDE2091
:102DE00000F0ACFB012000F073FB012000F070FB51
:102DF000012000F06DFB2A48FEF73AFECC2000F0DF
:102E00009DFB552000F09AFBE8B200F097FB2812DA
:102E100000F094FB384600F091FB052000F01EFC0A
:102E2000002404E0305D00F089FB601CC4B2142C67
:102E3000F8DB142000F012FC01A800F08FF90090DC
:102E400068460079154908703A46294615A000F0F1
:102E5000A1FD1EA000F09EFD002405E0315D21A033
:102E600000F098FD601CC4B2142CF7DB1FA000F02A
:102E700091FD684601791EA000F08CFD00980028A5
:102E800003D0FFF78EFE012090E7FFF78AFE0028AF
:102E900001D001208AE7002088E7000026000020FA
:102EA00034080000537465703520436F70792043F7
:102EB0004D443A20616464723D30782530345820A6
:102EC00065733D3078253032580D0A0053746570B3
:102ED0003520436F7079204D41432073656E643A0D
:102EE0000000000020253032580000000D0A0000CC
:102EF000537465703520436F707920536372617429
:102F00006368706164207374617475733D307825F3
:102F10003032580D0A000000F0B587B00D46164655
:102F20001F46002D06D0002E04D0002F02D00C9892
:102F3000002802D1012007B0F0BD0D98082801D06B
:102F40000120F8E7FF2000F0F9FAC02000F0F6FABF
:102F5000DE2000F0F3FA012000F0BAFA012000F0C0
:102F6000B7FA012000F0B4FA2648FEF781FDCC2024
:102F700000F0E4FAAA2000F0E1FAFFF7FFFC287065
:102F8000FFF7FCFC3070FFF7F9FC3870002405E017
:102F9000FFF7F4FC0C990855601CC4B2082CF7DB51
:102FA000FFF7ECFC0390FFF7E9FC029002980102A6
:102FB000039808430190AA21684601742978417456
:102FC000317881743978C174002406E00C98015D71
:102FD000201D04AA1154601CC4B2082CF6DB0C217D
:102FE00004A8FEF777F900900E98002802D00E99F9
:102FF0000198088000990198884201D001209AE741
:10300000002098E73408000070B58AB006460C46E8
:10301000154604A8082105AA07AB00920191029069
:1030200008AA09A93046FFF757FD002802D0012061
:103030000AB070BDE0B208A90979884201D0012028
:10304000F6E7201208A90978884201D00120EFE7AD
:103050006846007FFEF771F9002801D00120E7E7FC
:10306000002D02D06846007F28700020E0E70000B5
:10307000FFB58BB007460025002407E03A5D2846DF
:10308000691CCDB201A90A54601CC4B20C988442D8
:10309000F4DB002408E00D98025D2846691CCDB2DF
:1030A00001A90A54601CC4B20E988442F3DB29467D
:1030B00001A8FEF70FF90646314607A000F06AFCAA
:1030C0000AA000F067FC1498864202D001200FB0DD
:1030D000F0BD0020FBE70000524150206C6F63619F
:1030E0006C5F6372633A2530345800000D0A0000AB
:1030F000FFB587B00C4616461D46109F04A8082150
:1031000005AA0092019102903A462946119B079820
:10311000FFF7E2FC002802D001200BB0F0BD2878B8
:10312000E1B2884201D00120F7E7387821128842C5
:1031300001D00120F1E711990878FEF713F9002872
:1031400001D00120E9E70822314605A8FDF70AF879
:10315000002801D00120E0E70020DEE7FEB50546AB
:1031600088248826002001900090002D01D10420A1
:10317000FEBD0F20287000273AE0FFF7FFFB044652
:10318000FFF7FCFB06462C703346224639461AA050
:1031900000F000FC31462046FEF7C0F8002801D1BF
:1031A0002C70E5E7002C0CD1002E0AD10198401CB0
:1031B000C0B20190002000900198032813DB012089
:1031C000D6E7FF2C0CD1FF2E0AD10098401CC0B2CC
:1031D0000090002001900098032804DB0220C7E73C
:1031E000002001900090012000F038FA781CC7B24E
:1031F000142FC2DB0320BBE7436F7079206C6F6F25
:10320000705B25645D3A20253032582025303258D5
:103210000D0A0000FEB504460E460F490F4800682F
:10322000FCF766FF704307460D484069401C01905B
:103230000EE00B488569AC4202D3601B009003E0AE
:1032400001982018401B00900098B84200D300E07D
:10325000EFE700BFFEBD000040420F00000000206D
:1032600000E000E0FFB589B00D4616461F46002E6F
:1032700002D101200DB0F0BD2846FEF788F80028E5
:1032800001D00120F6E708A808233246294600901D
:10329000099800F065F9002806D06846018C38A02E
:1032A00000F078FB0120E5E708A8082103AA05AB98
:1032B00000920191029006AA07A90998FFF72CFE37
:1032C000002806D06846018C3BA000F063FB01207B
:1032D000D0E7E8B26946097F884207D0EAB268467B
:1032E000017F44A000F056FB0120C3E72812694685
:1032F000097E884207D02A126846017E4BA000F062
:1033000049FB0120B6E76846007DFEF72BF8002850
:1033100006D06846017D53A000F03CFB0120A9E7E0
:1033200000240FE003A8005D315D884208D0335DC2
:1033300003A8025D2146554800F02CFB012099E7C7
:10334000601CC4B2082CEDDB002F02D06846007D63
:1033500038706846038C027D29464DA000F01AFBA8
:10336000002406E003A8015D57A000F013FB601CD9
:10337000C4B2082CF6DB1EA000F00CFB002079E79D
:1033800057415653204641494C5B315D3A205772B4
:103390006974655363726174636870616420435239
:1033A00043206572726F722C206372633D30782502
:1033B0003034580D0A000000574156532046414909
:1033C0004C5B325D3A2053746570355F52656164C1
:1033D0005363726174636870616420435243206573
:1033E00072726F722C206372633D307825303458CE
:1033F0000D0A000057415653204641494C5B335D4E
:103400003A20544131206D69736D617463682C20DA
:10341000726561643D30782530325820657870657A
:1034200063743D3078253032580D0A0057415653A9
:10343000204641494C5B345D3A20544132206D694D
:10344000736D617463682C20726561643D3078250A
:10345000303258206578706563743D30782530329D
:10346000580D0A0057415653204641494C5B355D83
:103470003A20452F5320696E76616C69642C206573
:10348000733D3078253032580D0A0000644A000838
:1034900057415653204F4B3A20616464723D307857
:1034A0002530345820452F533D3078253032582070
:1034B0006372633D307825303458207363726174D1
:1034C00063687061643A00002025303258000000C3
:1034D00070B5044616488569002C0BD01548008845
:1034E000154988620F20FEF7C3FA12480088124976
:1034F000886118E00F4800880F4988620F20FEF7A6
:10350000B7FA0C4800880C4988610020FEF7B0FA31
:1035100008480088084988620F20FEF7A9FA054884
:103520000088054988613E212846FFF773FE70BD7B
:1035300000E000E01A0000200004005070B50446CE
:10354000FFF74AFBFEF744FE002506E0E007C00F48
:10355000FFF7BEFF6410681CC5B2082DF6DB70BD16
:10356000FFB587B00C461646002E02D101200BB0E5
:10357000F0BD0A98082801D00120F8E72046FDF7A1
:1035800006FF002801D00120F1E70798FDF70CFFA6
:10359000002801D00120EAE70F20FFF7CFFFE0B2BB
:1035A000FFF7CCFF2012FFF7C9FF0F216846017417
:1035B000447421128174002508E0705DFFF7BEFF9E
:1035C000715DE81C04AA1154681CC5B2082DF4DB17
:1035D000FFF7D4F90390FFF7D1F9029002980702A0
:1035E000039807430B2104A8FDF774FE019010987F
:1035F000002801D0109807800198874201D001204F
:10360000B5E70020B3E77047704710B5FDF774FBCE
:1036100010BD000010B50D484068000C00040C49B6
:103620000968084309494860084640680949084054
:103630000749403189880904084304494860C803A0
:10364000054988606420FDF777F810BD001002403E
:103650000001FF1FFFFF00FE00ED00E010B5044673
:103660002046FDF753FA10BDFEB50746002F00D1E6
:10367000FEBD144914480068FCF73AFD784305463E
:103680002801401B050911484069401C00900F4863
:10369000866911E00D488469A64202D3301B01906F
:1036A00003E000983018001B01900198A84200D355
:1036B00004E001982D1A2646002DEBD100BF00BF73
:1036C000D6E7000040420F000000002000E000E0CC
:1036D0004022016A1140002915D001684969920110
:1036E0009143426A11430268516101221203416A07
:1036F000914208D101684969032252039143826AC9
:103700001143026851617047FEB5044620680069A4
:10371000012149038843E168084321680861216960
:10372000A06808436169084302902068C0685E4948
:103730000840029908432168C860E0690290206847
:1037400040690121C9028843029908432168486100
:1037500020684069032109028843A1690843216860
:1037600048610121C902E06988424ED1FDF72CFB76
:1037700005466268510019226A431046FCF7B8FCFE
:1037800006466421FCF7B4FC070162685100192267
:103790006A431046FCF7ACFC0646626851001922E9
:1037A0006A431046FCF7A4FC64210090FCF7A0FCDF
:1037B00064214843301AC00032300190FCF798FC75
:1037C000F821084040003F186268510019226A43FE
:1037D0001046FCF78DFC06466268510019226A43C8
:1037E0001046FCF785FC64210090FCF781FC642105
:1037F0004843301AC00032300190FCF779FC400792
:10380000400F3818216888604CE0FDF7DDFA054666
:103810006268910019226A431046FCF769FC06466B
:103820006421FCF765FC07016268910019226A4374
:103830001046FCF75DFC06466268910019226A4357
:103840001046FCF755FC64210090FCF751FC642104
:103850004843301A000132300190FCF749FCF02156
:1038600008403F186268910019226A431046FCF72D
:103870003FFC06466268910019226A431046FCF735
:1038800037FC64210090FCF733FC64214843301A74
:10389000000132300190FCF72BFC0007000F3818B4
:1038A00021688860FEBD0000F3E9FFFF1248006850
:1038B00020210840002810D00F4840680F49104AC6
:1038C000127888540E480078401C0D4908700A4848
:1038D00000682021884308490860074800681021D3
:1038E0000840002806D001200649087002480068F8
:1038F0000148406870470000003801402C0000205B
:10390000100000201100002000BF04490968402277
:1039100011400029F9D00149486070470038014042
:103920000348806801218903084301498860704782
:103930000010024010B5154815490860E12040020A
:103940004860002112488160C160016181610C21E1
:103950004161FDF769FA0D48C068042108430B492D
:10396000C8600846C068082108430849C86008467E
:10397000C068102108430549C8600846C068202176
:1039800008430249C8600020486010BD003801406B
:103990003C0000200FB410B503A9044B044A029860
:1039A00000F0E8F810BC08BC04B01847AD420008AD
:1039B000280000202021020C01D010211046020A0C
:1039C00001D010460839020901D01046091F8208AB
:1039D00001D01046891E420801D0881E7047081A7F
:1039E000704702E008C8121F08C1002AFAD17047C8
:1039F0007047002001E001C1121F002AFBD170476F
:103A0000F0B51FB486B00998089A030D002102434F
:103A100014D05148514A18185043051411980128E0
:103A200010981AD0281A401C00264D4F4D49009678
:103A300001910490002812DA444211E01198012407
:103A400049A3012801D11098C1430698119A8460B6
:103A50000360C26041600BB0F0BD4042E4E7044641
:103A6000210500203F4A001C51410391029012E0C1
:103A7000E00707D032463B4601990098FCF780FBEF
:103A80000191009032463B4610461946FCF778FB00
:103A900006460F466410002CEAD10498039B0028C8
:103AA000029A0999089806DAFCF76AFB019B009ACA
:103AB000FCF766FB05E0FCF7CBFB019B009AFCF7EB
:103AC000C7FB04460E460022284BFCF79BFD03D89B
:103AD0000020C043014607E00022254B2046314626
:103AE000FCF7BEFCFCF76EFD102409E0002C0ADB9D
:103AF0000A220023FCF724FC079B30321A55641E6F
:103B000002460A43F2D11122641C079B121B1C19A6
:103B1000119B012B03D0012308430ED10AE0084377
:103B200004D0112010900020119077E71098151AFA
:103B30006D1E0BE01098824202DD00236D1C03E035
:103B4000824201DA00236D1E002BEED006981199F7
:103B50008260C16030C07EE701FCFFFF104D0000B5
:103B6000000014400000F03F300000000000F0436F
:103B70000000E03FFFB597B00646002518E2252873
:103B800077D100242746FD49049400E00443761CC5
:103B900032780120203A90400842F7D130782A2824
:103BA0000ED00222307801463039092916D80499FE
:103BB0000A235943303940181443761C0490F1E726
:103BC000189802C804911890002904DA01204003D3
:103BD00004434842049002200443761C30782E2887
:103BE00014D1042004437078761C2A2809D118982F
:103BF000761C80C8189009E00A214F43303FC7194E
:103C0000761C3078014630390929F5D930786C288E
:103C100010D006DC4C281AD068280ED06A2817D19C
:103C200004E0742813D07A2812D110E00120400556
:103C300004430CE00121090501E0032109050C43BF
:103C40007178814203D1012000052418761C761C6E
:103C50003078119066280BD013DC58287DD009DC11
:103C600000287BD04528F6D04628F4D047281AD122
:103C7000A5E118E0632835D0642870D0652812D1FA
:103C80009DE170286CD008DC6728F1D069287BD0D2
:103C90006E280DD06F2806D1BAE073282ED0752873
:103CA00071D0782859D01A9A199990476D1C7EE1E5
:103CB0006002400F022809D003280DD0042818986C
:103CC00001680DD00D60001D189070E11898EA177A
:103CD00001680D604A60F6E7189801680D80F2E708
:103CE0000D70F0E718986A4601781172001D18905F
:103CF0000020507202A80090012005E0189802C828
:103D0000189000200091C04361070DD5002101E00B
:103D10000199491C0191B94212DA8142F8DB009AFB
:103D2000515C0029F4D10BE0002101E00199491C0C
:103D300001918142FADB019A0099895C0029F5D151
:103D4000019904981A9B471A21463846199A00F09F
:103D500097FA0199401945180BE04FE02CE113E068
:103D60004EE0009800990078491C00911A9A199920
:103D700090470198401E0190401CF2D121463846E0
:103D80001A9B199A10E137E00A2000210090019156
:103D90006002410F022907D0189A01CA1892C2176F
:103DA0009446032908D00AE01898C01DC108C9002C
:103DB00005C91891944607E000B2C2179446042939
:103DC00002D140B2C1178C4600226146944506DA02
:103DD0000A460021404291418C462D2102E02105F6
:103DE00004D52B216A461173012103E0E10701D0BC
:103DF0002021F7E7029155E00A200AE0102008E0B0
:103E0000102000900021042004430191082703E0C2
:103E100008200021019100906002410F022907D083
:103E2000189A01CA189200229446032908D008E083
:103E30001898C01DC108C90005C91891944603E02F
:103E400080B2042900D1C0B200210291210729D5F6
:103E50001199702906D0009A1021019B4A401A43FB
:103E600005D00EE040216A461173012108E0614649
:103E7000014306D030216A46117311995173022112
:103E80000291009A0821019B4A401A430AD16146D7
:103E9000014301D1610705D530216A461173012123
:103EA0007F1E02911199582904D035A10E910DA9B8
:103EB0000D910DE037A1F9E76146019B009AFCF7EF
:103EC0003FFA0E9B8C469B5C0D9A521E0D9213700E
:103ED00061460143F0D10D9805A9081A20300190E0
:103EE000600703D501200004844300E00127019806
:103EF000874201DD381A00E0002001990090411846
:103F0000029809180498401A0490E00306D4214648
:103F10001A9B199A049800F0B3F94519002706E096
:103F200003A81A9AC05D199990476D1C7F1C0298CE
:103F30008742F5DBE0030CD521461A9B199A0498B9
:103F400000F09EF9451904E01A9A3020199990471B
:103F50006D1C0099481E00900029F5DC08E00D98C2
:103F60000D990078491C0D911A9A199990476D1C6A
:103F70000199481E01900029F1DC63E10928010044
:103F800030313233343536373839616263646566CF
:103F90000000000030313233343536373839414291
:103FA000434445460000000000F05AF94519761CCC
:103FB0003078002800D0E2E528461BB0F0BD60074D
:103FC00000D406271898C01DC108C90048680A68AF
:103FD0000831C30FDB071891190001D09CA108E03C
:103FE000210501D59BA104E0E10701D09AA100E0E1
:103FF0009AA1430011985B08109165280CD006DC4B
:10400000452809D046281DD0472841D141E06628DF
:1040100018D067283CD13CE00021112F01DB112092
:1040200000E0781C0191009008A911A8FFF7E8FCB6
:10403000139905910021119A15927F1C12980197EE
:10404000009150E00120C00703900120019008A9D1
:10405000009711A8FFF7D4FC139A14990592002237
:10406000119B009212981593059A0192002901D094
:10407000104602E0791C40180190381A01D50198C9
:1040800004E04042401E0090781C0190C01B02904A
:1040900043E0012F00DA01270021112F01DD11205B
:1040A00000E038460191009008A911A8FFF7A8FC8C
:1040B00013990591119A0021129815920091019778
:1040C00021070CD40599B94201DB019900E0019167
:1040D000012904DD159A491E515C302906D0B842E9
:1040E00001DA011D05DA0121029115E00199491E4D
:1040F000EDE7002805DC0099411800910199091AA3
:1041000003E0019A411C914200DD01910099401A9F
:10411000401C02900120C0070390200706D402999A
:104120000198814202DB0020C043029000206946D2
:10413000C87707AF012103980337C907884224D005
:10414000022011902B201290039800280CDA404294
:1041500003902D20129007E00A210398FBF7C8FF77
:1041600030317F1E039039701199481E119000293B
:10417000F2DC03980028EFD1791E1298087030788D
:10418000202108404530BF1E387006A8C01BC01D46
:10419000039010980078002800D001200199411860
:1041A0000298C0170918039809180498401A401E6D
:1041B0000490E00306D421461A9B199A049800F053
:1041C0005FF8451910980078002803D01A9A1999B9
:1041D00090476D1CE00324D521461A9B199A049838
:1041E00000F04EF845191CE00098002807DB009904
:1041F0000598884203DD1598405C199901E01999EA
:1042000030201A9A904700986D1C401C009002982C
:10421000401E0290002804D11A9A2E201999904726
:104220006D1C0199481E01900029DDDC05E03878FD
:104230001A9A7F1C199990476D1C0399481E039088
:104240000029F4DC21461A9B199A0498ACE6000078
:104250002D0000002B0000002000000000000000E6
:10426000F8B5044600251E461746880404D405E028
:1042700039462020B0476D1C641EF9D52846F8BD8C
:10428000FFB50446002581B01E46C80301D530277E
:1042900000E02027880404D505E038460399B0479C
:1042A0006D1C641EF9D5284605B0F0BD10B5034657
:1042B0000C46D8B2FFF728FB184610BDE0B0C4A1E9
:1042C00003C95B915A90C4A103C959915890C4A1E4
:1042D00003C957915690142151A8FBF738FF2021AC
:1042E00049A8FBF734FFFF204790FCF711FDFFF7CB
:1042F00017FBFFF71FFBBCA0FFF74CFBFCF790FF81
:1043000019204001FEF716FDFDF7DEFD002803D061
:10431000BDA0FFF73FFB02E0C2A0FFF73BFB5EAF93
:104320005EA8FEF767FB002810D1C3A0FFF732FBA1
:10433000002406E05EA8015DC3A0FFF72BFB601C14
:10434000C4B2082CF6DBB6A0FFF724FBC0A0FFF731
:1043500021FB002406E05AA8015DBBA0FFF71AFB71
:10436000601CC4B2082CF6DBADA0FFF713FB1823CA
:104370002CAA88213846FEF71AFB002811D1B6A0D6
:10438000FFF708FB002406E02CA8015DAEA0FFF7B4
:1043900001FB601CC4B2182CF6DBA1A0FFF7FAFAEF
:1043A00002E0B3A0FFF7F6FAA02304AA00213846E2
:1043B000FEF7FDFA00281DD1B3A0FFF7EBFA0025A8
:1043C00015E06807400F002803D12946B6A0FFF783
:1043D000E1FA04A8415D9CA0FFF7DCFA6807400FF2
:1043E000072802D18EA0FFF7D5FA681C85B2A02D50
:1043F000E7DB02E0AEA0FFF7CDFAB6A0FFF7CAFAFE
:1044000048AB5AAA80213846FDF7E2FD002805D1C5
:1044100048A80178B8A0FFF7BDFA02E0BFA0FFF7F7
:10442000B9FAC5A0FFF7B6FA32A856AB60225AA96E
:1044300000903846FDF7F8FE00283ED1C7A0FFF7F0
:10444000A9FACEA0FFF7A6FA002406E03AA8015D7B
:104450007DA0FFF79FFA601CC4B2052CF6DB70A0AC
:10446000FFF798FAC8A0FFF795FA002407E03BA8E9
:104470000130015D74A0FFF78DFA601CC4B2142CEA
:10448000F5DB67A0FFF786FAC2A0FFF783FA0024E6
:1044900007E040A80130015D6BA0FFF77BFA601CCC
:1044A000C4B2142CF5DB5EA0FFF774FA40A8028BAF
:1044B000C18ABBA0FFF76EFA02E0C3A0FFF76AFA59
:1044C000CAA0FFF767FAD2A0FFF764FA002406E05B
:1044D00058A8015D5CA0FFF75DFA601CC4B2082C0F
:1044E000F6DB4FA0FFF756FACCA0FFF753FA47A828
:1044F00051A949AA5AAB00920191029058AA0021F1
:104500003846FCF763FF0646CDA0FFF743FA0024C8
:1045100006E049A8015D4CA0FFF73CFA601CC4B25C
:10452000202CF6DB3EA0FFF735FAC8A0FFF732FAE1
:10453000002406E051A8015D43A0FFF72BFA601CA0
:10454000C4B2142CF6DB36A0FFF724FA40A8017F92
:10455000C2A0FFF71FFA002E03D1CAA0FFF71AFA74
:1045600002E0D1A0FFF716FAD9A0FFF713FA08234B
:104570005CAA00213846FEF71AFA00281AD1DDA0FD
:10458000FFF708FA002406E05CA8015D2EA0FFF703
:1045900001FA601CC4B2082CF6DB21A0FFF7FAF97F
:1045A000002E01D1DAA000E0DAA00146DBA0FFF77F
:1045B000F1F902E0DEA0FFF7EDF9FEF703FBFDF7EE
:1045C00007FE03E0FF202D30FCF7A0FAFAE7000019
:1045D00012345678ABCDEF0018293F4E5D6C7B8AC4
:1045E000FFFFFFFFFF0000000D0A50524234383039
:1045F000205059333246303032422064656D6F208E
:1046000073746172740D0A0050524234383020695C
:104610006E69742F7265736574206661696C656478
:104620000D0A0000505242343830207265736574B0
:10463000204F4B0D0A0000005052423438302052B7
:104640004F4D2049443A00002025303258000000E8
:104650005365637265743A00436F6E666967203014
:1046600078303038382D3078303039463A00000014
:104670005265616420636F6E666967206661696C6C
:1046800065640D0A0000000052656164204D656D8F
:104690006F7279203078303030302D3078303039CA
:1046A000463A0D0A000000003078253034583A00B0
:1046B00052656164204D656D6F72792030783030BD
:1046C00030302D307830303946206661696C656451
:1046D0000D0A00000D0A3D3D3D3D3D3D3D3D3D3D4A
:1046E00020537465702032203D3D3D3D3D3D3D3DB4
:1046F0003D3D0D0A000000004C6F61642046697268
:10470000737420536563726574204F4B2C20452FC2
:10471000533D3078253032580D0A00004C6F6164EB
:1047200020466972737420536563726574206661F4
:10473000696C65640D0A00000D0A3D3D3D3D3D3D3F
:104740003D3D3D3D20537465702033203D3D3D3D52
:104750003D3D3D3D3D3D0D0A000000005265616458
:104760002041757468656E74696361746564205076
:10477000616765204F4B0D0A000000004368616CC3
:104780006C656E67653A0000446576696365204D27
:1047900041433A00486F73742020204D41433A0052
:1047A000506167652043524331363D3078253034BF
:1047B000582C204D41432043524331363D3078251B
:1047C0003034580D0A000000526561642041757450
:1047D00068656E7469636174656420506167652003
:1047E0006661696C65640D0A000000000D0A3D3DBC
:1047F0003D3D3D3D3D3D3D3D2053746570203420A1
:104800003D3D3D3D3D3D3D3D3D3D0D0A000000002F
:104810005772697465446174613A00000D0A3D3D48
:104820003D3D3D3D3D3D3D3D20537465702035206F
:104830003D3D3D3D3D3D3D3D3D3D0D0A00000000FF
:1048400050616765446174613A000000486F737499
:1048500020436F7079204D41433A0000436F7079D7
:10486000205363726174636870616420726574754B
:10487000726E207374617475733D307825303258D0
:104880000D0A000041757468656E74696361746532
:104890006420436F70792053637261746368706140
:1048A00064204F4B0D0A000041757468656E746991
:1048B000636174656420436F70792053637261741F
:1048C0006368706164206661696C65640D0A00004C
:1048D0000D0A3D3D3D3D3D3D3D3D3D3D2053746513
:1048E000702036203D3D3D3D3D3D3D3D3D3D0D0A69
:1048F0000000000052656164204D656D6F72792083
:1049000030783030303020646174613A000000004B
:104910004F4B00004641494C4544000057726974B2
:1049200065207665726966792025730D0A0000009E
:1049300052656164204D656D6F7279206661696CA6
:1049400065640D0A00000000000000000000000087
:104950000000000000000000000000000000000057
:104960000000000000000000010000000200000044
:104970000300000004000000060000000700000023
:104980000800000009000000000000000000000016
:104990000000000000000000010000000200000014
:1049A0000300000004000000000000000000000000
:1049B000000000000000000000366E010000000052
:1049C0000000000000000000524150206368616C4C
:1049D0006C656E6765206C6F61643A207061676515
:1049E0003D30782530345820736372617463687089
:1049F00061643D2530325820253032582025303230
:104A00005820253032582025303258202530325851
:104A1000202530325820253032580D0A0000000081
:104A2000524150206368616C6C656E6765207665E5
:104A3000726966696564206F6E63652C206B6565BD
:104A400070207363726174636870616420666F7252
:104A50002041353A20452F533D3078253032580DCE
:104A60000A00000057415653204641494C5B365DD1
:104A70003A2064617461206D69736D6174636820AC
:104A8000696E6465783D257520726561643D307896
:104A900025303258206578706563743D3078253054
:104AA00032580D0A000000004C6F616420466972A4
:104AB00073742053656372657420706F73742D6313
:104AC0006865636B206661696C65643A20414120CA
:104AD0006973206E6F7420736574206F7220544167
:104AE0002F452F5320696E76616C69640D0A0000B2
:104AF000436F7079204D414320696E707574206159
:104B00006464723D30782530345820706167655395
:104B1000746172743D307825303458205441313DF1
:104B2000307825303258205441323D3078253032AB
:104B30005820452F533D307825303258206172651A
:104B4000613D25730D0A0000684B0008000000203D
:104B50002C000000E2390008944B00082C000020D3
:104B60004C050000F239000800366E01000000001C
:104B700004000000010000000000000000040050DC
:104B80000200080010000400E80300000000FF001D
:044B90000000000021
:04000005080000C12E
:00000001FF
