:020000040800F2
:1000000078050020D5000008450F0008410F0008C2
:1000100000000000000000000000000000000000E0
:10002000000000000000000000000000B1270008F0
:100030000000000000000000AF270008B327000800
:10004000000000000000000000000000E7000008C1
:10005000E7000008E7000008E7000008E7000008E4
:100060000000000000000000000000000000000090
:10007000E7000008E7000008E700000800000000B3
:1000800000000000E700000800000000E700000892
:10009000000000000000000000000000E700000871
:1000A00000000000E700000800000000552A0008DA
:1000B0000000000000000000000000000000000040
:1000C0000348854600F0B2FA00480047653400084E
:1000D000780500200448804704480047FEE7FEE713
:1000E000FEE7FEE7FEE7FEE7BD270008C1000008C7
:1000F00030B50B46014600202022012409E00D46C0
:10010000D5409D4205D31D469540491B2546954047
:1001100040191546521E002DF1DC30BD03460B433D
:100120009B0703D009E008C9121F08C0042AFAD2AD
:1001300003E00B780370401C491C521EF9D2704733
:10014000D2B201E00270401C491EFBD2704700226F
:10015000F6E710B513460A4604461946FFF7F0FFC6
:10016000204610BD30B504460020034600E05B1C6D
:10017000934203D2E05CCD5C401BF8D030BD000060
:10018000F0B51FB488B00B9909980024484009992C
:10019000C00F490049080991C0070B990090490018
:1001A00049080B9109990898A64608431CD00B9959
:1001B0000A98084318D0099801244000420D4800CD
:1001C000410D099824050003000B204309900B986A
:1001D0000003000B20430B9050181C4940180022CC
:1001E00001901446104605E0002001460DB0F0BD18
:1001F000032801DA034600E003239C46C11A0AAE35
:100200000AE05F0008ADED5B4F00F75B7D43002720
:10021000AA187C41491C5B1E6145F2DD410004AB1C
:100220005A522104120C0A43240C401C0828DFDB1C
:10023000019802900099704601910090059B049AE4
:100240000799069800F0B9F8D0E700000DFCFFFF11
:10025000F0B50C465C4085B0E40FE40703944C0015
:100260000026640859009446490802460296224333
:1002700021D062460A431ED06200570D4A000E0389
:100280002303550D012402462C492405781B1B0B22
:10029000360B401823432643614600901C46501AF3
:1002A000B44103D30098401C009002E092180098DB
:1002B0005B41002803DA0020014605B0F0BD0020B4
:1002C000012109050746864611E064461D46141BB8
:1002D000B54106D36546521BB341744607430C43F0
:1002E000A646CD0740084908284392185B410546B9
:1002F0000D43EAD11046184313D0604619465040CA
:100300007140084306D06046101AB34106D201225C
:10031000002306E000220123DB0702E00122D24392
:100320005310009874460105381C6141029C039DDE
:100330000019694100F034F8BFE70000FD03000038
:10034000F0B51FB40646002082B005464024019156
:1003500000901BE0019922460F46304600F088F9D4
:10036000049A059B801A994110D3104619462246DB
:1003700000F06EF9361A8F410197224601200021C4
:10038000009F00F065F938184D4100902046641E2A
:100390000028DFDC019B00982946324607B0F0BDFB
:1003A00010B5002B08DA0024401C614192185B4113
:1003B0001A4301D14008400010BDF0B51FB482B00F
:1003C00005460C0003D0084602F0C8FB02E002F02C
:1003D000C5FB2030024600902146284600F038F93F
:1003E000049B059A04460F4618431143084314D052
:1003F000184610431BD0009840210A1A1846059948
:1004000000F036F905460E46009A0599049800F06A
:100410001FF9084305D0012004E02046394607B003
:10042000F0BD0020C11705430E432C43374300990C
:100430000E986305401A7905E40A00220C43FD0A70
:100440000A3002D500200146E9E70105101969418B
:100450000C9C0D9D00196941FFF7A2FFDFE700002A
:10046000F0B507460846584087B0C00F04904800D2
:100470000E46590040084908BC1A884105D2384642
:1004800031461E4617460B460246580040081043A8
:100490004CD0300D039040055900400D490D05909A
:1004A000401A0290402872DA18030121000B090556
:1004B0000843019004980092002805D00199524207
:1004C0000020884100920190029840210A1A019967
:1004D000009800F0BDF805460C466B4607CB00F0CF
:1004E000D8F8C0197141039A0E0D0023D717564052
:1004F0001A467A40164344D0049A002A2DD0029A14
:10050000012A039A15DC1205C01A9141012636050D
:10051000001C7141D20F059ED207009301920296F2
:100520002A462346FFF749FF07B0F0BD384631465B
:10053000FAE71605224A0F46B218C01AB741012140
:100540000905001C4F4100187F41114618187941D8
:10055000E20F10436D19644113E0E2076D08154383
:100560006408C2071443039A01261205C01A914178
:100570003605001C7141CE07400830434908C018B9
:1005800051412A462346FFF70BFFCDE7FFE70498CA
:1005900001224000C117121A00238B4104983146F2
:1005A000C417381AA141EEE730B40124E4076340D0
:1005B00030BC55E730B40124E407614030BC4FE75C
:1005C0000000E0FF4A0009030123090B1B05194342
:1005D0000A4B10B5520D9A4202DA0020014610BDB6
:1005E000064B34339A4203DC9A1A00F041F810BDEE
:1005F000034BD21800F02CF810BD0000FF030000E0
:10060000CDFBFFFF10B5002904DB0124E4074042C5
:100610008C412146002B04DB1C460123DB075242A0
:10062000A341994200D1904210BD0000064C012523
:10063000064E05E0E36807CC2B430C3C984710348A
:10064000B442F7D3FFF740FD343A0008543A0008AB
:1006500010B5202A04DB0146203A9140002010BD4D
:10066000914020239C1A0346E3401943904010BD5B
:1006700010B5202A04DB0846203AD040002110BDE6
:100680000B46D340D0402024A21A9140084319467B
:1006900010BD10B5202A06DBCB170846203A1041C2
:1006A000C1170B4306E00B461341D0402024A21A89
:1006B00091400843194610BDF8B506460F46002480
:1006C00000250020009000BF0EE0002508E0305D0E
:1006D00028410146009800F00DF80090681CC5B252
:1006E000082DF4DB601CC4B2BC42EEDB0098C043B2
:1006F00080B2F8BD10B50A460021C307DB0FD4074E
:10070000E40F63401946022303404C006340022477
:10071000E44304401B1998B201239B0303408C035C
:100720006340044C04401B1998B24010CB03C3181B
:1007300098B210BDFFBF000008B5054941430091C4
:1007400000BF00BF00994A1E00920029F9D108BDE0
:10075000B80B000070B504460025002600BF2C2011
:10076000005D012801D1022070BD01212C2001551E
:1007700000BF2068806808404840484000282CD1CD
:10078000206B0902884302210843206320688068A7
:10079000890708432168886000F0A8FA064611E03E
:1007A00000F0A4FA801B02280CD9206B0221884398
:1007B00010210843206300BF00212C20015500BFF9
:1007C0000120D1E720688068C00FC0070028E7D16A
:1007D000206B02218843206304E0206B2021084322
:1007E0002063012500BF00212C20015500BF2846B1
:1007F000BAE70000F8B504460D4600260020009038
:10080000A06A002815D0A06A012812D0A06A022888
:100810000FD0A06A03280CD0A06A042809D0A06ACF
:10082000052806D0A06A062803D0A06A072800D0B1
:1008300000BF00BF2C20005D012801D10220F8BDBF
:1008400001212C20015500BF206880680421084048
:100850008008002879D143496868884259D02068C7
:10086000806A2A7801219140084321688862A06A41
:10087000002829D0A06A012826D0A06A022823D007
:10088000A06A032820D0A06A04281DD0A06A0528E9
:100890001AD0A06A062817D0A06A072814D0A86822
:1008A000216849694907490F88420DD0206840698D
:1008B000C008C0002168486120684069297A49075A
:1008C000490F0843216848612868082802D0286831
:1008D00009283FD1244880682968082901D10905E1
:1008E00001E00121890508431F498860286808281C
:1008F00030D11E491E480068FFF7FAFB0A21484321
:10090000009002E00098401E009000980028F9D165
:1009100020E02068806A2A7801219140884321687C
:1009200088622868082802D02868092812D10E4851
:1009300080682968082902D1090502E005E0012143
:10094000890588430849886004E0206B202108431A
:100950002063012600BF00212C20015500BF304636
:100960006DE70000011000000027014040420F0029
:100970000000002070B5044600260025002C01D19F
:10098000012070BD206B002806D1606300212C205F
:100990000155204600F0B8F8206B102108400028CF
:1009A0007ED1002EFCD12068806804210840800898
:1009B0000028F5D1206B8901884302210843206378
:1009C00020688068C007C00F0121484048400028C7
:1009D0000FD12068C06818218843A16808432168A6
:1009E000C860206800690001000961680843216847
:1009F00008612068C068424908402168C860207EBC
:100A00008003617E49030843616A012902D0012104
:100A1000090300E000210843E16808432169022935
:100A200001D1042100E0002108430543A07E0128F4
:100A30000ED1607E002803D101200004054307E0A9
:100A4000206B202108432063606B01210843606311
:100A5000FF21C231E069884203D0216AE06908437E
:100A600005432068C06828432168C860A06A002840
:100A700014D0A06A012811D0A06A02280ED0A06A62
:100A800003280BD0A06A042808D0A06A052805D046
:100A9000A06A062802D0A06A07280FD1206800E0CB
:100AA00027E04069C008C0002168486120684069AB
:100AB000218D4907490F0843216848612068C068B3
:100AC00010490840A84208D100206063206B022131
:100AD000884301210843206310E0206B02218843F2
:100AE000102108432063606B0121084360630126E5
:100AF00004E0206B1021084320630126304640E7C4
:100B00001BC2FEFFE7FF3FC37047000070B50446FD
:100B100000F0ECF806462546681C002802D005487F
:100B200000682D1800BF00F0E1F8801BA842FAD33E
:100B300070BD00000C00002070B503460022CBE021
:100B4000012696400C683440002C71D04D68022D6F
:100B500002D04D68122D15D1D508AE001D462035A6
:100B6000A8595507EE0E0F25B5400646AE43304650
:100B70005607F60E0D69B5402843D508AD001E4650
:100B800020367051186856000325B5400646AE431E
:100B900030460D79AD07AD0F5600B54028431860BB
:100BA0004D68012D08D04D68022D05D04D68112DDE
:100BB00002D04D68122D18D1986856000325B54013
:100BC0000646AE4330465600CD68B540284398608F
:100BD0005868012595400646AE43304610264D68BC
:100BE00035402D09954028435860D86856000325A4
:100BF000B5400646AE43304656008D68B5402843A2
:100C0000D860012636074D683540B54263D1354D71
:100C10009608B600A8599507EE0E0F25B540064672
:100C2000AE43304605252D07AB4202D1002506E034
:100C300051E02D4DAB4201D1012500E00225960780
:100C4000F60EB5402843274D9608B600A851254D0D
:100C5000203528680546A5432846012636044D68F8
:100C60003540B54202D10546254328461D4D203565
:100C7000286068680546A5432846012676044D6825
:100C80003540B54202D1054625432846154D20354D
:100C90006860144D603D28680546A5432846012636
:100CA00036054D683540B54202D1054625432846F4
:100CB0000C4D603D286068680546A543284601261E
:100CC00076054D683540B54202D105462543284694
:100CD000044D603D6860521C0D68D540002D00D069
:100CE0002EE770BD60180240000400500148006803
:100CF00070470000040000200348006803490968A9
:100D00004018014908607047040000200C000020D2
:100D100010B50024032000F009F8002801D00124B8
:100D200001E000F033F8204610BD0000F8B504469D
:100D300000251348006800281ED0114801687D2056
:100D4000C000FFF7D5F9074639460E480068FFF79F
:100D5000CFF9064600F04CF800280BD1042C07D23E
:100D600000222146401E00F01FF80748046004E0FE
:100D7000012502E0012500E001252846F8BD00001C
:100D80000C00002000000020080000207047000038
:100D900000BFC206D20E01219140024A116000BF7D
:100DA0007047000000E100E070B504460D461646AD
:100DB0002946204600F0C8F870BD000001480068D0
:100DC000704700000000002000B5FFF7F7FF06495C
:100DD0008968072212031140090B8900034A515CFC
:100DE000C906C90EC84000BD0010024010390008F5
:100DF00070B504462546681E0949884201D901207C
:100E00000CE0681E074948610321081F00F09CF8A8
:100E100000200449886107200861002070BD00009F
:100E2000FFFFFF0000E000E010B50446002C01D1F8
:100E3000012010BDA069002800D000E000BF3D20C7
:100E4000005D002805D100213C200155204600F01E
:100E500031F824213D2001552068C0680121490353
:100E600088432168C860204601F022FD206A0028DE
:100E700002D0204601F000FD206800690121C9026E
:100E800088432168086120684069082188432168F7
:100E900048612068C0680121490308432168C8608F
:100EA0000020206420213D2001553E2001550020D6
:100EB000BFE7000010B586B004461F49206888428D
:100EC00037D100BF1D48406B012108431B494863CF
:100ED0000846406BC007C00F009000BF00BF00BFB6
:100EE0001648403000680121890308431349403106
:100EF000086008460068012189030840009000BF8F
:100F000000BF1820019002200290012003900220CF
:100F100004900120059001A905200007FFF70CFEB1
:100F2000012200211B20FFF73FFF1B20FFF730FFAE
:100F300000BF06B010BD00000038014000100240A4
:100F400000BFFEE77047000010B5002819DA1A4A02
:100F500003071B0F083B9B089B00D2588307DC0E3E
:100F6000FF23A3409A438B071B0E8407E40EA34084
:100F70001A43114B0407240F083CA408A4001A517B
:100F800018E00E4A03231B02D21883089B00D25894
:100F90008307DC0EFF23A3409A438B071B0E8407B5
:100FA000E40EA3401A43054B032424021B198408B2
:100FB000A4001A5110BD00001CED00E000E100E0AB
:100FC0001FB500BF3A4800680121090508433849A8
:100FD000086008460068012109050840009000BF2C
:100FE00000BF3448344908600120000748600021F0
:100FF00031488160C160012101610421416100210A
:10100000017641768176FF21C231C1610021016202
:10101000416205218162FFF7ADFC002803D027A0C3
:1010200001F08CFD1FBD2448FFF794FB002803D07E
:1010300029A001F083FDF5E70020019001200003C5
:1010400002900520039001A91B48FFF7D3FB00285D
:1010500003D029A001F072FDE4E716488068C007BC
:10106000C00F002805D113488068012108431149A9
:1010700088601C200F4908600846806804210843E6
:101080000C498860254C00E0641E0A480068042171
:101090000840002801D1002CF6D1002C03D120A05B
:1010A00001F04CFDBEE703484030006800BFB9E7DF
:1010B0004010024000240140800000205052423481
:1010C00038302041444320696E6974206661696C40
:1010D00065640D0A0000000050524234383020414F
:1010E00044432063616C6962726174696F6E20664B
:1010F00061696C65640D0A005052423438302041F9
:101100004443206368616E6E656C20636F6E666930
:1011100067206661696C65640D0A00001027000095
:10112000505242343830204144432064756D6D790B
:1011300020636F6E76657273696F6E2074696D657A
:101140006F75740D0A00000010B500200D4908707D
:101150000D4802780D4801880DA001F0EFFC002435
:101160000AE01348035D600012490A5A214612A0A2
:1011700001F0E4FC601CC4B2034800788442F0DB58
:1011800010BD0000250000202400002020000020C9
:10119000414443206C6F67207468726573686F6C9C
:1011A000643D257520636F756E743D25750D0A00CD
:1011B00038010020B8000020253032753A206164E3
:1011C000633D2575206269743D25750D0A00000098
:1011D0000021094A11700121084A1170002007E01E
:1011E00000214200064B9952064A1154411CC8B2D4
:1011F0004028F5DB70470000240000202500002077
:10120000B80000203801002000B587B024482549E7
:101210000860022024490880082024490880102002
:101220002349088004202349087000BF2248406BEE
:1012300001210843204948630846406BC007C00F9E
:10124000019000BF00BF00BF0846406B0221084369
:10125000194948630846406B02210840019000BFCD
:1012600000BF1248008802900120039000200490E3
:101270000220059002A90A48FFF75EFC0C4800888E
:10128000029002A90648FFF757FC01F00DF800F0A4
:1012900019FB00F057F9FFF793FE07B000BD0000FF
:1012A0000004005014000020180000201A00002044
:1012B0001C0000201E0000200010024070B50446F3
:1012C0000D4629462046FFF7F7F970BDF0B50246F6
:1012D0000B460020002112E0555C00240BE007467D
:1012E0006F40FE07F60F4010002E01D08C2778408B
:1012F0006D10671CFCB2082CF1DB4F1CF9B299424F
:10130000EADBF0BD0246AA2A03D0552A01D001200B
:101310007047AA2903D0552901D00120F8E7002001
:10132000F6E701464807400F072801D00120704723
:1013300020200840002801D00120F8E78020084044
:10134000002801D10120F2E70020F0E7014648071C
:10135000400F072801D001207047202008400028B6
:1013600001D00120F8E780200840002801D00120AA
:10137000F2E70020F0E701469F2901DD01207047D8
:101380004807400F002801D00120F8E70020F6E7C9
:1013900010B5044600F077FF002801D0012010BDF1
:1013A000002C03D0204600F077FA01E001F03AF873
:1013B0000020F4E708B50021009103E000BF009988
:1013C000491C009100998142F8D308BDFFB597B040
:1013D00006460F46209D402107A8FEF7B8FE199843
:1013E00000F06AFA0190002404E0305D07A9085576
:1013F000601CC4B2042CF8DB002406E01A98015DDE
:10140000201D07AA1154601CC4B2202CF6DB2978D9
:1014100010A8017069784170A9788170E978C1706D
:1014200001980006400F4021084310A908710024CC
:1014300006E0395D2046293007AA1154601CC4B269
:10144000072CF6DB002406E0201D315C2C3007AAB7
:101450001154601CC4B2042CF6DB297910A8017465
:10146000FF21417481748021C1740021017541758F
:101470008175C1750176417601218176B821C176E9
:101480000DA001F05BFB002406E007A8015D0FA0A2
:1014900001F054FB601CC4B2402CF6DB0DA001F03F
:1014A0004DFB02A907A800F013FF02A8219900F044
:1014B000BEFF1BB0F0BD000052415020686F737436
:1014C000204D414320626C6F636B3A00202530321F
:1014D000580000000D0A00000146002000E0401CFA
:1014E000012282400A40002AF9D0704770B51348A3
:1014F0000088FFF7F1FF0546690003208840044695
:101500000F4800680068A0430D49096808600C484E
:101510000068006820430A490968086008480068B4
:10152000C068A04306490968C8600548006880682B
:10153000A04303490968886070BD000018000020BE
:101540001400002070B514480088FFF7C5FF054659
:101550006900032088400446104800680068A043E2
:101560000E49096808600D480068C068A0430B492F
:101570000968C860094800688068A043074909688D
:1015800088600648006880686A000321914008432B
:1015900002490968886070BD18000020140000200E
:1015A00010B5FFF7CFFF00F089FE00F08BF90220A5
:1015B00001F028F900F067FE10BD0000FFB589B00A
:1015C0000F461D46002007900890002404E0FF20ED
:1015D00007A90855601CC4B2082CF8DB002406E0FB
:1015E0000B98015DA01C07AA1154601CC4B2052C05
:1015F000F6DB384600F060F9069008A8C1788278DA
:101600004378007803930492059102906846C17F65
:10161000807F019100906846437F027F10480699C1
:1016200001F08CFA384600F047F92B4607AA01462C
:101630000690099800F0F4FF0646002E05D009A098
:1016400001F07CFA01200DB0F0BD002D01D028780A
:1016500000E0FF200146134801F070FA0020F2E795
:1016600050390008524150204641494C5B315D3AA7
:10167000206368616C6C656E67652057726974657C
:101680002F52656164205363726174636870616492
:1016900020766572696679206661696C65640D0AF9
:1016A00000000000A8390008FFB589B00D461E46AD
:1016B0000027002004900B98002802D101200DB0D3
:1016C000F0BD802D01D00120F9E72846FFF753FE39
:1016D000002801D00120F2E708A80823009029463D
:1016E0000B9A099801F010F8002801D00120E6E7D4
:1016F00005A806A907AB0091019029460B9A099805
:1017000000F030FF002801D00120D8E76846007DB6
:1017100080210840C1096846007D20221040400910
:10172000019100906846037D027E017F34A001F0A4
:1017300005FAFF20F53001F06BF80998FFF728FE55
:10174000002801D00120BAE75A2000F0CBFF6846FC
:10175000007F00F0C7FF6846007E00F0C3FF6846C8
:10176000007D00F0BFFF0B2001F04CF800241DE0CD
:1017700000F078FC074600F075FC04903A462146DC
:101780002CA0049B01F0DAF938460499FFF7BAFD62
:10179000002800D10CE0FF2F03D10498FF2800D1CE
:1017A00006E0012001F02EF8601CC4B2142CDFDB2F
:1017B00000BF38460499FFF7A5FD002806D025A0F4
:1017C00001F0BCF900F05FFD012078E700F05BFD5F
:1017D000002801D0012072E703AA2946099800F0E9
:1017E0004DFE002804D02B4801F0A8F9012066E73F
:1017F000002E02D06846007B307000205FE70000BA
:101800004C465320617574683A205441313D25306F
:101810003258205441323D2530325820452F533D17
:10182000253032582050463D25642041413D2564F5
:101830000D0A00004C465320726573706F6E73651D
:101840005B25755D3A202530325820253032580D01
:101850000A0000004C6F6164204669727374205363
:1018600065637265742072656A65637465643A20A5
:10187000726573706F6E7365206973206E6F74206C
:10188000616C7465726E6174696E6720302F310D02
:101890000A000000EC39000870B50546552000F03C
:1018A00021FF002404E0285D00F01CFF601CC4B28E
:1018B000082CF8DB70BD0000014601480840704765
:1018C000E0FF00000248008802498861704700007C
:1018D0001C000020000400501C200E4A106010461E
:1018E0008068042210430B4A90600B4900E0491EB7
:1018F0000848006804221040002801D10029F6D1D0
:10190000002901D10020704702484030006880B2B1
:10191000F9E700000024014010270000FFB583B064
:101920000F461E460C9D002F03D0002E01D0002D27
:1019300005D12BA001F002F9012007B0F0BD2B4624
:1019400032460599039800F0B1F8002801D0012033
:10195000F3E7284639302B46009601903846059A21
:101960000399FFF733FD2CA001F0E8F8002407E00D
:1019700028463930015D2CA001F0E0F8601CC4B2AB
:10198000142CF5DB2AA001F0D9F8142229462531C0
:1019900028463930FEF7E6FB00281CD025A001F0D0
:1019A000CDF8002412E028463930015D1438005D7E
:1019B000814209D028463930035D1438025D214642
:1019C00026A001F0BBF803E0601CC4B2142CEADBD3
:1019D00000BF0120B1E72FA001F0B0F80020ACE774
:1019E000524150204641494C5B305D3A206E756C47
:1019F0006C207365637265742F6368616C6C656ECF
:101A000067652F7061636B657420706172616D65CD
:101A10007465720D0A00000052415020686F7374A3
:101A2000204D41433A20200020253032580000004C
:101A30000D0A0000524150204641494C5B375D3A47
:101A400020686F7374204D414320213D20646576EA
:101A5000696365204D41430D0A000000524150204A
:101A60006669727374204D414320646966663A204A
:101A7000696E6465783D2575206465766963653DAA
:101A80002530325820686F73743D253032580D0A66
:101A900000000000524150204D414320636F6D70A3
:101AA000617265204F4B0D0A00000000FFB591B038
:101AB0000E4617461C4600200690059004900390A1
:101AC00002900025002F01D0002C05D19FA001F02D
:101AD00035F8012015B0F0BD7F2E05DD3146A7A0F9
:101AE00001F02CF80120F5E7F006C00E002805D023
:101AF0003146AFA001F022F80120EBE75421204647
:101B0000FEF725FB0522394620462030FEF706FB6E
:101B100005AB3A4631461198FFF750FD002801D039
:101B20000120D7E71198FFF733FC002804D0AEA0BE
:101B300001F004F80120CDE7A52000F0D3FDF0B2BC
:101B400000F0D0FD301200F0CDFD002504E000F0E3
:101B500089FA6055681CC5B2202DF8DB00F082FAC6
:101B6000069000F07FFA4E21085300F07BFA000245
:101B70004E21095B08434E210853142000F042FE19
:101B8000002506E000F06EFA214625314855681C14
:101B9000C5B2142DF6DB00F065FA5021085300F0B1
:101BA00061FA00025021095B0843502108530020CC
:101BB00002901DE000F056FA049000F053FA0390F2
:101BC0005221049808555321039808550399049805
:101BD000FFF798FB002800D10DE00498FF2803D1FF
:101BE0000398FF2800D106E00298401CC0B2029082
:101BF00002981428DEDB00BF00F045FB88A000F04F
:101C00009DFF002505E0615D88A000F097FF681C3E
:101C1000C5B2202DF7DB58A000F090FF85A00699F3
:101C200000F08CFF0698FF2805D088A0069900F0E8
:101C300085FF01204EE74E20015B90A000F07EFF63
:101C4000A52110A801704670311281702022214612
:101C500007A8FEF763FAFF2108A801778FA000F01C
:101C60006DFF002506E010A8415D70A000F066FF42
:101C7000681CC5B2032DF6DB3FA000F05FFF8DA00E
:101C800000F05CFF002506E007A8415D67A000F0BA
:101C900055FF681CC5B2212DF6DB37A000F04EFFC2
:101CA0004E20005B212307AA0321009010A800F01A
:101CB00019FC002803D086A000F040FF02E08DA0B0
:101CC00000F03CFF90A000F039FF002507E020461F
:101CD0002530415D55A000F031FF681CC5B2142DC0
:101CE000F5DB25A000F02AFF5020015B8AA000F060
:101CF00025FF5020005B00231A4614210090204647
:101D0000253000F0EFFB002803D08AA000F016FF7A
:101D100002E091A000F012FF5320025D5220015D0D
:101D200092A000F00BFF5322115D5222105DFFF7CD
:101D3000E9FA002804D094A000F000FF0120C9E6D1
:101D40009CA000F0FBFE0020C4E6000052415020A1
:101D50004641494C5B305D3A206E756C6C2063687F
:101D6000616C6C656E67652F7061636B6574207064
:101D70006172616D657465720D0A000052415020F8
:101D80004641494C5B305D3A20616464726573730F
:101D900020307825303458206973206F757473694A
:101DA000646520757365722070616765730D0A0044
:101DB000524150204641494C5B305D3A2061646499
:101DC0007265737320307825303458206973206E23
:101DD0006F742033322D6279746520616C69676E8F
:101DE00065640D0A00000000524150204641494CF4
:101DF0005B325D3A2052657365742F524F4D2073EC
:101E0000656C656374696F6E206661696C656420DA
:101E10006265666F7265204135680D0A000000003A
:101E200052415020706167653A0000002025303231
:101E30005800000052415020736570617261746FE8
:101E4000723D3078253032580D0A00005241502042
:101E50004641494C5B335D3A207365706172617431
:101E60006F722065787065637465642046462C2027
:101E7000676F7420253032580D0A000052415020FF
:101E80007061676520435243313628627573293D7E
:101E90003078253034580D0A00000000524150209F
:101EA000706167652043524320696E7075742072BB
:101EB00065713A005241502070616765204352437A
:101EC00020696E707574207061796C6F61643A007E
:101ED000524150204641494C5B345D3A2070616765
:101EE00065204352433136206D69736D61746368B8
:101EF0000D0A000052415020706167652043524333
:101F00003136204F4B0D0A005241502064657669EE
:101F10006365204D41433A00524150204D414320DA
:101F2000435243313628627573293D307825303469
:101F3000580D0A00524150204641494C5B355D3AEC
:101F4000204D4143204352433136206D69736D610A
:101F50007463680D0A000000524150204D41432037
:101F60004352433136204F4B0D0A0000524150205E
:101F7000747261696C65723A2025303258202530C0
:101F800032580D0A00000000524150204641494C91
:101F90005B365D3A20747261696C65722F7374618F
:101FA000747573206C6F6F7020696E76616C6964F4
:101FB0000D0A000052415020747261696C657220F4
:101FC0004F4B0D0A0000000070B51C4886691C4884
:101FD00000881C4988621C4800888862FFF77CFCE6
:101FE00004461A4804801A480088844201DB012014
:101FF00000E00020054617480078002811D0164858
:10200000007840280DDA14480078400013490C523B
:1020100013481149097845540F480078401C0E496F
:102020000870094800880749886105480088886168
:102030002020FFF7BFF9284670BD000000E000E057
:102040001A000020000400501C0000202200002084
:10205000200000202500002024000020B8000020DF
:102060003801002070B50025FFF740FA002409E090
:10207000FFF7AAFF002803D00120A0402843C5B2E3
:10208000601CC4B2082CF3DBFFF75CFA284670BD75
:10209000FFB581B00D4616461F460198FFF778F947
:1020A000002802D0012005B0F0BDF02000F01AFB9E
:1020B000E8B200F017FB281200F014FB002404E043
:1020C000FFF7D0FF3055601CC4B2BC42F8DB00F013
:1020D000DAF80020E7E7000070B50546002403E0C9
:1020E00000202855601CC4B2082CF9DB00F0CBF8A6
:1020F000002804D01BA000F021FD012070BD1FA00E
:1021000000F01CFD332000F0EDFAFFF761F8002429
:1021100004E0FFF7A7FF2855601CC4B2082CF8DBC9
:10212000FFF712F81BA000F009FD002405E0295D6F
:102130001CA000F003FD601CC4B2082CF7DB0821D2
:102140002846FFF7C3F80646314618A000F0F6FC13
:1021500008212846FFF7BAF8002800D1CEE7012071
:10216000CCE700005265616420524F4D20726573C8
:102170006574206661696C65640D0A00526561646E
:1021800020524F4D2073656E6420307833330D0A32
:10219000000000005265616420524F4D207261774B
:1021A0003A000000202530325800000020435243FE
:1021B000383D3078253032580D0A0000FFB587B021
:1021C0000D4616461F46002D06D0002E04D0002FC7
:1021D00002D01098002802D101200BB0F0BD119858
:1021E000082801D00120F8E70798FFF7D1F8002868
:1021F00001D00120F1E7AA2000F074FAFFF732FFC6
:102200002870FFF72FFF3070FFF72CFF3870002485
:1022100005E0FFF727FF10990855601CC4B2082C91
:10222000F7DBFFF71FFF0390FFF71CFF02900298F8
:102230000102039808430190AA2168460174297895
:102240004174317881743978C174002406E01098A3
:10225000015D201D04AA1154601CC4B2082CF6DBD9
:102260000C2104A8FFF72AF800901298002802D049
:1022700012990198088000990198884201D00120A4
:10228000ABE70020A9E710B5FFF71CFB00F00CF846
:10229000FF202D3000F0BCFA00F010F8C82000F04C
:1022A000B7FA002010BD0000024800880249886289
:1022B000704700001A000020000400500248008807
:1022C00002498861704700001A0000200004005095
:1022D000F3B5D3B00C46002017E08600539DAD5DEA
:1022E0002D068600761C539FBE5D3604354386005E
:1022F000B61CBE5D360235438600F61CBE5D354316
:10230000860003AFBD51451CE8B21028E5DB102064
:102310001CE0C51EAD0003AE75590646083EB6006A
:1023200003AFBE59754006460E3EB600BE59754015
:102330000646103EB600BE5975400095009D6E00E1
:10234000ED0F2E4385007E51451CE8B25028E0DB9E
:102350002A4D02952A49EA43CB432A4D0195002094
:1023600040E0142808DA0D4615401E468E433543DA
:10237000254EAD1900951CE0282806DA0D4655407B
:102380005D40224EAD19009513E03C280BDA0D4656
:1023900015400E461E40354316461E4035431C4E22
:1023A000AD19009505E00D4655405D40194EAD193B
:1023B0000095029D6D01029EF60E3543019EAD19FA
:1023C000860003AFBE59AE19009D751900950193A3
:1023D00013468D078E0835432A460299009D0295C3
:1023E000451CE8B25028BCDB029D25606160A260FC
:1023F000E360019D256155B0F0BD000001234567F4
:1024000089ABCDEFF0E1D2C39979825AA1EBD96EB5
:10241000DCBC1B8FD6C162CA01490880704700002E
:102420002000002010B5CC2000F05CF910BDF8B5FC
:1024300002460B460025009504240FE0A5005059E4
:10244000002107E0009D6F1CFFB200975855000A5D
:102450004D1CE9B20429F5DB651EECB2002CEDDC65
:102460001068002107E0009D6F1CFFB200975855CF
:10247000000A4D1CE9B20429F5DBF8BD70B58AB03D
:1024800006460C46154604A8082105AA07AB00928B
:102490000191029008AA09A93046FFF78FFE002893
:1024A00002D001200AB070BDE0B208A909798842C3
:1024B00001D00120F6E7201208A90978884201D04E
:1024C0000120EFE76846007FFEF72BFF002801D0D0
:1024D0000120E7E7002D02D06846007F2870002029
:1024E000E0E70000FFB58BB007460025002407E0B9
:1024F0003A5D2846691CCDB201A90A54601CC4B2D9
:102500000C988442F4DB002408E00D98025D284614
:10251000691CCDB201A90A54601CC4B20E98844251
:10252000F3DB294601A8FEF7C9FE0646314607A09F
:1025300000F004FB0AA000F001FB1498864202D0D0
:1025400001200FB0F0BD0020FBE7000052415020F9
:102550006C6F63616C5F6372633A253034580000BE
:102560000D0A0000FFB587B00C4616461D46109FA9
:1025700004A8082105AA0092019102903A46294632
:10258000119B0798FFF71AFE002802D001200BB01C
:10259000F0BD2878E1B2884201D00120F7E7387811
:1025A0002112884201D00120F1E711990878FEF745
:1025B000CDFE002801D00120E9E70822314605A818
:1025C000FDF7D0FD002801D00120E0E70020DEE784
:1025D000FEB504460E460F490F480068FDF788FD1A
:1025E000704307460D484069401C01900EE00B48BF
:1025F0008569AC4202D3601B009003E0019820186B
:10260000401B00900098B84200D300E0EFE700BF05
:10261000FEBD000040420F000000002000E000E08E
:10262000F0B587B006460F4615461C46002D02D170
:10263000012007B0F0BD06A808232A4639460090BD
:10264000304600F061F8002801D00120F1E703A82E
:1026500004A905AB2A460091019039463046FFF7A0
:1026600081FF002801D00120E3E7002C02D068465A
:10267000007B20700020DCE770B5044616488569B1
:10268000002C0BD015480088154988620020FEF701
:1026900091FE124800881249886118E00F480088AE
:1026A0000F4988620020FEF785FE0C4800880C491F
:1026B00088610020FEF77EFE08480088084988628D
:1026C0000020FEF777FE05480088054988611C2137
:1026D0002846FFF77DFF70BD00E000E01A000020F3
:1026E0000004005070B50446FFF7E8FDFFF7EAF874
:1026F000002506E0E007C00FFFF7BEFF6410681C6E
:10270000C5B2082DF6DB70BDFFB587B00C46164686
:10271000002E02D101200BB0F0BD0A98082801D08C
:102720000120F8E72046FEF726FE002801D0012010
:10273000F1E70798FEF72CFE002801D00120EAE718
:102740000F20FFF7CFFFE0B2FFF7CCFF2012FFF71B
:10275000C9FF0F2168460174447421128174002559
:1027600008E0705DFFF7BEFF715DE81C04AA11541C
:10277000681CC5B2082DF4DBFFF774FC0390FFF76B
:1027800071FC029002980702039807430B2104A8EA
:10279000FEF794FD01901098002801D01098078052
:1027A0000198874201D00120B5E70020B3E77047C8
:1027B000704710B5FEF7A0FA10BD000010B50D4827
:1027C0004068000C00040C49096808430949486046
:1027D000084640680949084007494031898809048A
:1027E000084304494860C803054988606420FDF730
:1027F000A3FF10BD001002400001FF1FFFFF00FEFD
:1028000000ED00E010B504462046FEF77FF910BD4C
:10281000FEB50746002F00D1FEBD144914480068DC
:10282000FDF766FC784305462801401B0509114861
:102830004069401C00900F48866911E00D4884698A
:10284000A64202D3301B019003E000983018001B11
:1028500001900198A84200D304E001982D1A264661
:10286000002DEBD100BF00BFD6E7000040420F00B3
:102870000000002000E000E04022016A1140002931
:1028800015D00168496992019143426A1143026877
:10289000516101221203416A914208D101684969DC
:1028A000032252039143826A1143026851617047C7
:1028B000FEB5044620680069012149038843E168A8
:1028C0000843216808612169A068084361690843D9
:1028D00002902068C0685E49084002990843216858
:1028E000C860E0690290206840690121C9028843FC
:1028F0000299084321684861206840690321090260
:102900008843A1690843216848610121C902E0693F
:1029100088424ED1FEF758FA0546626851001922E6
:102920006A431046FDF7E4FB06466421FDF7E0FB31
:1029300007016268510019226A431046FDF7D8FB6F
:1029400006466268510019226A431046FDF7D0FB23
:1029500064210090FDF7CCFB64214843301AC0008D
:1029600032300190FDF7C4FBF821084040003F18C9
:102970006268510019226A431046FDF7B9FB06460A
:102980006268510019226A431046FDF7B1FB6421C9
:102990000090FDF7ADFB64214843301AC00032308F
:1029A0000190FDF7A5FB4007400F381821688860AB
:1029B0004CE0FEF709FA05466268910019226A4365
:1029C0001046FDF795FB06466421FDF791FB0701D4
:1029D0006268910019226A431046FDF789FB06469A
:1029E0006268910019226A431046FDF781FB642159
:1029F0000090FDF77DFB64214843301A000132301E
:102A00000190FDF775FBF02108403F1862689100C6
:102A100019226A431046FDF76BFB06466268910077
:102A200019226A431046FDF763FB64210090FDF70D
:102A30005FFB64214843301A000132300190FDF7FA
:102A400057FB0007000F381821688860FEBD0000A2
:102A5000F3E9FFFF1248006820210840002810D049
:102A60000F4840680F49104A127888540E48007881
:102A7000401C0D4908700A48006820218843084915
:102A800008600748006810210840002806D001208F
:102A90000649087002480068014840687047000015
:102AA000003801402C000020100000201100002000
:102AB00000BF04490968402211400029F9D00149AA
:102AC000486070470038014003488068012189034D
:102AD00008430149886070470010024010B515484E
:102AE00015490860E12040024860002112488160D9
:102AF000C160016181610C214161FEF795F90D48CA
:102B0000C068042108430B49C8600846C068082112
:102B100008430849C8600846C068102108430549B1
:102B2000C8600846C068202108430249C8600020E8
:102B3000486010BD003801403C0000200FB410B5C3
:102B400003A9044B044A029800F0E8F810BC08BC42
:102B500004B0184755340008280000202021020C3A
:102B600001D010211046020A01D01046083902098E
:102B700001D01046091F820801D01046891E420864
:102B800001D0881E7047081A704702E008C8121F5B
:102B900008C1002AFAD170477047002001E001C146
:102BA000121F002AFBD17047F0B51FB486B00998F8
:102BB000089A030D0021024314D05148514A1818B5
:102BC000504305141198012810981AD0281A401C57
:102BD00000264D4F4D49009601910490002812DACD
:102BE000444211E01198012449A3012801D1109811
:102BF000C1430698119A84600360C26041600BB0C3
:102C0000F0BD4042E4E70446210500203F4A001C95
:102C100051410391029012E0E00707D032463B4653
:102C200001990098FDF7ACFA0191009032463B46BD
:102C300010461946FDF7A4FA06460F466410002C0C
:102C4000EAD10498039B0028029A0999089806DAA9
:102C5000FDF796FA019B009AFDF792FA05E0FDF761
:102C6000F7FA019B009AFDF7F3FA04460E4600229C
:102C7000284BFDF7C7FC03D80020C043014607E0FE
:102C80000022254B20463146FDF7EAFBFDF79AFC72
:102C9000102409E0002C0ADB0A220023FDF750FB78
:102CA000079B30321A55641E02460A43F2D11122A4
:102CB000641C079B121B1C19119B012B03D00123C1
:102CC00008430ED10AE0084304D0112010900020E0
:102CD000119077E71098151A6D1E0BE0109882423C
:102CE00002DD00236D1C03E0824201DA00236D1E29
:102CF000002BEED0069811998260C16030C07EE74B
:102D000001FCFFFF104D0000000014400000F03FE8
:102D1000300000000000F0430000E03FFFB597B036
:102D20000646002518E2252877D100242746FD49CC
:102D3000049400E00443761C32780120203A90404D
:102D40000842F7D130782A280ED002223078014686
:102D50003039092916D804990A23594330394018C3
:102D60001443761C0490F1E7189802C80491189057
:102D7000002904DA01204003044348420490022061
:102D80000443761C30782E2814D104200443707834
:102D9000761C2A2809D11898761C80C8189009E05A
:102DA0000A214F43303FC719761C3078014630392D
:102DB0000929F5D930786C2810D006DC4C281AD0B7
:102DC00068280ED06A2817D104E0742813D07A2816
:102DD00012D110E00120400504430CE00121090557
:102DE00001E0032109050C437178814203D10120E0
:102DF00000052418761C761C3078119066280BD0BC
:102E000013DC58287DD009DC00287BD04528F6D07B
:102E10004628F4D047281AD1A5E118E0632835D018
:102E2000642870D0652812D19DE170286CD008DC30
:102E30006728F1D069287BD06E280DD06F2806D185
:102E4000BAE073282ED0752871D0782859D01A9AF4
:102E5000199990476D1C7EE16002400F022809D04D
:102E600003280DD00428189801680DD00D60001DAE
:102E7000189070E11898EA1701680D604A60F6E74B
:102E8000189801680D80F2E70D70F0E718986A460F
:102E900001781172001D18900020507202A8009055
:102EA000012005E0189802C8189000200091C04346
:102EB00061070DD5002101E00199491C0191B9423A
:102EC00012DA8142F8DB009A515C0029F4D10BE060
:102ED000002101E00199491C01918142FADB019A2C
:102EE0000099895C0029F5D1019904981A9B471A29
:102EF00021463846199A00F097FA01994019451869
:102F00000BE04FE02CE113E04EE0009800990078D0
:102F1000491C00911A9A199990470198401E0190F6
:102F2000401CF2D1214638461A9B199A10E137E02D
:102F30000A200021009001916002410F022907D070
:102F4000189A01CA1892C2179446032908D00AE0B9
:102F50001898C01DC108C90005C91891944607E01A
:102F600000B2C2179446042902D140B2C1178C4660
:102F700000226146944506DA0A460021404291410A
:102F80008C462D2102E0210504D52B216A461173C0
:102F9000012103E0E10701D02021F7E7029155E08C
:102FA0000A200AE0102008E01020009000210420F0
:102FB00004430191082703E00820002101910090BB
:102FC0006002410F022907D0189A01CA1892002204
:102FD0009446032908D008E01898C01DC108C9000C
:102FE00005C91891944603E080B2042900D1C0B20B
:102FF00000210291210729D51199702906D0009A44
:103000001021019B4A401A4305D00EE040216A4638
:103010001173012108E06146014306D030216A4660
:1030200011731199517302210291009A0821019B99
:103030004A401A430AD16146014301D1610705D5CF
:1030400030216A46117301217F1E0291119958297E
:1030500004D035A10E910DA90D910DE037A1F9E72E
:103060006146019B009AFDF76BF90E9B8C469B5CB9
:103070000D9A521E0D92137061460143F0D10D98C6
:1030800005A9081A20300190600703D5012000042B
:10309000844300E001270198874201DD381A00E0EF
:1030A0000020019900904118029809180498401ACC
:1030B0000490E00306D421461A9B199A049800F064
:1030C000B3F94519002706E003A81A9AC05D1999BB
:1030D00090476D1C7F1C02988742F5DBE0030CD5FE
:1030E00021461A9B199A049800F09EF9451904E0AC
:1030F0001A9A3020199990476D1C0099481E00902B
:103100000029F5DC08E00D980D990078491C0D9117
:103110001A9A199990476D1C0199481E019000292F
:10312000F1DC63E1092801003031323334353637C0
:103130003839616263646566000000003031323303
:1031400034353637383941424344454600000000A3
:1031500000F05AF94519761C3078002800D0E2E5D5
:1031600028461BB0F0BD600700D406271898C01D84
:10317000C108C90048680A680831C30FDB07189105
:10318000190001D09CA108E0210501D59BA104E014
:10319000E10701D09AA100E09AA1430011985B08D1
:1031A000109165280CD006DC452809D046281DD092
:1031B000472841D141E0662818D067283CD13CE03F
:1031C0000021112F01DB112000E0781C01910090FB
:1031D00008A911A8FFF7E8FC139905910021119A9D
:1031E00015927F1C12980197009150E00120C007B2
:1031F00003900120019008A9009711A8FFF7D4FCC3
:10320000139A149905920022119B0092129815931B
:10321000059A0192002901D0104602E0791C40185D
:103220000190381A01D5019804E04042401E0090F8
:10323000781C0190C01B029043E0012F00DA0127A7
:103240000021112F01DD112000E03846019100908E
:1032500008A911A8FFF7A8FC13990591119A00215C
:10326000129815920091019721070CD40599B94243
:1032700001DB019900E00191012904DD159A491E45
:10328000515C302906D0B84201DA011D05DA01216E
:10329000029115E00199491EEDE7002805DC00992F
:1032A000411800910199091A03E0019A411C9142C9
:1032B00000DD01910099401A401C02900120C007D6
:1032C0000390200706D402990198814202DB002076
:1032D000C043029000206946C87707AF01210398D8
:1032E0000337C907884224D0022011902B20129066
:1032F000039800280CDA404203902D20129007E03A
:103300000A210398FCF7F4FE30317F1E03903970D8
:103310001199481E11900029F2DC03980028EFD182
:10332000791E129808703078202108404530BF1E61
:10333000387006A8C01BC01D0390109800780028A4
:1033400000D00120019941180298C017091803986C
:1033500009180498401A401E0490E00306D4214640
:103360001A9B199A049800F05FF845191098007894
:10337000002803D01A9A199990476D1CE00324D5B0
:1033800021461A9B199A049800F04EF845191CE042
:103390000098002807DB00990598884203DD1598FE
:1033A000405C199901E0199930201A9A90470098C9
:1033B0006D1C401C00900298401E0290002804D111
:1033C0001A9A2E20199990476D1C0199481E019058
:1033D0000029DDDC05E038781A9A7F1C199990479E
:1033E0006D1C0399481E03900029F4DC21461A9BAA
:1033F000199A0498ACE600002D0000002B00000094
:103400002000000000000000F8B5044600251E461C
:103410001746880404D405E039462020B0476D1CC7
:10342000641EF9D52846F8BDFFB50446002581B0D5
:103430001E46C80301D5302700E02027880404D5A4
:1034400005E038460399B0476D1C641EF9D528463F
:1034500005B0F0BD10B503460C46D8B2FFF728FB07
:10346000184610BDDCB088A103C95991589088A1B5
:1034700003C95791569088A103C9559154901421BE
:103480004FA8FCF764FE202147A8FCF760FEFF2050
:103490004590FDF73DFCFFF717FBFFF71FFB80A0F2
:1034A000FFF74CFBFDF7B0FE4B20C000FEF7B4FF6A
:1034B000FEF776F8002803D081A0FFF73FFB02E07B
:1034C00086A0FFF73BFB5AAE5AA8FEF705FE002880
:1034D00011D187A0FFF732FB002406E05AA8015D56
:1034E00087A0FFF72BFB601CC4B2082CF6DB7AA088
:1034F000FFF724FB07E084A0FFF720FB02E0782021
:10350000FDF704FBFBE78BA0FFF718FB002406E0A8
:1035100058A8015D7AA0FFF711FB601CC4B2082C0B
:10352000F6DB6DA0FFF70AFB18232AAA8821304694
:10353000FEF7AEFD002811D180A0FFF7FFFA0024AE
:1035400006E02AA8015D6EA0FFF7F8FA601CC4B27D
:10355000182CF6DB60A0FFF7F1FA02E07DA0FFF780
:10356000EDFAA02302AA00213046FEF791FD0028C3
:103570001DD17EA0FFF7E2FA002515E06807400F95
:10358000002803D1294681A0FFF7D8FA02A8415D9F
:103590005BA0FFF7D3FA6807400F072802D14EA0BF
:1035A000FFF7CCFA681C85B2A02DE7DB02E079A01A
:1035B000FFF7C4FA80A0FFF7C1FA46AB58AA8021F2
:1035C0003046FEF771F8002805D140A8017E83A09F
:1035D000FFF7B4FA02E08AA0FFF7B0FA8FA0FFF776
:1035E000ADFA30A854AB602258A900903046FEF7DF
:1035F00095F900283ED192A0FFF7A0FA98A0FFF716
:103600009DFA002406E038A8015D3DA0FFF796FA78
:10361000601CC4B2052CF6DB2FA0FFF78FFA93A035
:10362000FFF78CFA002407E039A80130015D34A0CF
:10363000FFF784FA601CC4B2142CF5DB26A0FFF758
:103640007DFA8DA0FFF77AFA002407E03EA801304A
:10365000015D2BA0FFF772FA601CC4B2142CF5DBDD
:103660001DA0FFF76BFA40A8028AC18985A0FFF769
:1036700065FA02E08DA0FFF761FA03E0FF202D302C
:10368000FDF744FAFAE7000012345678ABCDEF00AC
:1036900018293F4E5D6C7B8AFFFFFFFFFF00000093
:1036A0000D0A5052423438302050593332463030AF
:1036B00032422064656D6F2073746172740D0A006C
:1036C00050524234383020696E69742F72657365C8
:1036D00074206661696C65640D0A000050524234C2
:1036E0003830207265736574204F4B0D0A0000005E
:1036F00050524234383020524F4D2049443A000055
:1037000020253032580000005052423438302052C8
:1037100065616420524F4D206661696C6564206F5D
:1037200072204352433820696E76616C69640D0AD9
:10373000000000005365637265743A00436F6E6663
:103740006967203078303038382D3078303039465D
:103750003A0000005265616420636F6E66696720FD
:103760006661696C65640D0A000000005265616461
:10377000204D656D6F7279203078303030302D30CB
:1037800078303039463A0D0A000000003078253094
:1037900034583A0052656164204D656D6F7279202E
:1037A0003078303030302D30783030394620666116
:1037B000696C65640D0A00000D0A3D3D3D3D3D3DCF
:1037C0003D3D3D3D20537465702032203D3D3D3DE3
:1037D0003D3D3D3D3D3D0D0A000000004C6F6164E4
:1037E00020466972737420536563726574204F4B71
:1037F0002C20452F533D3078253032580D0A0000DB
:103800004C6F6164204669727374205365637265FE
:1038100074206661696C65640D0A00000D0A3D3D07
:103820003D3D3D3D3D3D3D3D205374657020332081
:103830003D3D3D3D3D3D3D3D3D3D0D0A000000000F
:10384000526561642041757468656E746963617462
:1038500065642050616765204F4B0D0A0000000031
:103860004368616C6C656E67653A00004465766913
:103870006365204D41433A00486F73742020204D0A
:1038800041433A00506167652043524331363D3031
:1038900078253034582C204D414320435243313653
:1038A0003D3078253034580D0A00000052656164BF
:1038B0002041757468656E74696361746564205035
:1038C000616765206661696C65640D0A000000002F
:1038D00000000000000000000000000000000000E8
:1038E00000000000000000000000000000000000D8
:1038F00001000000020000000300000004000000BE
:103900000600000007000000080000000900000099
:1039100000000000000000000000000000000000A7
:10392000010000000200000003000000040000008D
:103930000000000000000000000000000000000087
:1039400000366E01000000000000000000000000D2
:10395000524150206368616C6C656E6765206C6FC6
:1039600061643A20706167653D30782530345820B5
:10397000736372617463687061643D2530325820EE
:103980002530325820253032582025303258202515
:1039900030325820253032582025303258202530FA
:1039A00032580D0A00000000524150206368616CDB
:1039B0006C656E6765207665726966696564206FFF
:1039C0006E63652C206B6565702073637261746330
:1039D0006870616420666F722041353A20452F532C
:1039E0003D3078253032580D0A0000004C6F61647C
:1039F0002046697273742053656372657420706F1A
:103A000073742D636865636B206661696C65643AE5
:103A1000204141206973206E6F7420736574206F9C
:103A2000722054412F452F5320696E76616C696472
:103A30000D0A0000543A0008000000202C0000008D
:103A40008A2B0008803A00082C0000204C0500005A
:103A50009A2B000800366E010000000004000000F0
:103A600001000000000000000004005002000800F7
:103A700010000400E80300000000FF000000000048
:04000005080000C12E
:00000001FF
