:020000040800F2
:10000000E80400209D010008B90B0008590B000806
:10001000B50B0008E70700083B12000800000000CD
:10002000000000000000000000000000750D000846
:100030007D0A000800000000490C00088D0E000831
:10004000B7010008B7010008B7010008B7010008B0
:10005000B7010008B7010008B7010008B7010008A0
:10006000B7010008B7010008B7010008B701000890
:10007000B7010008B7010008B7010008B701000880
:10008000B7010008B7010008B7010008B701000870
:10009000B7010008B7010008B7010008B701000860
:1000A000B7010008B7010008B7010008B701000850
:1000B000B7010008B7010008B7010008B701000840
:1000C000B7010008B7010008B7010008B701000830
:1000D000B7010008350F0008B7010008B701000894
:1000E000B7010008B7010008B7010008B701000810
:1000F000B7010008B7010008B7010008B701000800
:10010000B7010008B7010008B7010008B7010008EF
:10011000B7010008B7010008B7010008B7010008DF
:10012000B7010008B7010008B7010008B7010008CF
:10013000B7010008B7010008B7010008B7010008BF
:10014000B7010008B7010008B7010008B7010008AF
:10015000B7010008B7010008B7010008B70100089F
:10016000B7010008B7010008B7010008B70100088F
:10017000B7010008B7010008B7010008B70100087F
:10018000B7010008B7010008DFF80CD000F0E8FA6A
:1001900000480047291C0008E80400200648804762
:1001A00006480047FEE7FEE7FEE7FEE7FEE7FEE75C
:1001B000FEE7FEE7FEE7FEE7CD0E00088901000836
:1001C0002DE9FE4F81EA030404F0004421F00041D0
:1001D00000944FF0000B23F0004350EA01045ED07E
:1001E00052EA03045BD0C3F30A54C1F30A552C440A
:1001F000A4F2F3340194A0FB0254C1F3130141F4BF
:100200008011C3F3130343F4801301FB024400FB8A
:10021000034E840A970A44EA815447EA8357A4FBB1
:10022000076802958D0A05FB07854FEA932C04FBAE
:100230000C542705029D4FEA065847EA1637B5EBDE
:1002400008056EEB070C870E920E47EA811742EA0B
:100250008312A7FB0201B6EB0B0164EB00042B0D2C
:1002600043EA0C335E1844EB1C50DA465146E7FB78
:100270000201C5F313044FEA0B3343EA14534FEA68
:100280000432019C43EA0603A4F10C040294009C8E
:10029000CDE900B400F0CFF803B0BDE8F08F002046
:1002A0000146F9E70EB540F2334102910021CDE954
:1002B00000110A460B4600F0BEF803B000BD00F086
:1002C000004230F000400AD0C10D01F56071C0F36A
:1002D000160042EA0151C20840071143704700204E
:1002E0000146704701F0004330B421F0004150EA6C
:1002F000010206D00A0DA2F56072C1F31301002AB3
:1003000002DC30BC00207047440F44EAC104C10045
:10031000E01830BC00EBC25000F047B830B50B46D7
:10032000014600202022012409E021FA02F59D4225
:1003300005D303FA02F5491B04FA02F52844151EF9
:10034000A2F10102F1DC30BD2DE9F05F054600208D
:1003500092469B4688460646814640241BE0284636
:1003600041464746224600F01CFA53465A46C01AF8
:10037000914110D311461846224600F003FA2D1A77
:1003800067EB01084F4622460120002100F0FAF9F0
:1003900017EB00094E41201EA4F10104DFDC4846A2
:1003A00031462A464346BDE8F09F0029A8BF704762
:1003B000401C490008BF20F00100704710B4B0FA9B
:1003C00080FC00FA0CF050EA010404BF10BC704736
:1003D00049B1CCF1200421FA04F411FA0CF118BF50
:1003E000012121430843A3EB0C01CB1D4FEA00611F
:1003F0004FEA102042BF002010BC704700EBC350F2
:1004000010440029A4BF10BC7047401C490008BF1D
:1004100020F0010010BC704710B5141E73F10004E9
:1004200008DA401C41F1000192185B411A4301D1E6
:1004300020F0010010BD2DE9F04D92469B4611B110
:10044000B1FA81F202E0B0FA80F22032904600F078
:1004500099F904460F4640EA0A0041EA0B01534667
:100460005A46084313D0114653EA010019D0C8F187
:100470004002504600F095F905460E465046594652
:10048000424600F07FF9084305D0012004E02046F1
:100490003946BDE8F08D0020054346EAE0762C435E
:1004A00037430A986305E40AA0EB08000022FD0A1E
:1004B00044EA47540A3002D500200146E9E7010525
:1004C00010196941DDE9084500196941BDE8F04DA1
:1004D000A2E72DE9FE4F804681EA0300C00F0C46DB
:1004E000009021F0004123F00045B8EB0200A94143
:1004F00005D24046214690461C460B46024623F054
:100500000040104347D0270DC7F30A00C3F30A5138
:100510000290401A019040286BDAC3F3130040F4B4
:10052000801B0098924620B10023D2EB030A63EBB4
:100530000B0B01985946C0F14002504600F022F9D9
:1005400006460D4650465946019A00F03AF910EB1E
:1005500008006141002487EA115284EAE7731A43D4
:1005600040D0009A62B3019A012A4FEA075215DC83
:10057000001B61EB02014FF0004202EA0752CDE995
:100580000042001C41F5801132462B46FFF753FF15
:1005900003B0BDE8F08F40462146F9E7001B61EB50
:1005A0000201001C41F5801300185B412018A2F5E0
:1005B000001747EB030140EAD570B6196D4111E011
:1005C0006D084FEA360645EAC0754FEA0752001B30
:1005D00061EB0201001C41F5801149084FEA30002F
:1005E0000019514132462B4603B0BDE8F04FFFF7EA
:1005F00013BF0098012240000023D0EB020263EBFE
:10060000E073009821464FEAE074B8EB000061EB1C
:100610000401E9E783F000435BE781F0004158E71C
:100620002DE9F04D81EA030404F0004B21F0004570
:1006300014464FF0000A23F0004150EA050220D092
:1006400054EA01021DD0C5F30A570246C5F313034D
:10065000C1F31300C1F30A5640F4801543F480132C
:10066000A7EB0608101BD64608F2FD3873EB050011
:1006700002D308F1010801E092185B41B8F1000FC4
:1006800003DA00200146BDE8F08D00204FF4801110
:10069000064684460EE0171B73EB050705D3121BB5
:1006A00063EB050306434CEA010C49084FEA3000AE
:1006B00092185B4150EA0107EDD152EA030012D0D3
:1006C00082EA040083EA0501084305D0101BAB4110
:1006D00006D20122002306E000224FF0004302E090
:1006E0006FF0010253101AEB06004CEB085110EBAF
:1006F0000A0041EB0B01BDE8F04DFFF78DBEC1F3E1
:100700000A52C1F3130140F2FF3341F480119A42BF
:1007100002DA00200146704740F233439A42A2F2C7
:10072000334202DC524200F03CB800F02BB800002B
:1007300030B5041E71F1000404DB4FF00044404268
:1007400064EB0101141E73F1000405DB1C464FF03D
:100750000043524263EB0403994208BF904230BD0C
:10076000064C074D06E0E06840F0010394E80700FE
:1007700098471034AC42F6D3FFF70AFD341D000849
:10078000541D0008202A04DB203A00FA02F1002060
:1007900070479140C2F1200320FA03F319439040BF
:1007A0007047202A04DB203A21FA02F0002170472A
:1007B00021FA02F3D040C2F12002914008431946C9
:1007C0007047202A06DBCB17203A41FA02F043EAB1
:1007D000E07306E041FA02F3D040C2F120029140FA
:1007E00008431946704700BFFEE7000010B500241B
:1007F00000F076F804E0601CC4B2012001F0DCF9DE
:100800000D48006808B1C82CF5DBC82C01DB0120BD
:1008100010BD002404E0601CC4B2012001F0CCF93A
:100820000548006808B9F02CF5DBF02C01DB01204D
:10083000EEE70020ECE700002402434270B52DED06
:10084000068B00F0E1F800F0C9F8FFF7CFFFCC20ED
:1008500000F0E6F8BE2000F0E3F800F0ADF8064640
:1008600000F0AAF805462C4606EB042084B204F4F6
:100870007840B0F5784F14D1E043401C84B2204654
:10088000FFF710FD41EC1A0B9FED110B53EC102BF1
:10089000FFF796FC41EC190BFFF724FD08EE100A58
:1008A00010E02046FFF7FEFC41EC1A0B9FED0A0B0F
:1008B00053EC102BFFF784FC41EC190BFFF712FDF2
:1008C00008EE100AB0EE480ABDEC068B70BD0000C1
:1008D000000000000000B0BF000000000000B03FBA
:1008E0001CB54FF40070009000208DF8040001202A
:1008F0008DF807006946024800F0C1F81CBD0000F1
:10090000001802401CB54FF40070009001208DF8D3
:10091000040000208DF8060002208DF8050001205B
:100920008DF807006946024800F0A9F81CBD0000D8
:10093000001802401CB50121402000F087F94FF457
:100940000070009001208DF8040000208DF8060052
:1009500002208DF8050001208DF807006946044843
:1009600000F08DF800F03AF8FFF740FF1CBD0000E2
:100970000018024010B5FFF7C5FF00200C490860C1
:10098000022001F019F901200A49C1F8A402FFF779
:10099000A7FF0C2001F010F905488038006808B165
:1009A000012400E00024322001F006F9204610BDA9
:1009B000A40243420000434270B50026012508E02E
:1009C000FFF7D8FF0446E00140EA6600C6B2681CA3
:1009D000C5B2082DF4DD304670BD000010B5FFF73C
:1009E00091FF00200649086040F2EE2001F0E4F893
:1009F00001200449C1F8A4020F2001F0DDF810BD68
:100A0000A40243420000434210B5FFF7E7FFFFF79F
:100A1000EDFECC2000F004F8442000F001F810BDF9
:100A200070B50446FFF76EFF012520E004F00106D3
:100A300064106EB100200F490860022001F0BCF87C
:100A400001200D49C1F8A4023C2001F0B5F80CE0EA
:100A50000020084908603C2001F0AEF8012006495A
:100A6000C1F8A402022001F0A7F8681CC5B2082D45
:100A7000DCDD70BDA4024342000043427047F0B584
:100A80000A4600210023002400BF3DE0012505FAAD
:100A900001F3156805EA03049C4234D105684F0050
:100AA0000326BE40B543056015794E00B540066883
:100AB000354305601579012D02D01579022D16D127
:100AC00085684F000326BE40B543856055794E00CA
:100AD000B540866835438560456801268E40B5433C
:100AE0004560456896798E40B6B235434560C56825
:100AF0004F000326BE40B543C560D5794E00B540D2
:100B0000C6683543C560491C1029BFD3F0BDF0B598
:100B1000002300244D07ED0E02FA05F3CE1000F17C
:100B2000200555F826504E07F70E0F26BE40B54358
:100B3000CF1000F1200646F82750CE1000F1200516
:100B400055F8265045EA0304CE1000F1200545F87B
:100B50002640F0BD0183704700BFFEE71CB50121B0
:100B6000202000F073F801208DF80400400200906E
:100B700003208DF8050000208DF8060001208DF877
:100B8000070069460A48FFF77AFF4FF400710848EA
:100B9000FFF7E0FF4FF48060009069460448FFF7DC
:100BA0006EFF4FF480610248FFF7D4FF1CBD0000C8
:100BB0000014024000BFFEE77047000070B500213E
:100BC00000230F22C4781CB3174C246804F4E0649B
:100BD000C4F5E064C4F30721C1F10404E3B20A419F
:100BE00044789C40E1B28478144021430C07210EE4
:100BF0000E4C05786155047804F01F050124AC40C3
:100C000005786D11AD0005F1E025C5F8004109E05A
:100C1000047804F01F050124AC40054D06787611D8
:100C200045F8264070BD00000CED00E000E400E057
:100C300080E100E002490143024A11607047000070
:100C40000000FA050CED00E07047000029B1064AEB
:100C500012680243044B1A6004E0034A126882439C
:100C6000014B1A60704700003038024029B1064A33
:100C700012680243044B1A6004E0034A126882437C
:100C8000014B1A607047000044380240F0B5002163
:100C900000220024022500260223324F3F6807F07D
:100CA0000C0121B1042905D0082937D105E02E4FC8
:100CB000076036E02D4F076033E02A4F3F1F3F6843
:100CC000C7F38056274F3F1F3F6807F03F036EB1C1
:100CD000264FB7FBF3F7DFF88CC0ACF1040CDCF85F
:100CE00000C0CCF3881C07FB0CF40CE01E4FB7FBD4
:100CF000F3F7DFF870C0ACF1040CDCF800C0CCF303
:100D0000881C07FB0CF4174F3F1F3F68C7F30147D0
:100D10007F1C7D00B4FBF5F7076002E0124F07600F
:100D200000BF00BF0F4F3F6807F0F0010909104FE7
:100D30007A5C0768D74047600A4F3F6807F4E05184
:100D4000890A0B4F7A5C4768D7408760054F3F6838
:100D500007F46041490B064F7A5C4768D740C7608B
:100D6000F0BD0000083802400024F40000127A00B0
:100D700000000020704700000CB50020019000909A
:100D80003448006840F480303249086000BF314880
:100D9000006800F4003000900198401C0190009819
:100DA00018B90198B0F5A04FF1D12A48006800F4B5
:100DB000003010B10120009001E000200090009868
:100DC000012846D123484030006840F08050214936
:100DD000403108602048006840F440401E490860E7
:100DE0001C48083000681B49083108600846006844
:100DF00040F4004008600846006840F4A0500860D5
:100E00001648091F0860081F006840F08070091F1D
:100E1000086000BF0F48006800F000700028F9D09B
:100E200040F205700E4908600A480830006820F05A
:100E300003000849083108600846006840F00200D5
:100E4000086000BF03480830006800F00C00082864
:100E5000F8D10CBD00380240007000400854400733
:100E6000003C0240042808D14FF0E021096941F01C
:100E700004014FF0E022116107E04FF0E021096921
:100E800021F004014FF0E02211617047704700002B
:100E900010B504466FF00400FFF7E4FFE11704EB20
:100EA0005171C1F3C701074A11701046007800EB79
:100EB0004001C1EBC0104FF6FF7101EAC0000249CA
:100EC000088010BD100000201200002010B5154849
:100ED000006840F47000134908601348006840F04F
:100EE00001001149086000200F49083108600E48D0
:100EF00000680E4908400C4908600D48091D08604B
:100F0000081F006820F48020091F0860002006499F
:100F10000C310860FFF730FF4FF000600149803965
:100F2000086010BD88ED00E000380240FFFFF6FECB
:100F30001030002410B540F225511D4800F0BAF8D9
:100F400010B31B4800F070F9C4B21A48008800F4CE
:100F50000040C8B91748008800F4804060B10A2CEE
:100F600003D000201349088020E01248008840F494
:100F700000401049088019E00D2C06D10D4800886A
:100F800040F480400B49088010E00A480088C0F314
:100F90000D0009490C5407480088401C0549088089
:100FA00008460088C72801DD0020088010BD000029
:100FB00000100140140000201C00002010B588B073
:100FC000044601210846FFF741FE01211020FFF7EA
:100FD0004DFE072209212448FFF799FD07220A2127
:100FE0002148FFF794FD4FF4C060069002208DF871
:100FF0001C008DF81D0000208DF81E0001208DF8CA
:101000001F0006A91848FFF73AFD02940020ADF82A
:101010000C00ADF80E00ADF81000ADF814000C2077
:10102000ADF8120002A9114800F094F801210F4810
:1010300000F027F840210D4800F01AF8012240F294
:1010400025510A4800F060F825208DF8040003209F
:101050008DF805008DF8060001208DF8070001A825
:10106000FFF7ACFD08B010BD0000024000100140C9
:1010700001F40072B2F5007F00D100BFCA430280C4
:10108000704721B1828942F40052828104E0828952
:101090004DF6FF731A408281704702460020B1F579
:1010A000007F00D100BF13880B400BB1012000E08E
:1010B0000020704770B50246002400230025002060
:1010C00040F66A16B14200D100BFC1F3421501F0EB
:1010D0001F03012606FA03F3012D02D1968933403E
:1010E00006E0022D02D1168A334001E0968A334091
:1010F0000C12012606FA04F41688344013B10CB120
:10110000012000E0002070BDF0B503460024002659
:101110000025002040F66A17B94200D100BF1846EA
:10112000C1F3421401F01F06012707FA06F5012C4E
:1011300001D10C3004E0022C01D1103000E0143059
:101140001AB107682F43076002E00768AF430760E2
:10115000F0BD00002DE9FF4705460E460024A146DC
:1011600000BFA046B08900B100BF2C8A24F44054CF
:10117000F08804432C82AC8941F20C608443B0882F
:1011800031890843718908430443AC81AC8A24F453
:101190004074B0890443AC826846FFF777FD20486D
:1011A000854202D01F48854202D1DDF80C9001E053
:1011B000DDF80890A88900F4004040B109EBC900AF
:1011C00000EB091031684900B0FBF1F707E009EBCB
:1011D000C90000EB091031688900B0FBF1F7642009
:1011E000B7FBF0F004012009642101FB1078A88905
:1011F00000F4004040B1322000EBC800B0FBF1F039
:1012000000F00700044308E0322000EB08106421DE
:10121000B0FBF1F000F00F0004432C81BDE8FF8724
:10122000001001400014014001468888C0F3080006
:101230007047C1F308028280704700BFFEE70000DC
:101240000FB4054B10B503A9044A029800F0DAF870
:1012500010BC5DF814FB0000051C000818000020FD
:1012600002E008C8121F08C1002AFAD1704770476F
:10127000002001E001C1121F002AFBD170470000CD
:101280002DE9FF5F82B00021DDE90430020DDDF8B9
:1012900040B0034318D044F61050A2F2FF3242434C
:1012A0001514119801281FD0A5EB0B00401C5FEA14
:1012B000000A4FF000064E4FDFF83891B046504616
:1012C00015D5CAF1000413E0119801244AA301289E
:1012D00001D16FEA0B010298119AC0E90031C0E90F
:1012E000024206B0BDE8F09FCBF10000DFE7044604
:1012F0000021404A491842EB0450CDE9001012E0A9
:10130000E00707D032463B4640464946FEF758FFC5
:101310008046894632463B4610461946FEF750FF46
:1013200006460F466410002CEAD1DDE90401DDE930
:101330000023BAF1000F06DAFEF742FF42464B46A1
:10134000FEF73EFF05E0FFF76BF942464B46FFF71D
:1013500067F904460E460022284BFFF7E9F903D847
:101360004FF0FF30014607E00022254B2046314672
:10137000FFF7AFF8FFF7C3F9102409E0002C0ADBF0
:101380000A220023FEF7E0FF039B30321A55641E49
:1013900050EA0102F2D1641C039AC4F1110314440F
:1013A000119A012A03D0012208430DD10AE0084313
:1013B00004D000204FF0110B119072E7A3EB0B0546
:1013C0006D1E0DE05B4504DD4FF0000205F10105E7
:1013D00004E003DA4FF00002A5F10105002AECD089
:1013E00002981199C0E90231C0E9004579E700008F
:1013F000000014400000F03F300000000000F04307
:101400000000E03F2DE9FF4F95B09B468946064618
:1014100000250FE2252877D100242746F84A01212C
:10142000059400E0044316F8013F203B01FA03F065
:101430001042F7D130782A2811D06FF02F0330787E
:10144000A0F13002092A16D8059A44F0020402EBF2
:10145000820203EB42021044761C0590EFE759F834
:10146000042B0592002A03DA504244F400540590FC
:1014700044F00204761C30782E2816D116F8010F9D
:1014800044F004042A280DD06FF02F023078A0F128
:101490003003092B09D807EB870302EB4303C71876
:1014A000761CF3E759F8047B761C30786C280FD053
:1014B00006DC4C2817D068280DD06A2814D104E027
:1014C000742810D07A280FD10DE044F400140AE0FB
:1014D00044F4801401E044F440147278824202D152
:1014E00004F58014761C761C307866280BD013DC4B
:1014F000582877D009DC002875D04528F6D0462832
:10150000F4D047281AD19DE118E0632835D064282B
:1015100079D0652812D195E1702873D008DC67284E
:10152000F1D069286FD06E280DD06F2806D1B5E0B4
:1015300073282CD0752875D0782874D05A461799FE
:1015400090476D1C75E1C4F30250022809D00328AE
:101550000DD0D9F8001004280DD00D6009F1040950
:1015600067E1D9F80010EA17C1E90052F6E7D9F8A7
:1015700000100D80F2E70D70F0E719F8041B8DF8EC
:10158000001000208DF80100EA46012003E059F820
:1015900004AB4FF0FF3061074FF0000102D40DE0C3
:1015A00008F101018846B9420FDA8045F8DB1AF8E4
:1015B00008100029F4D108E008F1010188468142B1
:1015C000FADB1AF808100029F6D105985B46A0EB63
:1015D000080721463846179A00F094FA284400EB91
:1015E000080507E04DE029E10DE01AF8010B5A4625
:1015F00017999047B8F10108F7D25B462146384663
:10160000179A13E142E00A220092C4F302524FF00B
:10161000000A022A08D059F804CB032A4FEAEC71D9
:101620000AD00DE029E02AE009F1070121F00702C4
:10163000F2E802C1914609E00FFA8CFC4FEAEC7126
:10164000042A03D14FFA8CFC4FEAEC71002907DA27
:101650000A460021DCF1000C61EB02012D2202E0C0
:10166000220504D52B228DF80420012203E0E20795
:1016700001D02022F7E7904659E00A2102E010222B
:101680000DE010214FF0000A00910BE010224FF006
:10169000000A44F004040827009203E008224FF0F7
:1016A000000A0092C4F30252022A05D059F804CB72
:1016B0000021032A08D009E009F1070121F00702FF
:1016C000F2E802C1914605E01FFA8CFC042A01D120
:1016D0000CF0FF0C4FF00008220728D5702806D028
:1016E000009B83F0100353EA0A0305D00EE040226A
:1016F0008DF80420012208E05CEA010206D03022C5
:101700008DF804208DF8050002229046009B83F09E
:10171000080353EA0A030AD15CEA010201D1620715
:1017200005D530228DF804204FF001087F1E58287F
:1017300004D034A003900EA802900DE036A0F9E783
:1017400053466046009AFEF7FFFD84460398825C8C
:101750000298401E029002705CEA0100F0D10298EB
:1017600006A9081A00F1200A600702D524F4803483
:1017700000E00127574502DDA7EB0A0000E000204A
:1017800000EB0A01009005984144401A0590E003DF
:1017900006D45B462146179A059800F0B3F9054434
:1017A000002706E001A85A46C05D179990476D1CB6
:1017B0007F1C4745F6DBE0030CD55B462146179AB4
:1017C000059800F09FF9054404E030205A46179927
:1017D00090476D1C0099481E00900029F5DC08E038
:1017E000029802995A460078491C0291179990472D
:1017F0006D1CBAF10001AAF1010AF1DC65E10000FB
:1018000009280100303132333435363738396162D6
:10181000636465660000000030313233343536379A
:1018200038394142434445460000000000F058F971
:101830000544761C307800287FF4ECAD19B02846BA
:10184000BDE8F08F620700D4062709F1070222F0F5
:10185000070CFCE80223E14603F000485FEA080CAD
:1018600002D00FF2702C0DE05FEA045C02D50FF29B
:10187000682C07E05FEAC47C02D00FF2602C01E024
:10188000AFF2700C4FF0FF3823F00043CDF850C09A
:1018900065280CD006DC452809D046281DD04728ED
:1018A0003DD13DE0662818D067287ED138E0002180
:1018B000112F01DB112000E0781CCDE9000106A901
:1018C0000EA8FFF7DDFCDDE90F010E9A0391002160
:1018D000009207F1010A04914DE04FF0004000979B
:1018E000CDE9011006A90EA8FFF7CAFCDDE90F0239
:1018F00003920E9B11990022DDF80CA00093049234
:1019000011B9791C00EB010AB7EB0A0004D4C0F14D
:10191000FF3007F1010A0490AAEB0700019044E0B0
:10192000012F00DA01270021112F01DD112000E035
:101930003846CDE9000106A90EA8FFF7A1FCDDE9B4
:101940000F010E9A0391002104910092BA462107DB
:101950000CD40399514500DA8A46BAF1010F05DD2E
:10196000009AAAF10101515C302908D0B84202DA8C
:1019700010F1040F06DA0121CDE9011015E0AAF1FA
:101980000101E9E7002805DC049901440491AAEB70
:10199000000102E0411C514500DD8A460499401ACD
:1019A000401C01904FF000400290200704D40198A1
:1019B000504501DBCDF8048000208DF84F000298DF
:1019C0000DF14F07B0F1004F25D02B200E9002985B
:1019D0004FF0020800280CDA404202902D200E90B1
:1019E00007E00A210298FEF799FC3031029007F8CF
:1019F000011DB8F10001A8F10108F2DC02980028ED
:101A0000EFD1791E0E980870307800F0200040F079
:101A1000450007F8020D12A8C01B00F10708149832
:101A2000007800B1012000EB0A01019801EBE071A0
:101A300005984144401A401E0590E00306D45B46D9
:101A40002146179A059800F05DF80544149800782F
:101A500018B15A46179990476D1CE00324D55B4690
:101A60002146179A059800F04DF805441CE00498AB
:101A7000002807DBDDE90301884203DD0098405CB4
:101A8000179901E0179930205A469047049805F1BC
:101A90000105401C04900198401E019004D12E20A5
:101AA0005A46179990476D1CBAF10001AAF1010A34
:101AB000DDDC05E017F8010B5A46179990476D1CBD
:101AC000B8F10001A8F10108F4DC5B462146179A41
:101AD0000598ABE62D0000002B0000002000000060
:101AE0002DE9F041044600251E461746880404D41B
:101AF00005E039462020B0476D1C641EF9D5284604
:101B0000BDE8F0812DE9F041044600251E469046CF
:101B1000C80301D5302700E02027880404D505E05C
:101B200041463846B0476D1C641EF9D52846BDE8CD
:101B3000F08170B504464FF4077094FBF0F0C6B224
:101B40004FF4077094FBF0F100FB114085B205E003
:101B50004FF4077000F00AF8701EC6B2002EF7D1DD
:101B600015B1284600F002F870BD00000146114A88
:101B700012884A434FF0E0235A6100229A611A46C4
:101B8000126942F001021A6100BF4FF0E0221069B1
:101B900000F001021AB100F48032002AF5D04FF0B3
:101BA000E022126922F001024FF0E0231A610022C4
:101BB0009A617047120000200146114A12784A4388
:101BC0004FF0E0235A6100229A611A46126942F0EE
:101BD00001021A6100BF4FF0E022106900F001021B
:101BE0001AB100F48032002AF5D04FF0E0221269D9
:101BF00022F001024FF0E0231A6100229A6170473F
:101C00001000002070B504460D46E1B20548FFF70C
:101C100010FB00BF80210348FFF73FFA0028F9D0EE
:101C2000204670BD001001402DED048B0024A8203B
:101C3000FFF72EF94FF4A060FEF7FCFF4FF4E13000
:101C4000FFF7BCF9FEF78AFF06E022A0FFF7F8FADB
:101C50004FF4FA70FFF76DFFFEF76CFE0028F4D129
:101C600023A0FFF7EDFA33E0601CC4B2142094FB0C
:101C7000F0F100FB114038B92248006808B9012092
:101C800000E000201F490860322094FBF0F100FBC7
:101C90001140D0B9FEF7D2FDB0EE408AB5EEC08A51
:101CA000F1EE10FA03D218A0FFF7CAFA02E01AA068
:101CB000FFF7C6FA18EE100AFEF701FB41EC190B0C
:101CC00053EC192B18A0FFF7BBFA0A20FFF731FFDE
:101CD000CAE7000044533138423230BCECB2E2CAA9
:101CE000A7B0DCA3ACC7EBB2E5BAC3210D0A000074
:101CF00044533138423230BCECB2E2B3C9B9A62108
:101D00000D0A0000A4824242BCECB2E2B5C4CEC2CD
:101D1000B6C8CEAAA3BA2D00BCECB2E2B5C4CEC2FE
:101D2000B6C8CEAAA3BA2000252E3266A1E3430D81
:101D30000A000000541D0008000000201C000000E4
:101D400060120008701D00081C000020CC04000078
:101D500070120008000000000102030401020304E5
:101D60000607080900000000000000000000000055
:040000050800018965
:00000001FF
