:020000040800F2
:10000000A8040020D50000087F1400087B14000815
:1000100000000000000000000000000000000000E0
:100020000000000000000000000000008314000831
:100030000000000000000000811400088514000882
:10004000000000000000000000000000E7000008C1
:10005000E7000008E7000008E7000008E7000008E4
:100060000000000000000000000000000000000090
:10007000E7000008E7000008E700000800000000B3
:1000800000000000E700000800000000E700000892
:10009000000000000000000000000000E700000871
:1000A00000000000E700000800000000E700000872
:1000B0000000000000000000000000000000000040
:1000C0000348854600F04EF80048004745190008EF
:1000D000A80400200448804704480047FEE7FEE7E4
:1000E000FEE7FEE7FEE7FEE78D140008C10000080A
:1000F00030B50B46014600202022012409E00D46C0
:10010000D5409D4205D31D469540491B2546954047
:1001100040191546521E002DF1DC30BD03460B433D
:100120009B0703D009E008C9121F08C0042AFAD2AD
:1001300003E00B780370401C491C521EF9D2704733
:10014000D2B201E00270401C491EFBD2704700226F
:10015000F6E710B513460A4604461946FFF7F0FFC6
:10016000204610BD064C0125064E05E0E36807CC8D
:100170002B430C3C98471034B442F7D3FFF7A4FF4D
:10018000501A0008701A000838B504460020009084
:1001900020688068C007C00F0121484048400028FF
:1001A00027D12068806814490840002801D1012027
:1001B00000E00020002809D1206B102108432063B3
:1001C000606B012108436063012038BD20688068AE
:1001D0000121084321688860084909480068FFF741
:1001E00087FF009002E00098401E009000980028D1
:1001F000F9D10020E9E700001700008040420F001D
:100200000000002008B500BF23480068012109054F
:100210000843214908600846006801210905084093
:10022000009000BF00BF1D481D4908600520000761
:10023000486000211A488160C160012101610421E8
:1002400041610021017641768176FF21C231C16191
:100250000021016241620521816200F011FA00284B
:1002600001D000F021F8012000030E494860092068
:1002700008600B4800F018F9002801D000F014F8CD
:100280000021074800F0D0F9054800F0BDF800282B
:1002900001D000F009F808BD4010024000240140E0
:1002A0001C0000205400002000BFFEE700B58DB008
:1002B000242104A8FFF74BFF00200090019002903A
:1002C00003900F200490FF20013008900020099037
:1002D0000F48008880B20A90002005900B9006908D
:1002E00004A800F00BFE002801D0FFF7DDFF072077
:1002F000009000200190029003900021684600F0D9
:10030000A1FC002801D0FFF7CFFF0DB000BD000019
:100310000001FF1F00B587B000BF002001902F48EB
:1003200000680121890308432C49086008460068D9
:10033000012189030840019000BF00BF28482949D6
:100340000860E12040024860002126488160C160C9
:10035000016181610C21416100F0CAFF00BF1F48AB
:100360004038406B022108431C4940394863084625
:10037000406B02210840019000BF00BF00BF17483A
:100380004038406B08431549403948630846406B84
:1003900002210840019000BF00BF102002900220FF
:1003A000039001200490032005900120069002A9EB
:1003B0000D4800F0DFFA202002900120069002A9EB
:1003C000094800F0D7FA012200211B2000F030FC80
:1003D0001B2000F01BFC07B000BD000040100240D5
:1003E00000380140600000200004005008B50549B5
:1003F0004143009100BF00BF00994A1E00920029AE
:10040000F9D108BDB80B000070B5044600250026E0
:1004100000BF2C20005D012801D1022070BD012108
:100420002C20015500BF20688068084048404840A3
:1004300000282CD1206B0902884302210843206345
:1004400020688068890708432168886000F06CFB99
:10045000064611E000F068FB801B02280CD9206BD7
:100460000221884310210843206300BF00212C2073
:10047000015500BF0120D1E720688068C00FC00788
:100480000028E7D1206B02218843206304E0206B21
:10049000202108432063012500BF00212C200155A5
:1004A00000BF2846BAE70000F8B504460D4600260E
:1004B00000200090A06A002815D0A06A012812D060
:1004C000A06A02280FD0A06A03280CD0A06A0428D2
:1004D00009D0A06A052806D0A06A062803D0A06A21
:1004E000072800D000BF00BF2C20005D012801D1EB
:1004F0000220F8BD01212C20015500BF2068806832
:10050000042108408008002879D14349686888425E
:1005100059D02068806A2A780121914008432168D7
:100520008862A06A002829D0A06A012826D0A06A83
:10053000022823D0A06A032820D0A06A04281DD056
:10054000A06A05281AD0A06A062817D0A06A072832
:1005500014D0A868216849694907490F88420DD01D
:1005600020684069C008C00021684861206840696F
:10057000297A4907490F08432168486128680828F3
:1005800002D0286809283FD12448806829680829B2
:1005900001D1090501E00121890508431F4988604F
:1005A0002868082830D11E491E480068FFF7A0FDC2
:1005B0000A214843009002E00098401E00900098F5
:1005C0000028F9D120E02068806A2A780121914032
:1005D0008843216888622868082802D0286809288A
:1005E00012D10E4880682968082902D1090502E065
:1005F00005E00121890588430849886004E0206BF3
:10060000202108432063012600BF00212C20015532
:1006100000BF30466DE700000110000000270140D8
:1006200040420F000000002010B50246002300BF2A
:100630002C20805C012801D1022010BD01242C2037
:10064000845400BF10688068E024A0430843146805
:10065000A060002906D0074880680124A405204333
:10066000044CA06000BF00242C20845400BF184616
:10067000E3E700000027014001460868006C70476E
:1006800070B5044600260025002C01D1012070BD64
:10069000206B002806D1606300212C2001552046E4
:1006A00000F0B8F8206B1021084000287ED1002E01
:1006B000FCD1206880680421084080080028F5D11A
:1006C000206B8901884302210843206320688068E9
:1006D000C007C00F01214840484000280FD12068C2
:1006E000C06818218843A16808432168C860206851
:1006F00000690001000961680843216808612068F9
:10070000C068424908402168C860207E8003617E3D
:1007100049030843616A012902D00121090300E06D
:1007200000210843E16808432169022901D104211D
:1007300000E0002108430543A07E01280ED1607E21
:10074000002803D101200004054307E0206B20218D
:1007500008432063606B012108436063FF21C231BD
:10076000E069884203D0216AE069084305432068B4
:10077000C06828432168C860A06A002814D0A06A15
:10078000012811D0A06A02280ED0A06A03280BD03D
:10079000A06A042808D0A06A052805D0A06A062807
:1007A00002D0A06A07280FD1206800E027E0406946
:1007B000C008C0002168486120684069218D490750
:1007C000490F0843216848612068C0681049084003
:1007D000A84208D100206063206B022188430121D8
:1007E0000843206310E0206B022188431021084356
:1007F0002063606B012108436063012604E0206BE5
:100800001021084320630126304640E71BC2FEFF4B
:10081000E7FF3FC37047F8B504460D4660690828F6
:1008200001D1082700E00C2700F07EF9064614E00D
:10083000681C002811D0002D04D000F075F9801B31
:10084000A8420AD9206B04210843206300BF00217D
:100850002C20015500BF0320F8BD206800683840F7
:100860000028E5D0206B012149020843206320685D
:10087000C068032189020840002825D1607E002835
:1008800022D1206800680821084008281CD120686F
:10089000806804210840800800280DD12068406845
:1008A0000C21884321684860206BFF210131884377
:1008B00001210843206307E0206B202108432063C7
:1008C000606B012108436063207E002802D10C2068
:1008D000216808600020BFE770B504460025206845
:1008E0008068042108408008002828D100BF2C20FF
:1008F000005D012801D1022070BD01212C2001558D
:1009000000BF2046FFF740FC0546002D18D1206BA4
:100910000C490840FF210131084320630020606337
:1009200000BF00212C20015500BF1C202168086059
:1009300020688068042108432168886000E002255F
:100940002846D9E7FEF1FFFF70B5044600F0ECF849
:1009500006462546681C002802D0054800682D1868
:1009600000BF00F0E1F8801BA842FAD370BD000080
:100970001400002070B503460022CBE0012696400B
:100980000C683440002C71D04D68022D02D04D68A7
:10099000122D15D1D508AE001D462035A859550792
:1009A000EE0E0F25B5400646AE4330465607F60E0E
:1009B0000D69B5402843D508AD001E46203670515C
:1009C000186856000325B5400646AE4330460D79FB
:1009D000AD07AD0F5600B540284318604D68012D96
:1009E00008D04D68022D05D04D68112D02D04D68FC
:1009F000122D18D1986856000325B5400646AE431F
:100A000030465600CD68B5402843986058680125A7
:100A100095400646AE43304610264D6835402D09B8
:100A2000954028435860D86856000325B5400646CF
:100A3000AE43304656008D68B5402843D860012645
:100A400036074D683540B54263D1354D9608B6003E
:100A5000A8599507EE0E0F25B5400646AE43304621
:100A600005252D07AB4202D1002506E051E02D4DB2
:100A7000AB4201D1012500E002259607F60EB540F4
:100A80002843274D9608B600A851254D20352868E3
:100A90000546A5432846012636044D683540B54233
:100AA00002D10546254328461D4D2035286068683B
:100AB0000546A5432846012676044D683540B542D3
:100AC00002D1054625432846154D20356860144D52
:100AD000603D28680546A5432846012636054D6831
:100AE0003540B54202D10546254328460C4D603DB0
:100AF000286068680546A5432846012676054D68A6
:100B00003540B54202D1054625432846044D603D97
:100B10006860521C0D68D540002D00D02EE770BDD6
:100B2000601802400004005001480068704700004F
:100B30000C00002003480068034909684018014977
:100B4000086070470C0000201400002010B500243D
:100B5000032000F009F8002801D0012401E000F092
:100B600033F8204610BD0000F8B5044600251348B0
:100B7000006800281ED0114801687D20C000FFF7E2
:100B8000B7FA074639460E480068FFF7B1FA06463D
:100B900000F092FB00280BD1042C07D20022214642
:100BA000401E00F045F80748046004E0012502E01B
:100BB000012500E001252846F8BD000014000020B2
:100BC000000000201000002008B500BF0E4800689B
:100BD000012108430C49086008460068C007C00F9F
:100BE000009000BF00BF00BF07484038C06B8905B8
:100BF000084305494039C8630846C06B09040840EA
:100C0000009000BF00BF08BD40100240014600290F
:100C100009DB00BF00BFCB06DB0E01229A40034B6D
:100C20001A6000BF00BF00BF7047000000E100E095
:100C300070B504460D4616462946204600F080FD54
:100C400070BD000070B504460D46002C01D1012096
:100C500070BD65480068C007C00FA84218D262483E
:100C600000684008400028435F490860FFF75CFFC8
:100C7000064607E0FFF758FF801B5C49884201D910
:100C80000320E5E758480068C007C00FA842F1D12B
:100C9000022120680840022815D10421206808405C
:100CA000042807D152488068072109038843401867
:100CB0004F4988604E4880680F2109028843A16827
:100CC00008434B4988602078C007C00F002848D0EF
:100CD0006068012808D1464800680121890408405D
:100CE000002822D10120B3E76068002808D14048DD
:100CF0000068012189020840002816D10120A7E7D9
:100D00006068042808D13A484030C0690221084090
:100D100000280AD101209BE735484030006A0221B3
:100D20000840002801D1012092E731488068C008BE
:100D3000C000616808432E498860FFF7F5FE06464B
:100D400007E0FFF7F1FE801B2849884201D9032004
:100D50007EE727488068382108406168C9008842DA
:100D6000EFD121480068C007C00FA84218D91E481B
:100D700000684008400028431B490860FFF7D4FE84
:100D8000064607E0FFF7D0FE801B1849884201D9CC
:100D900003205DE714480068C007C00FA842F1D1E6
:100DA000042120680840042808D1114880680721E0
:100DB00009038843E16808430D49886000F03AF868
:100DC0000B4989680F2212021140090A8900094A59
:100DD000515CC906C90EC840074908600748006849
:100DE000FFF7C2FE34E70000002002408813000035
:100DF00000100240B0190008000000201000002080
:100E000001480068704700000000002000B5FFF7AF
:100E1000F7FF06498968072212031140090B890070
:100E2000034A515CC906C90EC84000BD001002400B
:100E3000F019000870B588B020222B496846FFF7EA
:100E40006DF92A48806838210840002814D12748C5
:100E5000006809020840C10A01258D402348406806
:100E6000072149030840460BB1006A4650582946FD
:100E7000FFF73EF9044634E01C48806838210840FA
:100E8000082801D11A4C2CE0184880683821084005
:100E9000202801D1840224E01448806838210840C9
:100EA00018281DD11148406812490840000C124909
:100EB0008988C905C90D884202D10124E40310E0E4
:100EC0000A4840680B490840000C0B490989C905CC
:100ED000C90D884202D14B24640202E0002400E0E4
:100EE0000024204608B070BD301A000800100240EF
:100EF00000366E010000FF014001FF1F70B504467F
:100F0000002C01D1012070BD2078C007C00F00283F
:100F10001ED0E348866838210E40082E04D1606850
:100F2000002815D10120EEE700BF01218904606887
:100F3000884205D1DA4800680843D949086006E0CC
:100F4000D7480068012189048843D549086000BF5B
:100F500002212068084002287BD1D14880683821CE
:100F600008400646002E48D1CD480068012189027C
:100F70000840002804D02069002801D10120C2E7E0
:100F8000C7484068000C0004A1690843C449486090
:100F9000FFF7CAFD054606E0FFF7C6FD401B022825
:100FA00001D90320AFE7BE4800680121890208404B
:100FB0000028F1D0002E18D1B94800680721C902D5
:100FC000884361690843B6490860FFF733FFB449B5
:100FD00089680F2212021140090A8900B14A515C46
:100FE000C906C90EC840B0490860B0480068FFF79C
:100FF000BBFD002847D0012085E72069002829D0C3
:10100000A74800680721C902884361690843A449C9
:1010100008600846006889150843A1490860FFF781
:1010200083FD054606E0FFF77FFD401B022801D93E
:10103000032068E79A4800680121890208400028D7
:10104000F1D097484068000C0004A1690843944916
:10105000486018E092480068FF21013188439049B8
:101060000860FFF761FD054606E0FFF75DFD401BE8
:10107000022801D9032046E7894800680121890236
:1010800008400028F1D108212068084008286CD1C8
:101090008348806838210840182840D18048403073
:1010A000006A02210840002804D0E069002801D12C
:1010B000012028E77A4840687D490840218C0904CE
:1010C000084377494860FFF72FFD054606E0FFF724
:1010D0002BFD401B022801D9032014E77048403043
:1010E000006A022108400028F1D0182E0FD1FFF726
:1010F000A1FE6B4989680F2212021140090A89007A
:10110000684A515CC906C90EC8406749086067480B
:101110000068FFF729FD002842D00120F3E6E069CE
:10112000002823D05E484030006A012108435C4912
:1011300040310862FFF7F8FC054606E0FFF7F4FCD3
:10114000401B022801D90320DDE655484030006AE3
:10115000022108400028F1D0514840685449084015
:10116000218C090408434E49486019E04C4840303E
:10117000006A400840004A4940310862FFF7D4FC49
:10118000054606E0FFF7D0FC401B022801D90320EA
:10119000B9E643484030006A022108400028F1D1F6
:1011A000042120680840042877D13D488068382110
:1011B000084020280BD13A484030C069022108403D
:1011C00000286AD0A068002867D101209BE6A068AB
:1011D000002808D032480069032109048843E168E7
:1011E00008432F49086100BFA068012808D12C4896
:1011F0004030C0690121084329494031C86121E0DC
:10120000A06805280FD126484030C0690421084352
:1012100023494031C8610846C0690121084320497B
:101220004031C8610EE01E484030C06940084000AF
:101230001B494031C8610846C069042188431849E8
:101240004031C86100BFA068002813D0FFF76CFCD4
:10125000054607E0FFF768FC401B1649884201D9A4
:10126000032050E60E484030C069022108400028A3
:10127000F0D012E0FFF758FC054607E0FFF754FCFA
:10128000401B0C49884201D903203CE60448403009
:10129000C069022108400028F0D1002033E6000098
:1012A00000100240B01900080000002010000020CB
:1012B000FFFF00FE8813000070B504462546681E37
:1012C0000949884201D901200CE0681E074948619C
:1012D0000321081F00F034FA002004498861072028
:1012E0000861002070BD0000FFFFFF0000E000E08B
:1012F00010B50446002C01D1012010BDA0690028C2
:1013000000D000E000BF3D20005D002805D1002195
:101310003C200155204600F030F824213D200155A5
:101320002068C0680121490388432168C8602046BD
:1013300000F0ECF8206A002802D0204600F0CAF83D
:10134000206800690121C90288432168086120687A
:10135000406908218843216848612068C0680121EC
:10136000490308432168C8600020206420213D20F3
:1013700001553E2001550020BFE77047FFB583B0FF
:1013800004460D461746002001903D20005D2028B0
:1013900071D1002D01D0002F02D1012007B0F0BD86
:1013A00001210903A068884208D12069002805D1DD
:1013B000E807C00F002801D00120EFE700BF3C2064
:1013C000005D012801D10220E8E701213C20015500
:1013D00000BF0020206421213D200155FFF7A4FB20
:1013E00001902786678601210903A068884205D1FC
:1013F0002069002802D10026029502E02E46002036
:1014000002901EE006980090002280212046019B59
:1014100000F04EF9002801D00320BFE7002E09D1CB
:1014200002980088C005C00D216848600298801CA1
:10143000029003E0307821684860761C608E401E80
:101440006086608E0028DDD1069800900022402141
:101450002046019B00F02CF9002801D003209DE7D5
:1014600020213D20015500BF00213C20015500BF37
:10147000002093E7FFE7022090E700BFFEE77047F8
:101480007047704710B5FFF755FB10BD10B50D48FC
:101490004068000C00040C49096808430949486089
:1014A00008464068094908400749403189880904CD
:1014B000084304494860C803054988606420FEF772
:1014C00095FF10BD001002400001FF1FFFFF00FE4E
:1014D00000ED00E04022016A1140002915D00168AA
:1014E000496992019143426A1143026851610122A4
:1014F0001203416A914208D10168496903225203EB
:101500009143826A1143026851617047FEB50446F7
:1015100020680069012149038843E1680843216884
:1015200008612169A0680843616908430290206846
:10153000C0685E490840029908432168C860E069B4
:101540000290206840690121C9028843029908433A
:101550002168486120684069032109028843A16924
:101560000843216848610121C902E06988424ED1DF
:10157000FFF74CFC05466268510019226A43104689
:10158000FEF7B6FD06466421FEF7B2FD070162686C
:10159000510019226A431046FEF7AAFD064662680A
:1015A000510019226A431046FEF7A2FD6421009003
:1015B000FEF79EFD64214843301AC000323001908E
:1015C000FEF796FDF821084040003F186268510080
:1015D00019226A431046FEF78BFD064662685100E9
:1015E00019226A431046FEF783FD64210090FEF73E
:1015F0007FFD64214843301AC00032300190FEF76D
:1016000077FD4007400F3818216888604CE0FFF7ED
:10161000FDFB05466268910019226A431046FEF7F9
:1016200067FD06466421FEF763FD070162689100CD
:1016300019226A431046FEF75BFD06466268910078
:1016400019226A431046FEF753FD64210090FEF70D
:101650004FFD64214843301A000132300190FEF7FB
:1016600047FDF02108403F186268910019226A4343
:101670001046FEF73DFD06466268910019226A4356
:101680001046FEF735FD64210090FEF731FD642120
:101690004843301A000132300190FEF729FD00075F
:1016A000000F381821688860FEBD0000F3E9FFFFD5
:1016B000FFB581B004460D4617460A9E24E0701C13
:1016C000002821D0002E05D0FFF72EFA0499401AE9
:1016D000B04219D92068C068FF21A1318843216830
:1016E000C8602068406940084000216848612021A6
:1016F0003D2001553E20015500BF00213C200155F1
:1017000000BF032005B0F0BD206800682840A84253
:1017100001D1012000E00020B842D0D00020F1E744
:101720000FB410B503A9044B044A029800F054F812
:1017300010BC08BC04B01847291900081800002084
:1017400010B5002819DB1A4A03231B02D21883089C
:101750009B00D2588307DC0EFF23A3409A438B07DC
:101760001B0E8407E40EA3401A43114B03242402EA
:101770001B198408A4001A5118E00E4A03071B0F16
:10178000083B9B089B00D2588307DC0EFF23A34035
:101790009A438B071B0E8407E40EA3401A43054BA4
:1017A0000407240F083CA408A4001A5110BD00002F
:1017B00000E100E01CED00E002E008C8121F08C1D3
:1017C000002AFAD170477047002001E001C1121FC2
:1017D000002AFBD170470000FFB58DB004460025FC
:1017E00006E025280AD0109A0F999047641C6D1CBA
:1017F00020780028F5D1284611B0F0BD002701213E
:10180000484A009700E00743641C23780846203BC1
:1018100098401042F7D120782E2817D10420074392
:101820006078641C2A280CD10E98641C02C80091B0
:101830000E900BE000990A22514330394018641C85
:1018400000902078014630390929F3D92078002802
:10185000D1D0642808D0692806D075281ED0109AE7
:101860000F9990476D1C5BE00A200E99019001C909
:101870000E91002802DA40422D2102E0390504D5FC
:101880002B216A461172012103E0F90704D02021BF
:10189000F7E70BAE0B910DE00021FAE70A200E9955
:1018A000019001C90E91F7E70199FEF721FC303153
:1018B000761E31700028F7D103A8801B20300190DC
:1018C000780701D5009801E0012000900199884235
:1018D00001DD401A00E000200027009006E002A889
:1018E000109AC05D0F9990476D1C7F1C0B98874222
:1018F000F5DB04E0109A30200F9990476D1C009999
:10190000481E00900029F5DC05E03078109A761C1E
:101910000F9990476D1C0199481E01900029F4DC35
:10192000641C65E70928010013B50C467D23DB0024
:10193000012269460248FFF721FD00981CBD000006
:1019400060000020FFF702F9FEF7B0FCFEF7E2FCB2
:10195000FEF758FC1BE00E48FEF7BEFF0D490C4891
:10196000FEF759FF0A48FEF787FE0B490860084654
:1019700001680A48FEF7BCFB09490860084601688F
:1019800008A0FFF7CDFE7D20C000FEF7DDFFE2E7F7
:101990001C00002040420F000400002050FB4A00C1
:1019A000080000205643433A25646D560D0A000096
:1019B0000000000000000000000000000000000027
:1019C0000000000000000000000000000000000017
:1019D00001000000020000000300000004000000FD
:1019E00006000000070000000800000009000000D9
:1019F00000000000000000000000000000000000E7
:101A000001000000020000000300000004000000CC
:101A100000000000000000000000000000000000C6
:101A200000366E0100000000000000000000000011
:101A300000000000000000000000000000000000A6
:101A400000366E01000000000000000000000000F1
:101A5000701A0008000000201C000000B8170008E1
:101A60008C1A00081C0000208C040000C817000815
:101A700000366E01000000000000000000000000C1
:0C1A800004000000010000000000000055
:04000005080000C12E
:00000001FF
