:020000040800F2
:10000000B0040020D5000008311200082D120008AD
:1000100000000000000000000000000000000000E0
:10002000000000000000000000000000AF12000807
:100030000000000000000000AD120008B11200082E
:10004000000000000000000000000000E7000008C1
:10005000E7000008E7000008E7000008E7000008E4
:100060000000000000000000000000000000000090
:10007000E7000008E7000008E700000800000000B3
:1000800000000000E700000800000000E700000892
:10009000000000000000000000000000E700000871
:1000A00000000000E700000800000000DD14000868
:1000B0000000000000000000000000000000000040
:1000C0000348854600F0FEFA004800472D1F00084F
:1000D000B00400200448804704480047FEE7FEE7DC
:1000E000FEE7FEE7FEE7FEE7B9120008C1000008E0
:1000F00030B50B46014600202022012409E00D46C0
:10010000D5409D4205D31D469540491B2546954047
:1001100040191546521E002DF1DC30BDF0B50C46DD
:100120005C4085B0E40FE40703944C0000266408AB
:1001300059009446490802460296224321D062465D
:100140000A431ED06200570D4A000E032303550DCB
:10015000012402462C492405781B1B0B360B401842
:1001600023432643614600901C46501AB44103D3F2
:100170000098401C009002E0921800985B41002813
:1001800003DA0020014605B0F0BD00200121090579
:100190000746864611E064461D46141BB54106D34A
:1001A0006546521BB341744607430C43A646CD0730
:1001B00040084908284392185B4105460D43EAD19F
:1001C0001046184313D0604619465040714008430A
:1001D00006D06046101AB34106D20122002306E081
:1001E00000220123DB0702E00122D24353100098D2
:1001F00074460105381C6141029C039D0019694148
:1002000000F0B3F8BFE70000FD0300000EB505499C
:100210000291002100910A460B46019100F0B2F8CC
:1002200003B000BD33040000C20FD20740004008F5
:100230000BD0C10D0723DB01C91840020905400A94
:100240001143C20840071143704700200146704720
:10025000CB0FDB07490010B5490802460A4307D017
:100260000A0D07240903E401090B121B002A01DC13
:10027000002010BDC900440F0C43C100E018D20596
:10028000801800F031F810BDF0B51FB4064600200C
:1002900082B005464024019100901BE0019922465E
:1002A0000F46304600F030FA049A059B801A9941B7
:1002B00010D310461946224600F016FA361A8F411E
:1002C0000197224601200021009F00F00DFA381806
:1002D0004D4100902046641E0028DFDC019B009801
:1002E0002946324607B0F0BD002904DA401C490017
:1002F00001D140084000704770B40024050C05D1BE
:100300001024000402D1002921D01124050E01D1AE
:1003100000020834050F01D10001241D850F01D111
:100320008000A41C002801DB4000641C002908D0C8
:1003300020252E1B0D46F540A14000D00121294368
:10034000084301061B1B000ADB1D02D5002070BC00
:100350007047DB05181880180029F8DA401C49009E
:10036000F5D170BC40084000704710B5002B08DA8A
:100370000024401C614192185B411A4301D140089E
:10038000400010BDF0B51FB482B005460C0003D08C
:10039000084601F047F902E001F044F92030024636
:1003A00000902146284600F09FF9049B059A0446D8
:1003B0000F4618431143084314D0184610431BD06E
:1003C000009840210A1A1846059900F09DF9054643
:1003D0000E46009A0599049800F086F9084305D066
:1003E000012004E02046394607B0F0BD0020C117C7
:1003F00005430E432C43374300990E986305401A7A
:100400007905E40A00220C43FD0A0A3002D50020D7
:100410000146E9E70105101969410C9C0D9D001981
:100420006941FFF7A2FFDFE7F0B5074608465840ED
:1004300087B0C00F049048000E4659004008490894
:10044000BC1A884105D2384631461E4617460B462F
:1004500002465800400810434CD0300D0390400530
:100460005900400D490D0590401A0290402872DA5B
:1004700018030121000B090508430190049800921C
:10048000002805D001995242002088410092019035
:10049000029840210A1A0199009800F025F90546B2
:1004A0000C466B4607CB00F040F9C0197141039A26
:1004B0000E0D0023D71756401A467A40164344D0F3
:1004C000049A002A2DD0029A012A039A15DC1205FB
:1004D000C01A914101263605001C7141D20F059EBC
:1004E000D2070093019202962A462346FFF74AFF5D
:1004F00007B0F0BD38463146FAE71605224A0F46E6
:10050000B218C01AB74101210905001C4F4100185B
:100510007F41114618187941E20F10436D1964416B
:1005200013E0E2076D0815436408C2071443039AF9
:1005300001261205C01A91413605001C7141CE07F3
:10054000400830434908C01851412A462346FFF766
:100550000CFFCDE7FFE7049801224000C117121AF3
:1005600000238B4104983146C417381AA141EEE7A5
:1005700030B40124E407634030BC55E730B40124B3
:10058000E407614030BC4FE70000E0FFF0B51FB466
:1005900088B00B990998002448400999C00F490078
:1005A00049080991C0070B990090490049080B912F
:1005B00009990898A64608431CD00B990A98084345
:1005C00018D0099801244000420D4800410D0998B7
:1005D00024050003000B204309900B980003000B37
:1005E00020430B9050181C494018002201901446DB
:1005F000104605E0002001460DB0F0BD032801DAE9
:10060000034600E003239C46C11A0AAE0AE05F00DD
:1006100008ADED5B4F00F75B7D430027AA187C41D6
:10062000491C5B1E6145F2DD410004AB5A522104B6
:10063000120C0A43240C401C0828DFDB01980290AE
:100640000099704601910090059B049A07990698BD
:10065000FFF798FED0E700000DFCFFFF4A000903FA
:100660000123090B1B0519430A4B10B5520D9A4281
:1006700002DA0020014610BD064B34339A4203DCF7
:100680009A1A00F041F810BD034BD21800F02CF874
:1006900010BD0000FF030000CDFBFFFF10B50029D7
:1006A00004DB0124E40740428C412146002B04DB9B
:1006B0001C460123DB075242A341994200D19042DC
:1006C00010BD0000064C0125064E05E0E36807CC8E
:1006D0002B430C3C98471034B442F7D3FFF7F4FC9B
:1006E000D81F0008F81F000810B5202A04DB0146B7
:1006F000203A9140002010BD914020239C1A0346CF
:10070000E3401943904010BD10B5202A04DB084691
:10071000203AD040002110BD0B46D340D0402024C9
:10072000A21A91400843194610BD10B5202A06DBD5
:10073000CB170846203A1041C1170B4306E00B4681
:100740001341D0402024A21A91400843194610BDFD
:100750001FB52648006B012109050843234908639A
:100760000846006B0121090588432049086300BF42
:100770001E48403000680121090508431B494031EB
:10078000086008460068012109050840009000BF84
:1007900000BF174817490860084600F0B5F814482C
:1007A00014490860C0044860002112488160C1609B
:1007B000012101610421416101210176002141767D
:1007C0008176FF21C231C1610021016241620621AF
:1007D000816200F0ADF90920019001200003029030
:1007E00001A9044800F0E0F81FBD0000001002401D
:1007F000002401407400002038B504460020009019
:1008000020688068C007C00F012148404840002888
:1008100027D12068806814490840002801D10120B0
:1008200000E00020002809D1206B1021084320633C
:10083000606B012108436063012038BD2068806837
:100840000121084321688860084909480068FFF7CA
:100850004FFC009002E00098401E00900098002895
:10086000F9D10020E9E700001700008040420F00A6
:1008700000000020F8B5154800F086FA1449134826
:1008800000F021FA114800F04FF9124908600846BB
:100890000068FFF7BBFC044622460B4600200E49C9
:1008A000FFF73CFC0646FFF7D3FC0C4908600846FE
:1008B0000068FFF7B9FC044622460B4608A000F08A
:1008C000A1FE7D20C00000F097FAF8BD7400002062
:1008D00080969800140000200032B34018000020D9
:1008E0005643433A256620560D0A000008B50549CF
:1008F0004143009100BF00BF00994A1E00920029A9
:10090000F9D108BDB80B000070B5044600250026DB
:1009100000BF2C20005D012801D1022070BD012103
:100920002C20015500BF206880680840484048409E
:1009300000282CD1206B0902884302210843206340
:1009400020688068890708432168886000F044FBBC
:10095000064611E000F040FB801B02280CD9206BFA
:100960000221884310210843206300BF00212C206E
:10097000015500BF0120D1E720688068C00FC00783
:100980000028E7D1206B02218843206304E0206B1C
:10099000202108432063012500BF00212C200155A0
:1009A00000BF2846BAE70000F8B504460D46002609
:1009B00000200090A06A002815D0A06A012812D05B
:1009C000A06A02280FD0A06A03280CD0A06A0428CD
:1009D00009D0A06A052806D0A06A062803D0A06A1C
:1009E000072800D000BF00BF2C20005D012801D1E6
:1009F0000220F8BD01212C20015500BF206880682D
:100A0000042108408008002879D143496868884259
:100A100059D02068806A2A780121914008432168D2
:100A20008862A06A002829D0A06A012826D0A06A7E
:100A3000022823D0A06A032820D0A06A04281DD051
:100A4000A06A05281AD0A06A062817D0A06A07282D
:100A500014D0A868216849694907490F88420DD018
:100A600020684069C008C00021684861206840696A
:100A7000297A4907490F08432168486128680828EE
:100A800002D0286809283FD12448806829680829AD
:100A900001D1090501E00121890508431F4988604A
:100AA0002868082830D11E491E480068FFF720FB3F
:100AB0000A214843009002E00098401E00900098F0
:100AC0000028F9D120E02068806A2A78012191402D
:100AD0008843216888622868082802D02868092885
:100AE00012D10E4880682968082902D1090502E060
:100AF00005E00121890588430849886004E0206BEE
:100B0000202108432063012600BF00212C2001552D
:100B100000BF30466DE700000110000000270140D3
:100B200040420F000000002001460868006C70473A
:100B300070B5044600260025002C01D1012070BDAF
:100B4000206B002806D1606300212C20015520462F
:100B500000F0B8F8206B1021084000287ED1002E4C
:100B6000FCD1206880680421084080080028F5D165
:100B7000206B890188430221084320632068806834
:100B8000C007C00F01214840484000280FD120680D
:100B9000C06818218843A16808432168C86020689C
:100BA0000069000100096168084321680861206844
:100BB000C068424908402168C860207E8003617E89
:100BC00049030843616A012902D00121090300E0B9
:100BD00000210843E16808432169022901D1042169
:100BE00000E0002108430543A07E01280ED1607E6D
:100BF000002803D101200004054307E0206B2021D9
:100C000008432063606B012108436063FF21C23108
:100C1000E069884203D0216AE069084305432068FF
:100C2000C06828432168C860A06A002814D0A06A60
:100C3000012811D0A06A02280ED0A06A03280BD088
:100C4000A06A042808D0A06A052805D0A06A062852
:100C500002D0A06A07280FD1206800E027E0406991
:100C6000C008C0002168486120684069218D49079B
:100C7000490F0843216848612068C068104908404E
:100C8000A84208D100206063206B02218843012123
:100C90000843206310E0206B0221884310210843A1
:100CA0002063606B012108436063012604E0206B30
:100CB0001021084320630126304640E71BC2FEFF97
:100CC000E7FF3FC37047F8B504460D466069082842
:100CD00001D1082700E00C2700F07EF9064614E059
:100CE000681C002811D0002D04D000F075F9801B7D
:100CF000A8420AD9206B04210843206300BF0021C9
:100D00002C20015500BF0320F8BD20680068384042
:100D10000028E5D0206B01214902084320632068A8
:100D2000C068032189020840002825D1607E002880
:100D300022D1206800680821084008281CD12068BA
:100D4000806804210840800800280DD12068406890
:100D50000C21884321684860206BFF2101318843C2
:100D600001210843206307E0206B20210843206312
:100D7000606B012108436063207E002802D10C20B3
:100D8000216808600020BFE770B504460025206890
:100D90008068042108408008002828D100BF2C204A
:100DA000005D012801D1022070BD01212C200155D8
:100DB00000BF2046FFF720FD0546002D18D1206B0F
:100DC0000C490840FF210131084320630020606383
:100DD00000BF00212C20015500BF1C2021680860A5
:100DE00020688068042108432168886000E00225AB
:100DF0002846D9E7FEF1FFFF70B5044600F0ECF895
:100E000006462546681C002802D0054800682D18B3
:100E100000BF00F0E1F8801BA842FAD370BD0000CB
:100E20000C00002070B503460022CBE0012696405E
:100E30000C683440002C71D04D68022D02D04D68F2
:100E4000122D15D1D508AE001D462035A8595507DD
:100E5000EE0E0F25B5400646AE4330465607F60E59
:100E60000D69B5402843D508AD001E4620367051A7
:100E7000186856000325B5400646AE4330460D7946
:100E8000AD07AD0F5600B540284318604D68012DE1
:100E900008D04D68022D05D04D68112D02D04D6847
:100EA000122D18D1986856000325B5400646AE436A
:100EB00030465600CD68B5402843986058680125F3
:100EC00095400646AE43304610264D6835402D0904
:100ED000954028435860D86856000325B54006461B
:100EE000AE43304656008D68B5402843D860012691
:100EF00036074D683540B54263D1354D9608B6008A
:100F0000A8599507EE0E0F25B5400646AE4330466C
:100F100005252D07AB4202D1002506E051E02D4DFD
:100F2000AB4201D1012500E002259607F60EB5403F
:100F30002843274D9608B600A851254D203528682E
:100F40000546A5432846012636044D683540B5427E
:100F500002D10546254328461D4D20352860686886
:100F60000546A5432846012676044D683540B5421E
:100F700002D1054625432846154D20356860144D9D
:100F8000603D28680546A5432846012636054D687C
:100F90003540B54202D10546254328460C4D603DFB
:100FA000286068680546A5432846012676054D68F1
:100FB0003540B54202D1054625432846044D603DE3
:100FC0006860521C0D68D540002D00D02EE770BD22
:100FD000601802400004005001480068704700009B
:100FE00004000020034800680349096840180149CB
:100FF00008607047040000200C00002010B5002499
:10100000032000F009F8002801D0012401E000F0DD
:1010100033F8204610BD0000F8B5044600251348FB
:10102000006800281ED0114801687D20C000FFF72D
:101030005FF8074639460E480068FFF759F806463C
:1010400000F04CF800280BD1042C07D200222146D6
:10105000401E00F01FF80748046004E0012502E08C
:10106000012500E001252846F8BD00000C00002005
:1010700000000020080000207047000000BFC206EA
:10108000D20E01219140024A116000BF704700005A
:1010900000E100E070B504460D461646294620469C
:1010A00000F0C8F870BD00000148006870470000FB
:1010B0000000002000B5FFF7F7FF06498968072206
:1010C00012031140090B8900034A515CC906C90E7D
:1010D000C84000BD00100240981F000870B50446CB
:1010E0002546681E0949884201D901200CE0681E86
:1010F000074948610321081F00F09CF800200449BB
:10110000886107200861002070BD0000FFFFFF001C
:1011100000E000E010B50446002C01D1012010BD14
:10112000A069002800D000E000BF3D20005D00283D
:1011300005D100213C200155204600F031F8242142
:101140003D2001552068C06801214903884321687A
:10115000C860204600F0F0F8206A002802D020463F
:1011600000F0CEF8206800690121C9028843216897
:101170000861206840690821884321684861206827
:10118000C0680121490308432168C8600020206429
:1011900020213D2001553E2001550020BFE70000E1
:1011A00010B586B004461F492068884237D100BF79
:1011B0001D48406B012108431B4948630846406BAA
:1011C000C007C00F009000BF00BF00BF16484030EE
:1011D000006801218903084313494031086008462B
:1011E0000068012189030840009000BF00BF18205B
:1011F000019002200290012003900220049001201F
:10120000059001A905200007FFF70CFE012200212F
:101210001B20FFF73FFF1B20FFF730FF00BF06B08A
:1012200010BD0000003801400010024000BFFEE782
:101230007047000010B5002819DA1A4A03071B0F7F
:10124000083B9B089B00D2588307DC0EFF23A3407A
:101250009A438B071B0E8407E40EA3401A43114BDD
:101260000407240F083CA408A4001A5118E00E4AF1
:1012700003231B02D21883089B00D2588307DC0E7D
:10128000FF23A3409A438B071B0E8407E40EA34061
:101290001A43054B032424021B198408A4001A5185
:1012A00010BD00001CED00E000E100E07047704759
:1012B00010B5FFF797FE10BD10B50D484068000C43
:1012C00000040C4909680843094948600846406819
:1012D00009490840074940318988090408430449FD
:1012E0004860C803054988606420FFF7FFFA10BD15
:1012F000001002400001FF1FFFFF00FE00ED00E0B4
:101300004022016A1140002915D001684969920103
:101310009143426A11430268516101221203416AFA
:10132000914208D101684969032252039143826ABC
:101330001143026851617047FEB504462068006998
:10134000012149038843E168084321680861216954
:10135000A06808436169084302902068C0685E493C
:101360000840029908432168C860E069029020683B
:1013700040690121C90288430299084321684861F4
:1013800020684069032109028843A1690843216854
:1013900048610121C902E06988424ED1FFF78AFE07
:1013A00005466268510019226A431046FEF7A0FE06
:1013B00006466421FEF79CFE07016268510019226F
:1013C0006A431046FEF794FE0646626851001922F1
:1013D0006A431046FEF78CFE64210090FEF788FEFB
:1013E00064214843301AC00032300190FEF780FE7D
:1013F000F821084040003F186268510019226A43F2
:101400001046FEF775FE06466268510019226A43CF
:101410001046FEF76DFE64210090FEF769FE642120
:101420004843301AC00032300190FEF761FE400799
:10143000400F3818216888604CE0FFF73BFE0546F6
:101440006268910019226A431046FEF751FE064673
:101450006421FEF74DFE07016268910019226A437C
:101460001046FEF745FE06466268910019226A435F
:101470001046FEF73DFE64210090FEF739FE642120
:101480004843301A000132300190FEF731FEF0215E
:1014900008403F186268910019226A431046FEF71F
:1014A00027FE06466268910019226A431046FEF73D
:1014B0001FFE64210090FEF71BFE64214843301A92
:1014C000000132300190FEF713FE0007000F3818BC
:1014D00021688860FEBD0000F3E9FFFF1248006844
:1014E00020210840002810D00F4840680F49104ABA
:1014F000127888540E480078401C0D4908700A483C
:1015000000682021884308490860074800681021C6
:101510000840002806D001200649087002480068EB
:10152000014840687047000000380140200000205A
:10153000100000201100002000BF0449096840226B
:1015400011400029F9D00149486070470038014036
:1015500000B587B000BF0D48406B012108430B491F
:1015600048630846406BC007C00F019000BF00BF32
:10157000082002900120039004900220059002A907
:1015800005200007FFF74EFC07B000BD0010024029
:101590000348806801218903084301498860704736
:1015A0000010024010B5154815490860E1204002BE
:1015B0004860002112488160C160016181610C2195
:1015C0004161FFF7A7FD0D48C068042108430B499E
:1015D000C8600846C068082108430849C860084632
:1015E000C068102108430549C8600846C06820212A
:1015F00008430249C8600020486010BD003801401F
:10160000300000200FB410B503A9044B044A02981F
:1016100000F0E8F810BC08BC04B018471D1F000813
:101620001C0000202021020C01D010211046020ACB
:1016300001D010460839020901D01046091F82085E
:1016400001D01046891E420801D0881E7047081A32
:10165000704702E008C8121F08C1002AFAD170477B
:101660007047002001E001C1121F002AFBD1704722
:10167000F0B51FB486B00998089A030D0021024303
:1016800014D05148514A1818504305141198012894
:1016900010981AD0281A401C00264D4F4D4900962C
:1016A00001910490002812DA444211E011980124BB
:1016B00049A3012801D11098C1430698119A84606A
:1016C0000360C26041600BB0F0BD4042E4E70446F5
:1016D000210500203F4A001C51410391029012E075
:1016E000E00707D032463B4601990098FEF74EFFCF
:1016F0000191009032463B4610461946FEF746FFE0
:1017000006460F466410002CEAD10498039B00287B
:10171000029A0999089806DAFEF738FF019B009AA9
:10172000FEF734FF05E0FEF7F9FC019B009AFEF797
:10173000F5FC04460E460022284BFEF7AFFF03D807
:101740000020C043014607E00022254B20463146D9
:10175000FEF76AFEFEF782FF102409E0002C0ADB88
:101760000A220023FEF790FD079B30321A55641EB3
:1017700002460A43F2D11122641C079B121B1C195A
:10178000119B012B03D0012308430ED10AE008432B
:1017900004D0112010900020119077E71098151AAE
:1017A0006D1E0BE01098824202DD00236D1C03E0E9
:1017B000824201DA00236D1E002BEED006981199AB
:1017C0008260C16030C07EE701FCFFFF104D000069
:1017D000000014400000F03F300000000000F04323
:1017E0000000E03FFFB597B00646002518E2252827
:1017F00077D100242746FD49049400E00443761C79
:1018000032780120203A90400842F7D130782A28D7
:101810000ED00222307801463039092916D80499B1
:101820000A235943303940181443761C0490F1E7D9
:10183000189802C804911890002904DA0120400386
:1018400004434842049002200443761C30782E283A
:1018500014D1042004437078761C2A2809D11898E2
:10186000761C80C8189009E00A214F43303FC71901
:10187000761C3078014630390929F5D930786C2842
:1018800010D006DC4C281AD068280ED06A2817D150
:1018900004E0742813D07A2812D110E0012040050A
:1018A00004430CE00121090501E0032109050C4373
:1018B0007178814203D1012000052418761C761C22
:1018C0003078119066280BD013DC58287DD009DCC5
:1018D00000287BD04528F6D04628F4D047281AD1D6
:1018E000A5E118E0632835D0642870D0652812D1AE
:1018F0009DE170286CD008DC6728F1D069287BD086
:101900006E280DD06F2806D1BAE073282ED0752826
:1019100071D0782859D01A9A199990476D1C7EE198
:101920006002400F022809D003280DD0042818981F
:1019300001680DD00D60001D189070E11898EA172D
:1019400001680D604A60F6E7189801680D80F2E7BB
:101950000D70F0E718986A4601781172001D189012
:101960000020507202A80090012005E0189802C8DB
:10197000189000200091C04361070DD5002101E0BF
:101980000199491C0191B94212DA8142F8DB009AAF
:10199000515C0029F4D10BE0002101E00199491CC0
:1019A00001918142FADB019A0099895C0029F5D105
:1019B000019904981A9B471A21463846199A00F053
:1019C00097FA0199401945180BE04FE02CE113E01C
:1019D0004EE0009800990078491C00911A9A1999D4
:1019E00090470198401E0190401CF2D12146384694
:1019F0001A9B199A10E137E00A200021009001910A
:101A00006002410F022907D0189A01CA1892C21722
:101A10009446032908D00AE01898C01DC108C900DF
:101A200005C91891944607E000B2C21794460429EC
:101A300002D140B2C1178C4600226146944506DAB5
:101A40000A460021404291418C462D2102E02105A9
:101A500004D52B216A461173012103E0E10701D06F
:101A60002021F7E7029155E00A200AE0102008E063
:101A7000102000900021042004430191082703E076
:101A800008200021019100906002410F022907D037
:101A9000189A01CA189200229446032908D008E037
:101AA0001898C01DC108C90005C91891944603E0E3
:101AB00080B2042900D1C0B200210291210729D5AA
:101AC0001199702906D0009A1021019B4A401A43AF
:101AD00005D00EE040216A461173012108E06146FD
:101AE000014306D030216A461173119951730221C6
:101AF0000291009A0821019B4A401A430AD161468B
:101B0000014301D1610705D530216A4611730121D6
:101B10007F1E02911199582904D035A10E910DA96B
:101B20000D910DE037A1F9E76146019B009AFEF7A0
:101B3000ABFB0E9B8C469B5C0D9A521E0D92137054
:101B400061460143F0D10D9805A9081A2030019093
:101B5000600703D501200004844300E001270198B9
:101B6000874201DD381A00E00020019900904118F9
:101B7000029809180498401A0490E00306D42146FC
:101B80001A9B199A049800F0B3F94519002706E04A
:101B900003A81A9AC05D199990476D1C7F1C029882
:101BA0008742F5DBE0030CD521461A9B199A04986D
:101BB00000F09EF9451904E01A9A302019999047CF
:101BC0006D1C0099481E00900029F5DC08E00D9876
:101BD0000D990078491C0D911A9A199990476D1C1E
:101BE0000199481E01900029F1DC63E109280100F8
:101BF0003031323334353637383961626364656683
:101C00000000000030313233343536373839414244
:101C1000434445460000000000F05AF94519761C7F
:101C20003078002800D0E2E528461BB0F0BD600700
:101C300000D406271898C01DC108C90048680A6862
:101C40000831C30FDB071891190001D09CA108E0EF
:101C5000210501D59BA104E0E10701D09AA100E094
:101C60009AA1430011985B08109165280CD006DCFE
:101C7000452809D046281DD0472841D141E0662893
:101C800018D067283CD13CE00021112F01DB112046
:101C900000E0781C0191009008A911A8FFF7E8FC6A
:101CA000139905910021119A15927F1C12980197A2
:101CB000009150E00120C00703900120019008A985
:101CC000009711A8FFF7D4FC139A149905920022EB
:101CD000119B009212981593059A0192002901D048
:101CE000104602E0791C40180190381A01D501987D
:101CF00004E04042401E0090781C0190C01B0290FE
:101D000043E0012F00DA01270021112F01DD11200E
:101D100000E038460191009008A911A8FFF7A8FC3F
:101D200013990591119A002112981592009101972B
:101D300021070CD40599B94201DB019900E001911A
:101D4000012904DD159A491E515C302906D0B8429C
:101D500001DA011D05DA0121029115E00199491E00
:101D6000EDE7002805DC0099411800910199091A56
:101D700003E0019A411C914200DD01910099401A53
:101D8000401C02900120C0070390200706D402994E
:101D90000198814202DB0020C04302900020694686
:101DA000C87707AF012103980337C907884224D0B9
:101DB000022011902B201290039800280CDA404248
:101DC00003902D20129007E00A210398FEF790F966
:101DD00030317F1E039039701199481E11900029EF
:101DE000F2DC03980028EFD1791E12980870307841
:101DF000202108404530BF1E387006A8C01BC01DFA
:101E0000039010980078002800D001200199411813
:101E10000298C0170918039809180498401A401E20
:101E20000490E00306D421461A9B199A049800F006
:101E30005FF8451910980078002803D01A9A19996C
:101E400090476D1CE00324D521461A9B199A0498EB
:101E500000F04EF845191CE00098002807DB0099B7
:101E60000598884203DD1598405C199901E019999D
:101E700030201A9A904700986D1C401C00900298E0
:101E8000401E0290002804D11A9A2E2019999047DA
:101E90006D1C0199481E01900029DDDC05E03878B1
:101EA0001A9A7F1C199990476D1C0399481E03903C
:101EB0000029F4DC21461A9B199A0498ACE600002C
:101EC0002D0000002B00000020000000000000009A
:101ED000F8B5044600251E461746880404D405E0DC
:101EE00039462020B0476D1C641EF9D52846F8BD40
:101EF000FFB50446002581B01E46C80301D5302732
:101F000000E02027880404D505E038460399B0474F
:101F10006D1C641EF9D5284605B0F0BD10B503460A
:101F20000C46D8B2FFF708FB184610BDFFF766F85D
:101F3000FFF72EFBFFF70CFBFFF734FB04A0FFF7C6
:101F400061FBFEF705FC01E0FEF794FCFCE70000F6
:101F500068656C6C6F0D0A00000000000000000056
:101F60000000000000000000000000000000000071
:101F7000000000000000000001000000020000005E
:101F8000030000000400000006000000070000003D
:101F90000800000009000000000000000000000030
:101FA000000000000000000001000000020000002E
:101FB000030000000400000000000000000000001A
:101FC000000000000000000000366E01000000006C
:101FD0000000000000000000F81F000800000020C2
:101FE00020000000521600081820000820000020E1
:101FF000900400006216000800366E010000000028
:1020000004000000010000000000000000000000CB
:082010000000000000000000C8
:04000005080000C12E
:00000001FF
