:020000040800F2
:1000000080040020D9000008950700088107000837
:1000100000000000000000000000000000000000E0
:1000200000000000000000000000000013080008AD
:10003000000000000000000011080008150800087A
:10004000000000000000000000000000EB000008BD
:10005000EB000008EB000008EB000008EB000008D4
:100060000000000000000000000000000000000090
:10007000EB000008EB000008EB00000800000000A7
:1000800000000000EB00000800000000EB0000088A
:10009000000000000000000000000000EB0000086D
:1000A00000000000EB0000080000000065080008E8
:1000B0000000000000000000000000000000000040
:1000C0000448854600F03EF8004800474109000812
:1000D000C046C046800400200448804704480047CA
:1000E000FEE7FEE7FEE7FEE7FEE7FEE71D08000885
:1000F000C100000830B50B46014600202022012433
:1001000009E00D46D5409D4205D31D469540491B4B
:100110002546954040191546521E002DF1DC30BD94
:10012000D2B201E00270401C491EFBD2704700228F
:10013000F6E710B513460A4604461946FFF7F0FFE6
:10014000204610BD064C0125064E05E0E36807CCAD
:100150002B430C3C98471034B442F7D3FFF7B4FF5D
:1001600090090008B009000800B587B0182101A85F
:10017000FFF7DDFF00F094F900F078F90820019016
:10018000FF20000205906F204002069001A800F0B9
:1001900059F800F045F800F057F900F049F907B0B8
:1001A00000BD000008B505494143009100BF00BFF4
:1001B00000994A1E00920029F9D108BDB80B000031
:1001C00010B5074B1A6AFF23034314469C4322468B
:1001D00013460B43AA242343014C236210BD0000A5
:1001E0000020024070B5044600F054FA051905E0FD
:1001F00000F050FAA84201D3032070BD0648006900
:10020000012109040840000C0028F1D103480249EB
:1002100008610020F1E7000000200240118000008A
:10022000012007494969C2071143054A5161114636
:100230004969C90FC907002900D000207047000094
:100240000020024070B50446012500BF73480078C5
:10025000012801D1022070BD01207049087000BF43
:1002600000BF6F494968072252031140480B6D498E
:10027000096882006C4B9A581288D205D20D9142BF
:1002800046D16849496882009A5812681201920D55
:1002900091423DD16349096982009A5812689203DC
:1002A000D20D914234D15F49896882009A58928870
:1002B000D205D20D91422BD15A49C96882009A5871
:1002C00052681201120D914222D1564949698200A9
:1002D0009A5892689203920B914219D151498969B7
:1002E00082009A58D2689203920B914210D14D49E4
:1002F000C96982009A58128A92B2914208D149493A
:10030000096A82009A5812699200920C914248D070
:1003100000BF8100444A51580988C905C90D414AA6
:1003200011608100404A515809680901890D3D4A10
:10033000516081003C4A515809688903C90D394A06
:1003400011618100384A51588988C905C90D354A5B
:1003500091608100344A515849680901090D314AB8
:10036000D1608100304A515889688903890B2D4A30
:10037000516181002C4A5158C9688903890B294A67
:1003800091618100284A5158098A89B2254AD16170
:100390008100254A515809698900890C214A116256
:1003A00000BF00BF2078C007C00F002804D0A0887D
:1003B000C04380B21D49C86202212068084000285D
:1003C00005D0E1680902A06808431849486208217D
:1003D00020680840002803D061692069FFF7F0FE1B
:1003E0001248406901214904084310494861084600
:1003F00040690121090608430C494861FF20094969
:10040000803908607D20C000FFF7ECFE054600BF84
:1004100000200249087000BF28461CE71400002095
:100420000010024000210240700900080020024034
:10043000044840690121C906084302494861012076
:1004400070470000002002400120074949698207E7
:100450001143054A5161114649698207114000293B
:1004600000D0002070470000002002400120094910
:1004700049698207114000290BD00749054AD1601C
:100480000649D1601146496982071140002900D10F
:1004900000207047002002403B2A19087F6E5D4C07
:1004A000002009494969C90FC90700290BD007492C
:1004B000054A91600649916011464969C90FC9070B
:1004C000002900D001207047002002402301674529
:1004D000AB89EFCD70B503460022CBE001269640F4
:1004E0000C683440002C71D04D68022D02D04D684C
:1004F000122D15D1D508AE001D462035A859550737
:10050000EE0E0F25B5400646AE4330465607F60EB2
:100510000D69B5402843D508AD001E462036705100
:10052000186856000325B5400646AE4330460D799F
:10053000AD07AD0F5600B540284318604D68012D3A
:1005400008D04D68022D05D04D68112D02D04D68A0
:10055000122D18D1986856000325B5400646AE43C3
:1005600030465600CD68B54028439860586801254C
:1005700095400646AE43304610264D6835402D095D
:10058000954028435860D86856000325B540064674
:10059000AE43304656008D68B5402843D8600126EA
:1005A00036074D683540B54263D1354D9608B600E3
:1005B000A8599507EE0E0F25B5400646AE433046C6
:1005C00005252D07AB4202D1002506E051E02D4D57
:1005D000AB4201D1012500E002259607F60EB54099
:1005E0002843274D9608B600A851254D2035286888
:1005F0000546A5432846012636044D683540B542D8
:1006000002D10546254328461D4D203528606868DF
:100610000546A5432846012676044D683540B54277
:1006200002D1054625432846154D20356860144DF6
:10063000603D28680546A5432846012636054D68D5
:100640003540B54202D10546254328460C4D603D54
:10065000286068680546A5432846012676054D684A
:100660003540B54202D1054625432846044D603D3C
:100670006860521C0D68D540002D00D02EE770BD7B
:100680006018024000040050002A01D0816100E09F
:100690008162704701480068704700000400002034
:1006A0000348006803490968401801490860704719
:1006B000040000200C00002010B50024032000F0EE
:1006C00009F8002801D0012401E000F033F82046A9
:1006D00010BD0000F8B50446002513480068002846
:1006E0001ED0114801687D20C000FFF703FD0746BA
:1006F00039460E480068FFF7FDFC064600F024F876
:1007000000280BD1042C07D200222146401E00F005
:1007100012F80748046004E0012502E0012500E02A
:1007200001252846F8BD00000C0000200000002034
:1007300008000020704770B504460D46164629464D
:10074000204600F029F870BD70B504462546681EA5
:100750000949884201D901200CE0681E0749486117
:100760000321081F00F018F80020044988610720C1
:100770000861002070BD0000FFFFFF0000E000E006
:1007800000BFFEE710B50022022105200007FFF799
:100790007BFF10BD7047000010B5002819DA1A4A17
:1007A00003071B0F083B9B089B00D2588307DC0EF6
:1007B000FF23A3409A438B071B0E8407E40EA3403C
:1007C0001A43114B0407240F083CA408A4001A5133
:1007D00018E00E4A03231B02D21883089B00D2584C
:1007E0008307DC0EFF23A3409A438B071B0E84076D
:1007F000E40EA3401A43054B032424021B1984086A
:10080000A4001A5110BD00001CED00E000E100E062
:100810007047704710B5FFF743FF10BD10B50D4886
:100820004068000C00040C49096808430949486005
:100830000846406809490840074940318988090449
:10084000084304494860C803054988606420FFF7ED
:10085000A9FC10BD001002400001FF1FFFFF00FEB9
:1008600000ED00E01248006820210840002810D068
:100870000F4840680F49104A127888540E48007893
:10088000401C0D4908700A48006820218843084927
:1008900008600748006810210840002806D00120A1
:1008A0000649087002480068014840687047000027
:1008B000003801402C000020100000201100002012
:1008C00000B587B000BF1048406B012108430E49B6
:1008D00048630846406BC007C00F019000BF00BFCF
:1008E000022002900120039004900220059002A9AA
:1008F00005200007FFF7EEFD012202210520000779
:10090000FFF7C2FE07B000BD001002400348806838
:1009100001218903084301498860704700100240A3
:1009200002E008C8121F08C1002AFAD170477047B8
:10093000002001E001C1121F002AFBD17047000016
:10094000FFF7BAFEFFF7E2FFFFF7BAFF0748006ABA
:1009500003214903084001218903884202D0FFF79F
:1009600003FC01E0FFF70EFF00BFFEE7002002409E
:100970001C01FF1F1C01FF1F1C01FF1F1C01FF1F8B
:100980001C01FF1F3001FF1F1C01FF1F1C01FF1F67
:10099000B009000800000020140000002009000831
:1009A000C4090008140000206C040000300900088D
:1009B00000366E010000000004000000010000008D
:0409C0000000000033
:04000005080000C12E
:00000001FF
