:020000040000FA
:10000000C00500209D01000059060000F905000010
:100010005506000087040000C32100000000000016
:10002000000000000000000000000000FD1C0000B7
:100030000B05000000000000D31B0000151E00008F
:10004000B7010000B7010000B7010000B7010000D0
:10005000B7010000B7010000B7010000B7010000C0
:10006000B7010000B7010000B7010000B7010000B0
:10007000B7010000B7010000B7010000B7010000A0
:10008000B7010000B7010000B7010000B701000090
:10009000B7010000B7010000B7010000B701000080
:1000A000B7010000B7010000B7010000B701000070
:1000B000B7010000B7010000B7010000B701000060
:1000C000B7010000B7010000B7010000B701000050
:1000D000B7010000BD1E0000B7010000B70100001D
:1000E000B7010000B7010000B7010000B701000030
:1000F000B7010000B7010000B7010000B701000020
:10010000B7010000B7010000B7010000B70100000F
:10011000B7010000B7010000B7010000B7010000FF
:10012000B7010000B7010000B7010000B7010000EF
:10013000B7010000B7010000B7010000B7010000DF
:10014000B7010000B7010000B7010000B7010000CF
:10015000B7010000B7010000B7010000B7010000BF
:10016000B7010000B7010000B7010000B7010000AF
:10017000B7010000B7010000B7010000B70100009F
:10018000B7010000B7010000DFF80CD000F07AF8EA
:100190000048004761270000C0050020064880474E
:1001A00006480047FEE7FEE7FEE7FEE7FEE7FEE75C
:1001B000FEE7FEE7FEE7FEE7551E000089010000AE
:1001C00040EA01039B0703D009E008C9121F08C0D9
:1001D000042AFAD203E011F8013B00F8013B521E59
:1001E000F9D27047D2B201E000F8012B491EFBD2D0
:1001F00070470022F6E710B513460A460446194632
:10020000FFF7F0FF204610BD30B50446002003463E
:1002100000E05B1C934203D2E05CCD5C401BF8D055
:1002200030BD2DE9F05F0546002092469B4688468A
:100230000646814640241BE0284641464746224662
:1002400000F041F853465A46C01A914110D3114666
:100250001846224600F028F82D1A67EB01084F4691
:1002600022460120002100F01FF817EB00094E4143
:10027000201EA4F10104DFDC484631462A464346ED
:10028000BDE8F09F064C074D06E0E06840F0010332
:1002900094E8070098471034AC42F6D3FFF778FF94
:1002A000BC2C0000DC2C0000202A04DB203A00FAE1
:1002B00002F1002070479140C2F1200320FA03F3BD
:1002C000194390407047202A04DB203A21FA02F0BB
:1002D0000021704721FA02F3D040C2F12002914080
:1002E000084319467047CA430260704721B18268CB
:1002F00042F00102826003E0826822F00102826023
:10030000704700000021084A1168084A1140D0E9EE
:1003100000231A4383681A43C3681A431143044AEB
:10032000C2F804137047000004230140E030FCFFD2
:10033000002001400021016041608160C160704780
:100340000146C86C80B270470246002013680B401B
:100350000BB1012000E000207047000030B50246DC
:10036000002000235068104C20400D790C6844EAAE
:1003700005242043506090680C4C2040D1E9035480
:100380002C438D682C434D7944EA4504204390600A
:10039000D06A20F470000C7D641EE4B2234340EA6E
:1003A0000350D06230BD0000FFFEFFFCFDF7FFC030
:1003B000F0B504460D4600200021092D11DDE0684E
:1003C000A5F10A0606EB4607072606FA07F1884359
:1003D000A5F10A0606EB460603FA06F10843E060BB
:1003E0000CE0206905EB4507072606FA07F188436C
:1003F00005EB450603FA06F108432061072A0FDAE8
:10040000606B561E06EB86071F2606FA07F1884327
:10041000561E06EB860605FA06F10843606322E0E5
:100420000D2A0FDA206BD61F06EB86071F2606FA69
:1004300007F18843D61F06EB860605FA06F1084346
:10044000206310E0E06AA2F10D0606EB86071F2686
:1004500006FA07F18843A2F10D0606EB860605FAB7
:1004600006F10843E062F0BD816841F0804181609F
:10047000704700210160017141718160C1600161BB
:1004800001210175704700BFFEE72DE9F0410646E6
:100490000F4600240025A04600BF0EE0002508E01E
:1004A000305D40FA05F1404600F00EF88046681CC9
:1004B000C5B2082DF4DB601CC4B2BC42EEDB6FEAAF
:1004C000080080B2BDE8F08110B50A46002100F0B6
:1004D000010302F0010483EA040100F0020383EA4D
:1004E00041044FF6FD730340234498B200F4804367
:1004F00083EA81344BF6FF730340234498B24010E3
:10050000034661F3DF33184610BD7047F0B50A4665
:1005100000210023002400BF3DE0012505FA01F37E
:10052000156805EA03049C4234D105684F00032690
:10053000BE40B543056015794E00B54006683543A9
:1005400005601579012D02D01579022D16D1856827
:100550004F000326BE40B543856055794E00B54037
:10056000866835438560456801268E40B543456001
:10057000456896798E40B6B235434560C5684F00F0
:100580000326BE40B543C560D5794E00B540C66868
:100590003543C560491C1029BFD3F0BDF0B5002319
:1005A00000244D07ED0E02FA05F3CE1000F12005F0
:1005B00055F826504E07F70E0F26BE40B543CF1014
:1005C00000F1200646F82750CE1000F1200555F81E
:1005D000265045EA0304CE1000F1200545F82640D8
:1005E000F0BD018370474FF6FF710160002101717A
:1005F00041718171C171704700BFFEE71CB50121D7
:10060000202001F0E7FA01208DF80400400200905C
:1006100003208DF8050000208DF8060001208DF8DC
:10062000070069460A48FFF771FF4FF40071084858
:10063000FFF7D7FF4FF48060009069460448FFF74A
:1006400065FF4FF480610248FFF7CBFF1CBD00003F
:100650000014024000BFFEE77047000070B50021A3
:1006600000230F22C4781CB3174C246804F4E06400
:10067000C4F5E064C4F30721C1F10404E3B20A4104
:1006800044789C40E1B28478144021430C07210E49
:100690000E4C05786155047804F01F050124AC4028
:1006A00005786D11AD0005F1E025C5F8004109E0C0
:1006B000047804F01F050124AC40054D067876113E
:1006C00045F8264070BD00000CED00E000E400E0BD
:1006D00080E100E002490143024A116070470000D6
:1006E0000000FA050CED00E000B58BB00121080216
:1006F00001F080FA07A8FFF71DFE002007904FF4D5
:1007000080300890002009900A9007A8FFF7FAFDB2
:1007100001A8FFF7AEFE002001908DF808008DF8CB
:1007200009000390059001208DF8180001A90448E4
:10073000FFF714FE01210248FFF7D8FD0BB000BD02
:100740000020014010B500200D4908700D480278C6
:100750000D4801880DA001F037FD00240AE0134880
:10076000035D134830F81420214612A001F02CFD3F
:10077000601CC4B2034800788442F0DB10BD000066
:100780002D0000202C0000202800002041444320A0
:100790006C6F67207468726573686F6C643D257553
:1007A00020636F756E743D25750D0A007C01002075
:1007B000FC000020253032753A206164633D2575C8
:1007C000206269743D25750D0A0000000021094A68
:1007D00011700121084A1170002007E00021074A2A
:1007E00022F81010064A1154411CC8B24028F5DB0B
:1007F000704700002C0000202D000020FC0000208D
:100800007C0100201CB51A481A49086004201A49C6
:1008100008600220194908804002194908804000F8
:10082000184908800420184908700121442001F06B
:10083000D1F9134800881349098808430090012022
:100840008DF8040000208DF8060002208DF80500C8
:1008500000208DF8070069460C48FFF757FE00F0AE
:1008600085FF00F0EBFA00F043F9FFF73DFF1CBDF8
:1008700000080240180000201C000020200000207A
:100880002200002024000020260000200018024042
:1008900070B504460D4629462046FFF7F6FD70BDAB
:1008A000F0B502460B460020002111E0555C002403
:1008B0000AE080EA050707F0010640100EB180F05B
:1008C0008C006D10671CFCB2082CF2DB4F1CF9B2D7
:1008D0009942EBDBF0BD0246AA2A03D0552A01D08B
:1008E00001207047AA2903D0552901D00120F8E73B
:1008F0000020F6E7014601F00700072801D001209B
:10090000704701F0200008B10120F9E701F08000F4
:1009100008B90120F4E70020F2E7014601F00700E2
:10092000072801D00120704701F0200008B1012004
:10093000F9E701F0800008B10120F4E70020F2E7B8
:1009400001469F2901DD0120704701F0070008B131
:100950000120F9E70020F7E710B5044600F0F3FEA8
:1009600008B1012010BD1CB1204600F053FA01E08F
:1009700000F0BEFF0020F5E708B50020009003E07E
:1009800000BF0098401C009000980C28F8D308BDC8
:100990002DE9F04F95B006460F4690469946DDE9A1
:1009A0001E5A402105A8FFF724FC404600F041FAFA
:1009B0008346002404E0305D05A90855601CC4B2DC
:1009C000042CF8DB002406E019F80410201D05AA09
:1009D0001154601CC4B2202CF6DB28788DF8380046
:1009E00068788DF83900A8788DF83A00E8788DF8A5
:1009F0003B00CBF3421040F040008DF83C00002457
:100A000006E0395D04F1290005AA1154601CC4B246
:100A1000072CF6DB002406E0201D315C2C3005AAF3
:100A20001154601CC4B2042CF6DB28798DF8480000
:100A3000FF208DF849008DF84A0080208DF84B008A
:100A400000208DF84C008DF84D008DF84E008DF88B
:100A50004F008DF850008DF8510001208DF85200A4
:100A6000B8208DF853000EA001F0AEFB002406E084
:100A700005A8015D0FA001F0A7FB601CC4B2402CCB
:100A8000F6DB0EA001F0A0FB694605A800F07AFE97
:100A90005146684600F031FF15B0BDE8F08F000008
:100AA00052415020686F7374204D414320626C6F37
:100AB000636B3A0020253032580000000D0A000018
:100AC0001CB56846FFF78FFD07480088009003209B
:100AD0008DF8040000208DF807006946034800687F
:100AE000FFF714FD1CBD00002000002018000020AE
:100AF0001CB56846FFF777FD064800880090002087
:100B00008DF804008DF80700694603480068FFF778
:100B1000FDFC1CBD200000201800002010B5FFF7D0
:100B2000E7FF00F029FE00F089F9022001F09DFDA9
:100B300000F009FE10BD00002DE9F04788B08146A5
:100B40000F4690461D46002006900790002404E0C2
:100B5000FF2006A90855601CC4B2082CF8DB00244D
:100B600006E018F80410A01C06AA1154601CC4B2B8
:100B7000052CF6DB384600F05CF982469DF81F0034
:100B80009DF81E109DF81D209DF81C30CDE9023205
:100B9000CDE904109DF81B009DF81A10CDE9001056
:100BA0009DF819309DF818205146104801F00CFBB3
:100BB000384600F03EF982462B4606AA5146484682
:100BC00000F056FF064636B109A001F0FDFA0120FB
:100BD00008B0BDE8F0870DB1287800E0FF2001469D
:100BE000134801F0F1FA0020F2E70000D82B0000D2
:100BF000524150204641494C5B315D3A2063686167
:100C00006C6C656E67652057726974652F526561FB
:100C100064205363726174636870616420766572E6
:100C2000696679206661696C65640D0A00000000E0
:100C3000302C00002DE9F04788B082460D469146E1
:100C40001E460027B846B9F1000F03D1012008B0B5
:100C5000BDE8F087802D01D00120F8E72846FFF796
:100C60006FFE08B10120F2E707A808234A4629468B
:100C70000090504600F057FF08B10120E7E704A8B4
:100C800005A906AB4A46CDE900102946504600F0BA
:100C9000B8FE08B10120DAE79DF81000C0099DF800
:100CA0001010C1F34011CDE900109DF810309DF8EF
:100CB00014209DF8181031A001F086FA4FF4FA7054
:100CC00001F016FD5046FFF747FE08B10120BEE7D0
:100CD0005A2000F016FF9DF8180000F012FF9DF852
:100CE000140000F00EFF9DF8100000F00AFF0B202A
:100CF00001F0BBFC00241CE000F020FC074600F0E3
:100D00001DFC804643463A46214629A001F05CFA84
:100D100041463846FFF7DFFD00B90CE0FF2F03D155
:100D2000B8F1FF0F00D106E0012001F09EFC601C2D
:100D3000C4B2142CE0DB00BF41463846FFF7CBFDC0
:100D400030B123A001F040FA00F0FDFC01207EE765
:100D500000F0F9FC08B1012079E703AA29465046C2
:100D600000F0EFFD20B12A4801F02EFA01206EE7D5
:100D700016B19DF80C003070002068E74C465320F7
:100D8000617574683A205441313D25303258205401
:100D900041323D2530325820452F533D25303258C1
:100DA0002050463D25642041413D25640D0A000048
:100DB0004C465320726573706F6E73655B25755D6D
:100DC0003A202530325820253032580D0A000000D4
:100DD0004C6F616420466972737420536563726559
:100DE000742072656A65637465643A207265737015
:100DF0006F6E7365206973206E6F7420616C74650B
:100E0000726E6174696E6720302F310D0A00000028
:100E1000742C000070B50546552000F072FE0024C9
:100E200004E0285D00F06DFE601CC4B2082CF8DB05
:100E300070BD01464FF6E07008407047012001493F
:100E400008607047AC0243420020014908607047C7
:100E5000AC02434210B5002301220B210A48FFF7E0
:100E6000A7FA02210848FFF73EFA0748FFF7FCFA05
:100E700000BF02210448FFF767FA0028F9D00248B2
:100E8000FFF75EFA10BD0000002001402DE9FC478D
:100E900080460F4691461E460A9D0FB106B12DB9F8
:100EA0002AA001F091F90120BDE8FC872B463246CB
:100EB0004946404600F0B0F808B10120F4E705F1DA
:100EC00039002B464A464146CDE900603846FFF7D7
:100ED0005FFD2CA001F078F9002407E005F139004E
:100EE000015D2CA001F070F9601CC4B2142CF5DB7C
:100EF0002AA001F069F9142205F1250105F1390054
:100F0000FFF782F900281CD025A001F05DF900242C
:100F100012E005F13900015D1438005D814209D00D
:100F200005F13900035D1438025D214626A001F069
:100F30004BF903E0601CC4B2142CEADB00BF0120B3
:100F4000B2E72FA001F040F90020ADE75241502058
:100F50004641494C5B305D3A206E756C6C20736580
:100F6000637265742F6368616C6C656E67652F7062
:100F700061636B657420706172616D657465720D7B
:100F80000A00000052415020686F7374204D4143A5
:100F90003A20200020253032580000000D0A0000C1
:100FA000524150204641494C5B375D3A20686F738F
:100FB00074204D414320213D20646576696365209E
:100FC0004D41430D0A000000524150206669727382
:100FD00074204D414320646966663A20696E6465F9
:100FE000783D2575206465766963653D2530325806
:100FF00020686F73743D253032580D0A00000000E0
:10100000524150204D414320636F6D7061726520E5
:101010004F4B0D0A000000002DE9FF4F8DB00E462A
:1010200017461C464FF0000A002002908046814679
:101030008346002507B134B98BA001F0C5F8012023
:1010400011B0BDE8F08F7F2E05DD314692A001F092
:10105000BBF80120F4E706F01F0028B131469BA041
:1010600001F0B2F80120EBE754212046FFF7C1F868
:1010700038682062387984F8240002AB3A46314659
:101080000D98FFF759FD08B10120D9E70D98FFF73A
:1010900063FC20B19BA001F097F80120D0E7A520C8
:1010A00000F02FFDF0B200F02CFD301200F029FD11
:1010B000002504E000F042FA6055681CC5B2202DFE
:1010C000F8DB00F03BFA824600F038FA24F84E0FC5
:1010D00000F034FA218841EA002024F84E09052066
:1010E00001F0C3FA002506E000F028FA04F125011A
:1010F0004855681CC5B2142DF6DB00F01FFA24F821
:10110000500F00F01BFA218841EA002024F8500912
:101110004FF0000B1AE000F011FA804600F00EFAD2
:10112000814684F8528084F8539049464046FFF740
:10113000D2FB00B90DE0B8F1FF0F03D1B9F1FF0FF9
:1011400000D106E00BF1010000F0FF0BBBF1140F22
:10115000E1DB00BF00F0F7FA78A001F035F80025D8
:1011600005E0615D78A001F02FF8681CC5B2202D64
:10117000F7DB48A001F028F8514675A001F024F8EB
:10118000BAF1FF0F05D0514677A001F01DF80120FC
:1011900056E7B4F84E1080A001F016F8A5208DF89F
:1011A0003000F0B28DF8310030128DF8320020227C
:1011B000214603A8FFF704F8FF208DF82C00B4F8AF
:1011C0004E00212303AA032100900CA800F0E9FBA4
:1011D00020B179A000F0F8FF012031E77FA000F0F6
:1011E000F3FF83A000F0F0FF002507E004F12500E5
:1011F000415D55A000F0E8FF681CC5B2142DF5DB79
:1012000024A000F0E1FFB4F850107DA000F0DCFF56
:10121000B4F8500000231A461421009004F1250070
:1012200000F0BFFB20B17DA000F0CEFF012007E75A
:1012300083A000F0C9FF5320025D94F8521085A0EE
:1012400000F0C2FF5322115D94F85200FFF743FBF8
:1012500020B187A000F0B8FF0120F1E68FA000F0D8
:10126000B3FF0020ECE60000524150204641494CBB
:101270005B305D3A206E756C6C206368616C6C65E8
:101280006E67652F7061636B657420706172616D4C
:10129000657465720D0A0000524150204641494C68
:1012A0005B305D3A20616464726573732030782529
:1012B000303458206973206F7574736964652075C4
:1012C0007365722070616765730D0A00524150208A
:1012D0004641494C5B305D3A2061646472657373CA
:1012E00020307825303458206973206E6F74203395
:1012F000322D6279746520616C69676E65640D0AD0
:1013000000000000524150204641494C5B325D3A9A
:101310002052657365742F524F4D2073656C656361
:1013200074696F6E206661696C6564206265666FC2
:101330007265204135680D0A0000000052415020BE
:10134000706167653A0000002025303258000000C7
:1013500052415020736570617261746F723D3078D4
:10136000253032580D0A0000524150204641494C68
:101370005B335D3A20736570617261746F722065D2
:10138000787065637465642046462C20676F74200E
:10139000253032580D0A00005241502070616765B7
:1013A00020435243313628627573293D3078253009
:1013B00034580D0A00000000524150204641494C6B
:1013C0005B345D3A207061676520435243313620BB
:1013D0006D69736D617463680D0A0000524150209D
:1013E00070616765204352433136204F4B0D0A0030
:1013F00052415020646576696365204D41433A004F
:10140000524150204D4143204352433136286275AA
:1014100073293D3078253034580D0A005241502050
:101420004641494C5B355D3A204D41432043524390
:101430003136206D69736D617463680D0A000000B8
:10144000524150204D4143204352433136204F4BAF
:101450000D0A000052415020747261696C65723A45
:10146000202530325820253032580D0A0000000067
:10147000524150204641494C5B365D3A20747261BE
:10148000696C65722F737461747573206C6F6F7003
:1014900020696E76616C69640D0A0000524150202B
:1014A000747261696C6572204F4B0D0A0000000078
:1014B00070B500F05BF9FFF7C7FCFFF701FB0720F1
:1014C00001F016F9FFF7C6FC0446164804801648DA
:1014D0000088844201DB012000E00020054613481B
:1014E000007888B11248007840280DDA1148104978
:1014F000097820F8114010480D49097845540C48E6
:101500000078401C0A490870012001F0F1F8FFF74B
:1015100095FC00F031F9FFF7EBFA0F2001F0E8F845
:10152000284670BD2A000020280000202D00002041
:101530002C000020FC0000207C01002070B500255C
:10154000002408E0FFF7B4FF18B10120A0402843B1
:10155000C5B2601CC4B2082CF4DB284670BD2DE96E
:10156000F04180460D4616461F464046FFF7F4F907
:1015700010B10120BDE8F081F02000F0C2FAE8B21D
:1015800000F0BFFA281200F0BCFA002404E0FFF7D4
:10159000D5FF3055601CC4B2BC42F8DB0020E9E73F
:1015A00070B50546002403E000202855601CC4B235
:1015B000082CF9DB00F0C7F820B11BA000F004FEF6
:1015C000012070BD1EA000F0FFFD332000F099FA4D
:1015D000FFF7FCF8002404E0FFF7B0FF2855601C7B
:1015E000C4B2082CF8DBFFF7ADF81BA000F0ECFD4F
:1015F000002405E0295D1CA000F0E6FD601CC4B2DB
:10160000082CF7DB08212846FFF74AF90646314641
:1016100017A000F0D9FD08212846FFF741F908B9C5
:101620000020CEE70120CCE75265616420524F4D87
:10163000207265736574206661696C65640D0A00CB
:101640005265616420524F4D2073656E642030787E
:1016500033330D0A000000005265616420524F4D83
:10166000207261773A0000002025303258000000D7
:1016700020435243383D3078253032580D0A00005F
:101680002DE9FF4F85B00D4616461F46DDF8488010
:1016900025B11EB117B1B8F1000F03D1012009B077
:1016A000BDE8F08F1398082801D00120F7E70598CE
:1016B000FFF752F908B10120F1E7AA2000F021FA62
:1016C000FFF73CFF2870FFF739FF3070FFF736FF58
:1016D0003870002405E0FFF731FF08F80400601CB3
:1016E000C4B2082CF7DBFFF729FF0190FFF726FFB4
:1016F0008146019840EA092AAA208DF80800287836
:101700008DF8090030788DF80A0038788DF80B00D4
:10171000002406E018F80410201D02AA1154601CD1
:10172000C4B2082CF6DB0C2102A8FFF7B1F88346FF
:10173000149810B11498A0F800A0DA4501D0012047
:10174000ADE70020ABE710B5FFF778FB00F00EF82F
:101750004FF4967000F0CCFF00F00EF8FFF7C8F9D8
:10176000C82000F0C5FF002010BD00000020014986
:1017700008607047A8024342012001490860704791
:10178000A80243422DE9F047D0B005460C460020A0
:1017900021E015F820804FEA08684FF0010909EBB5
:1017A000800915F8099048EA09484FF0020909EB49
:1017B000800915F8099048EA09284FF0030909EB58
:1017C000800915F8099048EA09084DF8208000F1D1
:1017D000010808F0FF001028DBDB10201FE0A0F15B
:1017E00003085DF82880A0F108095DF8299088EACF
:1017F0000908A0F10E095DF8299088EA0908A0F10E
:1018000010095DF8299088EA09074FEA470848EA75
:10181000D7784DF8208000F1010808F0FF0050282B
:10182000DDDB2C4E2C49F243CB43DFF8B0C0002067
:1018300045E014280ADA01EA020823EA010948EA25
:101840000908DFF89C9008EB090723E0282808DA4C
:1018500081EA020888EA0308DFF8889008EB0907A4
:1018600018E03C280EDA01EA020801EA030948EA16
:10187000090802EA030948EA0908DFF86C9008EB56
:10188000090707E081EA020888EA0308DFF85C90AC
:1018900008EB09074FEA461848EAD668E0445DF8C5
:1018A0002090C84447449C4613464FEA817848EA52
:1018B000910231463E4600F1010808F0FF00502831
:1018C000B7DB26606160A260E360C4F810C050B06E
:1018D000BDE8F0870123456789ABCDEFF0E1D2C3C6
:1018E0009979825AA1EBD96EDCBC1B8FD6C162CA32
:1018F00010B5CC2000F005F910BDF0B502460B463E
:10190000002504240EE052F82400002106E02E46B3
:101910006F1CFDB29855000A4E1CF1B20429F6DB8B
:10192000661EF4B2002CEEDC1068002106E02E46A4
:101930006F1CFDB29855000A4E1CF1B20429F6DB6B
:10194000F0BD70B58AB006460C46154604A80821BD
:1019500005AA07ABCDE90021029008AA09A93046E3
:10196000FFF78EFE10B101200AB070BDE0B29DF805
:101970002410884201D00120F6E79DF82000B0EB4A
:10198000242F01D00120EFE79DF81C00FEF7B2FFE5
:1019900008B10120E8E715B19DF81C00287000206F
:1019A000E2E72DE9F04F8BB00746884691469A460C
:1019B000DDF850B00025002407E03A5D2846691C98
:1019C000CDB201A90A54601CC4B24445F5DB002421
:1019D00008E019F804202846691CCDB201A90A5470
:1019E000601CC4B25445F4DB294601A8FEF750FF41
:1019F00006465E4503D001200BB0BDE8F08F002005
:101A0000FAE72DE9F04387B081460C4616461D469D
:101A1000DDE90E7804A8082105AA4346CDE9002196
:101A200002903A4629464846FFF72AFE18B101209F
:101A300007B0BDE8F0832878E1B2884201D00120E8
:101A4000F6E73878B0EB242F01D00120F0E798F8C2
:101A50000000FEF762FF08B10120E9E708223146E5
:101A600005A8FEF7D1FB08B10120E1E70020DFE780
:101A7000F0B587B006460F4615461C4615B901203D
:101A800007B0F0BD06A808232A4639460090304624
:101A900000F049F808B10120F2E703A804A905AB5A
:101AA0002A46CDE9001039463046FFF7AAFF08B1B3
:101AB0000120E5E714B19DF80C0020700020DFE75D
:101AC00010B50446FFF7BAF94CB1FFF74FFEFEF729
:101AD00053FFFFF751FE1D2000F00AFE10E0FFF754
:101AE00045FEFEF749FFFFF747FEFEF745FFFFF70C
:101AF0003DFEFEF741FFFFF73FFE1B2000F0F8FD23
:101B000010BD70B50446FFF737FEFFF797F90025C3
:101B100006E004F00100FFF7D3FF6410681CC5B2B3
:101B2000082DF6DB70BD2DE9FF4F85B00C4616463B
:101B30009946DDF848A01EB9012009B0BDE8F08F34
:101B4000B9F1080F01D00120F7E72046FEF7F8FEB3
:101B500008B10120F1E70598FEF7FEFE08B101206B
:101B6000EBE70F20FFF7CDFFE0B2FFF7CAFF20122F
:101B7000FFF7C7FF0F208DF80800E0B28DF80900CD
:101B800020128DF80A00002508E0705DFFF7B9FF0C
:101B9000715DE81C02AA1154681CC5B2082DF4DB63
:101BA000FFF7CCFC0190FFF7C9FC8346019840EA9F
:101BB0000B270B2102A8FEF76BFE8046BAF1000F3F
:101BC00001D0AAF80070474501D00120B5E70020F8
:101BD000B3E7704729B1064A12680243044B1A6002
:101BE00004E0034A12688243014B1A607047000008
:101BF0003038024029B1064A12680243044B1A6089
:101C000004E0034A12688243014B1A6070470000E7
:101C100044380240F0B500210022002402250026AD
:101C20000223324F3F6807F00C0121B1042905D08F
:101C3000082937D105E02E4F076036E02D4F0760A9
:101C400033E02A4F3F1F3F68C7F38056274F3F1F9F
:101C50003F6807F03F036EB1264FB7FBF3F7DFF89D
:101C60008CC0ACF1040CDCF800C0CCF3881C07FB82
:101C70000CF40CE01E4FB7FBF3F7DFF870C0ACF1CB
:101C8000040CDCF800C0CCF3881C07FB0CF4174FE5
:101C90003F1F3F68C7F301477F1C7D00B4FBF5F78A
:101CA000076002E0124F076000BF00BF0F4F3F68A0
:101CB00007F0F0010909104F7A5C0768D7404760C8
:101CC0000A4F3F6807F4E051890A0B4F7A5C476876
:101CD000D7408760054F3F6807F46041490B064FC6
:101CE0007A5C4768D740C760F0BD00000838024002
:101CF0000024F40000127A00000000207047000069
:101D00000CB50020019000903448006840F4803009
:101D10003249086000BF3148006800F4003000908C
:101D20000198401C0190009818B90198B0F5A04F97
:101D3000F1D12A48006800F4003010B10120009071
:101D400001E0002000900098012846D1234840304F
:101D5000006840F080502149403108602048006808
:101D600040F440401E4908601C48083000681B4988
:101D7000083108600846006840F4004008600846E2
:101D8000006840F4A05008601648091F0860081F4A
:101D9000006840F08070091F086000BF0F480068AD
:101DA00000F000700028F9D040F205700E4908607C
:101DB0000A480830006820F003000849083108602C
:101DC0000846006840F00200086000BF0348083081
:101DD000006800F00C000828F8D10CBD0038024063
:101DE0000070004008544007003C0240042808D11D
:101DF0004FF0E021096941F004014FF0E022116148
:101E000007E04FF0E021096921F004014FF0E022E2
:101E1000116170477047000010B504466FF0040070
:101E2000FFF7E4FFE11704EB5171C1F3C701074A63
:101E300011701046007800EB4001C1EBC0104FF666
:101E4000FF7101EAC0000249088010BD10000020A7
:101E50001200002010B51548006840F470001349C6
:101E600008601348006840F0010011490860002034
:101E70000F49083108600E4800680E4908400C49B7
:101E800008600D48091D0860081F006820F48020C4
:101E9000091F0860002006490C310860FFF730FF79
:101EA0004FF0006001498039086010BD88ED00E006
:101EB00000380240FFFFF6FE1030002410B540F25B
:101EC00025511D4800F0BAF810B31B4800F070F916
:101ED000C4B21A48008800F40040C8B91748008806
:101EE00000F4804060B10A2C03D000201349088020
:101EF00020E01248008840F400401049088019E0B2
:101F00000D2C06D10D48008840F480400B49088014
:101F100010E00A480088C0F30D0009490C54074836
:101F20000088401C0549088008460088C72801DD54
:101F30000020088010BD00000010014014000020A7
:101F40003400002010B588B0044601210846FFF790
:101F500041FE01211020FFF74DFE072209212448F0
:101F6000FEF71CFB07220A212148FEF717FB4FF45E
:101F7000C060069002208DF81C008DF81D00002026
:101F80008DF81E0001208DF81F0006A91848FEF7E5
:101F9000BDFA02940020ADF80C00ADF80E00ADF8CB
:101FA0001000ADF814000C20ADF8120002A9114881
:101FB00000F094F801210F4800F027F840210D4867
:101FC00000F01AF8012240F225510A4800F060F8AA
:101FD00025208DF8040003208DF805008DF80600FB
:101FE00001208DF8070001A8FEF738FB08B010BDEE
:101FF000000002400010014001F40072B2F5007FC1
:1020000000D100BFCA430280704721B1828942F4E7
:102010000052828104E082894DF6FF731A4082816A
:10202000704702460020B1F5007F00D100BF138841
:102030000B400BB1012000E00020704770B5024654
:10204000002400230025002040F66A16B14200D18A
:1020500000BFC1F3421501F01F03012606FA03F386
:10206000012D02D19689334006E0022D02D1168A55
:10207000334001E0968A33400C12012606FA04F43C
:102080001688344013B10CB1012000E0002070BD6F
:10209000F0B50346002400260025002040F66A170C
:1020A000B94200D100BF1846C1F3421401F01F0627
:1020B000012707FA06F5012C01D10C3004E0022CAF
:1020C00001D1103000E014301AB107682F430760C7
:1020D00002E00768AF430760F0BD00002DE9FF474D
:1020E00005460E460024A14600BFA046B08900B1B7
:1020F00000BF2C8A24F44054F08804432C82AC891D
:1021000041F20C608443B0883189084371890843E7
:102110000443AC81AC8A24F44074B0890443AC829B
:102120006846FFF777FD2048854202D01F48854268
:1021300002D1DDF80C9001E0DDF80890A88900F4E8
:10214000004040B109EBC90000EB091031684900BB
:10215000B0FBF1F707E009EBC90000EB09103168AB
:102160008900B0FBF1F76420B7FBF0F0040120090F
:10217000642101FB1078A88900F4004040B13220AE
:1021800000EBC800B0FBF1F000F00700044308E0EA
:10219000322000EB08106421B0FBF1F000F00F00DA
:1021A00004432C81BDE8FF8700100140001401406A
:1021B00001468888C0F308007047C1F30802828096
:1021C000704700BFFEE700000FB4054B10B503A930
:1021D000044A029800F018F810BC5DF814FB0000E7
:1021E0003D2700003000002002E008C8121F08C18F
:1021F000002AFAD170477047002001E001C1121F88
:10220000002AFBD1704700002DE9FF4F8DB00F462B
:102210000546002606E025280BD0DDE90F12904781
:102220006D1C761C28780028F5D111B03046BDE829
:10223000F08F0024A246A1460122EC4900E00443AD
:1022400015F8013F203B02FA03F00842F7D1287845
:102250002A2810D06FF02F022878A0F13001092928
:1022600014D80AEB8A0102EB410144F0020400EBAE
:10227000010A6D1CF0E701CF5FEA000A03D544F4C0
:102280000054CAF1000A44F002046D1C28782E287C
:1022900017D115F8010F44F004042A280ED06FF06E
:1022A0002F022878A0F1300109290AD809EB890109
:1022B00002EB410100EB01096D1CF2E757F8049BAA
:1022C0006D1C28786C280FD006DC4C2817D06828A5
:1022D0000DD06A2814D104E0742810D07A280FD1C8
:1022E0000DE044F400140AE044F4801401E044F4E6
:1022F00040146978814202D104F580146D1C6D1C74
:102300002A786E2A1FD00CDC632A31D004DC002A24
:102310008BD0582A11D1A3E0642A68D0692A0CD145
:1023200065E0732A2ED004DC6F2A73D0702A04D1A2
:102330009BE0752A6FD0782A6ED01046DDE90F1227
:102340009047761C50E1C4F30250022806D00328BF
:1023500009D0042801CF09D0066045E101CFF1176B
:10236000C0E9006140E101CF06803DE106703BE13C
:1023700017F8040B8DF8000000208DF80100EB46E3
:10238000012003E057F804BB4FF0FF3061074FF026
:10239000000102D40DE008F10101884649450FDA39
:1023A0008045F8DB1BF808100029F4D108E008F19B
:1023B000010188468142FADB1BF808100029F6D19A
:1023C000DDE90F23AAEB08008146214600F036F92B
:1023D000304400EB080604E0DDE90F121BF8010BA6
:1023E0009047B8F10108F7D221464846F7E00A21A4
:1023F000C4F302534FF0000B0891022B04D001CF1D
:10240000C117032B09D00AE0FF1D27F00707F7E8E3
:10241000020108E032E01FE020E000B2C117042B07
:1024200001D140B2C117031E71F1000307DA4FF06A
:10243000000CD0EB0C006CEB01012D2302E0230516
:1024400004D52B238DF82430012303E0E30701D0CA
:102450002023F7E7984658E00A2110E010210EE00B
:1024600010204FF0000B08900CE010214FF0000BF3
:1024700044F004044FF00809089103E008214FF0EC
:10248000000B0891C4F30253022B04D001CF0021AA
:10249000032B06D006E0FF1D27F00707F7E802012F
:1024A00003E080B2042B00D1C0B24FF00008230734
:1024B0002BD5702A07D0DDF820C08CF0100C5CEA18
:1024C0000B0C05D00EE040238DF82430012308E0EA
:1024D00050EA010306D030238DF824308DF82520F2
:1024E00002239846DDF820C08CF0080C5CEA0B0C47
:1024F0000BD150EA010301D1630706D530238DF8D3
:1025000024304FF00108A9F10109582A04D038A25B
:102510000B9208AA0A920BE03AA2F9E75B46089AE6
:10252000FDF77FFE0B9B9B5C0A9A521E0A9213706A
:1025300050EA0102F2D10A98ADEB000000F1200B45
:10254000600702D524F4803401E04FF00109D94539
:1025500002DDA9EB0B0000E0002000EB0B01414481
:102560000890AAEB010AE00306D4DDE90F23214617
:10257000504600F063F806444FF0000908E009A94E
:1025800011F80900DDE90F12904709F10109761CE5
:10259000C145F4DBE0030CD5DDE90F2321465046AD
:1025A00000F04CF8064404E0DDE90F1230209047BB
:1025B000761C0899481E08900029F5DC08E00A9866
:1025C0000A990078491C0A91DDE90F129047761CA0
:1025D000BBF10001ABF1010BF1DC21465046DDE916
:1025E0000F2300F019F806446D1C1BE609280100B2
:1025F0003031323334353637383961626364656679
:10260000000000003031323334353637383941423A
:1026100043444546000000002DE9F04104460025F2
:102620001E461746880404D405E039462020B047EA
:102630006D1C641EF9D52846BDE8F0812DE9F041F6
:10264000044600251E469046C80301D5302700E009
:102650002027880404D505E041463846B0476D1C64
:10266000641EF9D52846BDE8F08170B504464FF4E4
:10267000077094FBF0F0C6B24FF4077094FBF0F1D2
:1026800000FB114085B205E04FF4077000F00AF836
:10269000701EC6B2002EF7D115B1284600F002F820
:1026A00070BD00000146114A12884A434FF0E023F2
:1026B0005A6100229A611A46126942F001021A61B7
:1026C00000BF4FF0E022106900F001021AB100F4DF
:1026D0008032002AF5D04FF0E022126922F0010288
:1026E0004FF0E0231A6100229A6170471200002027
:1026F0000146114A12784A434FF0E0235A61002202
:102700009A611A46126942F001021A6100BF4FF045
:10271000E022106900F001021AB100F48032002AB0
:10272000F5D04FF0E022126922F001024FF0E023D1
:102730001A6100229A6170471000002070B50446AB
:102740000D46E1B20548FFF738FD00BF8021034880
:10275000FFF767FC0028F9D0204670BD001001404B
:10276000DAB09AA103C9579156909AA103C955911D
:1027700054909AA103C95391529014214DA8FDF78A
:1027800038FD202145A8FDF734FD00BFA820FFF744
:1027900043FB4FF4A060FDF79DFF4FF4E130FFF7DE
:1027A000D1FBFDF72BFFFEF72DF8FEF7B7F958AE7A
:1027B00058A8FEF7F5FE88B98AA0FFF705FD0024AA
:1027C00006E058A8015D8BA0FFF7FEFC601CC4B2B8
:1027D000082CF6DB89A0FFF7F7FC0FE088A0FFF7D5
:1027E000F3FC0AE09148006808B9012000E00020ED
:1027F0008E4908607820FFF738FFF3E78CA0FFF7D9
:10280000E3FC002406E056A8015D7AA0FFF7DCFC9B
:10281000601CC4B2082CF6DB78A0FFF7D5FC1823A7
:1028200029AA88213046FEF79AFE88B982A0FFF7D0
:10283000CBFC002406E029A8015D6EA0FFF7C4FCD4
:10284000601CC4B2182CF6DB6CA0FFF7BDFC02E0E4
:102850007FA0FFF7B9FCA02301AA00213046FEF7B4
:102860007EFEE0B980A0FFF7AFFC002514E005F084
:10287000070018B9294684A0FFF7A6FC01A8415D0E
:102880005CA0FFF7A1FC05F00700072802D15BA0C0
:10289000FFF79AFC681C85B2A02DE8DB02E07CA063
:1028A000FFF792FC9DF8101154A0FFF78DFC9DF8E6
:1028B000101180A0FFF788FC86A0FFF785FC00249C
:1028C00005E0315D4BA0FFF77FFC601CC4B2082C13
:1028D000F7DB4AA0FFF778FC44AB56AA80213046CC
:1028E000FEF7A8F928B99DF810117FA0FFF76CFC3E
:1028F00002E086A0FFF768FC9DF810113FA0FFF7EB
:1029000063FC9DF8101188A0FFF75EFC2FA852AB66
:10291000602256A900903046FEF7B8FA00283FD151
:1029200089A0FFF751FC90A0FFF74EFC002406E0C1
:1029300037A8015D2FA0FFF747FC601CC4B2052C2F
:10294000F6DB2EA0FFF740FC8AA0FFF73DFC002439
:1029500007E00DF1E100015D26A0FFF735FC601CEA
:10296000C4B2142CF5DB25A0FFF72EFC84A0FFF7E2
:102970002BFC002407E00DF1F500015D1DA0FFF721
:1029800023FC601CC4B2142CF5DB1CA0FFF71CFC5C
:10299000BDF80C21BDF80A117CA0FFF715FC02E080
:1029A00084A0FFF711FCFEF7E1FEFEF747FA0BE00B
:1029B0001E48006808B9012000E000201B4908609B
:1029C0004FF49670FFF751FEF2E70000123456788C
:1029D000ABCDEF0018293F4E5D6C7B8AFFFFFFFFF8
:1029E000FF00000050524234383020524F4D2049F1
:1029F000443A000020253032580000000D0A000043
:102A0000505242343830205265616420524F4D207C
:102A10006661696C6564206F722043524338206997
:102A20006E76616C69640D0A00000000A482424267
:102A30005365637265743A00436F6E666967203050
:102A400078303038382D3078303039463A00000050
:102A50005265616420636F6E666967206661696CA8
:102A600065640D0A0000000052656164204D656DCB
:102A70006F7279203078303030302D307830303906
:102A8000463A0D0A000000003078253034583A00EC
:102A900052656164204D656D6F72792030783030F9
:102AA00030302D307830303946206661696C65648D
:102AB0000D0A00003D3D3D3D3D3D3D3D3D3D20532A
:102AC0007465702032203D3D3D3D3D3D3D3D3D3DE9
:102AD0000D0A000050524234383020757365526F31
:102AE0006D2049443A0000004C6F616420466972D1
:102AF000737420536563726574204F4B2C20452FEF
:102B0000533D3078253032580D0A00004C6F616417
:102B10002046697273742053656372657420666120
:102B2000696C65640D0A00003D3D3D3D3D3D3D3D08
:102B30003D3D20537465702033203D3D3D3D3D3D7E
:102B40003D3D3D3D0D0A00005265616420417574B4
:102B500068656E746963617465642050616765209F
:102B60004F4B0D0A000000004368616C6C656E6796
:102B7000653A0000446576696365204D41433A003B
:102B8000486F73742020204D41433A0050616765BF
:102B90002043524331363D3078253034582C204D77
:102BA00041432043524331363D3078253034580D6F
:102BB0000A000000526561642041757468656E7496
:102BC0006963617465642050616765206661696C42
:102BD00065640D0A00000000524150206368616C7A
:102BE0006C656E6765206C6F61643A207061676523
:102BF0003D30782530345820736372617463687097
:102C000061643D253032582025303258202530323D
:102C1000582025303258202530325820253032585F
:102C2000202530325820253032580D0A000000008F
:102C3000524150206368616C6C656E6765207665F3
:102C4000726966696564206F6E63652C206B6565CB
:102C500070207363726174636870616420666F7260
:102C60002041353A20452F533D3078253032580DDC
:102C70000A0000004C6F616420466972737420532F
:102C8000656372657420706F73742D636865636B20
:102C9000206661696C65643A204141206973206E49
:102CA0006F7420736574206F722054412F452F5329
:102CB00020696E76616C69640D0A0000DC2C0000EE
:102CC0000000002034000000E8210000102D00006A
:102CD000340000208C050000F821000000000000F6
:102CE00001020304010203040607080900000000B2
:102CF0000000000000080240040000000200000480
:102D000000080400E80300000000FF0000000000CD
:04000005000001896D
:00000001FF
