:020000040000FA
:10000000C00500209D01000059060000F905000010
:1000100055060000870400001B23000000000000BC
:10002000000000000000000000000000551E00005D
:100030000B05000000000000291D00006D1F0000DE
:10004000B7010000B7010000B7010000B7010000D0
:10005000B7010000B7010000B7010000B7010000C0
:10006000B7010000B7010000B7010000B7010000B0
:10007000B7010000B7010000B7010000B7010000A0
:10008000B7010000B7010000B7010000B701000090
:10009000B7010000B7010000B7010000B701000080
:1000A000B7010000B7010000B7010000B701000070
:1000B000B7010000B7010000B7010000B701000060
:1000C000B7010000B7010000B7010000B701000050
:1000D000B701000015200000B7010000B7010000C3
:1000E000B7010000B7010000B7010000B701000030
:1000F000B7010000B7010000B7010000B701000020
:10010000B7010000B7010000B7010000B70100000F
:10011000B7010000B7010000B7010000B7010000FF
:10012000B7010000B7010000B7010000B7010000EF
:10013000B7010000B7010000B7010000B7010000DF
:10014000B7010000B7010000B7010000B7010000CF
:10015000B7010000B7010000B7010000B7010000BF
:10016000B7010000B7010000B7010000B7010000AF
:10017000B7010000B7010000B7010000B70100009F
:10018000B7010000B7010000DFF80CD000F07AF8EA
:1001900000480047B9280000C005002006488047F5
:1001A00006480047FEE7FEE7FEE7FEE7FEE7FEE75C
:1001B000FEE7FEE7FEE7FEE7AD1F00008901000055
:1001C00040EA01039B0703D009E008C9121F08C0D9
:1001D000042AFAD203E011F8013B00F8013B521E59
:1001E000F9D27047D2B201E000F8012B491EFBD2D0
:1001F00070470022F6E710B513460A460446194632
:10020000FFF7F0FF204610BD30B50446002003463E
:1002100000E05B1C934203D2E05CCD5C401BF8D055
:1002200030BD2DE9F05F0546002092469B4688468A
:100230000646814640241BE0284641464746224662
:1002400000F041F853465A46C01A914110D3114666
:100250001846224600F028F82D1A67EB01084F4691
:1002600022460120002100F01FF817EB00094E4143
:10027000201EA4F10104DFDC484631462A464346ED
:10028000BDE8F09F064C074D06E0E06840F0010332
:1002900094E8070098471034AC42F6D3FFF778FF94
:1002A000082E0000282E0000202A04DB203A00FA45
:1002B00002F1002070479140C2F1200320FA03F3BD
:1002C000194390407047202A04DB203A21FA02F0BB
:1002D0000021704721FA02F3D040C2F12002914080
:1002E000084319467047CA430260704721B18268CB
:1002F00042F00102826003E0826822F00102826023
:10030000704700000021084A1168084A1140D0E9EE
:1003100000231A4383681A43C3681A431143044AEB
:10032000C2F804137047000004230140E030FCFFD2
:10033000002001400021016041608160C160704780
:100340000146C86C80B270470246002013680B401B
:100350000BB1012000E000207047000030B50246DC
:10036000002000235068104C20400D790C6844EAAE
:1003700005242043506090680C4C2040D1E9035480
:100380002C438D682C434D7944EA4504204390600A
:10039000D06A20F470000C7D641EE4B2234340EA6E
:1003A0000350D06230BD0000FFFEFFFCFDF7FFC030
:1003B000F0B504460D4600200021092D11DDE0684E
:1003C000A5F10A0606EB4607072606FA07F1884359
:1003D000A5F10A0606EB460603FA06F10843E060BB
:1003E0000CE0206905EB4507072606FA07F188436C
:1003F00005EB450603FA06F108432061072A0FDAE8
:10040000606B561E06EB86071F2606FA07F1884327
:10041000561E06EB860605FA06F10843606322E0E5
:100420000D2A0FDA206BD61F06EB86071F2606FA69
:1004300007F18843D61F06EB860605FA06F1084346
:10044000206310E0E06AA2F10D0606EB86071F2686
:1004500006FA07F18843A2F10D0606EB860605FAB7
:1004600006F10843E062F0BD816841F0804181609F
:10047000704700210160017141718160C1600161BB
:1004800001210175704700BFFEE72DE9F0410646E6
:100490000F4600240025A04600BF0EE0002508E01E
:1004A000305D40FA05F1404600F00EF88046681CC9
:1004B000C5B2082DF4DB601CC4B2BC42EEDB6FEAAF
:1004C000080080B2BDE8F08110B50A46002100F0B6
:1004D000010302F0010483EA040100F0020383EA4D
:1004E00041044FF6FD730340234498B200F4804367
:1004F00083EA81344BF6FF730340234498B24010E3
:10050000034661F3DF33184610BD7047F0B50A4665
:1005100000210023002400BF3DE0012505FA01F37E
:10052000156805EA03049C4234D105684F00032690
:10053000BE40B543056015794E00B54006683543A9
:1005400005601579012D02D01579022D16D1856827
:100550004F000326BE40B543856055794E00B54037
:10056000866835438560456801268E40B543456001
:10057000456896798E40B6B235434560C5684F00F0
:100580000326BE40B543C560D5794E00B540C66868
:100590003543C560491C1029BFD3F0BDF0B5002319
:1005A00000244D07ED0E02FA05F3CE1000F12005F0
:1005B00055F826504E07F70E0F26BE40B543CF1014
:1005C00000F1200646F82750CE1000F1200555F81E
:1005D000265045EA0304CE1000F1200545F82640D8
:1005E000F0BD018370474FF6FF710160002101717A
:1005F00041718171C171704700BFFEE71CB50121D7
:10060000202001F093FB01208DF8040040020090AF
:1006100003208DF8050000208DF8060001208DF8DC
:10062000070069460A48FFF771FF4FF40071084858
:10063000FFF7D7FF4FF48060009069460448FFF74A
:1006400065FF4FF480610248FFF7CBFF1CBD00003F
:100650000014024000BFFEE77047000070B50021A3
:1006600000230F22C4781CB3174C246804F4E06400
:10067000C4F5E064C4F30721C1F10404E3B20A4104
:1006800044789C40E1B28478144021430C07210E49
:100690000E4C05786155047804F01F050124AC4028
:1006A00005786D11AD0005F1E025C5F8004109E0C0
:1006B000047804F01F050124AC40054D067876113E
:1006C00045F8264070BD00000CED00E000E400E0BD
:1006D00080E100E002490143024A116070470000D6
:1006E0000000FA050CED00E000B58BB00121080216
:1006F00001F02CFB07A8FFF71DFE002007904FF428
:1007000080300890002009900A9007A8FFF7FAFDB2
:1007100001A8FFF7AEFE002001908DF808008DF8CB
:1007200009000390059001208DF8180001A90448E4
:10073000FFF714FE01210248FFF7D8FD0BB000BD02
:100740000020014010B500200D4908700D480278C6
:100750000D4801880DA001F0E3FD00240AE01348D4
:10076000035D134830F81420214612A001F0D8FD93
:10077000601CC4B2034800788442F0DB10BD000066
:100780002D0000202C0000202800002041444320A0
:100790006C6F67207468726573686F6C643D257553
:1007A00020636F756E743D25750D0A007C01002075
:1007B000FC000020253032753A206164633D2575C8
:1007C000206269743D25750D0A0000000021094A68
:1007D00011700121084A1170002007E00021074A2A
:1007E00022F81010064A1154411CC8B24028F5DB0B
:1007F000704700002C0000202D000020FC0000208D
:100800007C0100201CB51A481A49086004201A49C6
:1008100008600220194908804002194908804000F8
:10082000184908800420184908700121442001F06B
:100830007DFA134800881349098808430090012075
:100840008DF8040000208DF8060002208DF80500C8
:1008500000208DF8070069460C48FFF757FE01F0AD
:100860000FF800F0B3FD00F069FCFFF73DFF1CBD81
:1008700000080240180000201C000020200000207A
:100880002200002024000020260000200018024042
:1008900070B504460D4629462046FFF7F6FD70BDAB
:1008A000F0B502460B460020002111E0555C002403
:1008B0000AE080EA050707F0010640100EB180F05B
:1008C0008C006D10671CFCB2082CF2DB4F1CF9B2D7
:1008D0009942EBDBF0BD0246AA2A03D0552A01D08B
:1008E00001207047AA2903D0552901D00120F8E73B
:1008F0000020F6E7014601F00700072801D001209B
:10090000704701F0200008B10120F9E701F08000F4
:1009100008B90120F4E70020F2E7014601F00700E2
:10092000072801D00120704701F0200008B1012004
:10093000F9E701F0800008B10120F4E70020F2E7B8
:1009400001469F2901DD0120704701F0070008B131
:100950000120F9E70020F7E710B5044600F07DFF1D
:1009600008B1012010BD1CB1204600F01BFD01E0C4
:1009700001F048F80020F5E72DE9F84381460C46E0
:1009800090461F46FF203E49087017B90120BDE878
:10099000F883204600F0ADFB022801D10120F6E7E4
:1009A0002046FFF7CDFF08B10120F0E74046FFF7F2
:1009B000B4FF08B10120EAE74846FFF7CDFF08B1D0
:1009C0000120E4E7552001F047F9E0B201F044F9D5
:1009D000201201F041F9404601F03EF900F056FFC7
:1009E00000F0FAFC032001F0ECFE00F0EFFC002523
:1009F00004E0785D01F030F9681CC5B2142DF8DB15
:100A000000F044FF00F0E8FC012001F0DAFE00F005
:100A1000DDFC684601F0B6F806469DF8000018496E
:100A200008709DF8001017A001F07AFC012E06D185
:100A30001CA001F075FC00F010FF0120A7E7022EBA
:100A400006D1234801F06CFC00F007FF01209EE76F
:100A500036B120A001F064FC00F0FFFE012096E713
:100A600000F0FBFE08B1012091E700222146484634
:100A700000F0F1FF08B1012089E7002087E70000BE
:100A80002E000020436F7079205363726174636895
:100A9000706164207374617475733D3078253032F1
:100AA000580D0A00436F7079205363726174636854
:100AB0007061642072656A65637465643A204D41B3
:100AC00043206D69736D617463680D0A0000000056
:100AD000742D0000436F70792053637261746368F2
:100AE0007061642072656A65637465643A20746934
:100AF0006D656F7574206F7220756E6B6E6F776E9B
:100B0000207374617475730D0A0000002DE9F04FB5
:100B10008BB080460E4691469A46DDE914B7169D85
:100B20000DB1FF202870B9F1000F06D0BAF1000F07
:100B300003D0BBF1000F00D01FB901200BB0BDE8FE
:100B4000F08FB8F1000F01D10120F7E7304600F037
:100B5000D0FA022801D10120F0E73046FFF7F0FE7D
:100B600008B10120EAE7304600F02BFC20235A466A
:100B700001460290404600F07CFD08B10120DDE70F
:100B800003A808234A4631460090404601F076F813
:100B900008B10120D2E703A8082106AA08ABCDE9D5
:100BA0000021029009AA0AA9404600F0F3FD08B10D
:100BB0000120C3E79DF82000C0099DF82010C1F373
:100BC0004011CDE900109DF820309DF824209DF8BB
:100BD000281044A001F0A4FB51A001F0A1FB0024C7
:100BE00006E006A8015D53A001F09AFB601CC4B2A8
:100BF000082CF6DB51A001F093FBF0B29DF8281011
:100C0000884201D0012099E79DF82400B0EB262FFF
:100C100001D0012092E79DF82000FFF77EFE08B189
:100C200001208BE70822494606A8FFF7EDFA08B134
:100C3000012083E706A85B4632464146CDE900071E
:100C4000504600F0A5F908B1012077E73CA001F07B
:100C500067FB002405E0395D36A001F061FB601CF4
:100C6000C4B2142CF7DB35A001F05AFB9DF8280024
:100C70009DF8242040EA02213B469DF82020404672
:100C8000FFF77AFE28B115B13048007828700120AE
:100C900054E715B12D4800782870082304AA31467E
:100CA000404600F0E6FC08B1012047E728A001F02B
:100CB00037FB002406E004A8015D1EA001F030FB14
:100CC000601CC4B2082CF6DB1CA001F029FB082232
:100CD000494604A8FFF798FA08B101202EE7002042
:100CE0002CE7000053637261746368706164205480
:100CF00041313D307825303258205441323D3078F2
:100D00002530325820452F533D3078253032582039
:100D100050463D25642041413D25640D0A000000F8
:100D20005363726174636870616420646174613AD2
:100D30000000000020253032580000000D0A00009D
:100D4000436F7079204D41433A0000002E0000208F
:100D500052656164204D656D6F72792076657269A8
:100D600066793A0008B50020009003E000BF0098C3
:100D7000401C009000980C28F8D308BD2DE9F047DE
:100D800096B005460E4690461F46DDE91E9A402164
:100D900006A8FFF72EFA3DB136B12FB1B9F1000F19
:100DA00002D0BAF1000F03D1012016B0BDE8F087E0
:100DB000404600F09EF9012801D00120F5E700240B
:100DC00004E0285D06A90855601CC4B2042CF8DBB9
:100DD000002405E0295D201D06AA1154601CC4B240
:100DE000042CF7DB002406E0201D295C001D06AA68
:100DF0001154601CC4B2042CF6DB002407E004F19B
:100E00000800395C001D06AA1154601CC4B2142CE1
:100E1000F5DB002407E019F8041004F1200006AA0D
:100E20001154601CC4B2082CF5DB04208DF840007E
:100E3000002406E0315D04F1290006AA1154601C6B
:100E4000C4B2072CF6DB002406E0201D295C2C3000
:100E500006AA1154601CC4B2042CF6DBFF208DF8E6
:100E60004C008DF84D008DF84E0080208DF84F001D
:100E700000208DF850008DF851008DF852008DF84B
:100E800053008DF854008DF8550001208DF8560060
:100E9000B8208DF8570001A906A800F0FDFC5146C6
:100EA00001A800F0B4FD00207FE72DE9F04796B0DF
:100EB00005460E4617469846DDE91E9A402106A8CB
:100EC000FFF797F9002404E0285D06A90855601C87
:100ED000C4B2042CF8DB002406E018F80410201D2E
:100EE00006AA1154601CC4B21C2CF6DB002407E0D7
:100EF00019F8041004F1200006AA1154601CC4B2B1
:100F0000082CF5DB384600F05CFAC0F343108DF88E
:100F10004000002406E0315D04F1290006AA1154C6
:100F2000601CC4B2072CF6DB002406E0201D295CFF
:100F30002C3006AA1154601CC4B2042CF6DBFF202E
:100F40008DF84C008DF84D008DF84E0080208DF806
:100F50004F0000208DF850008DF851008DF85200A0
:100F60008DF853008DF854008DF8550001208DF850
:100F70005600B8208DF8570001A906A800F08CFC97
:100F8000514601A800F043FD16B0BDE8F08700000F
:100F90002DE9FC478046894614469A46DDE90A5603
:100FA000204600F0A6F8074657B953462246494660
:100FB0004046CDE90056FFF778FF0020BDE8FC87EA
:100FC000012F08D15346224649464046CDE90056F6
:100FD000FFF7D4FEF2E702A001F0A2F90120EDE74D
:100FE000436F707920536372617463687061642029
:100FF00074617267657420616464726573732069DB
:101000006E76616C69640D0A000000002DE9F047FE
:1010100096B005460F4690469946DDE91E6A402186
:1010200006A8FFF7E6F8002404E0285D06A90855A5
:10103000601CC4B2042CF8DB002406E019F804108C
:10104000201D06AA1154601CC4B2202CF6DBFF2020
:101050008DF83C008DF83D008DF83E008DF83F0086
:10106000404600F0AEF9C0F3431040F040008DF868
:101070004000002406E0395D04F1290006AA11545D
:10108000601CC4B2072CF6DB002406E0201D295C9E
:101090002C3006AA1154601CC4B2042CF6DB307844
:1010A0008DF84C0070788DF84D00B0788DF84E00BA
:1010B00080208DF84F0000208DF850008DF85100F1
:1010C0008DF852008DF853008DF854008DF85500BE
:1010D00001208DF85600B8208DF8570001A906A808
:1010E00000F0DAFB514601A800F091FC16B0BDE813
:1010F000F08701467F2901DC00207047882903DB47
:101100009F2901DC0120F8E70220F6E71CB56846BC
:10111000FFF769FA07480088009003208DF8040063
:1011200000208DF80700694603480068FFF7EEF9D4
:101130001CBD000020000020180000201CB56846DF
:10114000FFF751FA06480088009000208DF804004F
:101150008DF80700694603480068FFF7D7F91CBD02
:10116000200000201800002010B5FFF7E7FF00F076
:101170008DFB00F02BF9022001F023FB00F06DFB4A
:1011800010BD2DE9FC4106460D4614461F460020C1
:101190000090019020788DF8040060788DF80500AB
:1011A000A0788DF80600284600F00BF980463B46F3
:1011B0006A464146304600F006FDBDE8FC8100006D
:1011C0002DE9F04788B082460F4691469846B9F11E
:1011D000000F03D1012008B0BDE8F087802F01D0B7
:1011E0000120F8E73846FFF7ABFB08B10120F2E732
:1011F00007A808234A4639460090504600F03EFDB5
:1012000008B10120E7E704A805A906AB4A46CDE9E5
:1012100000103946504600F07EFC08B10120DAE7A4
:101220009DF81000C0099DF81010C1F34011CDE9E0
:1012300000109DF810309DF814209DF8181033A070
:1012400001F06EF84FF4FA7001F0FEFA5046FFF725
:1012500083FB08B10120BEE75A2000F0FDFC9DF899
:10126000180000F0F9FC9DF8140000F0F5FC9DF862
:10127000100000F0F1FC00F009FB00F0ADF80A20CE
:1012800001F0E2FA002618E000F0E2F9044600F06E
:10129000DFF905462B462246314629A001F040F8E9
:1012A00029462046FFF717FB00B908E0FF2C02D1C2
:1012B000FF2D00D103E0701CC6B2142EE4DB00BF8A
:1012C00029462046FFF707FB30B125A001F028F89A
:1012D00000F0C3FA01207EE700F0BFFA08B1012058
:1012E00079E703AA3946504600F0B5FB20B12C48F7
:1012F00001F016F801206EE7B8F1000F03D09DF859
:101300000C0088F80000002065E700004C465320E0
:10131000617574683A205441313D2530325820546B
:1013200041323D2530325820452F533D253032582B
:101330002050463D25642041413D25640D0A0000B2
:101340004C465320726573706F6E73655B25755DD7
:101350003A202530325820253032580D0A0000003E
:101360004C6F6164204669727374205365637265C3
:10137000742072656A65637465643A20726573707F
:101380006F6E7365206973206E6F7420616C746575
:10139000726E6174696E6720302F310D0A00000093
:1013A000C02D000070B50546552000F055FC002406
:1013B00004E0285D00F050FC601CC4B2082CF8DB8F
:1013C00070BD01464FF6E0700840704701200149AA
:1013D00008607047AC024342002001490860704732
:1013E000AC02434210B5002301220B210A48FEF74C
:1013F000DFFF02210848FEF776FF0748FFF734F8C1
:1014000000BF02210448FEF79FFF0028F9D00248E0
:10141000FEF796FF10BD0000002001402DE9FC41C1
:1014200007460E4690461D46089C0EB105B114B9FC
:101430000120BDE8FC8123462A464146384600F09B
:1014400019F808B10120F4E704F1370023464246B9
:101450003946CDE900503046FFF7D8FD142204F19B
:10146000230104F13700FEF7CFFE08B10120E0E7C9
:101470000020DEE72DE9F0438DB081460D4617468A
:101480001C4607B11CB901200DB0BDE8F0837F2DCB
:1014900001DD0120F8E705F01F0008B10120F3E7A6
:1014A00052212046FEF7A5FE38882084B87884F8BB
:1014B000220002AB3A4629464846FFF762FE08B1D1
:1014C0000120E1E74846FFF747FA08B10120DBE7D2
:1014D000A52000F0C1FBE8B200F0BEFB281200F02E
:1014E000BBFB002604E000F0B3F8A055701CC6B2A8
:1014F000202EF8DB00F0ACF88046B8F1FF0F01D0E9
:101500000120C1E700F0A4F824F84C0F00F0A0F887
:10151000218841EA002024F84C09A5208DF83000EC
:10152000E8B28DF8310028128DF8320020222146D1
:1015300003A8FEF745FEFF208DF82C00B4F84C0000
:10154000212303AA032100900CA800F0B4FA08B1EB
:10155000012099E7022001F034F9002606E000F0AE
:1015600077F804F123018855701CC6B2142EF6DBFF
:1015700000F06EF824F84E0F00F06AF8218841EA76
:101580000020208034F84E0900231A4614210090D0
:1015900004F1230000F08FFA08B1012074E700F095
:1015A00057F884F8500000F053F8512108555122A3
:1015B000115D94F85000FFF78EF908B1012063E740
:1015C000002061E770B500F05BF9FFF705FFFFF75A
:1015D0009DFD072001F038F9FFF704FF0446164887
:1015E000048016480088844201DB012000E00020CE
:1015F00005461348007888B11248007840280DDA73
:1016000011481049097820F8114010480D4909780F
:1016100045540C480078401C0A490870012001F02C
:1016200013F9FFF7D3FE00F031F9FFF787FD0F2024
:1016300001F00AF9284670BD2A0000202800002089
:101640002D0000202C000020FC0000207C01002048
:1016500070B50025002408E0FFF7B4FF18B10120A1
:10166000A0402843C5B2601CC4B2082CF4DB284655
:1016700070BD2DE9F04180460D4616461F46404696
:10168000FFF76AF910B10120BDE8F081F02000F009
:10169000E3FAE8B200F0E0FA281200F0DDFA0024E4
:1016A00004E0FFF7D5FF3055601CC4B2BC42F8DB44
:1016B0000020E9E770B50546002403E00020285526
:1016C000601CC4B2082CF9DB00F0C7F820B11BA0E5
:1016D00000F026FE012070BD1EA000F021FE332088
:1016E00000F0BAFAFFF772F8002404E0FFF7B0FF49
:1016F0002855601CC4B2082CF8DBFFF723F81BA0A8
:1017000000F00EFE002405E0295D1CA000F008FE9C
:10171000601CC4B2082CF7DB08212846FFF7C0F88C
:101720000646314617A000F0FBFD08212846FFF7CA
:10173000B7F808B90020CEE70120CCE75265616414
:1017400020524F4D207265736574206661696C6527
:10175000640D0A005265616420524F4D2073656E1E
:101760006420307833330D0A000000005265616454
:1017700020524F4D207261773A0000002025303210
:101780005800000020435243383D3078253032580D
:101790000D0A00002DE9FF4F85B00D4616461F4685
:1017A000DDF8488025B11EB117B1B8F1000F03D1A3
:1017B000012009B0BDE8F08F1398082801D001205E
:1017C000F7E70598FFF7C8F808B10120F1E7AA206C
:1017D00000F042FAFFF73CFF2870FFF739FF307046
:1017E000FFF736FF3870002405E0FFF731FF08F8F7
:1017F0000400601CC4B2082CF7DBFFF729FF01903E
:10180000FFF726FF8146019840EA092AAA208DF8B1
:10181000080028788DF8090030788DF80A003878AB
:101820008DF80B00002406E018F80410201D02AA11
:101830001154601CC4B2082CF6DB0C2102A8FFF77F
:1018400027F88346149810B11498A0F800A0DA4540
:1018500001D00120ADE70020ABE710B5FFF7B6FDE2
:1018600000F00EF84FF4967000F0EEFF00F00EF866
:10187000FFF764FCC82000F0E7FF002010BD000067
:101880000020014908607047A80243420120014935
:1018900008607047A80243422DE9F047D0B00546E2
:1018A0000C46002021E015F820804FEA08684FF030
:1018B000010909EB800915F8099048EA09484FF039
:1018C000020909EB800915F8099048EA09284FF048
:1018D000030909EB800915F8099048EA09084DF851
:1018E000208000F1010808F0FF001028DBDB102049
:1018F0001FE0A0F103085DF82880A0F108095DF859
:10190000299088EA0908A0F10E095DF8299088EA73
:101910000908A0F110095DF8299088EA09074FEA43
:10192000470848EAD7784DF8208000F1010808F010
:10193000FF005028DDDB2C4E2C49F243CB43DFF86F
:10194000B0C0002045E014280ADA01EA020823EAC0
:10195000010948EA0908DFF89C9008EB090723E031
:10196000282808DA81EA020888EA0308DFF8889064
:1019700008EB090718E03C280EDA01EA020801EA40
:10198000030948EA090802EA030948EA0908DFF8F6
:101990006C9008EB090707E081EA020888EA03086F
:1019A000DFF85C9008EB09074FEA461848EAD6686A
:1019B000E0445DF82090C84447449C4613464FEAF3
:1019C000817848EA910231463E4600F1010808F06C
:1019D000FF005028B7DB26606160A260E360C4F8B6
:1019E00010C050B0BDE8F0870123456789ABCDEF4B
:1019F000F0E1D2C39979825AA1EBD96EDCBC1B8F7E
:101A0000D6C162CA10B5CC2000F026F910BDF0B5E1
:101A100002460B46002504240EE052F82400002163
:101A200006E02E466F1CFDB29855000A4E1CF1B21E
:101A30000429F6DB661EF4B2002CEEDC10680021EF
:101A400006E02E466F1CFDB29855000A4E1CF1B2FE
:101A50000429F6DBF0BD70B58AB006460C46154683
:101A600004A8082105AA07ABCDE90021029008AA25
:101A700009A93046FFF78EFE10B101200AB070BDF3
:101A8000E0B29DF82410884201D00120F6E79DF8CD
:101A90002000B0EB242F01D00120EFE79DF81C00BF
:101AA000FEF728FF08B10120E8E715B19DF81C00FA
:101AB00028700020E2E72DE9F04F8BB007468846FA
:101AC00091469A46DDF850B00025002407E03A5DC3
:101AD0002846691CCDB201A90A54601CC4B2444511
:101AE000F5DB002408E019F804202846691CCDB273
:101AF00001A90A54601CC4B25445F4DB294601A86C
:101B0000FEF7C6FE06465E4503D001200BB0BDE8D9
:101B1000F08F0020FAE72DE9F04387B081460C46AC
:101B200016461D46DDE90E7804A8082105AA43469D
:101B3000CDE9002102903A4629464846FFF72AFEA1
:101B400018B1012007B0BDE8F0832878E1B28842DF
:101B500001D00120F6E73878B0EB242F01D0012026
:101B6000F0E798F80000FEF7D8FE08B10120E9E799
:101B70000822314605A8FEF747FB08B10120E1E73E
:101B80000020DFE770B505460DB9042070BDFF20C9
:101B90002870002613E0FFF75BFD04462C70AA2C8A
:101BA00001D10020F2E70CB90120EFE7FF2C01D1B1
:101BB0000220EBE7322000F047FE701CC6B2142E64
:101BC000E9DB0320E2E7F0B587B006460F4615468D
:101BD0001C4615B9012007B0F0BD06A808232A4607
:101BE00039460090304600F049F808B10120F2E78C
:101BF00003A804A905AB2A46CDE9001039463046B2
:101C0000FFF789FF08B10120E5E714B19DF80C004A
:101C100020700020DFE710B50446FFF7D7FB4CB17A
:101C2000FFF72EFEFFF79EF8FFF730FE1D2000F0B5
:101C30000BFE10E0FFF724FEFFF794F8FFF726FEF7
:101C4000FFF790F8FFF71CFEFFF78CF8FFF71EFE7A
:101C50001B2000F0F9FD10BD70B50446FFF716FE1D
:101C6000FFF7B4FB002506E004F00100FFF7D3FF07
:101C70006410681CC5B2082DF6DB70BD2DE9FF4F5E
:101C800085B00C4616469946DDF848A01EB90120DD
:101C900009B0BDE8F08FB9F1080F01D00120F7E7D6
:101CA0002046FEF74DFE08B10120F1E70598FEF74A
:101CB00053FE08B10120EBE70F20FFF7CDFFE0B2A4
:101CC000FFF7CAFF2012FFF7C7FF0F208DF80800AB
:101CD000E0B28DF8090020128DF80A00002508E016
:101CE000705DFFF7B9FF715DE81C02AA1154681C12
:101CF000C5B2082DF4DBFFF7ABFC0190FFF7A8FCA1
:101D00008346019840EA0B270B2102A8FEF7C0FD8D
:101D10008046BAF1000F01D0AAF80070474501D003
:101D20000120B5E70020B3E77047000029B1064A5B
:101D300012680243044B1A6004E0034A12688243AB
:101D4000014B1A60704700003038024029B1064A42
:101D500012680243044B1A6004E0034A126882438B
:101D6000014B1A607047000044380240F0B5002172
:101D700000220024022500260223324F3F6807F08C
:101D80000C0121B1042905D0082937D105E02E4FD7
:101D9000076036E02D4F076033E02A4F3F1F3F6852
:101DA000C7F38056274F3F1F3F6807F03F036EB1D0
:101DB000264FB7FBF3F7DFF88CC0ACF1040CDCF86E
:101DC00000C0CCF3881C07FB0CF40CE01E4FB7FBE3
:101DD000F3F7DFF870C0ACF1040CDCF800C0CCF312
:101DE000881C07FB0CF4174F3F1F3F68C7F30147E0
:101DF0007F1C7D00B4FBF5F7076002E0124F07601F
:101E000000BF00BF0F4F3F6807F0F0010909104FF6
:101E10007A5C0768D74047600A4F3F6807F4E05193
:101E2000890A0B4F7A5C4768D7408760054F3F6847
:101E300007F46041490B064F7A5C4768D740C7609A
:101E4000F0BD0000083802400024F40000127A00BF
:101E500000000020704700000CB5002001900090A9
:101E60003448006840F480303249086000BF31488F
:101E7000006800F4003000900198401C0190009828
:101E800018B90198B0F5A04FF1D12A48006800F4C4
:101E9000003010B10120009001E000200090009877
:101EA000012846D123484030006840F08050214945
:101EB000403108602048006840F440401E490860F6
:101EC0001C48083000681B49083108600846006853
:101ED00040F4004008600846006840F4A0500860E4
:101EE0001648091F0860081F006840F08070091F2D
:101EF000086000BF0F48006800F000700028F9D0AB
:101F000040F205700E4908600A480830006820F069
:101F100003000849083108600846006840F00200E4
:101F2000086000BF03480830006800F00C00082873
:101F3000F8D10CBD00380240007000400854400742
:101F4000003C0240042808D14FF0E021096941F02B
:101F500004014FF0E022116107E04FF0E021096930
:101F600021F004014FF0E02211617047704700003A
:101F700010B504466FF00400FFF7E4FFE11704EB2F
:101F80005171C1F3C701074A11701046007800EB88
:101F90004001C1EBC0104FF6FF7101EAC0000249D9
:101FA000088010BD100000201200002010B5154858
:101FB000006840F47000134908601348006840F05E
:101FC00001001149086000200F49083108600E48DF
:101FD00000680E4908400C4908600D48091D08605A
:101FE000081F006820F48020091F086000200649AF
:101FF0000C310860FFF730FF4FF000600149803975
:10200000086010BD88ED00E000380240FFFFF6FEDA
:102010001030002410B540F225511D4800F0BAF8E8
:1020200010B31B4800F070F9C4B21A48008800F4DD
:102030000040C8B91748008800F4804060B10A2CFD
:1020400003D000201349088020E01248008840F4A3
:1020500000401049088019E00D2C06D10D48008879
:1020600040F480400B49088010E00A480088C0F323
:102070000D0009490C5407480088401C0549088098
:1020800008460088C72801DD0020088010BD000038
:1020900000100140140000203400002010B588B06A
:1020A000044601210846FFF741FE01211020FFF7F9
:1020B0004DFE072209212448FEF770FA07220A2163
:1020C0002148FEF76BFA4FF4C060069002208DF8AD
:1020D0001C008DF81D0000208DF81E0001208DF8D9
:1020E0001F0006A91848FEF711FA02940020ADF867
:1020F0000C00ADF80E00ADF81000ADF814000C2087
:10210000ADF8120002A9114800F094F801210F481F
:1021100000F027F840210D4800F01AF8012240F2A3
:1021200025510A4800F060F825208DF804000320AE
:102130008DF805008DF8060001208DF8070001A834
:10214000FEF78CFA08B010BD0000024000100140FC
:1021500001F40072B2F5007F00D100BFCA430280D3
:10216000704721B1828942F40052828104E0828961
:102170004DF6FF731A408281704702460020B1F588
:10218000007F00D100BF13880B400BB1012000E09D
:102190000020704770B5024600240023002500206F
:1021A00040F66A16B14200D100BFC1F3421501F0FA
:1021B0001F03012606FA03F3012D02D1968933404D
:1021C00006E0022D02D1168A334001E0968A3340A0
:1021D0000C12012606FA04F41688344013B10CB12F
:1021E000012000E0002070BDF0B503460024002669
:1021F0000025002040F66A17B94200D100BF1846FA
:10220000C1F3421401F01F06012707FA06F5012C5D
:1022100001D10C3004E0022C01D1103000E0143068
:102220001AB107682F43076002E00768AF430760F1
:10223000F0BD00002DE9FF4705460E460024A146EB
:1022400000BFA046B08900B100BF2C8A24F44054DE
:10225000F08804432C82AC8941F20C608443B0883E
:1022600031890843718908430443AC81AC8A24F462
:102270004074B0890443AC826846FFF777FD20487C
:10228000854202D01F48854202D1DDF80C9001E062
:10229000DDF80890A88900F4004040B109EBC900BE
:1022A00000EB091031684900B0FBF1F707E009EBDA
:1022B000C90000EB091031688900B0FBF1F7642018
:1022C000B7FBF0F004012009642101FB1078A88914
:1022D00000F4004040B1322000EBC800B0FBF1F048
:1022E00000F00700044308E0322000EB08106421EE
:1022F000B0FBF1F000F00F0004432C81BDE8FF8734
:10230000001001400014014001468888C0F3080015
:102310007047C1F308028280704700BFFEE70000EB
:102320000FB4054B10B503A9044A029800F018F841
:1023300010BC5DF814FB0000952800003000002060
:1023400002E008C8121F08C1002AFAD1704770477E
:10235000002001E001C1121F002AFBD170470000DC
:102360002DE9FF4F8DB00F460546002606E02528D3
:102370000BD0DDE90F1290476D1C761C28780028E1
:10238000F5D111B03046BDE8F08F0024A246A14639
:102390000122EC4900E0044315F8013F203B02FA1A
:1023A00003F00842F7D128782A2810D06FF02F02C6
:1023B0002878A0F13001092914D80AEB8A0102EB30
:1023C000410144F0020400EB010A6D1CF0E701CF6B
:1023D0005FEA000A03D544F40054CAF1000A44F04D
:1023E00002046D1C28782E2817D115F8010F44F02F
:1023F00004042A280ED06FF02F022878A0F13001B3
:1024000009290AD809EB890102EB410100EB010916
:102410006D1CF2E757F8049B6D1C28786C280FD0D0
:1024200006DC4C2817D068280DD06A2814D104E0A7
:10243000742810D07A280FD10DE044F400140AE07B
:1024400044F4801401E044F440146978814202D1DC
:1024500004F580146D1C6D1C2A786E2A1FD00CDCCC
:10246000632A31D004DC002A8BD0582A11D1A3E092
:10247000642A68D0692A0CD165E0732A2ED004DC66
:102480006F2A73D0702A04D19BE0752A6FD0782A06
:102490006ED01046DDE90F129047761C50E1C4F370
:1024A0000250022806D0032809D0042801CF09D001
:1024B000066045E101CFF117C0E9006140E101CFBD
:1024C00006803DE106703BE117F8040B8DF8000033
:1024D00000208DF80100EB46012003E057F804BB13
:1024E0004FF0FF3061074FF0000102D40DE008F11A
:1024F0000101884649450FDA8045F8DB1BF80810D2
:102500000029F4D108E008F1010188468142FADB94
:102510001BF808100029F6D1DDE90F23AAEB08000B
:102520008146214600F036F9304400EB080604E00D
:10253000DDE90F121BF8010B9047B8F10108F7D243
:1025400021464846F7E00A21C4F302534FF0000B3E
:102550000891022B04D001CFC117032B09D00AE048
:10256000FF1D27F00707F7E8020108E032E01FE04F
:1025700020E000B2C117042B01D140B2C117031EE5
:1025800071F1000307DA4FF0000CD0EB0C006CEB9C
:1025900001012D2302E0230504D52B238DF82430DF
:1025A000012303E0E30701D02023F7E7984658E032
:1025B0000A2110E010210EE010204FF0000B0890CF
:1025C0000CE010214FF0000B44F004044FF0080918
:1025D000089103E008214FF0000B0891C4F3025367
:1025E000022B04D001CF0021032B06D006E0FF1DF3
:1025F00027F00707F7E8020103E080B2042B00D1BF
:10260000C0B24FF0000823072BD5702A07D0DDF8A1
:1026100020C08CF0100C5CEA0B0C05D00EE04023BF
:102620008DF82430012308E050EA010306D030235E
:102630008DF824308DF8252002239846DDF820C03F
:102640008CF0080C5CEA0B0C0BD150EA010301D1B1
:10265000630706D530238DF824304FF00108A9F127
:102660000109582A04D038A20B9208AA0A920BE05A
:102670003AA2F9E75B46089AFDF7D3FD0B9B9B5CFA
:102680000A9A521E0A92137050EA0102F2D10A9875
:10269000ADEB000000F1200B600702D524F480347C
:1026A00001E04FF00109D94502DDA9EB0B0000E084
:1026B000002000EB0B0141440890AAEB010AE00363
:1026C00006D4DDE90F232146504600F063F80644A6
:1026D0004FF0000908E009A911F80900DDE90F121F
:1026E000904709F10109761CC145F4DBE0030CD5E4
:1026F000DDE90F232146504600F04CF8064404E083
:10270000DDE90F1230209047761C0899481E08908A
:102710000029F5DC08E00A980A990078491C0A911A
:10272000DDE90F129047761CBBF10001ABF1010B04
:10273000F1DC21465046DDE90F2300F019F806448C
:102740006D1C1BE609280100303132333435363731
:1027500038396162636465660000000030313233ED
:10276000343536373839414243444546000000008D
:102770002DE9F041044600251E461746880404D47E
:1027800005E039462020B0476D1C641EF9D5284667
:10279000BDE8F0812DE9F041044600251E46904633
:1027A000C80301D5302700E02027880404D505E0C0
:1027B00041463846B0476D1C641EF9D52846BDE831
:1027C000F08170B504464FF4077094FBF0F0C6B288
:1027D0004FF4077094FBF0F100FB114085B205E067
:1027E0004FF4077000F00AF8701EC6B2002EF7D141
:1027F00015B1284600F002F870BD00000146114AEC
:1028000012884A434FF0E0235A6100229A611A4627
:10281000126942F001021A6100BF4FF0E022106914
:1028200000F001021AB100F48032002AF5D04FF016
:10283000E022126922F001024FF0E0231A61002227
:102840009A617047120000200146114A12784A43EB
:102850004FF0E0235A6100229A611A46126942F051
:1028600001021A6100BF4FF0E022106900F001027E
:102870001AB100F48032002AF5D04FF0E02212693C
:1028800022F001024FF0E0231A6100229A617047A2
:102890001000002070B504460D46E1B20548FFF770
:1028A00038FD00BF80210348FFF767FC0028F9D0FE
:1028B000204670BD00100140B0B0A0A103C9CDE911
:1028C0002A01A0A103C9CDE928019DA00068279095
:1028D000142122A8FDF78DFC20211AA8FDF789FC00
:1028E000FF201890A820FFF743FB4FF4A060FDF7EE
:1028F000F1FE4FF4E130FFF7D1FBFDF77FFEFDF76E
:1029000081FFFEF731FC91A0FFF70AFD2EAE2EA845
:10291000FEF7D0FE88B98FA0FFF702FD002406E085
:102920002EA8015D8FA0FFF7FBFC601CC4B2082C31
:10293000F6DB8EA0FFF7F4FC0FE08DA0FFF7F0FCB4
:102940000AE09648006808B9012000E00020934999
:1029500008607820FFF735FFF3E791A0FFF7E0FC70
:10296000002406E02AA8015D7EA0FFF7D9FC601CC8
:10297000C4B2082CF6DB7DA0FFF7D2FC19AB2AAA63
:1029800080213046FEF71CFC28B99DF8641086A013
:10299000FFF7C6FC02E08DA0FFF7C2FC03A827AB3F
:1029A00060222AA900903046FEF738FD00283FD16A
:1029B0008DA0FFF7B5FC94A0FFF7B2FC002406E061
:1029C0000BA8015D67A0FFF7ABFC601CC4B2032C31
:1029D000F6DB66A0FFF7A4FC8EA0FFF7A1FC0024A5
:1029E00007E00DF12F00015D5EA0FFF799FC601C70
:1029F000C4B2142CF5DB5DA0FFF792FC88A0FFF7B2
:102A00008FFC002407E00DF14300015D55A0FFF7A6
:102A100087FC601CC4B2142CF5DB54A0FFF780FCCB
:102A2000BDF85A20BDF8581080A0FFF779FC02E0ED
:102A300088A0FFF775FC90A0FFF772FC002406E069
:102A400028A8015D47A0FFF76BFC601CC4B2082CEE
:102A5000F6DB46A0FFF764FC18A822A91AAA2AAB45
:102A6000CDE90021029028AA00213046FEF74EF859
:102A7000054684A0FFF754FC002406E01AA8015D77
:102A800038A0FFF74DFC601CC4B2202CF6DB37A049
:102A9000FFF746FC7EA0FFF743FC002406E022A8D7
:102AA000015D30A0FFF73CFC601CC4B2142CF6DBC7
:102AB0002EA0FFF735FC9DF8601079A0FFF730FCE1
:102AC0003DB9872019909DF864107FA0FFF728FC7E
:102AD00002E089A0FFF724FC08232CAA002130463D
:102AE000FEF7C7FDC8B98EA0FFF71AFC002406E068
:102AF0002CA8015D1BA0FFF713FC601CC4B2082CBE
:102B0000F6DB1AA0FFF70CFC0DB98CA000E08CA03E
:102B100001468DA0FFF704FC02E090A0FFF700FC47
:102B20000BE01E48006808B9012000E000201B49A6
:102B300008604FF49670FFF744FEF2E712345678BF
:102B4000ABCDEF0018293F4E5D6C7B8A74657374C2
:102B5000310D0A0050524234383020524F4D204936
:102B6000443A000020253032580000000D0A0000D1
:102B7000505242343830205265616420524F4D200B
:102B80006661696C6564206F722043524338206926
:102B90006E76616C69640D0A00000000A4824242F6
:102BA0005365637265743A004C6F616420466972C4
:102BB000737420536563726574204F4B2C20452F2E
:102BC000533D3078253032580D0A00004C6F616457
:102BD0002046697273742053656372657420666160
:102BE000696C65640D0A000052656164204175746A
:102BF00068656E74696361746564205061676520FF
:102C00004F4B0D0A000000004368616C6C656E67F5
:102C1000653A0000446576696365204D41433A009A
:102C2000486F73742020204D41433A00506167651E
:102C30002043524331363D3078253034582C204DD6
:102C400041432043524331363D3078253034580DCE
:102C50000A000000526561642041757468656E74F5
:102C60006963617465642050616765206661696CA1
:102C700065640D0A00000000577269746544617450
:102C8000613A000050616765446174613A00000078
:102C9000486F737420436F7079204D41433A0000B0
:102CA000436F70792053637261746368706164204C
:102CB00072657475726E207374617475733D3078CB
:102CC000253032580D0A000041757468656E7469CC
:102CD000636174656420436F70792053637261741B
:102CE0006368706164204F4B2C20452F533D307832
:102CF000253032580D0A000041757468656E74699C
:102D0000636174656420436F7079205363726174EA
:102D10006368706164206661696C65640D0A000017
:102D200052656164204D656D6F7279203078303066
:102D3000303020646174613A000000004F4B0000A5
:102D40004641494C454400005772697465207665D8
:102D5000726966792025730D0A000000526561646E
:102D6000204D656D6F7279206661696C65640D0A2E
:102D700000000000436F70792053637261746368D0
:102D80007061642072656A65637465643A205441B9
:102D90002F452F5320696E76616C69642C20626127
:102DA000642061646472657373206F722077726946
:102DB00074652070726F7465637465640D0A000039
:102DC0004C6F616420466972737420536563726549
:102DD0007420706F73742D636865636B206661691E
:102DE0006C65643A204141206973206E6F742073D2
:102DF0006574206F722054412F452F5320696E76E1
:102E0000616C69640D0A0000282E0000000000209B
:102E100034000000402300005C2E0000340000203D
:102E20008C05000050230000000000000102030494
:102E3000010203040607080900000000000000006A
:102E40000008024004000000020000040008040022
:0C2E5000E80300000000FF00000000008C
:04000005000001896D
:00000001FF
