:020000040000FA
:10000000E80400209D0100006D0400000B040000C6
:1000100069040000AB0200004F1000000000000067
:10002000000000000000000000000000890B00003C
:100030002F030000000000005D0A0000A10C00007A
:10004000B7010000B7010000B7010000B7010000D0
:10005000B7010000B7010000B7010000B7010000C0
:10006000B7010000B7010000B7010000B7010000B0
:10007000B7010000B7010000B7010000B7010000A0
:10008000B7010000B7010000B7010000B701000090
:10009000B7010000B7010000B7010000B701000080
:1000A000B7010000B7010000B7010000B701000070
:1000B000B7010000B7010000B7010000B701000060
:1000C000B7010000B7010000B7010000B701000050
:1000D000B7010000490D0000B7010000B7010000A2
:1000E000B7010000B7010000B7010000B701000030
:1000F000B7010000B7010000B7010000B701000020
:10010000B7010000B7010000B7010000B70100000F
:10011000B7010000B7010000B7010000B7010000FF
:10012000B7010000B7010000B7010000B7010000EF
:10013000B7010000B7010000B7010000B7010000DF
:10014000B7010000B7010000B7010000B7010000CF
:10015000B7010000B7010000B7010000B7010000BF
:10016000B7010000B7010000B7010000B7010000AF
:10017000B7010000B7010000B7010000B70100009F
:10018000B7010000B7010000DFF80CD000F05CF808
:1001900000480047ED150000E804002006488047AD
:1001A00006480047FEE7FEE7FEE7FEE7FEE7FEE75C
:1001B000FEE7FEE7FEE7FEE7E10C00008901000034
:1001C00040EA01039B0703D009E008C9121F08C0D9
:1001D000042AFAD203E011F8013B00F8013B521E59
:1001E000F9D270472DE9F05F0546002092469B4604
:1001F00088460646814640241BE02846414647463D
:10020000224600F042F853465A46C01A914110D394
:1002100011461846224600F029F82D1A67EB01080E
:100220004F4622460120002100F020F817EB00097C
:100230004E41201EA4F10104DFDC484631462A4627
:100240004346BDE8F09F0000064C074D06E0E0681D
:1002500040F0010394E8070098471034AC42F6D30D
:10026000FFF796FF281A0000481A0000202A04DB36
:10027000203A00FA02F1002070479140C2F12003B9
:1002800020FA03F3194390407047202A04DB203AF8
:1002900021FA02F00021704721FA02F3D040C2F1A6
:1002A0002002914008431946704700BFFEE72DE940
:1002B000F04106460F4600240025A04600BF0EE090
:1002C000002508E0305D40FA05F1404600F00EF8E8
:1002D0008046681CC5B2082DF4DB601CC4B2BC4269
:1002E000EEDB6FEA080080B2BDE8F08110B50A4687
:1002F000002100F0010302F0010483EA040100F090
:10030000020383EA41044FF6FD730340234498B28D
:1003100000F4804383EA81344BF6FF7303402344A7
:1003200098B24010034661F3DF33184610BD7047A2
:10033000F0B50A4600210023002400BF3DE001255E
:1003400005FA01F3156805EA03049C4234D10568F7
:100350004F000326BE40B543056015794E00B540F9
:100360000668354305601579012D02D01579022DF7
:1003700016D185684F000326BE40B5438560557988
:100380004E00B540866835438560456801268E403D
:10039000B5434560456896798E40B6B235434560B1
:1003A000C5684F000326BE40B543C560D5794E00F1
:1003B000B540C6683543C560491C1029BFD3F0BDA0
:1003C000F0B5002300244D07ED0E02FA05F3CE1020
:1003D00000F1200555F826504E07F70E0F26BE40B7
:1003E000B543CF1000F1200646F82750CE1000F19B
:1003F000200555F8265045EA0304CE1000F12005EB
:1004000045F82640F0BD0183704700BFFEE70000BD
:100410001CB50121202000F023FB01208DF80400F1
:100420004002009003208DF8050000208DF80600A2
:1004300001208DF8070069460A48FFF779FF4FF45D
:1004400000710848FFF7DFFF4FF4806000906946B5
:100450000448FFF76DFF4FF480610248FFF7D3FFB8
:100460001CBD00000014024000BFFEE77047000002
:1004700070B5002100230F22C4781CB3174C2468E8
:1004800004F4E064C4F5E064C4F30721C1F104049A
:10049000E3B20A4144789C40E1B28478144021439D
:1004A0000C07210E0E4C05786155047804F01F05E9
:1004B0000124AC4005786D11AD0005F1E025C5F8CB
:1004C000004109E0047804F01F050124AC40054D0B
:1004D0000678761145F8264070BD00000CED00E06E
:1004E00000E400E080E100E002490143024A1160BB
:1004F000704700000000FA050CED00E070B50446FE
:100500000D4629462046FFF7D2FE70BD10B50024E7
:1005100000F06CF804E0601CC4B2012001F02EF879
:100520000D48006808B1C82CF5DBC82C01DB0120A0
:1005300010BD002404E0601CC4B2012001F01EF8CC
:100540000548006808B9F02CF5DBF02C01DB012030
:10055000EEE70020ECE700002402434210B5044619
:1005600000F0E6F908B1012010BD1CB1204600F0F2
:10057000BFF801E000F0F4F90020F5E72DE9F047BD
:1005800082460D46174698465046FFF7E7FF10B1E2
:100590000120BDE8F087552000F004FAE8B200F031
:1005A00001FA281200F0FEF9384600F0FBF90A20A3
:1005B00000F0A1FF002405E018F8040000F0F2F9B3
:1005C000601CC4B2142CF7DB142000F094FF00F080
:1005D00013F9814600F010F90646B9F1AA0F01D1CE
:1005E000AA2E01D00120D4E70020D2E71CB54FF499
:1005F0000070009000208DF8040001208DF80700A5
:1006000069460248FFF794FE1CBD00000018024036
:100610001CB54FF40070009001208DF804000020FC
:100620008DF8060002208DF8050001208DF80700E6
:1006300069460248FFF77CFE1CBD0000001802401E
:1006400010B50121402000F00BFAFFF7E1FF012077
:10065000034908600A2000F091FF00F069F910BD1D
:10066000A40243422DE9F04387B081460C4616466A
:100670001F4606A80823324621460090484600F04F
:100680009FF918B1012007B0BDE8F08306A8082142
:100690003B4604AACDE90061029005A9484600F056
:1006A000F2F808B10120EEE74846FFF757FF08B11E
:1006B0000120E8E75A2000F075F9E0B200F072F985
:1006C000201200F06FF9387800F06CF9142000F077
:1006D00012FF00F091F8804600F08EF80546B8F160
:1006E000AA0F01D1AA2D01D00120CCE70020CAE732
:1006F00070B50546552000F055F9002404E0285D4A
:1007000000F050F9601CC4B2082CF8DB70BD2DE974
:10071000FF5F83460D46904699465846FFF71EFFF9
:1007200018B1012004B0BDE8F09FA52000F03AF90F
:10073000E8B200F037F9281200F034F9002405E09F
:1007400000F05AF808F80400601CC4B2202CF7DB53
:1007500000F052F80646FF2E01D00120E2E700F03B
:100760004BF8039000F048F80290142000F0C3FE0C
:10077000002405E000F040F809F80400601CC4B251
:10078000142CF7DB00F038F8019000F035F80090F9
:1007900000F032F8824600F02FF80746BAF1000F59
:1007A00001D1012F01D00120BCE70020BAE70000F1
:1007B00010B5FFF72DFF00200D490860022000F062
:1007C000DDFE01200B49C1F8A402FFF70FFF0C204A
:1007D00000F0D4FE06488038006808B1012000E02F
:1007E00000200446322000F0C9FE204610BD000063
:1007F000A40243420000434270B50026002508E0F1
:10080000FFF7D6FF0446E00140EA6600C6B2681C66
:10081000C5B2082DF4DB304670BD2DE9F0418046AD
:100820000D4616461F464046FFF798FE10B10120C0
:10083000BDE8F081F02000F0B5F8E8B200F0B2F8C1
:10084000281200F0AFF8002404E0FFF7D5FF305580
:10085000601CC4B2BC42F8DB0020E9E770B5054675
:1008600000F066F808B1012070BD332000F09AF85E
:10087000002404E0FFF7C0FF2855601CC4B2082C18
:10088000F8DB0020F0E72DE9FF4F85B00D46164656
:100890001F46DDF84C800598FFF760FE18B1012077
:1008A00009B0BDE8F08FAA2000F07CF8FFF7A4FFA4
:1008B0002870FFF7A1FF3070FFF79EFF387000240B
:1008C00005E0FFF799FF12990855601CC4B2444532
:1008D000F7DBFFF791FF0190FFF78EFF814601984C
:1008E00040EA092A28788DF8080030788DF8090048
:1008F00038788DF80A00002406E01298015DE01CAB
:1009000002AA1154601CC4B24445F6DB08F103008E
:10091000C1B202A8FFF7F2FD8346149810B11498F3
:10092000A0F800A0DA4501D00120B9E70020B7E720
:1009300010B5FFF76DFE00200749086040F2EE2079
:1009400000F01CFE01200549C1F8A4020F2000F0B0
:1009500015FEFFF7DBFD10BDA40243420000434239
:1009600010B5CC2000F01EF810BD000010B50446F4
:10097000FFF74EFE00200A490860022000F0FEFD4D
:1009800034B10120064908603C2000F0F7FD05E085
:100990003C2000F0F3FD01200149086010BD00007B
:1009A000A402434270B50446002506E004F00100AD
:1009B000FFF7DCFF6410681CC5B2082DF6DB70BDC4
:1009C0002DE9FF4F85B00D4617461E46DDF848A0BD
:1009D0000EB1082E03DD012009B0BDE8F08F0598A7
:1009E000FFF7BCFD08B10120F6E70F20FFF7DAFFA3
:1009F000E8B2FFF7D7FF2812FFF7D4FF0F208DF8DA
:100A00000800E8B28DF8090028128DF80A000024C9
:100A100008E0385DFFF7C6FF395DE01C02AA1154FB
:100A2000601CC4B2B442F4DBFFF7E6FE8346FFF776
:100A3000E3FE019001984BEA0028F01CC1B202A825
:100A4000FFF75CFD8146BAF1000F01D0AAF80080E3
:100A5000C84501D00120BFE70020BDE77047000076
:100A600029B1064A12680243044B1A6004E0034AA3
:100A700012688243014B1A60704700003038024010
:100A800029B1064A12680243044B1A6004E0034A83
:100A900012688243014B1A607047000044380240DC
:100AA000F0B5002100220024022500260223324F47
:100AB0003F6807F00C0121B1042905D0082937D17E
:100AC00005E02E4F076036E02D4F076033E02A4FD8
:100AD0003F1F3F68C7F38056274F3F1F3F6807F00F
:100AE0003F036EB1264FB7FBF3F7DFF88CC0ACF1D4
:100AF000040CDCF800C0CCF3881C07FB0CF40CE001
:100B00001E4FB7FBF3F7DFF870C0ACF1040CDCF854
:100B100000C0CCF3881C07FB0CF4174F3F1F3F6845
:100B2000C7F301477F1C7D00B4FBF5F7076002E0C7
:100B3000124F076000BF00BF0F4F3F6807F0F00182
:100B40000909104F7A5C0768D74047600A4F3F6831
:100B500007F4E051890A0B4F7A5C4768D7408760F9
:100B6000054F3F6807F46041490B064F7A5C4768C0
:100B7000D740C760F0BD0000083802400024F400F0
:100B800000127A0000000020704700000CB5002021
:100B9000019000903448006840F480303249086089
:100BA00000BF3148006800F4003000900198401CFC
:100BB0000190009818B90198B0F5A04FF1D12A48DA
:100BC000006800F4003010B10120009001E0002026
:100BD00000900098012846D123484030006840F03A
:100BE00080502149403108602048006840F440406E
:100BF0001E4908601C48083000681B49083108601D
:100C00000846006840F4004008600846006840F468
:100C1000A05008601648091F0860081F006840F0CF
:100C20008070091F086000BF0F48006800F0007066
:100C30000028F9D040F205700E4908600A480830D3
:100C4000006820F003000849083108600846006881
:100C500040F00200086000BF03480830006800F060
:100C60000C000828F8D10CBD00380240007000408C
:100C700008544007003C0240042808D14FF0E0210E
:100C8000096941F004014FF0E022116107E04FF0E3
:100C9000E021096921F004014FF0E0221161704761
:100CA0007047000010B504466FF00400FFF7E4FF42
:100CB000E11704EB5171C1F3C701074A11701046E7
:100CC000007800EB4001C1EBC0104FF6FF7101EA64
:100CD000C0000249088010BD100000201200002052
:100CE00010B51548006840F47000134908601348B7
:100CF000006840F001001149086000200F490831E8
:100D000008600E4800680E4908400C4908600D480C
:100D1000091D0860081F006820F48020091F086072
:100D2000002006490C310860FFF730FF4FF00060EB
:100D300001498039086010BD88ED00E000380240AC
:100D4000FFFFF6FE1030002410B540F225511D487B
:100D500000F0BAF810B31B4800F070F9C4B21A489A
:100D6000008800F40040C8B91748008800F48040AB
:100D700060B10A2C03D000201349088020E01248FB
:100D8000008840F400401049088019E00D2C06D17D
:100D90000D48008840F480400B49088010E00A4864
:100DA0000088C0F30D0009490C5407480088401C16
:100DB0000549088008460088C72801DD0020088012
:100DC00010BD000000100140140000201C00002095
:100DD00010B588B0044601210846FFF741FE012105
:100DE0001020FFF74DFE072209212448FFF7E8FAFB
:100DF00007220A212148FFF7E3FA4FF4C06006906A
:100E000002208DF81C008DF81D0000208DF81E00BA
:100E100001208DF81F0006A91848FFF789FA0294EF
:100E20000020ADF80C00ADF80E00ADF81000ADF8E4
:100E300014000C20ADF8120002A9114800F094F83B
:100E400001210F4800F027F840210D4800F01AF862
:100E5000012240F225510A4800F060F825208DF863
:100E6000040003208DF805008DF8060001208DF8A0
:100E7000070001A8FFF7FCFA08B010BD000002400F
:100E80000010014001F40072B2F5007F00D100BFF4
:100E9000CA430280704721B1828942F400528281A4
:100EA00004E082894DF6FF731A4082817047024642
:100EB0000020B1F5007F00D100BF13880B400BB1BB
:100EC000012000E00020704770B502460024002396
:100ED0000025002040F66A16B14200D100BFC1F3E0
:100EE000421501F01F03012606FA03F3012D02D17A
:100EF0009689334006E0022D02D1168A334001E084
:100F0000968A33400C12012606FA04F416883440FF
:100F100013B10CB1012000E0002070BDF0B5034614
:100F2000002400260025002040F66A17B94200D1AF
:100F300000BF1846C1F3421401F01F06012707FA4B
:100F400006F5012C01D10C3004E0022C01D1103047
:100F500000E014301AB107682F43076002E0076809
:100F6000AF430760F0BD00002DE9FF4705460E4680
:100F70000024A14600BFA046B08900B100BF2C8A62
:100F800024F44054F08804432C82AC8941F20C6074
:100F90008443B08831890843718908430443AC8194
:100FA000AC8A24F44074B0890443AC826846FFF7ED
:100FB00077FD2048854202D01F48854202D1DDF8E6
:100FC0000C9001E0DDF80890A88900F4004040B1E1
:100FD00009EBC90000EB091031684900B0FBF1F7DB
:100FE00007E009EBC90000EB091031688900B0FB8C
:100FF000F1F76420B7FBF0F004012009642101FB44
:101000001078A88900F4004040B1322000EBC800FD
:10101000B0FBF1F000F00700044308E0322000EBE1
:1010200008106421B0FBF1F000F00F0004432C81A4
:10103000BDE8FF8700100140001401400146888888
:10104000C0F308007047C1F308028280704700BFF8
:10105000FEE700000FB4054B10B503A9044A02983F
:1010600000F018F810BC5DF814FB0000C915000072
:101070001800002002E008C8121F08C1002AFAD197
:1010800070477047002001E001C1121F002AFBD108
:10109000704700002DE9FF4F8DB00F460546002632
:1010A00006E025280BD0DDE90F1290476D1C761C59
:1010B00028780028F5D111B03046BDE8F08F002423
:1010C000A246A1460122EC4900E0044315F8013F85
:1010D000203B02FA03F00842F7D128782A2810D0E2
:1010E0006FF02F022878A0F13001092914D80AEBFB
:1010F0008A0102EB410144F0020400EB010A6D1C7D
:10110000F0E701CF5FEA000A03D544F40054CAF1C6
:10111000000A44F002046D1C28782E2817D115F817
:10112000010F44F004042A280ED06FF02F02287813
:10113000A0F1300109290AD809EB890102EB41012C
:1011400000EB01096D1CF2E757F8049B6D1C287831
:101150006C280FD006DC4C2817D068280DD06A28E0
:1011600014D104E0742810D07A280FD10DE044F493
:1011700000140AE044F4801401E044F44014697857
:10118000814202D104F580146D1C6D1C2A786E2AF0
:101190001FD00CDC632A31D004DC002A8BD0582A03
:1011A00011D1A3E0642A68D0692A0CD165E0732AC2
:1011B0002ED004DC6F2A73D0702A04D19BE0752AEC
:1011C0006FD0782A6ED01046DDE90F129047761C5A
:1011D00050E1C4F30250022806D0032809D00428A5
:1011E00001CF09D0066045E101CFF117C0E90061E8
:1011F00040E101CF06803DE106703BE117F8040BAA
:101200008DF8000000208DF80100EB46012003E07E
:1012100057F804BB4FF0FF3061074FF0000102D4D4
:101220000DE008F10101884649450FDA8045F8DBF9
:101230001BF808100029F4D108E008F101018846E4
:101240008142FADB1BF808100029F6D1DDE90F23F3
:10125000AAEB08008146214600F036F9304400EB45
:10126000080604E0DDE90F121BF8010B9047B8F106
:101270000108F7D221464846F7E00A21C4F3025399
:101280004FF0000B0891022B04D001CFC117032BA4
:1012900009D00AE0FF1D27F00707F7E8020108E080
:1012A00032E01FE020E000B2C117042B01D140B2B0
:1012B000C117031E71F1000307DA4FF0000CD0EBE9
:1012C0000C006CEB01012D2302E0230504D52B2338
:1012D0008DF82430012303E0E30701D02023F7E752
:1012E000984658E00A2110E010210EE010204FF03F
:1012F000000B08900CE010214FF0000B44F00404A8
:101300004FF00809089103E008214FF0000B089105
:10131000C4F30253022B04D001CF0021032B06D0CB
:1013200006E0FF1D27F00707F7E8020103E080B29F
:10133000042B00D1C0B24FF0000823072BD5702A30
:1013400007D0DDF820C08CF0100C5CEA0B0C05D047
:101350000EE040238DF82430012308E050EA010319
:1013600006D030238DF824308DF8252002239846AE
:10137000DDF820C08CF0080C5CEA0B0C0BD150EAB5
:10138000010301D1630706D530238DF824304FF0D7
:101390000108A9F10109582A04D038A20B9208AA21
:1013A0000A920BE03AA2F9E75B46089AFEF71AFFA9
:1013B0000B9B9B5C0A9A521E0A92137050EA010220
:1013C000F2D10A98ADEB000000F1200B600702D5C6
:1013D00024F4803401E04FF00109D94502DDA9EB86
:1013E0000B0000E0002000EB0B0141440890AAEB49
:1013F000010AE00306D4DDE90F232146504600F040
:1014000063F806444FF0000908E009A911F8090043
:10141000DDE90F12904709F10109761CC145F4DBA3
:10142000E0030CD5DDE90F232146504600F04CF8CF
:10143000064404E0DDE90F1230209047761C08993D
:10144000481E08900029F5DC08E00A980A990078FF
:10145000491C0A91DDE90F129047761CBBF100018F
:10146000ABF1010BF1DC21465046DDE90F2300F022
:1014700019F806446D1C1BE609280100303132338F
:1014800034353637383961626364656600000000C0
:1014900030313233343536373839414243444546AA
:1014A000000000002DE9F041044600251E461746C5
:1014B000880404D405E039462020B0476D1C641E22
:1014C000F9D52846BDE8F0812DE9F0410446002514
:1014D0001E469046C80301D5302700E02027880427
:1014E00004D505E041463846B0476D1C641EF9D569
:1014F0002846BDE8F08170B504464FF4077094FBB0
:10150000F0F0C6B24FF4077094FBF0F100FB11400D
:1015100085B205E04FF4077000F00AF8701EC6B2FD
:10152000002EF7D115B1284600F002F870BD00007A
:101530000146114A12884A434FF0E0235A610022C3
:101540009A611A46126942F001021A6100BF4FF017
:10155000E022106900F001021AB100F48032002A82
:10156000F5D04FF0E022126922F001024FF0E023A3
:101570001A6100229A617047120000200146114A48
:1015800012784A434FF0E0235A6100229A611A46CA
:10159000126942F001021A6100BF4FF0E0221069A7
:1015A00000F001021AB100F48032002AF5D04FF0A9
:1015B000E022126922F001024FF0E0231A610022BA
:1015C0009A6170471000002070B504460D46E1B2E4
:1015D0000548FFF738FD00BF80210348FFF767FC8F
:1015E0000028F9D0204670BD00100140A2B079A1BA
:1015F00003C9CDE90F0179A103C9CDE90D01142279
:1016000078A108A8FEF7DCFDA820FFF74BFB4FF4FC
:10161000A060FEF769FF4FF4E130FFF7D9FBFEF75A
:10162000F7FE06E074A0FFF715FD4FF4FA70FFF720
:1016300062FFFFF705F80028F4D17AA0FFF70AFD52
:10164000002520A8FFF70AF990B920AD7AA0FFF78E
:1016500001FD002406E020A8015D7BA0FFF7FAFC55
:10166000601CC4B2082CF6DB79A0FFF7F3FC02E0A3
:1016700078A0FFF7EFFC05AB0FAA80212846FEF704
:10168000F1FF28B99DF814107FA0FFF7E3FC02E0FA
:1016900086A0FFF7DFFC13AB18AA60210020FFF73C
:1016A00036F800282AD188A0FFF7D4FC002411E0E6
:1016B00018A8015D8DA0FFF7CDFC601CC11700EBE1
:1016C00011710911A0EB011111B961A0FFF7C2FC62
:1016D000601CC4B2202CEBDB86A0FFF7BBFC00240F
:1016E00006E013A8015D58A0FFF7B4FC601CC4B26B
:1016F000142CF6DB56A0FFF7ADFC02E07FA0FFF74D
:10170000A9FC04A808230DAA002100902846FFF791
:1017100057F928B9BDF8101081A0FFF79BFC02E033
:1017200088A0FFF797FC04A8082111AA05ABCDE912
:101730000021029006AA07A92846FFF7A4F860B97D
:10174000BDF8100000909DF814309DF818209DF809
:101750001C1083A0FFF77EFC02E091A0FFF77AFC4B
:1017600008AB9DF8142000212846FEF707FF18B9A2
:1017700092A0FFF76FFC02E096A0FFF76BFC082336
:1017800011AA00210846FFF748F888B998A0FFF78A
:1017900061FC002406E011A8015D2BA0FFF75AFCB4
:1017A000601CC4B2082CF6DB29A0FFF753FC02E052
:1017B00096A0FFF74FFC0BE09A48006808B901209B
:1017C00000E00020974908604FF49670FFF793FE01
:1017D000F2E7000012345678ABCDEF0018293F4EE7
:1017E0005D6C7B8A481A61D622C98A1819D8F42CF4
:1017F0001AD0300F391467B2505242343830206E4C
:101800006F7420666F756E642C20636865636B204F
:1018100050473920636F6E6E656374696F6E210D7A
:101820000A00000050524234383020696E6974203A
:101830004F4B210D0A0000005052423438302052E4
:101840004F4D2049443A0000202530325800000016
:101850000D0A000050524234383020526561642035
:10186000524F4D206661696C65642C207573696EFA
:101870006720536B697020524F4D2066616C6C621B
:1018800061636B0D0A0000004C6F61642046697251
:10189000737420536563726574204F4B2C20452F61
:1018A000533D3078253032580D0A00004C6F61648A
:1018B0002046697273742053656372657420666193
:1018C000696C65640D0A000041757468656E746921
:1018D000636174656420506167652030783030360C
:1018E0003020646174613A0D0A00000025303258DE
:1018F000200000004D41433A000000005265616441
:101900002041757468656E74696361746564205004
:10191000616765206661696C65640D0A00000000FE
:10192000577269746520536372617463687061648F
:10193000204F4B2C204352433D3078253034580DF6
:101940000A00000057726974652053637261746302
:1019500068706164206661696C65640D0A0000004E
:1019600052656164205363726174636870616420BE
:101970005441313D307825303258205441323D3089
:10198000782530325820452F533D30782530325855
:10199000204352433D3078253034580D0A00000072
:1019A000526561642053637261746368706164207E
:1019B0006661696C65640D0A00000000436F707910
:1019C0002053637261746368706164204F4B0D0A29
:1019D00000000000436F7079205363726174636884
:1019E000706164206661696C65640D0A0000000026
:1019F00052656164204D656D6F72792030783030AA
:101A0000303020646174613A000000005265616406
:101A1000204D656D6F7279206661696C65640D0A91
:101A200000000000A4824242481A0000000000208A
:101A30001C00000074100000641A00001C0000204C
:101A4000CC04000084100000000000000102030428
:101A5000010203040607080900000000000000005E
:041A60000000000082
:04000005000001896D
:00000001FF
