:020000040000FA
:10000000C00500209D01000059060000F905000010
:10001000550600008704000077280000000000005B
:10002000000000000000000000000000B1230000FC
:100030000B0500000000000085220000C92400001C
:10004000B7010000B7010000B7010000B7010000D0
:10005000B7010000B7010000B7010000B7010000C0
:10006000B7010000B7010000B7010000B7010000B0
:10007000B7010000B7010000B7010000B7010000A0
:10008000B7010000B7010000B7010000B701000090
:10009000B7010000B7010000B7010000B701000080
:1000A000B7010000B7010000B7010000B701000070
:1000B000B7010000B7010000B7010000B701000060
:1000C000B7010000B7010000B7010000B701000050
:1000D000B701000071250000B7010000B701000062
:1000E000B7010000B7010000B7010000B701000030
:1000F000B7010000B7010000B7010000B701000020
:10010000B7010000B7010000B7010000B70100000F
:10011000B7010000B7010000B7010000B7010000FF
:10012000B7010000B7010000B7010000B7010000EF
:10013000B7010000B7010000B7010000B7010000DF
:10014000B7010000B7010000B7010000B7010000CF
:10015000B7010000B7010000B7010000B7010000BF
:10016000B7010000B7010000B7010000B7010000AF
:10017000B7010000B7010000B7010000B70100009F
:10018000B7010000B7010000DFF80CD000F07AF8EA
:1001900000480047152E0000C00500200648804793
:1001A00006480047FEE7FEE7FEE7FEE7FEE7FEE75C
:1001B000FEE7FEE7FEE7FEE70925000089010000F3
:1001C00040EA01039B0703D009E008C9121F08C0D9
:1001D000042AFAD203E011F8013B00F8013B521E59
:1001E000F9D27047D2B201E000F8012B491EFBD2D0
:1001F00070470022F6E710B513460A460446194632
:10020000FFF7F0FF204610BD30B50446002003463E
:1002100000E05B1C934203D2E05CCD5C401BF8D055
:1002200030BD2DE9F05F0546002092469B4688468A
:100230000646814640241BE0284641464746224662
:1002400000F041F853465A46C01A914110D3114666
:100250001846224600F028F82D1A67EB01084F4691
:1002600022460120002100F01FF817EB00094E4143
:10027000201EA4F10104DFDC484631462A464346ED
:10028000BDE8F09F064C074D06E0E06840F0010332
:1002900094E8070098471034AC42F6D3FFF778FF94
:1002A0002C3500004C350000202A04DB203A00FAEF
:1002B00002F1002070479140C2F1200320FA03F3BD
:1002C000194390407047202A04DB203A21FA02F0BB
:1002D0000021704721FA02F3D040C2F12002914080
:1002E000084319467047CA430260704721B18268CB
:1002F00042F00102826003E0826822F00102826023
:10030000704700000021084A1168084A1140D0E9EE
:1003100000231A4383681A43C3681A431143044AEB
:10032000C2F804137047000004230140E030FCFFD2
:10033000002001400021016041608160C160704780
:100340000146C86C80B270470246002013680B401B
:100350000BB1012000E000207047000030B50246DC
:10036000002000235068104C20400D790C6844EAAE
:1003700005242043506090680C4C2040D1E9035480
:100380002C438D682C434D7944EA4504204390600A
:10039000D06A20F470000C7D641EE4B2234340EA6E
:1003A0000350D06230BD0000FFFEFFFCFDF7FFC030
:1003B000F0B504460D4600200021092D11DDE0684E
:1003C000A5F10A0606EB4607072606FA07F1884359
:1003D000A5F10A0606EB460603FA06F10843E060BB
:1003E0000CE0206905EB4507072606FA07F188436C
:1003F00005EB450603FA06F108432061072A0FDAE8
:10040000606B561E06EB86071F2606FA07F1884327
:10041000561E06EB860605FA06F10843606322E0E5
:100420000D2A0FDA206BD61F06EB86071F2606FA69
:1004300007F18843D61F06EB860605FA06F1084346
:10044000206310E0E06AA2F10D0606EB86071F2686
:1004500006FA07F18843A2F10D0606EB860605FAB7
:1004600006F10843E062F0BD816841F0804181609F
:10047000704700210160017141718160C1600161BB
:1004800001210175704700BFFEE72DE9F0410646E6
:100490000F4600240025A04600BF0EE0002508E01E
:1004A000305D40FA05F1404600F00EF88046681CC9
:1004B000C5B2082DF4DB601CC4B2BC42EEDB6FEAAF
:1004C000080080B2BDE8F08110B50A46002100F0B6
:1004D000010302F0010483EA040100F0020383EA4D
:1004E00041044FF6FD730340234498B200F4804367
:1004F00083EA81344BF6FF730340234498B24010E3
:10050000034661F3DF33184610BD7047F0B50A4665
:1005100000210023002400BF3DE0012505FA01F37E
:10052000156805EA03049C4234D105684F00032690
:10053000BE40B543056015794E00B54006683543A9
:1005400005601579012D02D01579022D16D1856827
:100550004F000326BE40B543856055794E00B54037
:10056000866835438560456801268E40B543456001
:10057000456896798E40B6B235434560C5684F00F0
:100580000326BE40B543C560D5794E00B540C66868
:100590003543C560491C1029BFD3F0BDF0B5002319
:1005A00000244D07ED0E02FA05F3CE1000F12005F0
:1005B00055F826504E07F70E0F26BE40B543CF1014
:1005C00000F1200646F82750CE1000F1200555F81E
:1005D000265045EA0304CE1000F1200545F82640D8
:1005E000F0BD018370474FF6FF710160002101717A
:1005F00041718171C171704700BFFEE71CB50121D7
:10060000202001F041FE01208DF8040040020090FE
:1006100003208DF8050000208DF8060001208DF8DC
:10062000070069460A48FFF771FF4FF40071084858
:10063000FFF7D7FF4FF48060009069460448FFF74A
:1006400065FF4FF480610248FFF7CBFF1CBD00003F
:100650000014024000BFFEE77047000070B50021A3
:1006600000230F22C4781CB3174C246804F4E06400
:10067000C4F5E064C4F30721C1F10404E3B20A4104
:1006800044789C40E1B28478144021430C07210E49
:100690000E4C05786155047804F01F050124AC4028
:1006A00005786D11AD0005F1E025C5F8004109E0C0
:1006B000047804F01F050124AC40054D067876113E
:1006C00045F8264070BD00000CED00E000E400E0BD
:1006D00080E100E002490143024A116070470000D6
:1006E0000000FA050CED00E000B58BB00121080216
:1006F00001F0DAFD07A8FFF71DFE002007904FF478
:1007000080300890002009900A9007A8FFF7FAFDB2
:1007100001A8FFF7AEFE002001908DF808008DF8CB
:1007200009000390059001208DF8180001A90448E4
:10073000FFF714FE01210248FFF7D8FD0BB000BD02
:100740000020014010B500200D4908700D480278C6
:100750000D4801880DA002F091F800240AE013482A
:10076000035D134830F81420214612A002F086F8E9
:10077000601CC4B2034800788442F0DB10BD000066
:100780002D0000202C0000202800002041444320A0
:100790006C6F67207468726573686F6C643D257553
:1007A00020636F756E743D25750D0A007C01002075
:1007B000FC000020253032753A206164633D2575C8
:1007C000206269743D25750D0A0000000021094A68
:1007D00011700121084A1170002007E00021074A2A
:1007E00022F81010064A1154411CC8B24028F5DB0B
:1007F000704700002C0000202D000020FC0000208D
:100800007C0100201CB51A481A49086004201A49C6
:1008100008600220194908804002194908804000F8
:10082000184908800420184908700121442001F06B
:100830002BFD1348008813490988084300900120C4
:100840008DF8040000208DF8060002208DF80500C8
:1008500000208DF8070069460C48FFF757FE01F0AD
:10086000BDFA00F015FE00F08FFCFFF73DFF1CBD48
:1008700000080240180000201C000020200000207A
:100880002200002024000020260000200018024042
:1008900070B504460D4629462046FFF7F6FD70BDAB
:1008A000F0B502460B460020002111E0555C002403
:1008B0000AE080EA050707F0010640100EB180F05B
:1008C0008C006D10671CFCB2082CF2DB4F1CF9B2D7
:1008D0009942EBDBF0BD0246AA2A03D0552A01D08B
:1008E00001207047AA2903D0552901D00120F8E73B
:1008F0000020F6E7014601F00700072801D001209B
:10090000704701F0200008B10120F9E701F08000F4
:1009100008B90120F4E70020F2E7014601F00700E2
:10092000072801D00120704701F0200008B1012004
:10093000F9E701F0800008B10120F4E70020F2E7B8
:1009400001469F2901DD0120704701F0070008B131
:100950000120F9E70020F7E710B5044601F02BFA73
:1009600008B1012010BD1CB1204600F07DFD01E062
:1009700001F0F6FA0020F5E72DE9F84381460C4630
:1009800090461F46FF203E49087017B90120BDE878
:10099000F883204600F0D2FB022801D10120F6E7BF
:1009A0002046FFF7CDFF08B10120F0E74046FFF7F2
:1009B000B4FF08B10120EAE74846FFF7CDFF08B1D0
:1009C0000120E4E7552001F0F5FBE0B201F0F2FB75
:1009D000201201F0EFFB404601F0ECFB01F004FABD
:1009E00000F05CFD032002F09AF900F051FD0025B3
:1009F00004E0785D01F0DEFB681CC5B2142DF8DB65
:100A000001F0F2F900F04AFD012002F088F900F04F
:100A10003FFD684601F064FB06469DF8000018495A
:100A200008709DF8001017A001F028FF012E06D1D4
:100A30001CA001F023FF01F0BEF90120A7E7022E60
:100A400006D1234801F01AFF01F0B5F901209EE715
:100A500036B120A001F012FF01F0ADF9012096E7B8
:100A600001F0A9F908B1012091E70022214648468A
:100A700001F09FFA08B1012089E7002087E7000014
:100A80002E000020436F7079205363726174636895
:100A9000706164207374617475733D3078253032F1
:100AA000580D0A00436F7079205363726174636854
:100AB0007061642072656A65637465643A204D41B3
:100AC00043206D69736D617463680D0A0000000056
:100AD00098340000436F70792053637261746368C7
:100AE0007061642072656A65637465643A20746934
:100AF0006D656F7574206F7220756E6B6E6F776E9B
:100B0000207374617475730D0A0000002DE9F04FB5
:100B10008BB080460E4691469A46DDE914B7169D85
:100B20000DB1FF202870B9F1000F06D0BAF1000F07
:100B300003D0BBF1000F00D01FB901200BB0BDE8FE
:100B4000F08FB8F1000F01D10120F7E7304600F037
:100B5000F5FA022801D10120F0E73046FFF7F0FE58
:100B600008B10120EAE7304600F08DFC20235A4608
:100B700001460290404601F02AF808B10120DDE765
:100B800003A808234A4631460090404601F024FB62
:100B900008B10120D2E703A8082106AA08ABCDE9D5
:100BA0000021029009AA0AA9404601F0A1F808B163
:100BB0000120C3E79DF82000C0099DF82010C1F373
:100BC0004011CDE900109DF820309DF824209DF8BB
:100BD000281044A001F052FE51A001F04FFE002465
:100BE00006E006A8015D53A001F048FE601CC4B2F7
:100BF000082CF6DB51A001F041FEF0B29DF8281060
:100C0000884201D0012099E79DF82400B0EB262FFF
:100C100001D0012092E79DF82000FFF77EFE08B189
:100C200001208BE70822494606A8FFF7EDFA08B134
:100C3000012083E706A85B4632464146CDE900071E
:100C4000504600F0A5F908B1012077E73CA001F07B
:100C500015FE002405E0395D36A001F00FFE601C92
:100C6000C4B2142CF7DB35A001F008FE9DF8280073
:100C70009DF8242040EA02213B469DF82020404672
:100C8000FFF77AFE28B115B13048007828700120AE
:100C900054E715B12D4800782870082304AA31467E
:100CA000404600F094FF08B1012047E728A001F07A
:100CB000E5FD002406E004A8015D1EA001F0DEFDB4
:100CC000601CC4B2082CF6DB1CA001F0D7FD082282
:100CD000494604A8FFF798FA08B101202EE7002042
:100CE0002CE7000053637261746368706164205480
:100CF00041313D307825303258205441323D3078F2
:100D00002530325820452F533D3078253032582039
:100D100050463D25642041413D25640D0A000000F8
:100D20005363726174636870616420646174613AD2
:100D30000000000020253032580000000D0A00009D
:100D4000436F7079204D41433A0000002E0000208F
:100D500052656164204D656D6F72792076657269A8
:100D600066793A0008B50020009003E000BF0098C3
:100D7000401C009000980C28F8D308BD2DE9F047DE
:100D800096B005460E4690461F46DDE91E9A402164
:100D900006A8FFF72EFA3DB136B12FB1B9F1000F19
:100DA00002D0BAF1000F03D1012016B0BDE8F087E0
:100DB000404600F0C3F9012801D00120F5E70024E6
:100DC00004E0285D06A90855601CC4B2042CF8DBB9
:100DD000002405E0295D201D06AA1154601CC4B240
:100DE000042CF7DB002406E0201D295C001D06AA68
:100DF0001154601CC4B2042CF6DB002407E004F19B
:100E00000800395C001D06AA1154601CC4B2142CE1
:100E1000F5DB002407E019F8041004F1200006AA0D
:100E20001154601CC4B2082CF5DB04208DF840007E
:100E3000002406E0315D04F1290006AA1154601C6B
:100E4000C4B2072CF6DB002406E0201D295C2C3000
:100E500006AA1154601CC4B2042CF6DBFF208DF8E6
:100E60004C008DF84D008DF84E0080208DF84F001D
:100E700000208DF850008DF851008DF852008DF84B
:100E800053008DF854008DF8550001208DF8560060
:100E9000B8208DF8570001A906A800F0ABFF514615
:100EA00001A801F062F800207FE72DE9F04796B035
:100EB00005460E4617469846DDE91E9A402106A8CB
:100EC000FFF797F9002404E0285D06A90855601C87
:100ED000C4B2042CF8DB002406E018F80410201D2E
:100EE00006AA1154601CC4B21C2CF6DB002407E0D7
:100EF00019F8041004F1200006AA1154601CC4B2B1
:100F0000082CF5DB384600F0BEFAC0F343108DF82C
:100F10004000002406E0315D04F1290006AA1154C6
:100F2000601CC4B2072CF6DB002406E0201D295CFF
:100F30002C3006AA1154601CC4B2042CF6DBFF202E
:100F40008DF84C008DF84D008DF84E0080208DF806
:100F50004F0000208DF850008DF851008DF85200A0
:100F60008DF853008DF854008DF8550001208DF850
:100F70005600B8208DF8570001A906A800F03AFFE6
:100F8000514601A800F0F1FF16B0BDE8F08700005F
:100F90002DE9FC478046894614469A46DDE90A5603
:100FA000204600F0CBF8074657B95346224649463B
:100FB0004046CDE90056FFF778FF0020BDE8FC87EA
:100FC000012F08D15346224649464046CDE90056F6
:100FD000FFF7D4FEF2E702A001F050FC0120EDE79C
:100FE000436F707920536372617463687061642029
:100FF00074617267657420616464726573732069DB
:101000006E76616C69640D0A000000002DE9F04FF6
:1010100095B005460E4617469846DDE91E9A4021D2
:1010200005A8FFF7E6F8384600F02DFA83460024BD
:1010300004E0285D05A90855601CC4B2042CF8DB47
:10104000002406E018F80410201D05AA1154601CA5
:10105000C4B2202CF6DB99F800008DF8380099F81E
:1010600001008DF83900FF208DF83A008DF83B0023
:10107000CBF3421040F040008DF83C00002406E025
:10108000315D04F1290005AA1154601CC4B2072C7B
:10109000F6DB002406E0201D295C2C3005AA115443
:1010A000601CC4B2042CF6DBFF208DF848008DF8DC
:1010B00049008DF84A0080208DF84B0000208DF803
:1010C0004C008DF84D008DF84E008DF84F008DF8D6
:1010D00050008DF8510001208DF85200B8208DF895
:1010E00053000EA001F0CAFB002406E005A8015D34
:1010F0000FA001F0C3FB601CC4B2402CF6DB0EA0B5
:1011000001F0BCFB694605A800F074FE5146684634
:1011100000F02BFF15B0BDE8F08F000052415020C9
:10112000686F7374204D414320626C6F636B3A00AB
:1011300020253032580000000D0A000001467F29AA
:1011400001DC00207047882903DB9F2901DC012096
:10115000F8E70220F6E700001CB56846FFF743FAFF
:1011600007480088009003208DF8040000208DF8C7
:101170000700694603480068FFF7C8F91CBD000076
:1011800020000020180000201CB56846FFF72BFA4D
:1011900006480088009000208DF804008DF80700B4
:1011A000694603480068FFF7B1F91CBD2000002024
:1011B0001800002010B5FFF7E7FF00F015FE00F063
:1011C00067F9022001F0ABFD00F0F5FD10BD000055
:1011D0002DE9FC4780460F4692461C4600200090B1
:1011E0000190002604E0FF200DF80600701CC6B236
:1011F000082EF8DB384600F046F9814649460F488C
:1012000001F03CFB384600F03EF9814623466A4631
:101210004946404600F085FF05462DB108A001F083
:101220002DFB0120BDE8FC870CB1207800E0FF20F9
:101230000146134801F022FB0020F3E70C340000C4
:10124000524150204641494C5B315D3A2063686110
:101250006C6C656E67652057726974652F526561A5
:101260006420536372617463687061642076657290
:10127000696679206661696C65640D0A000000008A
:10128000543400002DE9F04788B082460D4691465F
:101290001E460027B846B9F1000F03D1012008B05F
:1012A000BDE8F087802D01D00120F8E72846FFF740
:1012B00047FB08B10120F2E707A808234A46294660
:1012C0000090504600F088FF08B10120E7E704A82D
:1012D00005A906AB4A46CDE900102946504600F064
:1012E000C8FE08B10120DAE79DF81000C0099DF89A
:1012F0001010C1F34011CDE900109DF810309DF899
:1013000014209DF8181032A001F0B8FA4FF4FA70CA
:1013100001F048FD5046FFF71FFB08B10120BEE772
:101320005A2000F047FF9DF8180000F043FF9DF899
:10133000140000F03FFF9DF8100000F03BFF00F0AC
:1013400053FD00F0ABF80A2001F02CFD002419E059
:1013500000F02CFC074600F029FC804643463A4644
:10136000214628A001F08AFA41463846FFF7B3FA31
:1013700000B909E0FF2F03D1B8F1FF0F00D103E05E
:10138000601CC4B2142CE3DB00BF41463846FFF7B3
:10139000A2FA30B123A001F071FA00F00CFD012097
:1013A0007DE700F008FD08B1012078E703AA29468F
:1013B000504600F0FEFD20B12A4801F05FFA0120FE
:1013C0006DE716B19DF80C003070002067E7000053
:1013D0004C465320617574683A205441313D2530A4
:1013E0003258205441323D2530325820452F533D4C
:1013F000253032582050463D25642041413D25642A
:101400000D0A00004C465320726573706F6E736551
:101410005B25755D3A202530325820253032580D35
:101420000A0000004C6F6164204669727374205397
:1014300065637265742072656A65637465643A20D9
:10144000726573706F6E7365206973206E6F7420A0
:10145000616C7465726E6174696E6720302F310D36
:101460000A000000E434000070B50546552000F085
:10147000A1FE002404E0285D00F09CFE601CC4B2C4
:10148000082CF8DB70BD01464FF6E070084070474D
:101490000120014908607047AC0243420020014925
:1014A00008607047AC02434210B5002301220B21B3
:1014B0000A48FEF77DFF02210848FEF714FF07489F
:1014C000FEF7D2FF00BF02210448FEF73DFF0028CF
:1014D000F9D00248FEF734FF10BD000000200140A3
:1014E0002DE9FC4780460F4691461E460A9D0FB1E6
:1014F00006B12DB92AA001F0C1F90120BDE8FC8791
:101500002B4632464946404600F0B0F808B101206B
:10151000F4E705F139002B464A464146CDE9006023
:101520003846FFF773FD2CA001F0A8F9002407E06E
:1015300005F13900015D2CA001F0A0F9601CC4B2D6
:10154000142CF5DB2AA001F099F9142205F12501EC
:1015500005F13900FEF758FE00281CD025A001F047
:101560008DF9002412E005F13900015D1438005DA9
:10157000814209D005F13900035D1438025D21462E
:1015800026A001F07BF903E0601CC4B2142CEADB56
:1015900000BF0120B2E72FA001F070F90020ADE7F5
:1015A000524150204641494C5B305D3A206E756C8B
:1015B0006C207365637265742F6368616C6C656E13
:1015C00067652F7061636B657420706172616D6512
:1015D0007465720D0A00000052415020686F7374E8
:1015E000204D41433A202000202530325800000091
:1015F0000D0A0000524150204641494C5B375D3A8C
:1016000020686F7374204D414320213D206465762E
:10161000696365204D41430D0A000000524150208E
:101620006669727374204D414320646966663A208E
:10163000696E6465783D2575206465766963653DEE
:101640002530325820686F73743D253032580D0AAA
:1016500000000000524150204D414320636F6D70E7
:10166000617265204F4B0D0A000000002DE9FF4F0D
:101670008DB00E4617461C464FF0000A002002901F
:10168000804681468346002507B134B98CA001F01D
:10169000F5F8012011B0BDE8F08F7F2E05DD314651
:1016A00093A001F0EBF80120F4E706F01F0028B149
:1016B00031469CA001F0E2F80120EBE754212046DE
:1016C000FEF797FD38682062387984F8240002AB71
:1016D0003A4631460D98FFF77BFD08B10120D9E766
:1016E0000D98FFF739F920B19CA001F0C7F801204F
:1016F000D0E7A52000F05EFDF0B200F05BFD3012F7
:1017000000F058FD002504E000F050FA6055681C18
:10171000C5B2202DF8DB00F049FA824600F046FA07
:1017200024F84E0F00F042FA218841EA002024F804
:101730004E09142001F0F3FA002506E000F036FA15
:1017400004F125014855681CC5B2142DF6DB00F0E4
:101750002DFA24F8500F00F029FA218841EA0020E0
:1017600024F850094FF0000B1AE000F01FFA8046F1
:1017700000F01CFA814684F8528084F85390494660
:101780004046FFF7A8F800B90DE0B8F1FF0F03D10C
:10179000B9F1FF0F00D106E00BF1010000F0FF0BE3
:1017A000BBF1140FE1DB00BF7AA001F067F800F095
:1017B00002FB7EA001F062F8002505E0615D7EA0DD
:1017C00001F05CF8681CC5B2202DF7DB47A001F0E2
:1017D00055F851467AA001F051F8BAF1FF0F05D043
:1017E00051467DA001F04AF8012053E7B4F84E10AD
:1017F00085A001F043F8A5208DF83000F0B28DF8F7
:10180000310030128DF832002022214603A8FEF765
:10181000D7FCFF208DF82C00B4F84E00212303AA3A
:10182000032100900CA800F0F4FB20B17EA001F091
:1018300025F801202EE785A001F020F888A001F00E
:101840001DF8002507E004F12500415D5AA001F0D4
:1018500015F8681CC5B2142DF5DB24A001F00EF8B4
:10186000B4F8501082A001F009F8B4F85000002339
:101870001A461421009004F1250000F0CAFB20B1A3
:1018800082A000F0FBFF012004E789A000F0F6FF32
:101890005320025D94F852108AA000F0EFFF53220B
:1018A000115D94F85200FFF716F820B18CA000F0FB
:1018B000E5FF0120EEE695A000F0E0FF0020E9E65C
:1018C000524150204641494C5B305D3A206E756C68
:1018D0006C206368616C6C656E67652F7061636B0B
:1018E000657420706172616D657465720D0A000027
:1018F000524150204641494C5B305D3A206164645E
:101900007265737320307825303458206973206FE6
:10191000757473696465207573657220706167659D
:10192000730D0A00524150204641494C5B305D3AEC
:1019300020616464726573732030782530345820D8
:101940006973206E6F742033322D62797465206163
:101950006C69676E65640D0A0000000052415020FA
:101960004641494C5B325D3A2052657365742F5293
:101970004F4D2073656C656374696F6E2066616995
:101980006C6564206265666F7265204135680D0A7A
:101990000000000052415020776169742074435365
:1019A00048412032306D730D0A0000005241502032
:1019B000706167653A000000202530325800000051
:1019C00052415020736570617261746F723D30785E
:1019D000253032580D0A0000524150204641494CF2
:1019E0005B335D3A20736570617261746F7220655C
:1019F000787065637465642046462C20676F742098
:101A0000253032580D0A0000524150207061676540
:101A100020435243313628627573293D3078253092
:101A200034580D0A00000000524150204641494CF4
:101A30005B345D3A20706167652043524331362044
:101A40006D69736D617463680D0A00005241502026
:101A500070616765204352433136204F4B0D0A00B9
:101A600052415020646576696365204D41433A00D8
:101A7000524150204D414320435243313628627534
:101A800073293D3078253034580D0A0052415020DA
:101A90004641494C5B355D3A204D4143204352431A
:101AA0003136206D69736D617463680D0A00000042
:101AB000524150204D4143204352433136204F4B39
:101AC0000D0A000052415020747261696C65723ACF
:101AD000202530325820253032580D0A00000000F1
:101AE000524150204641494C5B365D3A2074726148
:101AF000696C65722F737461747573206C6F6F708D
:101B000020696E76616C69640D0A000052415020B4
:101B1000747261696C6572204F4B0D0A0000000001
:101B200070B500F05BF9FFF7B9FCFFF715FB072074
:101B300001F038F9FFF7B8FC04461648048016484F
:101B40000088844201DB012000E0002005461348A4
:101B5000007888B11248007840280DDA1148104901
:101B6000097820F8114010480D49097845540C486F
:101B70000078401C0A490870012001F013F9FFF7B2
:101B800087FC00F031F9FFF7FFFA0F2001F00AF9A6
:101B9000284670BD2A000020280000202D000020CB
:101BA0002C000020FC0000207C01002070B50025E6
:101BB000002408E0FFF7B4FF18B10120A04028433B
:101BC000C5B2601CC4B2082CF4DB284670BD2DE9F8
:101BD000F04180460D4616461F464046FEF7BCFEC5
:101BE00010B10120BDE8F081F02000F0E3FAE8B286
:101BF00000F0E0FA281200F0DDFA002404E0FFF71C
:101C0000D5FF3055601CC4B2BC42F8DB0020E9E7C8
:101C100070B50546002403E000202855601CC4B2BE
:101C2000082CF9DB00F0C7F820B11BA000F026FE5D
:101C3000012070BD1EA000F021FE332000F0BAFA92
:101C4000FEF7C4FD002404E0FFF7B0FF2855601C38
:101C5000C4B2082CF8DBFEF775FD1BA000F00EFEE9
:101C6000002405E0295D1CA000F008FE601CC4B241
:101C7000082CF7DB08212846FEF712FE06463146FF
:101C800017A000F0FBFD08212846FEF709FE08B961
:101C90000020CEE70120CCE75265616420524F4D11
:101CA000207265736574206661696C65640D0A0055
:101CB0005265616420524F4D2073656E6420307808
:101CC00033330D0A000000005265616420524F4D0D
:101CD000207261773A000000202530325800000061
:101CE00020435243383D3078253032580D0A0000E9
:101CF0002DE9FF4F85B00D4616461F46DDF848809A
:101D000025B11EB117B1B8F1000F03D1012009B000
:101D1000BDE8F08F1398082801D00120F7E7059857
:101D2000FEF71AFE08B10120F1E7AA2000F042FAFE
:101D3000FFF73CFF2870FFF739FF3070FFF736FFE1
:101D40003870002405E0FFF731FF08F80400601C3C
:101D5000C4B2082CF7DBFFF729FF0190FFF726FF3D
:101D60008146019840EA092AAA208DF808002878BF
:101D70008DF8090030788DF80A0038788DF80B005E
:101D8000002406E018F80410201D02AA1154601C5B
:101D9000C4B2082CF6DB0C2102A8FEF779FD8346BD
:101DA000149810B11498A0F800A0DA4501D00120D1
:101DB000ADE70020ABE710B5FFF76AFB00F00EF8C7
:101DC0004FF4967000F0EEFF00F00EF8FFF7DCF92C
:101DD000C82000F0E7FF002010BD000000200149EE
:101DE00008607047A802434201200149086070471B
:101DF000A80243422DE9F047D0B005460C4600202A
:101E000021E015F820804FEA08684FF0010909EB3E
:101E1000800915F8099048EA09484FF0020909EBD2
:101E2000800915F8099048EA09284FF0030909EBE1
:101E3000800915F8099048EA09084DF8208000F15A
:101E4000010808F0FF001028DBDB10201FE0A0F1E4
:101E500003085DF82880A0F108095DF8299088EA58
:101E60000908A0F10E095DF8299088EA0908A0F197
:101E700010095DF8299088EA09074FEA470848EAFF
:101E8000D7784DF8208000F1010808F0FF005028B5
:101E9000DDDB2C4E2C49F243CB43DFF8B0C00020F1
:101EA00045E014280ADA01EA020823EA010948EAAF
:101EB0000908DFF89C9008EB090723E0282808DAD6
:101EC00081EA020888EA0308DFF8889008EB09072E
:101ED00018E03C280EDA01EA020801EA030948EAA0
:101EE000090802EA030948EA0908DFF86C9008EBE0
:101EF000090707E081EA020888EA0308DFF85C9036
:101F000008EB09074FEA461848EAD668E0445DF84E
:101F10002090C84447449C4613464FEA817848EADB
:101F2000910231463E4600F1010808F0FF005028BA
:101F3000B7DB26606160A260E360C4F810C050B0F7
:101F4000BDE8F0870123456789ABCDEFF0E1D2C34F
:101F50009979825AA1EBD96EDCBC1B8FD6C162CABB
:101F600010B5CC2000F026F910BDF0B502460B46A6
:101F7000002504240EE052F82400002106E02E463D
:101F80006F1CFDB29855000A4E1CF1B20429F6DB15
:101F9000661EF4B2002CEEDC1068002106E02E462E
:101FA0006F1CFDB29855000A4E1CF1B20429F6DBF5
:101FB000F0BD70B58AB006460C46154604A8082147
:101FC00005AA07ABCDE90021029008AA09A930466D
:101FD000FFF78EFE10B101200AB070BDE0B29DF88F
:101FE0002410884201D00120F6E79DF82000B0EBD4
:101FF000242F01D00120EFE79DF81C00FEF77AFCAA
:1020000008B10120E8E715B19DF81C0028700020F8
:10201000E2E72DE9F04F8BB00746884691469A4695
:10202000DDF850B00025002407E03A5D2846691C21
:10203000CDB201A90A54601CC4B24445F5DB0024AA
:1020400008E019F804202846691CCDB201A90A54F9
:10205000601CC4B25445F4DB294601A8FEF718FC05
:1020600006465E4503D001200BB0BDE8F08F00208E
:10207000FAE72DE9F04387B081460C4616461D4627
:10208000DDE90E7804A8082105AA4346CDE9002120
:1020900002903A4629464846FFF72AFE18B1012029
:1020A00007B0BDE8F0832878E1B2884201D0012072
:1020B000F6E73878B0EB242F01D00120F0E798F84C
:1020C0000000FEF72AFC08B10120E9E708223146AA
:1020D00005A8FEF799F808B10120E1E70020DFE745
:1020E00070B505460DB9042070BDFF20287000268C
:1020F00013E0FFF75BFD04462C70AA2C01D10020F1
:10210000F2E70CB90120EFE7FF2C01D10220EBE749
:10211000322000F047FE701CC6B2142EE9DB03200B
:10212000E2E7F0B587B006460F4615461C4615B9DE
:10213000012007B0F0BD06A808232A4639460090C2
:10214000304600F049F808B10120F2E703A804A9DD
:1021500005AB2A46CDE9001039463046FFF789FF26
:1021600008B10120E5E714B19DF80C0020700020B3
:10217000DFE710B50446FFF78BF94CB1FFF72EFEF1
:10218000FEF7F0FDFFF730FE1D2000F00BFE10E023
:10219000FFF724FEFEF7E6FDFFF726FEFEF7E2FD61
:1021A000FFF71CFEFEF7DEFDFFF71EFE1B2000F012
:1021B000F9FD10BD70B50446FFF716FEFFF768F98C
:1021C000002506E004F00100FFF7D3FF6410681C4F
:1021D000C5B2082DF6DB70BD2DE9FF4F85B00C466A
:1021E00016469946DDF848A01EB9012009B0BDE8A1
:1021F000F08FB9F1080F01D00120F7E72046FEF774
:102200009FFB08B10120F1E70598FEF7A5FB08B197
:102210000120EBE70F20FFF7CDFFE0B2FFF7CAFF89
:102220002012FFF7C7FF0F208DF80800E0B28DF8ED
:10223000090020128DF80A00002508E0705DFFF704
:10224000B9FF715DE81C02AA1154681CC5B2082DC3
:10225000F4DBFFF7ABFC0190FFF7A8FC8346019885
:1022600040EA0B270B2102A8FEF712FB8046BAF1C9
:10227000000F01D0AAF80070474501D00120B5E752
:102280000020B3E77047000029B1064A12680243F4
:10229000044B1A6004E0034A12688243014B1A603F
:1022A000704700003038024029B1064A12680243E4
:1022B000044B1A6004E0034A12688243014B1A601F
:1022C0007047000044380240F0B50021002200248D
:1022D000022500260223324F3F6807F00C0121B18E
:1022E000042905D0082937D105E02E4F076036E0D4
:1022F0002D4F076033E02A4F3F1F3F68C7F38056DA
:10230000274F3F1F3F6807F03F036EB1264FB7FBD3
:10231000F3F7DFF88CC0ACF1040CDCF800C0CCF3B0
:10232000881C07FB0CF40CE01E4FB7FBF3F7DFF83B
:1023300070C0ACF1040CDCF800C0CCF3881C07FBC7
:102340000CF4174F3F1F3F68C7F301477F1C7D0008
:10235000B4FBF5F7076002E0124F076000BF00BF53
:102360000F4F3F6807F0F0010909104F7A5C0768CA
:10237000D74047600A4F3F6807F4E051890A0B4F86
:102380007A5C4768D7408760054F3F6807F4604133
:10239000490B064F7A5C4768D740C760F0BD000024
:1023A000083802400024F40000127A0000000020E7
:1023B000704700000CB50020019000903448006880
:1023C00040F480303249086000BF3148006800F4B2
:1023D000003000900198401C0190009818B90198B5
:1023E000B0F5A04FF1D12A48006800F4003010B1D8
:1023F0000120009001E0002000900098012846D1C3
:1024000023484030006840F0805021494031086046
:102410002048006840F440401E4908601C480830CD
:1024200000681B49083108600846006840F4004015
:1024300008600846006840F4A05008601648091F6C
:102440000860081F006840F08070091F086000BF26
:102450000F48006800F000700028F9D040F20570C5
:102460000E4908600A480830006820F00300084957
:10247000083108600846006840F00200086000BFAC
:1024800003480830006800F00C000828F8D10CBDA3
:10249000003802400070004008544007003C0240F1
:1024A000042808D14FF0E021096941F004014FF000
:1024B000E022116107E04FF0E021096921F00401F9
:1024C0004FF0E022116170477047000010B50446DC
:1024D0006FF00400FFF7E4FFE11704EB5171C1F363
:1024E000C701074A11701046007800EB4001C1EBAC
:1024F000C0104FF6FF7101EAC0000249088010BD0C
:10250000100000201200002010B51548006840F4AB
:102510007000134908601348006840F00100114939
:10252000086000200F49083108600E4800680E4915
:1025300008400C4908600D48091D0860081F006824
:1025400020F48020091F0860002006490C31086033
:10255000FFF730FF4FF0006001498039086010BD7F
:1025600088ED00E000380240FFFFF6FE1030002446
:1025700010B540F225511D4800F0BAF810B31B48C1
:1025800000F070F9C4B21A48008800F40040C8B9DD
:102590001748008800F4804060B10A2C03D0002066
:1025A0001349088020E01248008840F40040104998
:1025B000088019E00D2C06D10D48008840F48040B9
:1025C0000B49088010E00A480088C0F30D00094953
:1025D0000C5407480088401C0549088008460088BC
:1025E000C72801DD0020088010BD00000010014058
:1025F000140000203400002010B588B004460121EA
:102600000846FFF741FE01211020FFF74DFE07228B
:1026100009212448FDF7C2FF07220A212148FDF7BE
:10262000BDFF4FF4C060069002208DF81C008DF8AD
:102630001D0000208DF81E0001208DF81F0006A946
:102640001848FDF763FF02940020ADF80C00ADF8C8
:102650000E00ADF81000ADF814000C20ADF812001B
:1026600002A9114800F094F801210F4800F027F862
:1026700040210D4800F01AF8012240F225510A4885
:1026800000F060F825208DF8040003208DF8050087
:102690008DF8060001208DF8070001A8FDF7DEFF88
:1026A00008B010BD000002400010014001F40072AB
:1026B000B2F5007F00D100BFCA430280704721B14C
:1026C000828942F40052828104E082894DF6FF73D0
:1026D0001A408281704702460020B1F5007F00D188
:1026E00000BF13880B400BB1012000E000207047B1
:1026F00070B50246002400230025002040F66A162B
:10270000B14200D100BFC1F3421501F01F03012601
:1027100006FA03F3012D02D19689334006E0022D1B
:1027200002D1168A334001E0968A33400C1201260A
:1027300006FA04F41688344013B10CB1012000E00D
:10274000002070BDF0B503460024002600250020BF
:1027500040F66A17B94200D100BF1846C1F34214CF
:1027600001F01F06012707FA06F5012C01D10C30F4
:1027700004E0022C01D1103000E014301AB10768D7
:102780002F43076002E00768AF430760F0BD000019
:102790002DE9FF4705460E460024A14600BFA0468E
:1027A000B08900B100BF2C8A24F44054F08804435F
:1027B0002C82AC8941F20C608443B0883189084393
:1027C000718908430443AC81AC8A24F44074B08915
:1027D0000443AC826846FFF777FD2048854202D06B
:1027E0001F48854202D1DDF80C9001E0DDF8089029
:1027F000A88900F4004040B109EBC90000EB0910C2
:1028000031684900B0FBF1F707E009EBC90000EBC4
:10281000091031688900B0FBF1F76420B7FBF0F0D4
:1028200004012009642101FB1078A88900F400400C
:1028300040B1322000EBC800B0FBF1F000F007001F
:10284000044308E0322000EB08106421B0FBF1F0F3
:1028500000F00F0004432C81BDE8FF870010014009
:102860000014014001468888C0F308007047C1F396
:1028700008028280704700BFFEE700000FB4054BDE
:1028800010B503A9044A029800F018F810BC5DF8CE
:1028900014FB0000F12D00003000002002E008C809
:1028A000121F08C1002AFAD170477047002001E0CA
:1028B00001C1121F002AFBD1704700002DE9FF4F14
:1028C0008DB00F460546002606E025280BD0DDE931
:1028D0000F1290476D1C761C28780028F5D111B096
:1028E0003046BDE8F08F0024A246A1460122EC4903
:1028F00000E0044315F8013F203B02FA03F00842D0
:10290000F7D128782A2810D06FF02F022878A0F16C
:102910003001092914D80AEB8A0102EB410144F085
:10292000020400EB010A6D1CF0E701CF5FEA000A28
:1029300003D544F40054CAF1000A44F002046D1CAB
:1029400028782E2817D115F8010F44F004042A28FE
:102950000ED06FF02F022878A0F1300109290AD893
:1029600009EB890102EB410100EB01096D1CF2E763
:1029700057F8049B6D1C28786C280FD006DC4C2877
:1029800017D068280DD06A2814D104E0742810D01C
:102990007A280FD10DE044F400140AE044F48014C6
:1029A00001E044F440146978814202D104F58014B6
:1029B0006D1C6D1C2A786E2A1FD00CDC632A31D066
:1029C00004DC002A8BD0582A11D1A3E0642A68D0F5
:1029D000692A0CD165E0732A2ED004DC6F2A73D0EB
:1029E000702A04D19BE0752A6FD0782A6ED01046E9
:1029F000DDE90F129047761C50E1C4F30250022823
:102A000006D0032809D0042801CF09D0066045E18B
:102A100001CFF117C0E9006140E101CF06803DE13F
:102A200006703BE117F8040B8DF8000000208DF8CC
:102A30000100EB46012003E057F804BB4FF0FF30E4
:102A400061074FF0000102D40DE008F10101884652
:102A500049450FDA8045F8DB1BF808100029F4D14E
:102A600008E008F1010188468142FADB1BF80810F2
:102A70000029F6D1DDE90F23AAEB080081462146A3
:102A800000F036F9304400EB080604E0DDE90F12EF
:102A90001BF8010B9047B8F10108F7D221464846D0
:102AA000F7E00A21C4F302534FF0000B0891022B08
:102AB00004D001CFC117032B09D00AE0FF1D27F076
:102AC0000707F7E8020108E032E01FE020E000B26B
:102AD000C117042B01D140B2C117031E71F10003CD
:102AE00007DA4FF0000CD0EB0C006CEB01012D234A
:102AF00002E0230504D52B238DF82430012303E0C5
:102B0000E30701D02023F7E7984658E00A2110E0B8
:102B100010210EE010204FF0000B08900CE0102167
:102B20004FF0000B44F004044FF00809089103E053
:102B300008214FF0000B0891C4F30253022B04D07C
:102B400001CF0021032B06D006E0FF1D27F0070769
:102B5000F7E8020103E080B2042B00D1C0B24FF0CD
:102B6000000823072BD5702A07D0DDF820C08CF091
:102B7000100C5CEA0B0C05D00EE040238DF82430DD
:102B8000012308E050EA010306D030238DF82430F9
:102B90008DF8252002239846DDF820C08CF0080C23
:102BA0005CEA0B0C0BD150EA010301D1630706D597
:102BB00030238DF824304FF00108A9F10109582A7B
:102BC00004D038A20B9208AA0A920BE03AA2F9E7C5
:102BD0005B46089AFDF725FB0B9B9B5C0A9A521EED
:102BE0000A92137050EA0102F2D10A98ADEB00008C
:102BF00000F1200B600702D524F4803401E04FF08F
:102C00000109D94502DDA9EB0B0000E0002000EB33
:102C10000B0141440890AAEB010AE00306D4DDE968
:102C20000F232146504600F063F806444FF0000998
:102C300008E009A911F80900DDE90F12904709F130
:102C40000109761CC145F4DBE0030CD5DDE90F2357
:102C50002146504600F04CF8064404E0DDE90F122E
:102C600030209047761C0899481E08900029F5DC12
:102C700008E00A980A990078491C0A91DDE90F12C8
:102C80009047761CBBF10001ABF1010BF1DC214652
:102C90005046DDE90F2300F019F806446D1C1BE6D1
:102CA0000928010030313233343536373839616222
:102CB00063646566000000003031323334353637E6
:102CC0003839414243444546000000002DE9F041B7
:102CD000044600251E461746880404D405E03946FC
:102CE0002020B0476D1C641EF9D52846BDE8F08150
:102CF0002DE9F041044600251E469046C80301D543
:102D0000302700E02027880404D505E041463846F6
:102D1000B0476D1C641EF9D52846BDE8F08170B53A
:102D200004464FF4077094FBF0F0C6B24FF40770FE
:102D300094FBF0F100FB114085B205E04FF4077001
:102D400000F00AF8701EC6B2002EF7D115B1284661
:102D500000F002F870BD00000146114A12884A4393
:102D60004FF0E0235A6100229A611A46126942F03C
:102D700001021A6100BF4FF0E022106900F0010269
:102D80001AB100F48032002AF5D04FF0E022126927
:102D900022F001024FF0E0231A6100229A6170478D
:102DA000120000200146114A12784A434FF0E023F6
:102DB0005A6100229A611A46126942F001021A61B0
:102DC00000BF4FF0E022106900F001021AB100F4D8
:102DD0008032002AF5D04FF0E022126922F0010281
:102DE0004FF0E0231A6100229A6170471000002022
:102DF00070B504460D46E1B20548FFF738FD00BF47
:102E000080210348FFF767FC0028F9D0204670BDF9
:102E100000100140E0B0CBA103C95B915A90CBA157
:102E200003C959915890CBA103C9579156901421C9
:102E300051A8FDF7DEF9202149A8FDF7DAF9FF20B6
:102E40004790A820FFF742FB4FF4A060FDF742FC3B
:102E50004FF4E130FFF7D0FBFDF7D0FBFDF7D2FCDC
:102E6000FEF7A8F95EAF5EA8FEF7D2FE88B9BBA058
:102E7000FFF704FD002406E05EA8015DBBA0FFF79C
:102E8000FDFC601CC4B2082CF6DBBAA0FFF7F6FC10
:102E90000FE0B9A0FFF7F2FC0AE0C248006808B9E9
:102EA000012000E00020BF4908607820FFF737FFCD
:102EB000F3E7BDA0FFF7E2FC002406E05AA8015D9D
:102EC000AAA0FFF7DBFC601CC4B2082CF6DBA9A0AB
:102ED000FFF7D4FC18232CAA88213846FEF777FE8A
:102EE00088B9B3A0FFF7CAFC002406E02CA8015D56
:102EF0009EA0FFF7C3FC601CC4B2182CF6DB9DA09B
:102F0000FFF7BCFC02E0B0A0FFF7B8FCA02304AAC6
:102F100000213846FEF75BFEE0B9B1A0FFF7AEFC3A
:102F2000002514E005F0070018B92946B4A0FFF702
:102F3000A5FC04A8415D8DA0FFF7A0FC05F00700EB
:102F4000072802D18BA0FFF799FC681C85B2A02D41
:102F5000E8DB02E0ACA0FFF791FCB4A0FFF78EFC29
:102F6000002405E0395D81A0FFF788FC601CC4B235
:102F7000082CF7DB7FA0FFF781FC48AB5AAA802121
:102F80003846FEF77FF928B99DF82011ACA0FFF76D
:102F900075FC02E0B3A0FFF771FC32A856AB6022CB
:102FA0005AA900903846FEF79BFA00283FD1B4A0FA
:102FB000FFF764FCBAA0FFF761FC002406E03AA822
:102FC000015D6AA0FFF75AFC601CC4B2052CF6DB59
:102FD00068A0FFF753FCB5A0FFF750FC002407E002
:102FE0000DF1ED00015D61A0FFF748FC601CC4B26B
:102FF000142CF5DB5FA0FFF741FCAFA0FFF73EFC10
:10300000002407E00DF20110015D58A0FFF736FC27
:10301000601CC4B2142CF5DB56A0FFF72FFCBDF8E2
:103020001821BDF81611A7A0FFF728FC02E0AFA0F9
:10303000FFF724FCB6A0FFF721FC002406E058A807
:10304000015D4AA0FFF71AFC601CC4B2082CF6DB35
:1030500048A0FFF713FC47A851A949AA5AABCDE9EC
:103060000021029058AA00213846FDF74FFD064680
:10307000AAA0FFF703FC002406E049A8015D3BA0DD
:10308000FFF7FCFB601CC4B2202CF6DB39A0FFF775
:10309000F5FBA5A0FFF7F2FB002406E051A8015DB7
:1030A00032A0FFF7EBFB601CC4B2142CF6DB31A09E
:1030B000FFF7E4FB9DF81C119FA0FFF7DFFB3EB973
:1030C000872048909DF82011A5A0FFF7D7FB02E0CC
:1030D000AFA0FFF7D3FB08235CAA00213846FEF718
:1030E00076FDC8B9B4A0FFF7C9FB002406E05CA8D0
:1030F000015D1EA0FFF7C2FB601CC4B2082CF6DB0A
:103100001CA0FFF7BBFB0EB9B2A000E0B2A00146C5
:10311000B3A0FFF7B3FB02E0B6A0FFF7AFFBFEF7EB
:103120005DFEFEF7B5F90BE01E48006808B9012006
:1031300000E000201B4908604FF49670FFF7EFFD98
:10314000F2E7000012345678ABCDEF0018293F4E5D
:103150005D6C7B8AFFFFFFFFFF000000505242348E
:10316000383020524F4D2049443A0000202530325B
:10317000580000000D0A00005052423438302052EE
:1031800065616420524F4D206661696C6564206FF3
:1031900072204352433820696E76616C69640D0A6F
:1031A00000000000A48242425365637265743A00D5
:1031B000436F6E666967203078303038382D30784C
:1031C000303039463A0000005265616420636F6E0A
:1031D000666967206661696C65640D0A000000001D
:1031E00052656164204D656D6F72792030783030A2
:1031F00030302D3078303039463A0D0A000000006A
:103200003078253034583A0052656164204D656D40
:103210006F7279203078303030302D30783030395E
:1032200046206661696C65640D0A000050524234A4
:10323000383020757365526F6D2049443A000000A4
:103240004C6F6164204669727374205365637265C4
:1032500074204F4B2C20452F533D30782530325869
:103260000D0A00004C6F616420466972737420532C
:103270006563726574206661696C65640D0A00009F
:10328000526561642041757468656E746963617428
:1032900065642050616765204F4B0D0A00000000F7
:1032A0004368616C6C656E67653A000044657669D9
:1032B0006365204D41433A00486F73742020204DD0
:1032C00041433A00506167652043524331363D30F7
:1032D00078253034582C204D414320435243313619
:1032E0003D3078253034580D0A0000005265616485
:1032F0002041757468656E746963617465642050FB
:10330000616765206661696C65640D0A00000000F4
:103310005772697465446174613A00005061676571
:10332000446174613A000000486F737420436F7009
:1033300079204D41433A0000436F70792053637206
:10334000617463687061642072657475726E207355
:1033500074617475733D3078253032580D0A000061
:1033600041757468656E7469636174656420436F48
:1033700070792053637261746368706164204F4B8D
:103380002C20452F533D3078253032580D0A00004F
:1033900041757468656E7469636174656420436F18
:1033A0007079205363726174636870616420666130
:1033B000696C65640D0A000052656164204D656D9D
:1033C0006F72792030783030303020646174613A27
:1033D000000000004F4B00004641494C45440000AE
:1033E0005772697465207665726966792025730D58
:1033F0000A00000052656164204D656D6F7279208E
:103400006661696C65640D0A00000000524150203D
:103410006368616C6C656E6765206C6F61643A20EF
:10342000706167653D307825303458207363726170
:103430007463687061643D464620464620464620D7
:1034400046462046462046462046462046460D0A29
:1034500000000000524150206368616C6C656E672B
:1034600065207665726966696564206F6E63652C98
:10347000206B65657020736372617463687061644A
:1034800020666F722041353A20452F533D30782514
:103490003032580D0A000000436F70792053637278
:1034A000617463687061642072656A6563746564E1
:1034B0003A2054412F452F5320696E76616C696420
:1034C0002C206261642061646472657373206F7282
:1034D0002077726974652070726F746563746564B7
:1034E0000D0A00004C6F61642046697273742053AA
:1034F000656372657420706F73742D636865636BA8
:10350000206661696C65643A204141206973206ED0
:103510006F7420736574206F722054412F452F53B0
:1035200020696E76616C69640D0A00004C350000FC
:1035300000000020340000009C28000080350000BE
:10354000340000208C050000AC28000000000000C2
:103550000102030401020304060708090000000039
:103560000000000000080240040000000200000407
:1035700000080400E80300000000FF000000000055
:04000005000001896D
:00000001FF
