:020000040800F2
:10000000E0040020D5000008F50600085D040008A3
:1000100000000000000000000000000000000000E0
:10002000000000000000000000000000732F000826
:100030000000000000000000712F0008752F00086C
:10004000E7000008E7000008E7000008E7000008F4
:10005000E7000008E70000080000000000000000C2
:10006000E7000008E7000008E7000008E7000008D4
:10007000E700000800000000000000000000000091
:10008000E7000008E7000008000000000000000092
:100090000000000000000000000000000000000060
:1000A0000000000000000000000000000000000050
:1000B0000000000000000000000000000000000040
:1000C0000348854600F08CF800480047F5340008E6
:1000D000E00400200448804704480047FEE7FEE7AC
:1000E000FEE7FEE7FEE7FEE7792F0008C100000803
:1000F00030B50B46014600202022012409E00D46C0
:10010000D5409D4205D31D469540491B2546954047
:1001100040191546521E002DF1DC30BD03460B433D
:100120009B0703D009E008C9121F08C0042AFAD2AD
:1001300003E00B780370401C491C521EF9D2704733
:10014000D2B201E00270401C491EFBD2704700226F
:10015000F6E710B513460A4604461946FFF7F0FFC6
:10016000204610BD30B504460020034600E05B1C6D
:10017000934203D2E05CCD5C401BF8D030BDF0B5BB
:100180001FB40646002082B005464024019100902D
:100190001BE0019922460F46304600F043F8049ACE
:1001A000059B801A994110D310461946224600F04B
:1001B00029F8361A8F410197224601200021009F1D
:1001C00000F020F838184D4100902046641E0028A9
:1001D000DFDC019B00982946324607B0F0BD0000E5
:1001E000064C0125064E05E0E36807CC2B430C3C8A
:1001F00098471034B442F7D3FFF766FF643E000817
:10020000843E000810B5202A04DB0146203A9140C4
:10021000002010BD914020239C1A0346E34019435F
:10022000904010BD10B5202A04DB0846203AD0408B
:10023000002110BD0B46D340D0402024A21A91408B
:100240000843194610BD000010B500BF1E480068E5
:10025000FF21013108431C49086000BF00BF00BFF7
:1002600019480068012189020840800A0028F6D058
:100270000020154989680F22120291430143124A56
:10028000916000BF00BF11468968C908C9000143D9
:10029000916000BF00BF00BF0B4880683821084054
:1002A0000028F8D100BF084989680722120391434A
:1002B0000143054A916000BF044800F055F9034826
:1002C00000F066F910BD00000010024000127A0034
:1002D00008B5012080043E49C96B01433C4AD16303
:1002E0001146C96B0140009100BF00BF0020394991
:1002F0004969042291430143364A516100BF00BF5E
:1003000011464969382291430143324A516100BF85
:1003100000BF114649695215914301432D4A51616D
:1003200000BF0320411C002906D11146C9690122E2
:100330001143284AD1610BE02649C969490849009F
:10034000244AD161114649698908890001435161F4
:1003500000BFE1225202204801681E4800F01EF949
:10036000012000F0E5F8012000F0E2F80122082168
:100370000520000700F074F802220821052000077C
:1003800000F080F8032208210520000700F0B6F8ED
:10039000012208210520000700F096F80122102113
:1003A0000520000700F05CF802221021052000075C
:1003B00000F068F8032210210520000700F09EF8E5
:1003C000012210210520000700F07EF808BD000082
:1003D000001002400048004000000020F8B506462A
:1003E0000F46002400250020009000BF0EE00025ED
:1003F00008E0305D28410146009800F00DF80090BB
:10040000681CC5B2082DF4DB601CC4B2BC42EEDB34
:100410000098C04380B2F8BD10B50A460021C3075A
:10042000DB0FD407E40F63401946022303404C005E
:1004300063400224E44304401B1998B201239B0348
:1004400003408C036340044C04401B1998B24010D5
:10045000CB03C31898B210BDFFBF000000BFFEE77A
:1004600030B5046A0B464B434B434B431D01ED1A19
:100470002346AB430C464C434C434C435443234329
:10048000036230BD30B503680C464C436500641907
:10049000A3430C464C4354432343036030BD30B563
:1004A00003680C464C4365006419A3430C464C4357
:1004B00054432343036030BD10B543688B430C465F
:1004C00054432343436010BD30B5C3680C464C43CE
:1004D00065006419A3430C464C4354432343C36053
:1004E00030BD30B5C3680C464C4365006419A34366
:1004F0000C464C4354432343C36030BD30B583683E
:100500000C464C4365006419A3430C464C435443CA
:100510002343836030BD30B583680C464C4365008F
:100520006419A3430C464C4354432343836030BDBA
:1005300008B50549496B0143034A51631146496BAC
:100540000140009100BF08BD0010024008B50549F8
:10055000496B0143034A51631146496B01400091C5
:1005600000BF08BD0010024070B504467D25ED00B7
:1005700029462046FFF7BCFD401E04494861002083
:1005800088610520086100BF70BD000000E000E048
:10059000014908607047000000000020F7B582B0F4
:1005A0000C461546A900192262431046FFF7A0FD2C
:1005B00006466421FFF79CFD0701A900192262434A
:1005C0001046FFF795FD0646A90019226243104622
:1005D000FFF78EFD64210090FFF78AFD64214843F8
:1005E000301A000132300190FFF782FDF0210840FF
:1005F0003F18A900192262431046FFF779FD06460D
:10060000A900192262431046FFF772FD6421009091
:10061000FFF76EFD64214843301A0001323001902B
:10062000FFF766FD0007000F38180003010C029861
:100630004160A900192262431046FFF759FD0646A2
:100640006421FFF755FD0701A900192262431046F6
:10065000FFF74EFD0646A900192262431046FFF738
:1006600047FD64210090FFF743FD64214843301AA1
:10067000000132300190FFF73BFDF02108403F18A8
:10068000A900192262431046FFF732FD0646A90071
:10069000192262431046FFF72BFD64210090FFF7FB
:1006A00027FD64214843301A000132300190FFF7E2
:1006B0001FFD38180107090F0298816205B0F0BDCF
:1006C00008B501460A4A1269009200BF0846421C5A
:1006D000002A00D0401C07E0054A126901231B04D0
:1006E0001A40002A00D0401E0028F5D108BD0000A5
:1006F00000E000E070470000F8B5012000056949FE
:1007000009680143674A1160114609680140009178
:1007100000BF00BF01F042F80020634909690901E8
:1007200009090143604A116100BF00BF1146C96851
:1007300001229203914301435B4AD16000BF00BF95
:1007400011464969C908C9000143516100BF00BF92
:100750001146C969090909010143D16100BF114668
:1007600006200122C50105402D0AAE000D461C35AC
:1007700073191D680F268640B5430F26B60616402E
:10078000B60E864035431D6000BF00204649483103
:1007900009680322920591430143434A483211609C
:1007A00000BF10204049C9681822914301433E4AC6
:1007B000D16000BF00201146C96820229143014347
:1007C000394AD16000BF00BF1146C9683722920183
:1007D00091430143344AD16000BF00BF1146C9684C
:1007E000521491430143304AD16000BF00BF11460B
:1007F000C96801221204914301432B4AD16000BF12
:1008000000BF10468068C007C00F01214840484023
:10081000002828D100BF10468068244908400321E1
:10082000890740181146886000BF214C00E0641E13
:1008300000BF1D488068012189070840800F0028FB
:1008400001D0002CF3D1002C03D11AA002F0E6FB5A
:10085000F8BD00BF1448806814490840401C124984
:10086000886000BF00BF1C200F49086008468068F0
:10087000042108430C4988600D4C00E0641E0A48BE
:10088000006804210840002801D1002CF6D1002C7A
:1008900003D111A002F0C2FBDAE70348806A00BF6F
:1008A000D6E700004010024000240140E8FFFF3F6F
:1008B0001027000050524234383020414443206316
:1008C000616C6962726174696F6E2074696D656FC5
:1008D00075740D0A00000000505242343830204137
:1008E00044432064756D6D7920636F6E7665727315
:1008F000696F6E2074696D656F75740D0A00000074
:1009000010B5002012490870124802781248018878
:1009100012A002F083FB002415E01848035D60007C
:1009200017490A5A214617A002F078FB601CC1172C
:10093000490F0918C910C900411A02D117A002F0C5
:100940006DFB601CC4B2034800788442E5DB10BD37
:100950001500002014000020100000204144432016
:100960006C6F67207468726573686F6C643D257581
:1009700020636F756E743D25750D0A009C00002084
:100980001C000020253032753A206164633D2575D6
:10099000206269743D25750D0A0000000D0A0000F3
:1009A0000021094A11700121084A1170002007E056
:1009B00000214200064B9952064A1154411CC8B20C
:1009C0004028F5DB704700001400002015000020CF
:1009D0001C0000209C00002010B527482749086013
:1009E000022027490880082026490880102026492F
:1009F00008800420254908700120FFF7A7FD022088
:100A0000FFF7A4FD01221F4801881B48FFF747FD9F
:100A100000221C4801881848FFF74EFD00221948A3
:100A200001881548FFF75DFD03221648018812482A
:100A3000FFF771FD0122144801880F48FFF72FFDD1
:100A40000022114801880C48FFF736FD00220E48AD
:100A500001880948FFF745FD03220B480188064835
:100A6000FFF759FD01F014FD01F080F800F0B2FE2F
:100A7000FFF742FE10BD00000004005004000020FB
:100A8000080000200A0000200C0000200E000020BA
:100A900070B504460D4629462046FFF79FFC70BD01
:100AA000F0B502460B460020002112E0555C002400
:100AB0000BE007466F40FE07F60F4010002E01D0F6
:100AC0008C2778406D10671CFCB2082CF1DB4F1CA2
:100AD000F9B29942EADBF0BD0246AA2A03D0552AB0
:100AE00001D001207047AA2903D0552901D0012047
:100AF000F8E70020F6E701464807400F072801D035
:100B00000120704720200840002801D00120F8E78C
:100B100080200840002801D00120F2E70020F0E703
:100B200001469F2901DD012070474807400F00283A
:100B300001D00120F8E70020F6E710B5044601F0E7
:100B400093FC002801D0012010BD002C03D02046CA
:100B500000F0F6FF01E001F059FD0020F4E700008D
:100B6000FFB58DB00E46179F189D002D01D0FF20B8
:100B700028700F98002807D01098002804D01698E5
:100B8000002801D0002F02D1012011B0F0BD0D9836
:100B9000002801D10120F8E7304600F0E7FD0228E7
:100BA00001D10120F1E73046FFF7BAFF002801D05C
:100BB0000120EAE7304600F0D3FF202304900146ED
:100BC000169A0D9801F0BBFB002801D00120DCE74C
:100BD00005A80823009031460F9A0D9802F075F988
:100BE000002801D00120D0E705A8082108AA0AABF7
:100BF0000092019102900BAA0CA90D9801F0F2FD50
:100C0000002801D00120C0E708A8007A8021084010
:100C1000C10908A8007A20221040400901910090E3
:100C200008A8037A027B017C51A002F0F7F95FA0CB
:100C300002F0F4F9002406E008A8015D60A002F0CB
:100C4000EDF9601CC4B2082CF6DB5FA002F0E6F9F7
:100C5000F0B208A9097C884201D0012095E7301242
:100C600008A9097B884201D001208EE708A8007AF4
:100C7000FFF741FF002801D0012086E7082208A8DD
:100C80000F99FFF76FFA002801D001207DE708A82F
:100C9000017A027B007C08AB0093029203910190E1
:100CA0003246169B0D99109800F0A2F8002801D04A
:100CB00001206AE708A8019700903246169B0D991B
:100CC000109800F091FC002801D001205DE73FA0C2
:100CD00002F0A4F9002405E0395D39A002F09EF984
:100CE000601CC4B2142CF7DB37A002F097F908A8F7
:100CF000007B010208A8007C01433B4608A8049140
:100D0000027A0D9801F0AEFC002806D0002D02D02A
:100D1000314800782870012037E7002D02D02E4896
:100D200000782870082306AA31460D9801F007FBC9
:100D3000002801D0012028E728A002F06FF9002444
:100D400006E006A8015D1EA002F068F9601CC4B2AE
:100D5000082CF6DB1CA002F061F9082206A80F9906
:100D6000FFF700FA002801D001200EE700200CE771
:100D700053637261746368706164205441313D3023
:100D80007825303258205441323D30782530325861
:100D900020452F533D3078253032582050463D2590
:100DA000642041413D25640D0A00000053637261D7
:100DB00074636870616420646174613A00000000CB
:100DC00020253032580000000D0A0000436F707972
:100DD000204D41433A000000160000205265616436
:100DE000204D656D6F7279207665726966793A007B
:100DF000FFB597B005460F461E46402107A8FFF7EE
:100E0000A6F9002D06D0002F04D0002E02D0209885
:100E1000002802D101201BB0F0BD199800F0A6FCFB
:100E200006900698022801D10120F4E7199800F0F5
:100E300097FE04900698002801D1A3A200E0A4A286
:100E4000239922986B4607C3A348219B049A1999BA
:100E500002F0E4F8A1A002F0E1F8002405E0295D29
:100E6000A4A002F0DBF8601CC4B2082CF7DBA3A03E
:100E700002F0D4F8A2A002F0D1F8002405E0395D18
:100E80009CA002F0CBF8601CC4B2082CF7DB9BA03E
:100E900002F0C4F8A1A002F0C1F8002405E0395D19
:100EA00094A002F0BBF8601CC4B2072CF7DB93A03F
:100EB00002F0B4F8A0A002F0B1F8002405E0315D22
:100EC0008CA002F0ABF8601CC4B2202CF7DB8BA026
:100ED00002F0A4F80698002810D19FA002F09EF816
:100EE000002405E0315D83A002F098F8601CC4B2D4
:100EF0001C2CF7DB81A002F091F811E0A0A002F019
:100F00008DF8002407E020460830315C79A002F01B
:100F100085F8601CC4B2142CF5DB78A002F07EF8D2
:100F2000A6A002F07BF8002406E02098015D71A0E5
:100F300002F074F8601CC4B2082CF6DB6FA002F05B
:100F40006DF8069800283ED1002404E0285D07A92A
:100F50000855601CC4B2042CF8DB002405E0315DA8
:100F6000201D07AA1154601CC4B21C2CF7DB0024FE
:100F700007E02098015D2046203007AA1154601C2C
:100F8000C4B2082CF5DB199800F0EAFDC005000F8B
:100F9000059010A905980871002406E0395D2046E7
:100FA000293007AA1154601CC4B2072CF6DB0024B8
:100FB00006E0201D295C2C3007AA1154601CC4B225
:100FC000042CF6DB50E0002404E0285D07A9085556
:100FD000601CC4B2042CF8DB002405E0295D201D50
:100FE00007AA1154601CC4B2042CF7DB002406E0ED
:100FF000201D295C001D07AA1154601CC4B2042CDA
:10100000F6DB002407E020460830315C001D07AA0B
:101010001154601CC4B2142CF5DB002407E02098A6
:10102000015D2046203007AA1154601CC4B2082C70
:10103000F5DB0420059010A905980871002406E04E
:10104000395D2046293007AA1154601CC4B2072C10
:10105000F6DB002406E0201D295C2C3007AA115481
:10106000601CC4B2042CF6DBFF2110A8017441748B
:1010700081748021C1740021017541758175C1752C
:101080000176417601218176B821C17652A0059979
:1010900001F0C4FF57A001F0C1FF00240DE060077C
:1010A000400F002802D115A001F0B8FF07A8015D8C
:1010B00010A001F0B3FF601CC4B2402CEFDB0FA006
:1010C00001F0ACFF0020A6E64441544100000000BE
:1010D000434F4E46494700000C3E0008436F70796D
:1010E000204D414320696E7075742073656372658D
:1010F000743A000020253032580000000D0A00002C
:10110000436F7079204D414320696E707574205291
:101110004F4D2066756C6C3A00000000436F70798B
:10112000204D414320696E70757420524F4D2075DB
:101130007365643A00000000436F7079204D4143AD
:1011400020696E7075742070616765446174615BBD
:10115000302E2E33315D3A00436F7079204D41437C
:1011600020696E70757420706167654461746120D8
:10117000757365645B302E2E32375D3A00000000D7
:10118000436F7079204D414320696E707574205211
:101190005020757365642070616765446174615B9C
:1011A000382E2E32375D203D203078303038382EC2
:1011B0002E3078303039423A00000000436F7079A9
:1011C000204D414320696E707574207363726174A1
:1011D00063687061643A0000436F7079204D414349
:1011E00020696E707574204D503D3078253032582E
:1011F0000D0A0000436F7079204D414320626C6FEF
:10120000636B3A0008B50021009103E000BF00992C
:10121000491C009100998142F8D308BDF8B50646F3
:101220000D460027002E01D0002D01D10120F8BD70
:10123000002403E000202855601CC4B2082CF9DB10
:1012400001F012F9732001F02BFE8C2001F028FE32
:10125000FF2001F025FEFF2001F022FE012001F019
:10126000EDFD012001F0EAFD012001F0E7FDFA208B
:1012700001F0A2FEC02001F013FEDE2001F010FEFE
:10128000012001F0DBFD012001F0D8FD012001F07B
:10129000D5FDFA2001F090FE012001F0CFFDDD2008
:1012A00001F0FEFDC02001F0FBFD002404E0305DF4
:1012B00001F0F6FD601CC4B2082CF8DB012001F03F
:1012C000BDFD012001F0BAFD012001F0B7FD0120B4
:1012D00001F0B4FD012001F0B1FD01F0C5F873206B
:1012E00001F0DEFD8C2001F0DBFDFF2001F0D8FDD8
:1012F000FF2001F0D5FD012001F0A0FD012001F04B
:101300009DFD012001F09AFDC02001F0C9FDDE2005
:1013100001F0C6FD012001F091FD012001F08EFDDC
:10132000012001F08BFDFA2001F046FE012001F0C2
:1013300085FDDE2001F0B4FD012001F07FFD0120DC
:1013400001F07CFD012001F079FDC02001F0A8FD35
:10135000DE2001F0A5FD012001F070FD012001F06B
:101360006DFD012001F06AFDFA2001F025FECC2080
:1013700001F096FDF02001F093FD002001F090FDBA
:10138000002001F08DFD002404E000F0BFFF28558F
:10139000601CC4B2082CF8DB00240DE0285D315D30
:1013A000884207D02B5D325D214609A001F036FE50
:1013B000012703E0601CC4B2082CEFDB00BF002F44
:1013C00002D10EA001F02AFE01F04EF838462EE7B9
:1013D0004652414D206D69736D617463685B25757C
:1013E0005D3A2077726974653D2530325820726508
:1013F00061643D253032580D0A0000004652414DCF
:1014000020766572696679204F4B0D0A0000000056
:10141000FFB595B005460E461F46402105A8FEF7CC
:1014200096FE002D09D0002E07D0002F05D01E9863
:10143000002802D01F98002802D1012019B0F0BD69
:10144000179800F093F9012801D00120F6E7002455
:1014500004E0285D05A90855601CC4B2042CF8DB23
:10146000002405E0295D201D05AA1154601CC4B2AA
:10147000042CF7DB002406E0201D295C001D05AAD2
:101480001154601CC4B2042CF6DB002407E0204693
:101490000830395C001D05AA1154601CC4B2142C1C
:1014A000F5DB002407E01E98015D2046203005AAE8
:1014B0001154601CC4B2082CF5DB042008A908777D
:1014C000002406E0315D2046293005AA1154601C35
:1014D000C4B2072CF6DB002406E0201D295C2C306A
:1014E00005AA1154601CC4B2042CF6DBFF2110A81D
:1014F0000172417281728021C172002101734173B6
:101500008173C1730174417401218174B821C17464
:10151000694605A800F0D0FF68461F9901F07BF8E6
:1015200000208BE7FFB595B005460E461F464021CB
:1015300005A8FEF70CFE002404E0285D05A9085567
:10154000601CC4B2042CF8DB002405E0395D201DCA
:1015500005AA1154601CC4B21C2CF7DB002407E060
:101560001E98015D2046203005AA1154601CC4B2AB
:10157000082CF5DB179800F0F3FAC005000F08A956
:101580000877002406E0315D2046293005AA115471
:10159000601CC4B2072CF6DB002406E0201D295C89
:1015A0002C3005AA1154601CC4B2042CF6DBFF21B8
:1015B00010A80172417281728021C17200210173F1
:1015C00041738173C1730174417401218174B82125
:1015D000C174694605A800F06FFF68461F9901F0C5
:1015E0001AF819B0F0BD0000FFB583B014460D9E87
:1015F0000C9D204600F0BAF80746002F0AD101964C
:1016000000952246069B04990398FFF78BFF002064
:1016100007B0F0BD012F08D1019600952246069B28
:1016200004990398FFF7F4FEF2E702A001F0F6FC3C
:101630000120EDE7436F7079205363726174636832
:10164000706164207461726765742061646472659E
:10165000737320696E76616C69640D0A0000000086
:10166000FFB597B006460F46209D402107A8FEF71C
:101670006EFD199800F074FA0190002404E0305DCA
:1016800007A90855601CC4B2042CF8DB002406E04E
:101690001A98015D201D07AA1154601CC4B2202CA9
:1016A000F6DB297810A8017069784170A9788170FB
:1016B000E978C17001980006400F4021084310A945
:1016C0000871002406E0395D2046293007AA11542C
:1016D000601CC4B2072CF6DB002406E0201D315C40
:1016E0002C3007AA1154601CC4B2042CF6DB2979F3
:1016F00010A80174FF21417481748021C1740021FC
:10170000017541758175C17501764176012181763A
:10171000B821C1760DA001F081FC002406E007A8E5
:10172000015D0FA001F07AFC601CC4B2402CF6DB16
:101730000DA001F073FC02A907A800F0BDFE02A8ED
:10174000219900F068FF1BB0F0BD0000524150200D
:10175000686F7374204D414320626C6F636B3A0075
:1017600020253032580000000D0A000001467F2974
:1017700001DC00207047882903DB9F2901DC012060
:10178000F8E70220F6E70146002000E0401C0122B5
:1017900082400A40002AF9D07047000010B50322A9
:1017A0000A4801880A480068FEF779FE00220748C7
:1017B000018807480068FEF794FE0022034801886C
:1017C00003480068FEF7A7FE10BD000008000020D7
:1017D0000400002070B514480088FFF7D4FF0546C8
:1017E0006900032088400446104800680068A04350
:1017F0000E49096808600D480068C068A0430B499D
:101800000968C860094800688068A04307490968FA
:1018100088600648006880686A0003219140084398
:1018200002490968886070BD08000020040000209B
:1018300010B5FFF7CFFF00F035FE00F097F902205A
:1018400001F0B4FB002010BDFFB589B00F461D4666
:10185000002007900890002404E0FF2007A9085505
:10186000601CC4B2082CF8DB002406E00B98015D74
:10187000A01C07AA1154601CC4B2052CF6DB384624
:1018800000F06EF9069008A8C17882784378007855
:1018900003930492059102906846C17F807F019175
:1018A00000906846437F027F1048069901F0B6FB1E
:1018B000384600F055F92B4607AA014606900998CC
:1018C00001F086F90646002E05D009A001F0A6FB1E
:1018D00001200DB0F0BD002D01D0287800E0FF20E0
:1018E0000146134801F09AFB0020F2E72C3D000866
:1018F000524150204641494C5B315D3A206368615A
:101900006C6C656E67652057726974652F526561EE
:1019100064205363726174636870616420766572D9
:10192000696679206661696C65640D0A00000000D3
:10193000843D0008F7B58AB00E46002700200590C8
:101940000C98002802D101200DB0F0BD802E01D0EE
:101950000120F9E73046FFF7E3F8002801D0012025
:10196000F2E709A80823009031460C9A0A9801F082
:10197000ACFA09A8082103AA06AB009201910290D3
:1019800007AA08A90A9800F02DFFC02001F088FAE4
:10199000DE2001F085FA012001F050FA012001F06B
:1019A0004DFA012001F04AFA3748FFF72BFCCC2012
:1019B00001F076FA5A2001F073FA08A8007801F0D5
:1019C0006FFA6846007F01F06BFA6846007E01F00E
:1019D00067FA142001F0EAFA00241FE000F096FCF8
:1019E000074600F093FC05903A46214627A0059B48
:1019F00001F014FB38460599FFF76EF8002800D176
:101A00000EE0FF2F05D10598FF2802D1052C00DD3F
:101A100006E0012001F0CAFA601CC4B2142CDDDB20
:101A200000BF22A001F0FAFA002506E003A8415DFC
:101A300023A001F0F3FA681CC5B2082DF6DB22A042
:101A400001F0ECFA6846007E80210840C109684632
:101A5000007E202210404009019100906846037EDC
:101A6000027F08A8017819A001F0D8FA3846059934
:101A7000FFF732F8002804D021A001F0CFFA0120AE
:101A800062E7002060E70000340800004C46532065
:101A9000726573706F6E73655B25755D3A202530D6
:101AA000325820253032580D0A000000536372610D
:101AB00074636870616420646174613A00000000BE
:101AC00020253032580000000D0A00004C465320FB
:101AD000617574683A205441313D253032582054A4
:101AE00041323D2530325820452F533D2530325864
:101AF0002050463D25642041413D25640D0A0000EB
:101B00004C6F61642046697273742053656372651B
:101B1000742072656A65637465643A2072657370D7
:101B20006F6E7365206973206E6F7420616C7465CD
:101B3000726E6174696E6720302F310D0A000000EB
:101B400070B50546552001F0ABF9002404E0285D8E
:101B500001F0A6F9601CC4B2082CF8DB70BD0000CF
:101B60000146014808407047E0FF00000248008835
:101B700002498862704700000C00002000040050F9
:101B80001C200D4A106010468068042210430A4A47
:101B900090600A4900E0491E07480068042210408E
:101BA000002801D10029F6D1002901D10020704779
:101BB0000148806A80B2FAE7002401401027000043
:101BC000FFB583B00F461E460C9D002F03D0002E9C
:101BD00001D0002D05D12BA001F020FA012007B083
:101BE000F0BD2B4632460599039800F0B1F8002865
:101BF00001D00120F3E7284639302B4600960190AA
:101C00003846059A0399FFF72BFD2CA001F006FA40
:101C1000002407E028463930015D2CA001F0FEF9D0
:101C2000601CC4B2142CF5DB2AA001F0F7F91422D1
:101C30002946253128463930FEF794FA00281CD071
:101C400025A001F0EBF9002412E028463930015DAF
:101C50001438005D814209D028463930035D1438BC
:101C6000025D214626A001F0D9F903E0601CC4B250
:101C7000142CEADB00BF0120B1E72FA001F0CEF960
:101C80000020ACE7524150204641494C5B305D3A60
:101C9000206E756C6C207365637265742F63686168
:101CA0006C6C656E67652F7061636B657420706125
:101CB00072616D657465720D0A000000524150201A
:101CC000686F7374204D41433A2020002025303244
:101CD000580000000D0A0000524150204641494C76
:101CE0005B375D3A20686F7374204D414320213D7E
:101CF00020646576696365204D41430D0A0000004C
:101D0000524150206669727374204D4143206469CA
:101D100066663A20696E6465783D2575206465764F
:101D20006963653D2530325820686F73743D2530F6
:101D300032580D0A00000000524150204D4143200E
:101D4000636F6D70617265204F4B0D0A00000000DB
:101D5000FFB591B00E4617461C4600200690059030
:101D60000490039002900025002F01D0002C05D193
:101D7000A0A001F053F9012015B0F0BD7F2E05DDC4
:101D80003146A8A001F04AF90120F5E7F006C00E9F
:101D9000002805D03146B0A001F040F90120EBE762
:101DA00054212046FEF7D3F905223946204620303B
:101DB000FEF7B4F905AB3A4631461198FFF744FDFA
:101DC000002801D00120D7E71198FEF7B6FE0028C1
:101DD00004D0AFA001F022F90120CDE7A52001F049
:101DE0005FF8F0B201F05CF8301201F059F800250C
:101DF00004E000F08BFA6055681CC5B2202DF8DBBA
:101E000000F084FA069000F081FA4E21085300F0A9
:101E10007DFA00024E21095B08434E21085314202D
:101E200001F0C4F8002506E000F070FA21462531E3
:101E30004855681CC5B2142DF6DB00F067FA502136
:101E4000085300F063FA00025021095B0843502157
:101E50000853002002901DE000F058FA049000F0B2
:101E600055FA0390522104980855532103980855B8
:101E700003990498FEF730FE002800D10DE0049885
:101E8000FF2803D10398FF2800D106E00298401CE8
:101E9000C0B2029002981428DEDB00BF00F0E4FA22
:101EA00089A001F0BBF8002505E0615D89A001F083
:101EB000B5F8681CC5B2202DF7DB59A001F0AEF8CB
:101EC00086A0069901F0AAF80698FF2805D089A0F7
:101ED000069901F0A3F801204EE74E20015B91A086
:101EE00001F09CF8A52110A8017046703112817094
:101EF0002022214607A8FEF711F9FF2108A8017743
:101F000090A001F08BF8002506E010A8415D71A0BB
:101F100001F084F8681CC5B2032DF6DB40A001F087
:101F20007DF88EA001F07AF8002506E007A8415D53
:101F300068A001F073F8681CC5B2212DF6DB38A04B
:101F400001F06CF84E20005B212307AA03210090CA
:101F500010A800F0FFFC002804D087A001F05EF874
:101F6000012009E78DA001F059F891A001F056F881
:101F7000002507E020462530415D56A001F04EF8CF
:101F8000681CC5B2142DF5DB25A001F047F85020E0
:101F9000015B8BA001F042F85020005B00231A4641
:101FA000142100902046253000F094FC002804D035
:101FB0008AA001F033F80120DEE691A001F02EF8AE
:101FC0005320025D5220015D92A001F027F85322B8
:101FD000115D5222105DFEF77FFD002804D094A011
:101FE00001F01CF80120C7E69CA001F017F80020C2
:101FF000C2E60000524150204641494C5B305D3AF8
:10200000206E756C6C206368616C6C656E67652F03
:102010007061636B657420706172616D6574657267
:102020000D0A0000524150204641494C5B305D3A58
:1020300020616464726573732030782530345820D1
:102040006973206F75747369646520757365722098
:1020500070616765730D0A00524150204641494C3A
:102060005B305D3A2061646472657373203078255B
:10207000303458206973206E6F742033322D6279AA
:10208000746520616C69676E65640D0A000000006C
:10209000524150204641494C5B325D3A20526573B3
:1020A00065742F524F4D2073656C656374696F6E54
:1020B000206661696C6564206265666F72652041A7
:1020C00035680D0A000000005241502070616765BC
:1020D0003A000000202530325800000052415020C4
:1020E000736570617261746F723D3078253032585B
:1020F0000D0A0000524150204641494C5B335D3A85
:1021000020736570617261746F72206578706563A9
:102110007465642046462C20676F74202530325841
:102120000D0A000052415020706167652043524300
:10213000313628627573293D3078253034580D0AC0
:1021400000000000524150207061676520435243F7
:1021500020696E707574207265713A00524150208A
:10216000706167652043524320696E7075742070FA
:1021700061796C6F61643A00524150204641494C8C
:102180005B345D3A207061676520435243313620ED
:102190006D69736D617463680D0A000052415020CF
:1021A00070616765204352433136204F4B0D0A0062
:1021B00052415020646576696365204D41433A0081
:1021C000524150204D4143204352433136286275DD
:1021D00073293D3078253034580D0A005241502083
:1021E0004641494C5B355D3A204D414320435243C3
:1021F0003136206D69736D617463680D0A000000EB
:10220000524150204D4143204352433136204F4BE1
:102210000D0A000052415020747261696C65723A77
:10222000202530325820253032580D0A0000000099
:10223000524150204641494C5B365D3A20747261F0
:10224000696C65722F737461747573206C6F6F7035
:1022500020696E76616C69640D0A0000524150205D
:10226000747261696C6572204F4B0D0A00000000AA
:1022700070B51C4886691C4800881C4988621C4847
:1022800000888861FFF77CFC0446194800881749DC
:1022900088621548008888610B20FEF7B3FF154857
:1022A000048015480088844201DB012000E0002002
:1022B000054612480078002811D0114800784028BF
:1022C0000DDA0F48007840000E490C520E480C49B8
:1022D000097845540A480078401C09490870284686
:1022E00070BD000000E000E00A0000200004005083
:1022F0000C0000201200002010000020150000201B
:10230000140000201C0000209C00002070B5002557
:10231000FFF744FA002409E0FFF7AAFF002803D0E2
:102320000120A0402843C5B2601CC4B2082CF3DBD6
:10233000FFF750FA0A2000F03FFE284670BDFFB5B7
:1023400081B00D4616461F460198FEF7F6FB0028A1
:1023500002D0012005B0F0BDF02000F0A1FDE8B2F0
:1023600000F09EFD281200F09BFD002404E0FFF722
:10237000CDFF3055601CC4B2BC42F8DB00F074F8ED
:102380000020E7E770B50546002403E0002028554B
:10239000601CC4B2082CF9DBFEF702FB00F064F805
:1023A000002804D01AA000F039FE012070BD1EA044
:1023B00000F034FE332000F073FD002404E0FFF74A
:1023C000A5FF2855601CC4B2082CF8DBFEF798FA6C
:1023D0001BA000F023FE002405E0295D1CA000F0F6
:1023E0001DFE601CC4B2082CF7DB08212846FEF74E
:1023F00057FB0646314618A000F010FE082128467B
:10240000FEF74EFB002800D1D0E70120CEE7000008
:102410005265616420524F4D207265736574206669
:1024200061696C65640D0A005265616420524F4D0C
:102430002073656E6420307833330D0A000000008D
:102440005265616420524F4D207261773A0000005E
:10245000202530325800000020435243383D307868
:10246000253032580D0A000010B5FFF77FFB00F051
:102470000FF8FF202D3000F09FFD00F013F8C8206A
:1024800000F09AFD012000F091FD002010BD000039
:102490000248008802498862704700000A00002054
:1024A000000400500248008802498861704700001B
:1024B0000A00002000040050F3B5D3B00C46002001
:1024C00017E08600539DAD5D2D068600761C539F58
:1024D000BE5D360435438600B61CBE5D360235430C
:1024E0008600F61CBE5D3543860003AFBD51451C1A
:1024F000E8B21028E5DB10201CE0C51EAD0003AEDD
:1025000075590646083EB60003AFBE5975400646EB
:102510000E3EB600BE5975400646103EB600BE5986
:1025200075400095009D6E00ED0F2E4385007E5195
:10253000451CE8B25028E0DB2A4D02952A49EA43BF
:10254000CB432A4D0195002040E0142808DA0D46BF
:1025500015401E468E433543254EAD1900951CE0AF
:10256000282806DA0D4655405D40224EAD190095EB
:1025700013E03C280BDA0D4615400E461E4035434D
:1025800016461E4035431C4EAD19009505E00D461C
:1025900055405D40194EAD190095029D6D01029E9A
:1025A000F60E3543019EAD19860003AFBE59AE1934
:1025B000009D75190095019313468D078E083543CC
:1025C0002A460299009D0295451CE8B25028BCDBC2
:1025D000029D25606160A260E360019D256155B0A8
:1025E000F0BD00000123456789ABCDEFF0E1D2C318
:1025F0009979825AA1EBD96EDCBC1B8FD6C162CA15
:1026000001490880704700001000002010B5CC2060
:1026100000F046FC10BDF8B502460B4600250095BB
:1026200004240FE0A5005059002107E0009D6F1C15
:10263000FFB200975855000A4D1CE9B20429F5DB9A
:10264000651EECB2002CEDDC1068002107E0009D57
:102650006F1CFFB200975855000A4D1CE9B20429BF
:10266000F5DBF8BDFEB50D4617461E46FF203E4978
:102670000870002E01D10120FEBD2846FFF776F834
:10268000022801D10120F7E72846FEF749FA002881
:1026900001D00120F0E73846FEF72DFA002801D0DE
:1026A0000120E9E7C02000F0FBFBDE2000F0F8FB92
:1026B000012000F0C3FB012000F0C0FB012000F06E
:1026C000BDFB2A48FEF79EFDCC2000F0E9FB55201B
:1026D00000F0E6FBE8B200F0E3FB281200F0E0FBBC
:1026E000384600F0DDFB052000F060FC002404E02B
:1026F000305D00F0D5FB601CC4B2142CF8DB142054
:1027000000F054FC01A800F0DFF900906846007961
:10271000154908703A46294615A000F07FFC1EA016
:1027200000F07CFC002405E0315D21A000F076FC87
:10273000601CC4B2142CF7DB1FA000F06FFC6846CD
:1027400001791EA000F06AFC0098002803D0FFF772
:102750008BFE012090E7FFF787FE002801D00120C3
:102760008AE7002088E700001600002034080000F7
:10277000537465703520436F707920434D443A207F
:10278000616464723D3078253034582065733D3083
:1027900078253032580D0A00537465703520436F28
:1027A0007079204D41432073656E643A000000004B
:1027B00020253032580000000D0A00005374657067
:1027C0003520436F70792053637261746368706160
:1027D00064207374617475733D3078253032580D00
:1027E0000A000000F0B587B00D4616461F46002DC2
:1027F00006D0002E04D0002F02D00C98002802D161
:10280000012007B0F0BD0D98082801D00120F8E79D
:10281000FF2000F045FBC02000F042FBDE2000F06E
:102820003FFB012000F00AFB012000F007FB012024
:1028300000F004FB2648FEF7E5FCCC2000F030FB5E
:10284000AA2000F02DFBFFF761FD2870FFF75EFD69
:102850003070FFF75BFD3870002405E0FFF756FD90
:102860000C990855601CC4B2082CF7DBFFF74EFD2D
:102870000390FFF74BFD0290029801020398084372
:102880000190AA21684601742978417431788174D5
:102890003978C174002406E00C98015D201D04AA5B
:1028A0001154601CC4B2082CF6DB0C2104A8FEF7FE
:1028B000EFF800900E98002802D00E990198088039
:1028C00000990198884201D001209AE7002098E7FA
:1028D00034080000FFB58BB007460025002407E050
:1028E0003A5D2846691CCDB201A90A54601CC4B2E5
:1028F0000C988442F4DB002408E00D98025D284621
:10290000691CCDB201A90A54601CC4B20E9884425D
:10291000F3DB294601A8FEF7BBF80646314607A0BF
:1029200000F07CFB0AA000F079FB1498864202D0EC
:1029300001200FB0F0BD0020FBE700005241502005
:102940006C6F63616C5F6372633A253034580000CA
:102950000D0A0000FFB58DB007460E461D4600204B
:102960000290032E01D1212D07D02A46314625A001
:1029700000F054FB012011B0F0BD002F02D00F98E1
:10298000002804D12EA000F049FB0120F3E77019C4
:10299000282804D934A000F041FB0120EBE70024F3
:1029A00008E03A5D0298411CC9B2029103A90A5499
:1029B000601CC4B2B442F4DB002409E00F98025D4D
:1029C0000298411CC9B2029103A90A54601CC4B206
:1029D000AC42F3DB03A80299FEF75AF801902B49A9
:1029E0000198484000902AA0009B019A169900F097
:1029F00015FB16990098814201D00120BBE7002009
:102A0000B9E700005241502070616765204352438E
:102A1000204641494C3A20696E76616C6964206CAD
:102A2000656E6774682C207072656669783D2575DF
:102A3000207061796C6F61643D25750D0A0000009E
:102A400052415020706167652043524320464149FE
:102A50004C3A206E756C6C20696E70757420706FC6
:102A6000696E7465720D0A0052415020706167658D
:102A700020435243204641494C3A20696E70757498
:102A800020746F6F206C6F6E670D0A0041E00000CC
:102A90005241502070616765204352433A2062756D
:102AA000733D25303458207374616E646172643DE7
:102AB0002530345820636F6D70617469626C653DB8
:102AC000253034580D0A0000FEB5054688248826B6
:102AD000002001900090002D01D10420FEBD0F20A8
:102AE000287000273AE0FFF711FC0446FFF70EFCC0
:102AF00006462C703346224639461AA000F08EFA5C
:102B000031462046FDF7E8FF002801D12C70E5E7AB
:102B1000002C0CD1002E0AD10198401CC0B20190AB
:102B2000002000900198032813DB0120D6E7FF2C3A
:102B30000CD1FF2E0AD10098401CC0B2009000209A
:102B400001900098032804DB0220C7E700200190D1
:102B50000090012000F02AFA781CC7B2142FC2DBC3
:102B60000320BBE7436F7079206C6F6F705B256447
:102B70005D3A202530325820253032580D0A0000A9
:102B8000FEB504460E460F490F480068FDF7B0FA3F
:102B9000704307460D484069401C01900EE00B4809
:102BA0008569AC4202D3601B009003E001982018B5
:102BB000401B00900098B84200D300E0EFE700BF50
:102BC000FEBD000040420F000000002000E000E0D9
:102BD000FFB589B00D4616461F46002E02D10120D2
:102BE0000DB0F0BD2846FDF79BFF002801D0012065
:102BF000F6E708A80823324629460090099800F015
:102C000064F9002806D06846018C38A000F006FA66
:102C10000120E5E708A8082103AA05AB009201916D
:102C2000029006AA07A90998FFF7DCFD002806D044
:102C30006846018C3BA000F0F1F90120D0E7E8B232
:102C40006946097F884207D0EAB26846017F44A0FE
:102C500000F0E4F90120C3E728126946097E8842A2
:102C600007D02A126846017E4BA000F0D7F9012058
:102C7000B6E76846007DFDF73EFF002806D06846AF
:102C8000017D53A000F0CAF90120A9E700240FE05C
:102C900003A8005D315D884208D0335D03A8025D62
:102CA0002146554800F0BAF9012099E7601CC4B2EA
:102CB000082CEDDB002F02D06846007D3870684696
:102CC000038C027D29464DA000F0A8F9002406E0FF
:102CD00003A8015D57A000F0A1F9601CC4B2082C44
:102CE000F6DB1EA000F09AF9002079E75741565311
:102CF000204641494C5B315D3A20577269746553F7
:102D0000637261746368706164204352432065722A
:102D1000726F722C206372633D3078253034580D09
:102D20000A00000057415653204641494C5B325D32
:102D30003A2053746570355F526561645363726104
:102D400074636870616420435243206572726F72CD
:102D50002C206372633D3078253034580D0A000012
:102D600057415653204641494C5B335D3A2054410C
:102D700031206D69736D617463682C2072656164C4
:102D80003D307825303258206578706563743D3069
:102D900078253032580D0A00574156532046414994
:102DA0004C5B345D3A20544132206D69736D61741F
:102DB00063682C20726561643D307825303258207C
:102DC0006578706563743D3078253032580D0A009F
:102DD00057415653204641494C5B355D3A20452FBB
:102DE0005320696E76616C69642C2065733D307880
:102DF000253032580D0A0000C83D0008574156538F
:102E0000204F4B3A20616464723D3078253034584D
:102E100020452F533D307825303258206372633D72
:102E20003078253034582073637261746368706140
:102E3000643A0000202530325800000070B5044686
:102E400014488569002C0BD0134800881349886208
:102E50000420FEF7D7F9104800881049886114E073
:102E60000D4800880D4988620420FEF7CBF90A4816
:102E700000880A4988610848008888620420FEF7B3
:102E8000C1F9054800880549886136212846FFF7C1
:102E900077FE70BD00E000E00A0000200004005052
:102EA00070B50446FFF7FEFAFEF760FE002506E067
:102EB000E007C00FFFF7C2FF6410681CC5B2082D01
:102EC000F6DB0F20FEF79EF970BDFFB587B00C460C
:102ED0001646002E02D101200BB0F0BD0A9808283A
:102EE00001D00120F8E72046FDF71AFE002801D0A6
:102EF0000120F1E70798FDF720FE002801D001200E
:102F0000EAE70F20FFF7CCFFE0B2FFF7C9FF20127E
:102F1000FFF7C6FF0F2168460174447421128174C3
:102F2000002508E0705DFFF7BBFF715DE81C04AA97
:102F30001154681CC5B2082DF4DBFFF7E7F90390C4
:102F4000FFF7E4F9029002980702039807430B2168
:102F500004A8FDF79DFD01901098002801D010985D
:102F600007800198874201D00120B5E70020B3E730
:102F700070477047704700000948008880B20849D0
:102F8000098AC9050909084306494968090F09075B
:102F9000084304494860C80303498860704700003B
:102FA0008000FF1F0010024000ED00E010B5044655
:102FB0002046FDF785FB10BDFEB50746002F00D16A
:102FC000FEBD134913480068FDF792F804467C43A0
:102FD00000BF11484069401C00900F48866911E00D
:102FE0000D488569AE4202D3701B019003E0009842
:102FF0003018401B01900198A04200D304E00198D2
:10300000241A2E46002CEBD100BF00BFD8E70000E9
:1030100040420F000000002000E000E00FB410B5B7
:1030200003A9044B044A029800F018F810BC08BC2D
:1030300004B01847D13400081800002002E008C886
:10304000121F08C1002AFAD170477047002001E022
:1030500001C1121F002AFBD170470000FFB591B0DB
:103060000F460546002606E025280AD0149A139933
:1030700090476D1C761C28780028F5D1304615B095
:10308000F0BD002400940121F34A029400E00443BF
:103090006D1C2B780846203B98401042F7D12878C9
:1030A0002A280ED0022128780246303A092A15D85B
:1030B000009A0A235A43303A80180C436D1C009042
:1030C000F1E701CF0090002805DA01204003044316
:1030D000009840420090022004436D1C28782E285E
:1030E00015D10420044368786D1C2A280AD101CF29
:1030F0006D1C02900BE002990A22514330394018AE
:103100006D1C02902878014630390929F3D92878B6
:103110006C2810D006DC4C281AD068280ED06A28FB
:1031200017D104E0742813D07A2812D110E00120BE
:10313000400504430CE00121090501E003210905D4
:103140000C436978814203D10120000524186D1CCD
:103150006D1C287803906E281ED00CDC632831D0BB
:1031600004DC00288AD0582811D1B2E064287BD032
:1031700069280CD178E073282DD004DC6F2870D03A
:10318000702804D1A7E075286CD078286BD0149AE9
:1031900013999047761C62E06002400F022807D026
:1031A00003280AD0042838680AD006603F1D56E07C
:1031B0003868F11706604160F8E738680680F5E77F
:1031C0000670F3E73878694608740020487404A84C
:1031D0000390012003E0386803900020C0433F1DA6
:1031E00061070FD5002101E00199491C029A019164
:1031F000914213DA8142F7DB019A0399895C002935
:10320000F2D10BE0002101E00199491C01918142BA
:10321000FADB019A0399895C0029F5D1019900989C
:10322000139A401A00902146149B00F03BF9019933
:103230008019461807E0039803990078491C039108
:10324000149A139990470198401E0190401CF2D1A6
:103250002146149B139A009800F014F986196D1CEE
:1032600009E741E033E034E00A20002104900591B1
:103270006002410F022905D001CFC21794460329ED
:1032800005D007E0FF1DFF08FF0003CF06E000B2F6
:10329000C2179446042902D140B2C1178C460022BD
:1032A0006146944506DA0A460021404291418C4627
:1032B0002D2102E0210504D52B216A46117601213A
:1032C00003E0E10701D02021F7E7019154E00A2053
:1032D0000BE0102009E0102004900021042004439A
:1032E00008200591029003E0082000210591049038
:1032F0006002410F022905D001CF00229446032924
:1033000006D006E0FF1DFF08FF0003CF8C4603E058
:1033100080B2042900D1C0B20021019121072BD530
:103320000399702906D0049A1021059B4A401A433C
:1033300005D00EE040216A461176012108E0614681
:10334000014306D030216A46117603995176022155
:103350000191049A0821059B4A401A430CD1614609
:10336000014301D1610707D530216A461176012159
:1033700001910299491E02910399582904D037A15D
:1033800003910FA90F910DE039A1F9E76146059B63
:10339000049AFCF7F4FE039B8C469B5C0F9A521E2A
:1033A0000F92137061460143F0D10F9807A9081AD4
:1033B00020300390600704D5012000048443029864
:1033C00001E0012002900399884201DD401A00E0EB
:1033D000002041180290019809180098401A0090A6
:1033E000E00306D42146149B139A009800F05AF883
:1033F00086190020049008E006A9085C149A139925
:1034000090470498401C761C049001998842F3DB95
:10341000E0030CD52146149B139A009800F042F863
:10342000861904E0149A302013999047761C02996B
:10343000481E02900029F5DC08E00F980F990078EB
:10344000491C0F91149A13999047761C0399481EB2
:1034500003900029F1DCFBE609280100303132330A
:1034600034353637383961626364656600000000C0
:1034700030313233343536373839414243444546AA
:1034800000000000F8B5044600251E4617468804D3
:1034900004D405E039462020B0476D1C641EF9D5E0
:1034A0002846F8BDFFB50446002581B01E46C80376
:1034B00001D5302700E02027880404D505E03846F0
:1034C0000399B0476D1C641EF9D5284605B0F0BDC0
:1034D0000A46C1B2064B196000BF00BF00BF0449D5
:1034E00009694023194089090029F7D07047000075
:1034F00000480040E6B0D8A103C961916090D8A10E
:1035000003C95F915E90D8A103C95D915C901421BD
:1035100057A8FCF71CFE20214FA8FCF718FEFF203F
:103520004E90D3A103C90A910990D3A103C9089170
:1035300007900020059006900120D14909680143B9
:10354000CF4A1160114609680140039100BF00BFD6
:103550000007CB494039C96B0143C94A403AD1639E
:103560001146C96B0140039100BF00BFFCF76CFE20
:10357000FCF7AEFEC3A0FFF751FDFDF72DFAC948D9
:10358000FFF73EF8FEF754F9002803D0C6A0FFF776
:1035900045FD02E0CBA0FFF741FD64AF64A8FEF754
:1035A000F1FE002810D1CCA0FFF738FD002406E082
:1035B00064A8015DCCA0FFF731FD601CC4B2082CEB
:1035C000F6DBB7A0FFF72AFDC9A0FFF727FDD4A0BF
:1035D000FFF724FD002406E060A8015DC2A0FFF70C
:1035E0001DFD601CC4B2082CF6DBADA0FFF716FD74
:1035F000182333AA88213846FEF7A1FE002811D1EE
:10360000C9A0FFF70BFD002406E033A8015DB6A0BA
:10361000FFF704FD601CC4B2182CF6DBA0A0FFF776
:10362000FDFC02E0C6A0FFF7F9FCA0230BAA0021D5
:103630003846FEF784FE00281DD1C7A0FFF7EEFC38
:10364000002515E06807400F002803D12946CAA0CD
:10365000FFF7E4FC0BA8415DA3A0FFF7DFFC6807C0
:10366000400F072802D18EA0FFF7D8FC681C85B256
:10367000A02DE7DB02E0C2A0FFF7D0FCC9A0FFF756
:10368000CDFC60AA80213846FEF754F9002803D10A
:10369000D1A0FFF7C3FC02E0D5A0FFF7BFFCDBA081
:1036A000FFF7BCFC39A85CAB602260A900903846EB
:1036B000FEF786FA00283ED1E3A0FFF7AFFCEAA0B0
:1036C000FFF7ACFC002406E041A8015D86A0FFF7EF
:1036D000A5FC601CC4B2052CF6DB71A0FFF79EFCB4
:1036E000E4A0FFF79BFC002407E042A80130015D45
:1036F0007DA0FFF793FC601CC4B2142CF5DB68A01E
:10370000FFF78CFCDEA0FFF789FC002407E047A848
:103710000130015D74A0FFF781FC601CC4B2142C61
:10372000F5DB5FA0FFF77AFC40A8828E418ED7A020
:10373000FFF774FC02E0DFA0FFF770FCE6A0FFF7E4
:103740006DFC002406E05EA8015D67A0FFF766FC43
:10375000601CC4B2082CF6DB51A0FFF75FFCE1A0AF
:10376000FFF75CFC4EA857A94FAA60AB00920191ED
:1037700002905EAA00213846FDF7F2F90646E6A05F
:10378000FFF74CFC002406E04FA8015D56A0FFF7B0
:1037900045FC601CC4B2202CF6DB41A0FFF73EFCC8
:1037A000E0A0FFF73BFC002406E057A8015D4EA017
:1037B000FFF734FC601CC4B2142CF6DB38A0FFF712
:1037C0002DFC48A8017EDBA0FFF728FC002E03D1CA
:1037D000E2A0FFF723FC02E0E9A0FFF71FFC0823AB
:1037E00062AA00213846FEF7AAFD00281AD1EEA0F1
:1037F000FFF714FC002406E062A8015D3AA0FFF781
:103800000DFC601CC4B2082CF6DB25A0FFF706FCFB
:10381000002E01D1EBA000E0EBA00146ECA0FFF7E9
:10382000FDFB02E0EFA0FFF7F9FB1DA0FFF7F6FBA1
:10383000F2A0FFF7F3FB4EA857A94FAA60AB009286
:103840000191029009AA00213846FDF789F9F4A0F8
:10385000FFF7E4FBFEA0FFE112345678ABCDEF009A
:1038600018293F4E5D6C7B8AFFFFFFFFFF000000C1
:103870005AC2B18096461077AFF01004A03103C74A
:10388000401002400D0A5052423438302050593313
:1038900032434137302064656D6F207374617274F8
:1038A0000D0A0000DE030000505242343830206917
:1038B0006E69742F7265736574206661696C6564E6
:1038C0000D0A00005052423438302072657365741E
:1038D000204F4B0D0A000000505242343830205225
:1038E0004F4D2049443A0000202530325800000056
:1038F0000D0A3D3D3D3D3D3D3D3D3D3D2053746503
:103900007020322020526561645F6D656D6F727941
:10391000203D3D3D3D3D3D3D3D3D3D0D0A0000000E
:103920005365637265743A00436F6E666967203051
:1039300078303038382D3078303039463A00000051
:103940005265616420636F6E666967206661696CA9
:1039500065640D0A0000000052656164204D656DCC
:103960006F7279203078303030302D307830303907
:10397000463A0D0A000000003078253034583A00ED
:1039800052656164204D656D6F72792030783030FA
:1039900030302D307830303946206661696C65648E
:1039A0000D0A00000D0A3D3D3D3D3D3D3D3D3D3D87
:1039B0002053746570203320206C6F61645F6669EA
:1039C0007273745F736563726574203D3D3D3D3D68
:1039D0003D3D3D3D3D0D0A004C6F616420466972DE
:1039E000737420536563726574204F4B0D0A000099
:1039F0004C6F61642046697273742053656372650D
:103A000074206661696C65640D0A00000D0A3D3D15
:103A10003D3D3D3D3D3D3D3D20537465702034208E
:103A200020726561645F61757468656E7469636155
:103A30007465645F70616765203D3D3D3D3D3D3D82
:103A40003D3D3D0D0A0000005265616420417574E2
:103A500068656E7469636174656420506167652090
:103A60004F4B0D0A000000004368616C6C656E6787
:103A7000653A0000446576696365204D41433A002C
:103A8000486F73742020204D41433A0050616765B0
:103A90002043524331363D3078253034582C204D68
:103AA00041432043524331363D3078253034580D60
:103AB0000A000000526561642041757468656E7487
:103AC0006963617465642050616765206661696C33
:103AD00065640D0A000000005772697465446174E2
:103AE000613A00000D0A3D3D3D3D3D3D3D3D3D3DC2
:103AF000205374657020352020636F70795F736385
:103B00007261746368706164203D3D3D3D3D3D3DA3
:103B10003D3D3D0D0A0000005061676544617461E0
:103B20003A000000486F737420436F7079204D4154
:103B3000433A0000436F7079205363726174636885
:103B40007061642072657475726E2073746174752F
:103B5000733D3078253032580D0A00004175746885
:103B6000656E7469636174656420436F7079205376
:103B7000637261746368706164204F4B0D0A0000CA
:103B800041757468656E7469636174656420436F20
:103B90007079205363726174636870616420666138
:103BA000696C65640D0A000052656164204D656DA5
:103BB0006F72792030783030303020646174613A2F
:103BC000000000004F4B00004641494C45440000B6
:103BD0005772697465207665726966792025730D60
:103BE0000A00000052656164204D656D6F72792096
:103BF0006661696C65640D0A0000000052657772A9
:103C0000697465206261636B20746F20746865203D
:103C10006F726967696E616C20646174610D0A007E
:103C20000D0A3D3D3D3D3D3D3D3D3D3D20537465CF
:103C300070203620204652414D5F56657269667984
:103C4000203D3D3D3D3D3D3D3D3D3D0D0A000000DB
:103C500057726974653A0000FFF7E0F9002406E046
:103C600007A8015D1B48FFF7D9F9601CC4B2082CF6
:103C7000F6DB19A0FFF7D2F905A907A8FDF7CEFAE0
:103C8000049016A0FFF7CAF9002406E005A8015D1C
:103C90001048FFF7C3F9601CC4B2082CF6DB0EA075
:103CA000FFF7BCF90498002803D10EA0FFF7B6F97E
:103CB00002E011A0FFF7B2F914A0FFF7AFF9FEF789
:103CC000E7FBFDF753FF03E0FF202D30FCF7F8FC86
:103CD000FAE70000E83800080D0A00005265616448
:103CE000203A00004652414D20564552494659203F
:103CF0004F4B0D0A000000004652414D20564552E0
:103D0000494659204641494C0D0A00003D3D3D3D84
:103D10003D204652414D2056455249465920454E78
:103D200044203D3D3D3D3D0D0A00000052415020E4
:103D30006368616C6C656E6765206C6F61643A20C6
:103D4000706167653D307825303458207363726147
:103D50007463687061643D253032582025303258D4
:103D60002025303258202530325820253032582036
:103D700025303258202530325820253032580D0A4F
:103D800000000000524150206368616C6C656E67F2
:103D900065207665726966696564206F6E63652C5F
:103DA000206B656570207363726174636870616411
:103DB00020666F722041353A20452F533D307825DB
:103DC0003032580D0A0000005741565320464149F1
:103DD0004C5B365D3A2064617461206D69736D617E
:103DE00074636820696E6465783D2575207265612D
:103DF000643D307825303258206578706563743DB5
:103E00003078253032580D0A00000000436F707979
:103E1000204D414320696E70757420616464723D69
:103E2000307825303458207061676553746172743E
:103E30003D307825303458205441313D307825309C
:103E40003258205441323D30782530325820452FA9
:103E5000533D30782530325820617265613D2573BD
:103E60000D0A0000843E0008000000201C00000035
:103E70003C300008A03E00081C000020C4040000E4
:103E80004C30000800127A000004005002000800C4
:103E900010000400E80300000000FF000000000024
:04000005080000C12E
:00000001FF
